{
	"ex14/inherit.sol": {
		"Audi": {
			"abi": [
				{
					"inputs": [],
					"name": "getDoor",
					"outputs": [
						{
							"internalType": "uint8",
							"name": "",
							"type": "uint8"
						}
					],
					"stateMutability": "view",
					"type": "function"
				},
				{
					"inputs": [],
					"name": "getModel",
					"outputs": [
						{
							"internalType": "string",
							"name": "",
							"type": "string"
						}
					],
					"stateMutability": "view",
					"type": "function"
				}
			],
			"devdoc": {
				"kind": "dev",
				"methods": {},
				"version": 1
			},
			"evm": {
				"assembly": "    /* \"ex14/inherit.sol\":459:625  contract Audi is Car{... */\n  mstore(0x40, 0x80)\n  callvalue\n  dup1\n  iszero\n  tag_1\n  jumpi\n  0x00\n  dup1\n  revert\ntag_1:\n  pop\n  dataSize(sub_0)\n  dup1\n  dataOffset(sub_0)\n  0x00\n  codecopy\n  0x00\n  return\nstop\n\nsub_0: assembly {\n        /* \"ex14/inherit.sol\":459:625  contract Audi is Car{... */\n      mstore(0x40, 0x80)\n      callvalue\n      dup1\n      iszero\n      tag_1\n      jumpi\n      0x00\n      dup1\n      revert\n    tag_1:\n      pop\n      jumpi(tag_2, lt(calldatasize, 0x04))\n      shr(0xe0, calldataload(0x00))\n      dup1\n      0x19e6f3a5\n      eq\n      tag_3\n      jumpi\n      dup1\n      0xa0bfa1e0\n      eq\n      tag_4\n      jumpi\n    tag_2:\n      0x00\n      dup1\n      revert\n        /* \"ex14/inherit.sol\":213:287  function getDoor() public view returns(uint8) {... */\n    tag_3:\n      tag_5\n      tag_6\n      jump\t// in\n    tag_5:\n      mload(0x40)\n      tag_7\n      swap2\n      swap1\n      tag_8\n      jump\t// in\n    tag_7:\n      mload(0x40)\n      dup1\n      swap2\n      sub\n      swap1\n      return\n        /* \"ex14/inherit.sol\":539:623  function getModel() public view returns(string memory) {... */\n    tag_4:\n      tag_9\n      tag_10\n      jump\t// in\n    tag_9:\n      mload(0x40)\n      tag_11\n      swap2\n      swap1\n      tag_12\n      jump\t// in\n    tag_11:\n      mload(0x40)\n      dup1\n      swap2\n      sub\n      swap1\n      return\n        /* \"ex14/inherit.sol\":213:287  function getDoor() public view returns(uint8) {... */\n    tag_6:\n        /* \"ex14/inherit.sol\":252:257  uint8 */\n      0x00\n        /* \"ex14/inherit.sol\":276:280  door */\n      0x01\n      0x00\n      swap1\n      sload\n      swap1\n      0x0100\n      exp\n      swap1\n      div\n      0xff\n      and\n        /* \"ex14/inherit.sol\":269:280  return door */\n      swap1\n      pop\n        /* \"ex14/inherit.sol\":213:287  function getDoor() public view returns(uint8) {... */\n      swap1\n      jump\t// out\n        /* \"ex14/inherit.sol\":539:623  function getModel() public view returns(string memory) {... */\n    tag_10:\n        /* \"ex14/inherit.sol\":579:592  string memory */\n      0x60\n        /* \"ex14/inherit.sol\":611:616  model */\n      0x02\n        /* \"ex14/inherit.sol\":604:616  return model */\n      dup1\n      sload\n      tag_15\n      swap1\n      tag_16\n      jump\t// in\n    tag_15:\n      dup1\n      0x1f\n      add\n      0x20\n      dup1\n      swap2\n      div\n      mul\n      0x20\n      add\n      mload(0x40)\n      swap1\n      dup2\n      add\n      0x40\n      mstore\n      dup1\n      swap3\n      swap2\n      swap1\n      dup2\n      dup2\n      mstore\n      0x20\n      add\n      dup3\n      dup1\n      sload\n      tag_17\n      swap1\n      tag_16\n      jump\t// in\n    tag_17:\n      dup1\n      iszero\n      tag_18\n      jumpi\n      dup1\n      0x1f\n      lt\n      tag_19\n      jumpi\n      0x0100\n      dup1\n      dup4\n      sload\n      div\n      mul\n      dup4\n      mstore\n      swap2\n      0x20\n      add\n      swap2\n      jump(tag_18)\n    tag_19:\n      dup3\n      add\n      swap2\n      swap1\n      0x00\n      mstore\n      keccak256(0x00, 0x20)\n      swap1\n    tag_20:\n      dup2\n      sload\n      dup2\n      mstore\n      swap1\n      0x01\n      add\n      swap1\n      0x20\n      add\n      dup1\n      dup4\n      gt\n      tag_20\n      jumpi\n      dup3\n      swap1\n      sub\n      0x1f\n      and\n      dup3\n      add\n      swap2\n    tag_18:\n      pop\n      pop\n      pop\n      pop\n      pop\n      swap1\n      pop\n        /* \"ex14/inherit.sol\":539:623  function getModel() public view returns(string memory) {... */\n      swap1\n      jump\t// out\n        /* \"#utility.yul\":7:93   */\n    tag_21:\n        /* \"#utility.yul\":42:49   */\n      0x00\n        /* \"#utility.yul\":82:86   */\n      0xff\n        /* \"#utility.yul\":75:80   */\n      dup3\n        /* \"#utility.yul\":71:87   */\n      and\n        /* \"#utility.yul\":60:87   */\n      swap1\n      pop\n        /* \"#utility.yul\":7:93   */\n      swap2\n      swap1\n      pop\n      jump\t// out\n        /* \"#utility.yul\":99:211   */\n    tag_22:\n        /* \"#utility.yul\":182:204   */\n      tag_32\n        /* \"#utility.yul\":198:203   */\n      dup2\n        /* \"#utility.yul\":182:204   */\n      tag_21\n      jump\t// in\n    tag_32:\n        /* \"#utility.yul\":177:180   */\n      dup3\n        /* \"#utility.yul\":170:205   */\n      mstore\n        /* \"#utility.yul\":99:211   */\n      pop\n      pop\n      jump\t// out\n        /* \"#utility.yul\":217:431   */\n    tag_8:\n        /* \"#utility.yul\":306:310   */\n      0x00\n        /* \"#utility.yul\":344:346   */\n      0x20\n        /* \"#utility.yul\":333:342   */\n      dup3\n        /* \"#utility.yul\":329:347   */\n      add\n        /* \"#utility.yul\":321:347   */\n      swap1\n      pop\n        /* \"#utility.yul\":357:424   */\n      tag_34\n        /* \"#utility.yul\":421:422   */\n      0x00\n        /* \"#utility.yul\":410:419   */\n      dup4\n        /* \"#utility.yul\":406:423   */\n      add\n        /* \"#utility.yul\":397:403   */\n      dup5\n        /* \"#utility.yul\":357:424   */\n      tag_22\n      jump\t// in\n    tag_34:\n        /* \"#utility.yul\":217:431   */\n      swap3\n      swap2\n      pop\n      pop\n      jump\t// out\n        /* \"#utility.yul\":437:536   */\n    tag_23:\n        /* \"#utility.yul\":489:495   */\n      0x00\n        /* \"#utility.yul\":523:528   */\n      dup2\n        /* \"#utility.yul\":517:529   */\n      mload\n        /* \"#utility.yul\":507:529   */\n      swap1\n      pop\n        /* \"#utility.yul\":437:536   */\n      swap2\n      swap1\n      pop\n      jump\t// out\n        /* \"#utility.yul\":542:711   */\n    tag_24:\n        /* \"#utility.yul\":626:637   */\n      0x00\n        /* \"#utility.yul\":660:666   */\n      dup3\n        /* \"#utility.yul\":655:658   */\n      dup3\n        /* \"#utility.yul\":648:667   */\n      mstore\n        /* \"#utility.yul\":700:704   */\n      0x20\n        /* \"#utility.yul\":695:698   */\n      dup3\n        /* \"#utility.yul\":691:705   */\n      add\n        /* \"#utility.yul\":676:705   */\n      swap1\n      pop\n        /* \"#utility.yul\":542:711   */\n      swap3\n      swap2\n      pop\n      pop\n      jump\t// out\n        /* \"#utility.yul\":717:963   */\n    tag_25:\n        /* \"#utility.yul\":798:799   */\n      0x00\n        /* \"#utility.yul\":808:921   */\n    tag_38:\n        /* \"#utility.yul\":822:828   */\n      dup4\n        /* \"#utility.yul\":819:820   */\n      dup2\n        /* \"#utility.yul\":816:829   */\n      lt\n        /* \"#utility.yul\":808:921   */\n      iszero\n      tag_40\n      jumpi\n        /* \"#utility.yul\":907:908   */\n      dup1\n        /* \"#utility.yul\":902:905   */\n      dup3\n        /* \"#utility.yul\":898:909   */\n      add\n        /* \"#utility.yul\":892:910   */\n      mload\n        /* \"#utility.yul\":888:889   */\n      dup2\n        /* \"#utility.yul\":883:886   */\n      dup5\n        /* \"#utility.yul\":879:890   */\n      add\n        /* \"#utility.yul\":872:911   */\n      mstore\n        /* \"#utility.yul\":844:846   */\n      0x20\n        /* \"#utility.yul\":841:842   */\n      dup2\n        /* \"#utility.yul\":837:847   */\n      add\n        /* \"#utility.yul\":832:847   */\n      swap1\n      pop\n        /* \"#utility.yul\":808:921   */\n      jump(tag_38)\n    tag_40:\n        /* \"#utility.yul\":955:956   */\n      0x00\n        /* \"#utility.yul\":946:952   */\n      dup5\n        /* \"#utility.yul\":941:944   */\n      dup5\n        /* \"#utility.yul\":937:953   */\n      add\n        /* \"#utility.yul\":930:957   */\n      mstore\n        /* \"#utility.yul\":779:963   */\n      pop\n        /* \"#utility.yul\":717:963   */\n      pop\n      pop\n      pop\n      jump\t// out\n        /* \"#utility.yul\":969:1071   */\n    tag_26:\n        /* \"#utility.yul\":1010:1016   */\n      0x00\n        /* \"#utility.yul\":1061:1063   */\n      0x1f\n        /* \"#utility.yul\":1057:1064   */\n      not\n        /* \"#utility.yul\":1052:1054   */\n      0x1f\n        /* \"#utility.yul\":1045:1050   */\n      dup4\n        /* \"#utility.yul\":1041:1055   */\n      add\n        /* \"#utility.yul\":1037:1065   */\n      and\n        /* \"#utility.yul\":1027:1065   */\n      swap1\n      pop\n        /* \"#utility.yul\":969:1071   */\n      swap2\n      swap1\n      pop\n      jump\t// out\n        /* \"#utility.yul\":1077:1454   */\n    tag_27:\n        /* \"#utility.yul\":1165:1168   */\n      0x00\n        /* \"#utility.yul\":1193:1232   */\n      tag_43\n        /* \"#utility.yul\":1226:1231   */\n      dup3\n        /* \"#utility.yul\":1193:1232   */\n      tag_23\n      jump\t// in\n    tag_43:\n        /* \"#utility.yul\":1248:1319   */\n      tag_44\n        /* \"#utility.yul\":1312:1318   */\n      dup2\n        /* \"#utility.yul\":1307:1310   */\n      dup6\n        /* \"#utility.yul\":1248:1319   */\n      tag_24\n      jump\t// in\n    tag_44:\n        /* \"#utility.yul\":1241:1319   */\n      swap4\n      pop\n        /* \"#utility.yul\":1328:1393   */\n      tag_45\n        /* \"#utility.yul\":1386:1392   */\n      dup2\n        /* \"#utility.yul\":1381:1384   */\n      dup6\n        /* \"#utility.yul\":1374:1378   */\n      0x20\n        /* \"#utility.yul\":1367:1372   */\n      dup7\n        /* \"#utility.yul\":1363:1379   */\n      add\n        /* \"#utility.yul\":1328:1393   */\n      tag_25\n      jump\t// in\n    tag_45:\n        /* \"#utility.yul\":1418:1447   */\n      tag_46\n        /* \"#utility.yul\":1440:1446   */\n      dup2\n        /* \"#utility.yul\":1418:1447   */\n      tag_26\n      jump\t// in\n    tag_46:\n        /* \"#utility.yul\":1413:1416   */\n      dup5\n        /* \"#utility.yul\":1409:1448   */\n      add\n        /* \"#utility.yul\":1402:1448   */\n      swap2\n      pop\n        /* \"#utility.yul\":1169:1454   */\n      pop\n        /* \"#utility.yul\":1077:1454   */\n      swap3\n      swap2\n      pop\n      pop\n      jump\t// out\n        /* \"#utility.yul\":1460:1773   */\n    tag_12:\n        /* \"#utility.yul\":1573:1577   */\n      0x00\n        /* \"#utility.yul\":1611:1613   */\n      0x20\n        /* \"#utility.yul\":1600:1609   */\n      dup3\n        /* \"#utility.yul\":1596:1614   */\n      add\n        /* \"#utility.yul\":1588:1614   */\n      swap1\n      pop\n        /* \"#utility.yul\":1660:1669   */\n      dup2\n        /* \"#utility.yul\":1654:1658   */\n      dup2\n        /* \"#utility.yul\":1650:1670   */\n      sub\n        /* \"#utility.yul\":1646:1647   */\n      0x00\n        /* \"#utility.yul\":1635:1644   */\n      dup4\n        /* \"#utility.yul\":1631:1648   */\n      add\n        /* \"#utility.yul\":1624:1671   */\n      mstore\n        /* \"#utility.yul\":1688:1766   */\n      tag_48\n        /* \"#utility.yul\":1761:1765   */\n      dup2\n        /* \"#utility.yul\":1752:1758   */\n      dup5\n        /* \"#utility.yul\":1688:1766   */\n      tag_27\n      jump\t// in\n    tag_48:\n        /* \"#utility.yul\":1680:1766   */\n      swap1\n      pop\n        /* \"#utility.yul\":1460:1773   */\n      swap3\n      swap2\n      pop\n      pop\n      jump\t// out\n        /* \"#utility.yul\":1779:1959   */\n    tag_28:\n        /* \"#utility.yul\":1827:1904   */\n      0x4e487b7100000000000000000000000000000000000000000000000000000000\n        /* \"#utility.yul\":1824:1825   */\n      0x00\n        /* \"#utility.yul\":1817:1905   */\n      mstore\n        /* \"#utility.yul\":1924:1928   */\n      0x22\n        /* \"#utility.yul\":1921:1922   */\n      0x04\n        /* \"#utility.yul\":1914:1929   */\n      mstore\n        /* \"#utility.yul\":1948:1952   */\n      0x24\n        /* \"#utility.yul\":1945:1946   */\n      0x00\n        /* \"#utility.yul\":1938:1953   */\n      revert\n        /* \"#utility.yul\":1965:2285   */\n    tag_16:\n        /* \"#utility.yul\":2009:2015   */\n      0x00\n        /* \"#utility.yul\":2046:2047   */\n      0x02\n        /* \"#utility.yul\":2040:2044   */\n      dup3\n        /* \"#utility.yul\":2036:2048   */\n      div\n        /* \"#utility.yul\":2026:2048   */\n      swap1\n      pop\n        /* \"#utility.yul\":2093:2094   */\n      0x01\n        /* \"#utility.yul\":2087:2091   */\n      dup3\n        /* \"#utility.yul\":2083:2095   */\n      and\n        /* \"#utility.yul\":2114:2132   */\n      dup1\n        /* \"#utility.yul\":2104:2185   */\n      tag_51\n      jumpi\n        /* \"#utility.yul\":2170:2174   */\n      0x7f\n        /* \"#utility.yul\":2162:2168   */\n      dup3\n        /* \"#utility.yul\":2158:2175   */\n      and\n        /* \"#utility.yul\":2148:2175   */\n      swap2\n      pop\n        /* \"#utility.yul\":2104:2185   */\n    tag_51:\n        /* \"#utility.yul\":2232:2234   */\n      0x20\n        /* \"#utility.yul\":2224:2230   */\n      dup3\n        /* \"#utility.yul\":2221:2235   */\n      lt\n        /* \"#utility.yul\":2201:2219   */\n      dup2\n        /* \"#utility.yul\":2198:2236   */\n      sub\n        /* \"#utility.yul\":2195:2279   */\n      tag_52\n      jumpi\n        /* \"#utility.yul\":2251:2269   */\n      tag_53\n      tag_28\n      jump\t// in\n    tag_53:\n        /* \"#utility.yul\":2195:2279   */\n    tag_52:\n        /* \"#utility.yul\":2016:2285   */\n      pop\n        /* \"#utility.yul\":1965:2285   */\n      swap2\n      swap1\n      pop\n      jump\t// out\n\n    auxdata: 0xa26469706673582212206db4dee61f7bb2783844a126f35a57cd231274165a7f02a96228425dfa86562064736f6c63430008120033\n}\n",
				"bytecode": {
					"linkReferences": {},
					"object": "608060405234801561001057600080fd5b5061029f806100206000396000f3fe608060405234801561001057600080fd5b50600436106100365760003560e01c806319e6f3a51461003b578063a0bfa1e014610059575b600080fd5b610043610077565b604051610050919061013c565b60405180910390f35b61006161008e565b60405161006e91906101e7565b60405180910390f35b6000600160009054906101000a900460ff16905090565b60606002805461009d90610238565b80601f01602080910402602001604051908101604052809291908181526020018280546100c990610238565b80156101165780601f106100eb57610100808354040283529160200191610116565b820191906000526020600020905b8154815290600101906020018083116100f957829003601f168201915b5050505050905090565b600060ff82169050919050565b61013681610120565b82525050565b6000602082019050610151600083018461012d565b92915050565b600081519050919050565b600082825260208201905092915050565b60005b83811015610191578082015181840152602081019050610176565b60008484015250505050565b6000601f19601f8301169050919050565b60006101b982610157565b6101c38185610162565b93506101d3818560208601610173565b6101dc8161019d565b840191505092915050565b6000602082019050818103600083015261020181846101ae565b905092915050565b7f4e487b7100000000000000000000000000000000000000000000000000000000600052602260045260246000fd5b6000600282049050600182168061025057607f821691505b60208210810361026357610262610209565b5b5091905056fea26469706673582212206db4dee61f7bb2783844a126f35a57cd231274165a7f02a96228425dfa86562064736f6c63430008120033",
					"opcodes": "PUSH1 0x80 PUSH1 0x40 MSTORE CALLVALUE DUP1 ISZERO PUSH2 0x10 JUMPI PUSH1 0x0 DUP1 REVERT JUMPDEST POP PUSH2 0x29F DUP1 PUSH2 0x20 PUSH1 0x0 CODECOPY PUSH1 0x0 RETURN INVALID PUSH1 0x80 PUSH1 0x40 MSTORE CALLVALUE DUP1 ISZERO PUSH2 0x10 JUMPI PUSH1 0x0 DUP1 REVERT JUMPDEST POP PUSH1 0x4 CALLDATASIZE LT PUSH2 0x36 JUMPI PUSH1 0x0 CALLDATALOAD PUSH1 0xE0 SHR DUP1 PUSH4 0x19E6F3A5 EQ PUSH2 0x3B JUMPI DUP1 PUSH4 0xA0BFA1E0 EQ PUSH2 0x59 JUMPI JUMPDEST PUSH1 0x0 DUP1 REVERT JUMPDEST PUSH2 0x43 PUSH2 0x77 JUMP JUMPDEST PUSH1 0x40 MLOAD PUSH2 0x50 SWAP2 SWAP1 PUSH2 0x13C JUMP JUMPDEST PUSH1 0x40 MLOAD DUP1 SWAP2 SUB SWAP1 RETURN JUMPDEST PUSH2 0x61 PUSH2 0x8E JUMP JUMPDEST PUSH1 0x40 MLOAD PUSH2 0x6E SWAP2 SWAP1 PUSH2 0x1E7 JUMP JUMPDEST PUSH1 0x40 MLOAD DUP1 SWAP2 SUB SWAP1 RETURN JUMPDEST PUSH1 0x0 PUSH1 0x1 PUSH1 0x0 SWAP1 SLOAD SWAP1 PUSH2 0x100 EXP SWAP1 DIV PUSH1 0xFF AND SWAP1 POP SWAP1 JUMP JUMPDEST PUSH1 0x60 PUSH1 0x2 DUP1 SLOAD PUSH2 0x9D SWAP1 PUSH2 0x238 JUMP JUMPDEST DUP1 PUSH1 0x1F ADD PUSH1 0x20 DUP1 SWAP2 DIV MUL PUSH1 0x20 ADD PUSH1 0x40 MLOAD SWAP1 DUP2 ADD PUSH1 0x40 MSTORE DUP1 SWAP3 SWAP2 SWAP1 DUP2 DUP2 MSTORE PUSH1 0x20 ADD DUP3 DUP1 SLOAD PUSH2 0xC9 SWAP1 PUSH2 0x238 JUMP JUMPDEST DUP1 ISZERO PUSH2 0x116 JUMPI DUP1 PUSH1 0x1F LT PUSH2 0xEB JUMPI PUSH2 0x100 DUP1 DUP4 SLOAD DIV MUL DUP4 MSTORE SWAP2 PUSH1 0x20 ADD SWAP2 PUSH2 0x116 JUMP JUMPDEST DUP3 ADD SWAP2 SWAP1 PUSH1 0x0 MSTORE PUSH1 0x20 PUSH1 0x0 KECCAK256 SWAP1 JUMPDEST DUP2 SLOAD DUP2 MSTORE SWAP1 PUSH1 0x1 ADD SWAP1 PUSH1 0x20 ADD DUP1 DUP4 GT PUSH2 0xF9 JUMPI DUP3 SWAP1 SUB PUSH1 0x1F AND DUP3 ADD SWAP2 JUMPDEST POP POP POP POP POP SWAP1 POP SWAP1 JUMP JUMPDEST PUSH1 0x0 PUSH1 0xFF DUP3 AND SWAP1 POP SWAP2 SWAP1 POP JUMP JUMPDEST PUSH2 0x136 DUP2 PUSH2 0x120 JUMP JUMPDEST DUP3 MSTORE POP POP JUMP JUMPDEST PUSH1 0x0 PUSH1 0x20 DUP3 ADD SWAP1 POP PUSH2 0x151 PUSH1 0x0 DUP4 ADD DUP5 PUSH2 0x12D JUMP JUMPDEST SWAP3 SWAP2 POP POP JUMP JUMPDEST PUSH1 0x0 DUP2 MLOAD SWAP1 POP SWAP2 SWAP1 POP JUMP JUMPDEST PUSH1 0x0 DUP3 DUP3 MSTORE PUSH1 0x20 DUP3 ADD SWAP1 POP SWAP3 SWAP2 POP POP JUMP JUMPDEST PUSH1 0x0 JUMPDEST DUP4 DUP2 LT ISZERO PUSH2 0x191 JUMPI DUP1 DUP3 ADD MLOAD DUP2 DUP5 ADD MSTORE PUSH1 0x20 DUP2 ADD SWAP1 POP PUSH2 0x176 JUMP JUMPDEST PUSH1 0x0 DUP5 DUP5 ADD MSTORE POP POP POP POP JUMP JUMPDEST PUSH1 0x0 PUSH1 0x1F NOT PUSH1 0x1F DUP4 ADD AND SWAP1 POP SWAP2 SWAP1 POP JUMP JUMPDEST PUSH1 0x0 PUSH2 0x1B9 DUP3 PUSH2 0x157 JUMP JUMPDEST PUSH2 0x1C3 DUP2 DUP6 PUSH2 0x162 JUMP JUMPDEST SWAP4 POP PUSH2 0x1D3 DUP2 DUP6 PUSH1 0x20 DUP7 ADD PUSH2 0x173 JUMP JUMPDEST PUSH2 0x1DC DUP2 PUSH2 0x19D JUMP JUMPDEST DUP5 ADD SWAP2 POP POP SWAP3 SWAP2 POP POP JUMP JUMPDEST PUSH1 0x0 PUSH1 0x20 DUP3 ADD SWAP1 POP DUP2 DUP2 SUB PUSH1 0x0 DUP4 ADD MSTORE PUSH2 0x201 DUP2 DUP5 PUSH2 0x1AE JUMP JUMPDEST SWAP1 POP SWAP3 SWAP2 POP POP JUMP JUMPDEST PUSH32 0x4E487B7100000000000000000000000000000000000000000000000000000000 PUSH1 0x0 MSTORE PUSH1 0x22 PUSH1 0x4 MSTORE PUSH1 0x24 PUSH1 0x0 REVERT JUMPDEST PUSH1 0x0 PUSH1 0x2 DUP3 DIV SWAP1 POP PUSH1 0x1 DUP3 AND DUP1 PUSH2 0x250 JUMPI PUSH1 0x7F DUP3 AND SWAP2 POP JUMPDEST PUSH1 0x20 DUP3 LT DUP2 SUB PUSH2 0x263 JUMPI PUSH2 0x262 PUSH2 0x209 JUMP JUMPDEST JUMPDEST POP SWAP2 SWAP1 POP JUMP INVALID LOG2 PUSH5 0x6970667358 0x22 SLT KECCAK256 PUSH14 0xB4DEE61F7BB2783844A126F35A57 0xCD 0x23 SLT PUSH21 0x165A7F02A96228425DFA86562064736F6C63430008 SLT STOP CALLER "
				},
				"gasEstimates": {
					"creation": {
						"codeDepositCost": "134200",
						"executionCost": "177",
						"totalCost": "134377"
					},
					"external": {
						"getDoor()": "2457",
						"getModel()": "infinite"
					}
				},
				"methodIdentifiers": {
					"getDoor()": "19e6f3a5",
					"getModel()": "a0bfa1e0"
				}
			},
			"storageLayout": {
				"storage": [
					{
						"astId": 3,
						"contract": "ex14/inherit.sol:Audi",
						"label": "type_",
						"offset": 0,
						"slot": "0",
						"type": "t_string_storage"
					},
					{
						"astId": 5,
						"contract": "ex14/inherit.sol:Audi",
						"label": "door",
						"offset": 0,
						"slot": "1",
						"type": "t_uint8"
					},
					{
						"astId": 33,
						"contract": "ex14/inherit.sol:Audi",
						"label": "model",
						"offset": 0,
						"slot": "2",
						"type": "t_string_storage"
					},
					{
						"astId": 35,
						"contract": "ex14/inherit.sol:Audi",
						"label": "owner",
						"offset": 0,
						"slot": "3",
						"type": "t_address"
					}
				],
				"types": {
					"t_address": {
						"encoding": "inplace",
						"label": "address",
						"numberOfBytes": "20"
					},
					"t_string_storage": {
						"encoding": "bytes",
						"label": "string",
						"numberOfBytes": "32"
					},
					"t_uint8": {
						"encoding": "inplace",
						"label": "uint8",
						"numberOfBytes": "1"
					}
				}
			},
			"userdoc": {
				"kind": "user",
				"methods": {},
				"version": 1
			}
		}
	}
}