{
	"data": {
		"bytecode": {
			"linkReferences": {},
			"object": "608060405234801561001057600080fd5b50610403806100206000396000f3fe608060405234801561001057600080fd5b50600436106100625760003560e01c80633257f9291461006757806344f5c17e14610071578063656687001461008f57806393daa367146100ad578063addf3804146100b7578063b1b93471146100c1575b600080fd5b61006f6100cb565b005b6100796100db565b60405161008691906101fb565b60405180910390f35b6100976100e1565b6040516100a491906102a6565b60405180910390f35b6100b561016f565b005b6100bf610190565b005b6100c96101ab565b005b6000606490506000600190505050565b60005481565b600180546100ee906102f7565b80601f016020809104026020016040519081016040528092919081815260200182805461011a906102f7565b80156101675780601f1061013c57610100808354040283529160200191610167565b820191906000526020600020905b81548152906001019060200180831161014a57829003601f168201915b505050505081565b60006001905060008180156101815750805b50818061018b5750805b505050565b60016000808282546101a29190610357565b92505081905550565b6000600190506000670de0b6b3a7640000826101c7919061038b565b90506000633b9aca00836101db919061038b565b9050505050565b6000819050919050565b6101f5816101e2565b82525050565b600060208201905061021060008301846101ec565b92915050565b600081519050919050565b600082825260208201905092915050565b60005b83811015610250578082015181840152602081019050610235565b60008484015250505050565b6000601f19601f8301169050919050565b600061027882610216565b6102828185610221565b9350610292818560208601610232565b61029b8161025c565b840191505092915050565b600060208201905081810360008301526102c0818461026d565b905092915050565b7f4e487b7100000000000000000000000000000000000000000000000000000000600052602260045260246000fd5b6000600282049050600182168061030f57607f821691505b602082108103610322576103216102c8565b5b50919050565b7f4e487b7100000000000000000000000000000000000000000000000000000000600052601160045260246000fd5b6000610362826101e2565b915061036d836101e2565b925082820190508082111561038557610384610328565b5b92915050565b6000610396826101e2565b91506103a1836101e2565b92508282026103af816101e2565b915082820484148315176103c6576103c5610328565b5b509291505056fea2646970667358221220b701ab5fe3b287298b072e0e0f845723d3669d7b45b05309fd625c95c8231dcc64736f6c63430008120033",
			"opcodes": "PUSH1 0x80 PUSH1 0x40 MSTORE CALLVALUE DUP1 ISZERO PUSH2 0x10 JUMPI PUSH1 0x0 DUP1 REVERT JUMPDEST POP PUSH2 0x403 DUP1 PUSH2 0x20 PUSH1 0x0 CODECOPY PUSH1 0x0 RETURN INVALID PUSH1 0x80 PUSH1 0x40 MSTORE CALLVALUE DUP1 ISZERO PUSH2 0x10 JUMPI PUSH1 0x0 DUP1 REVERT JUMPDEST POP PUSH1 0x4 CALLDATASIZE LT PUSH2 0x62 JUMPI PUSH1 0x0 CALLDATALOAD PUSH1 0xE0 SHR DUP1 PUSH4 0x3257F929 EQ PUSH2 0x67 JUMPI DUP1 PUSH4 0x44F5C17E EQ PUSH2 0x71 JUMPI DUP1 PUSH4 0x65668700 EQ PUSH2 0x8F JUMPI DUP1 PUSH4 0x93DAA367 EQ PUSH2 0xAD JUMPI DUP1 PUSH4 0xADDF3804 EQ PUSH2 0xB7 JUMPI DUP1 PUSH4 0xB1B93471 EQ PUSH2 0xC1 JUMPI JUMPDEST PUSH1 0x0 DUP1 REVERT JUMPDEST PUSH2 0x6F PUSH2 0xCB JUMP JUMPDEST STOP JUMPDEST PUSH2 0x79 PUSH2 0xDB JUMP JUMPDEST PUSH1 0x40 MLOAD PUSH2 0x86 SWAP2 SWAP1 PUSH2 0x1FB JUMP JUMPDEST PUSH1 0x40 MLOAD DUP1 SWAP2 SUB SWAP1 RETURN JUMPDEST PUSH2 0x97 PUSH2 0xE1 JUMP JUMPDEST PUSH1 0x40 MLOAD PUSH2 0xA4 SWAP2 SWAP1 PUSH2 0x2A6 JUMP JUMPDEST PUSH1 0x40 MLOAD DUP1 SWAP2 SUB SWAP1 RETURN JUMPDEST PUSH2 0xB5 PUSH2 0x16F JUMP JUMPDEST STOP JUMPDEST PUSH2 0xBF PUSH2 0x190 JUMP JUMPDEST STOP JUMPDEST PUSH2 0xC9 PUSH2 0x1AB JUMP JUMPDEST STOP JUMPDEST PUSH1 0x0 PUSH1 0x64 SWAP1 POP PUSH1 0x0 PUSH1 0x1 SWAP1 POP POP POP JUMP JUMPDEST PUSH1 0x0 SLOAD DUP2 JUMP JUMPDEST PUSH1 0x1 DUP1 SLOAD PUSH2 0xEE SWAP1 PUSH2 0x2F7 JUMP JUMPDEST DUP1 PUSH1 0x1F ADD PUSH1 0x20 DUP1 SWAP2 DIV MUL PUSH1 0x20 ADD PUSH1 0x40 MLOAD SWAP1 DUP2 ADD PUSH1 0x40 MSTORE DUP1 SWAP3 SWAP2 SWAP1 DUP2 DUP2 MSTORE PUSH1 0x20 ADD DUP3 DUP1 SLOAD PUSH2 0x11A SWAP1 PUSH2 0x2F7 JUMP JUMPDEST DUP1 ISZERO PUSH2 0x167 JUMPI DUP1 PUSH1 0x1F LT PUSH2 0x13C JUMPI PUSH2 0x100 DUP1 DUP4 SLOAD DIV MUL DUP4 MSTORE SWAP2 PUSH1 0x20 ADD SWAP2 PUSH2 0x167 JUMP JUMPDEST DUP3 ADD SWAP2 SWAP1 PUSH1 0x0 MSTORE PUSH1 0x20 PUSH1 0x0 KECCAK256 SWAP1 JUMPDEST DUP2 SLOAD DUP2 MSTORE SWAP1 PUSH1 0x1 ADD SWAP1 PUSH1 0x20 ADD DUP1 DUP4 GT PUSH2 0x14A JUMPI DUP3 SWAP1 SUB PUSH1 0x1F AND DUP3 ADD SWAP2 JUMPDEST POP POP POP POP POP DUP2 JUMP JUMPDEST PUSH1 0x0 PUSH1 0x1 SWAP1 POP PUSH1 0x0 DUP2 DUP1 ISZERO PUSH2 0x181 JUMPI POP DUP1 JUMPDEST POP DUP2 DUP1 PUSH2 0x18B JUMPI POP DUP1 JUMPDEST POP POP POP JUMP JUMPDEST PUSH1 0x1 PUSH1 0x0 DUP1 DUP3 DUP3 SLOAD PUSH2 0x1A2 SWAP2 SWAP1 PUSH2 0x357 JUMP JUMPDEST SWAP3 POP POP DUP2 SWAP1 SSTORE POP JUMP JUMPDEST PUSH1 0x0 PUSH1 0x1 SWAP1 POP PUSH1 0x0 PUSH8 0xDE0B6B3A7640000 DUP3 PUSH2 0x1C7 SWAP2 SWAP1 PUSH2 0x38B JUMP JUMPDEST SWAP1 POP PUSH1 0x0 PUSH4 0x3B9ACA00 DUP4 PUSH2 0x1DB SWAP2 SWAP1 PUSH2 0x38B JUMP JUMPDEST SWAP1 POP POP POP POP JUMP JUMPDEST PUSH1 0x0 DUP2 SWAP1 POP SWAP2 SWAP1 POP JUMP JUMPDEST PUSH2 0x1F5 DUP2 PUSH2 0x1E2 JUMP JUMPDEST DUP3 MSTORE POP POP JUMP JUMPDEST PUSH1 0x0 PUSH1 0x20 DUP3 ADD SWAP1 POP PUSH2 0x210 PUSH1 0x0 DUP4 ADD DUP5 PUSH2 0x1EC JUMP JUMPDEST SWAP3 SWAP2 POP POP JUMP JUMPDEST PUSH1 0x0 DUP2 MLOAD SWAP1 POP SWAP2 SWAP1 POP JUMP JUMPDEST PUSH1 0x0 DUP3 DUP3 MSTORE PUSH1 0x20 DUP3 ADD SWAP1 POP SWAP3 SWAP2 POP POP JUMP JUMPDEST PUSH1 0x0 JUMPDEST DUP4 DUP2 LT ISZERO PUSH2 0x250 JUMPI DUP1 DUP3 ADD MLOAD DUP2 DUP5 ADD MSTORE PUSH1 0x20 DUP2 ADD SWAP1 POP PUSH2 0x235 JUMP JUMPDEST PUSH1 0x0 DUP5 DUP5 ADD MSTORE POP POP POP POP JUMP JUMPDEST PUSH1 0x0 PUSH1 0x1F NOT PUSH1 0x1F DUP4 ADD AND SWAP1 POP SWAP2 SWAP1 POP JUMP JUMPDEST PUSH1 0x0 PUSH2 0x278 DUP3 PUSH2 0x216 JUMP JUMPDEST PUSH2 0x282 DUP2 DUP6 PUSH2 0x221 JUMP JUMPDEST SWAP4 POP PUSH2 0x292 DUP2 DUP6 PUSH1 0x20 DUP7 ADD PUSH2 0x232 JUMP JUMPDEST PUSH2 0x29B DUP2 PUSH2 0x25C JUMP JUMPDEST DUP5 ADD SWAP2 POP POP SWAP3 SWAP2 POP POP JUMP JUMPDEST PUSH1 0x0 PUSH1 0x20 DUP3 ADD SWAP1 POP DUP2 DUP2 SUB PUSH1 0x0 DUP4 ADD MSTORE PUSH2 0x2C0 DUP2 DUP5 PUSH2 0x26D JUMP JUMPDEST SWAP1 POP SWAP3 SWAP2 POP POP JUMP JUMPDEST PUSH32 0x4E487B7100000000000000000000000000000000000000000000000000000000 PUSH1 0x0 MSTORE PUSH1 0x22 PUSH1 0x4 MSTORE PUSH1 0x24 PUSH1 0x0 REVERT JUMPDEST PUSH1 0x0 PUSH1 0x2 DUP3 DIV SWAP1 POP PUSH1 0x1 DUP3 AND DUP1 PUSH2 0x30F JUMPI PUSH1 0x7F DUP3 AND SWAP2 POP JUMPDEST PUSH1 0x20 DUP3 LT DUP2 SUB PUSH2 0x322 JUMPI PUSH2 0x321 PUSH2 0x2C8 JUMP JUMPDEST JUMPDEST POP SWAP2 SWAP1 POP JUMP JUMPDEST PUSH32 0x4E487B7100000000000000000000000000000000000000000000000000000000 PUSH1 0x0 MSTORE PUSH1 0x11 PUSH1 0x4 MSTORE PUSH1 0x24 PUSH1 0x0 REVERT JUMPDEST PUSH1 0x0 PUSH2 0x362 DUP3 PUSH2 0x1E2 JUMP JUMPDEST SWAP2 POP PUSH2 0x36D DUP4 PUSH2 0x1E2 JUMP JUMPDEST SWAP3 POP DUP3 DUP3 ADD SWAP1 POP DUP1 DUP3 GT ISZERO PUSH2 0x385 JUMPI PUSH2 0x384 PUSH2 0x328 JUMP JUMPDEST JUMPDEST SWAP3 SWAP2 POP POP JUMP JUMPDEST PUSH1 0x0 PUSH2 0x396 DUP3 PUSH2 0x1E2 JUMP JUMPDEST SWAP2 POP PUSH2 0x3A1 DUP4 PUSH2 0x1E2 JUMP JUMPDEST SWAP3 POP DUP3 DUP3 MUL PUSH2 0x3AF DUP2 PUSH2 0x1E2 JUMP JUMPDEST SWAP2 POP DUP3 DUP3 DIV DUP5 EQ DUP4 ISZERO OR PUSH2 0x3C6 JUMPI PUSH2 0x3C5 PUSH2 0x328 JUMP JUMPDEST JUMPDEST POP SWAP3 SWAP2 POP POP JUMP INVALID LOG2 PUSH5 0x6970667358 0x22 SLT KECCAK256 0xB7 ADD 0xAB 0x5F 0xE3 0xB2 DUP8 0x29 DUP12 SMOD 0x2E 0xE 0xF DUP5 JUMPI 0x23 0xD3 PUSH7 0x9D7B45B05309FD PUSH3 0x5C95C8 0x23 SAR 0xCC PUSH5 0x736F6C6343 STOP ADDMOD SLT STOP CALLER "
		},
		"gasEstimates": {
			"creation": {
				"codeDepositCost": "205400",
				"executionCost": "251",
				"totalCost": "205651"
			},
			"external": {
				"intData()": "2429",
				"logical()": "258",
				"logical2()": "148",
				"math()": "infinite",
				"stringData()": "infinite",
				"weiToEth()": "infinite"
			}
		},
		"methodIdentifiers": {
			"intData()": "44f5c17e",
			"logical()": "93daa367",
			"logical2()": "3257f929",
			"math()": "addf3804",
			"stringData()": "65668700",
			"weiToEth()": "b1b93471"
		}
	},
	"abi": [
		{
			"inputs": [],
			"name": "intData",
			"outputs": [
				{
					"internalType": "uint256",
					"name": "",
					"type": "uint256"
				}
			],
			"stateMutability": "view",
			"type": "function"
		},
		{
			"inputs": [],
			"name": "logical",
			"outputs": [],
			"stateMutability": "nonpayable",
			"type": "function"
		},
		{
			"inputs": [],
			"name": "logical2",
			"outputs": [],
			"stateMutability": "nonpayable",
			"type": "function"
		},
		{
			"inputs": [],
			"name": "math",
			"outputs": [],
			"stateMutability": "nonpayable",
			"type": "function"
		},
		{
			"inputs": [],
			"name": "stringData",
			"outputs": [
				{
					"internalType": "string",
					"name": "",
					"type": "string"
				}
			],
			"stateMutability": "view",
			"type": "function"
		},
		{
			"inputs": [],
			"name": "weiToEth",
			"outputs": [],
			"stateMutability": "nonpayable",
			"type": "function"
		}
	]
}