{
	"data": {
		"bytecode": {
			"linkReferences": {},
			"object": "60806040523480156200001157600080fd5b50604051620009bf380380620009bf8339818101604052810190620000379190620002d9565b6040518060400160405280600381526020017f73757600000000000000000000000000000000000000000000000000000000008152506004612710826000908162000083919062000580565b5081600160006101000a81548160ff021916908360ff160217905550806002819055505050508160039081620000ba919062000580565b5033600460006101000a81548173ffffffffffffffffffffffffffffffffffffffff021916908373ffffffffffffffffffffffffffffffffffffffff16021790555080600581905550505062000667565b6000604051905090565b600080fd5b600080fd5b600080fd5b600080fd5b6000601f19601f8301169050919050565b7f4e487b7100000000000000000000000000000000000000000000000000000000600052604160045260246000fd5b620001748262000129565b810181811067ffffffffffffffff821117156200019657620001956200013a565b5b80604052505050565b6000620001ab6200010b565b9050620001b9828262000169565b919050565b600067ffffffffffffffff821115620001dc57620001db6200013a565b5b620001e78262000129565b9050602081019050919050565b60005b8381101562000214578082015181840152602081019050620001f7565b60008484015250505050565b6000620002376200023184620001be565b6200019f565b90508281526020810184848401111562000256576200025562000124565b5b62000263848285620001f4565b509392505050565b600082601f8301126200028357620002826200011f565b5b81516200029584826020860162000220565b91505092915050565b6000819050919050565b620002b3816200029e565b8114620002bf57600080fd5b50565b600081519050620002d381620002a8565b92915050565b60008060408385031215620002f357620002f262000115565b5b600083015167ffffffffffffffff8111156200031457620003136200011a565b5b62000322858286016200026b565b92505060206200033585828601620002c2565b9150509250929050565b600081519050919050565b7f4e487b7100000000000000000000000000000000000000000000000000000000600052602260045260246000fd5b600060028204905060018216806200039257607f821691505b602082108103620003a857620003a76200034a565b5b50919050565b60008190508160005260206000209050919050565b60006020601f8301049050919050565b600082821b905092915050565b600060088302620004127fffffffffffffffffffffffffffffffffffffffffffffffffffffffffffffffff82620003d3565b6200041e8683620003d3565b95508019841693508086168417925050509392505050565b6000819050919050565b6000620004616200045b62000455846200029e565b62000436565b6200029e565b9050919050565b6000819050919050565b6200047d8362000440565b620004956200048c8262000468565b848454620003e0565b825550505050565b600090565b620004ac6200049d565b620004b981848462000472565b505050565b5b81811015620004e157620004d5600082620004a2565b600181019050620004bf565b5050565b601f8211156200053057620004fa81620003ae565b6200050584620003c3565b8101602085101562000515578190505b6200052d6200052485620003c3565b830182620004be565b50505b505050565b600082821c905092915050565b6000620005556000198460080262000535565b1980831691505092915050565b600062000570838362000542565b9150826002028217905092915050565b6200058b826200033f565b67ffffffffffffffff811115620005a757620005a66200013a565b5b620005b3825462000379565b620005c0828285620004e5565b600060209050601f831160018114620005f85760008415620005e3578287015190505b620005ef858262000562565b8655506200065f565b601f1984166200060886620003ae565b60005b8281101562000632578489015182556001820191506020850194506020810190506200060b565b868310156200065257848901516200064e601f89168262000542565b8355505b6001600288020188555050505b505050505050565b61034880620006776000396000f3fe608060405234801561001057600080fd5b506004361061004c5760003560e01c806319e6f3a5146100515780635f644da91461006f57806398d5fdca1461008d578063a0bfa1e0146100ab575b600080fd5b6100596100c9565b60405161006691906101b1565b60405180910390f35b6100776100e0565b60405161008491906101e5565b60405180910390f35b6100956100ef565b6040516100a291906101e5565b60405180910390f35b6100b36100f9565b6040516100c09190610290565b60405180910390f35b6000600160009054906101000a900460ff16905090565b60006100ea61018b565b905090565b6000600554905090565b606060038054610108906102e1565b80601f0160208091040260200160405190810160405280929190818152602001828054610134906102e1565b80156101815780601f1061015657610100808354040283529160200191610181565b820191906000526020600020905b81548152906001019060200180831161016457829003601f168201915b5050505050905090565b6000600254905090565b600060ff82169050919050565b6101ab81610195565b82525050565b60006020820190506101c660008301846101a2565b92915050565b6000819050919050565b6101df816101cc565b82525050565b60006020820190506101fa60008301846101d6565b92915050565b600081519050919050565b600082825260208201905092915050565b60005b8381101561023a57808201518184015260208101905061021f565b60008484015250505050565b6000601f19601f8301169050919050565b600061026282610200565b61026c818561020b565b935061027c81856020860161021c565b61028581610246565b840191505092915050565b600060208201905081810360008301526102aa8184610257565b905092915050565b7f4e487b7100000000000000000000000000000000000000000000000000000000600052602260045260246000fd5b600060028204905060018216806102f957607f821691505b60208210810361030c5761030b6102b2565b5b5091905056fea26469706673582212201279c9fd4794d9961274647a2ae65d6f2f5a00cea67f7f6ab54db7ddbce5ed9564736f6c63430008120033",
			"opcodes": "PUSH1 0x80 PUSH1 0x40 MSTORE CALLVALUE DUP1 ISZERO PUSH3 0x11 JUMPI PUSH1 0x0 DUP1 REVERT JUMPDEST POP PUSH1 0x40 MLOAD PUSH3 0x9BF CODESIZE SUB DUP1 PUSH3 0x9BF DUP4 CODECOPY DUP2 DUP2 ADD PUSH1 0x40 MSTORE DUP2 ADD SWAP1 PUSH3 0x37 SWAP2 SWAP1 PUSH3 0x2D9 JUMP JUMPDEST PUSH1 0x40 MLOAD DUP1 PUSH1 0x40 ADD PUSH1 0x40 MSTORE DUP1 PUSH1 0x3 DUP2 MSTORE PUSH1 0x20 ADD PUSH32 0x7375760000000000000000000000000000000000000000000000000000000000 DUP2 MSTORE POP PUSH1 0x4 PUSH2 0x2710 DUP3 PUSH1 0x0 SWAP1 DUP2 PUSH3 0x83 SWAP2 SWAP1 PUSH3 0x580 JUMP JUMPDEST POP DUP2 PUSH1 0x1 PUSH1 0x0 PUSH2 0x100 EXP DUP2 SLOAD DUP2 PUSH1 0xFF MUL NOT AND SWAP1 DUP4 PUSH1 0xFF AND MUL OR SWAP1 SSTORE POP DUP1 PUSH1 0x2 DUP2 SWAP1 SSTORE POP POP POP POP DUP2 PUSH1 0x3 SWAP1 DUP2 PUSH3 0xBA SWAP2 SWAP1 PUSH3 0x580 JUMP JUMPDEST POP CALLER PUSH1 0x4 PUSH1 0x0 PUSH2 0x100 EXP DUP2 SLOAD DUP2 PUSH20 0xFFFFFFFFFFFFFFFFFFFFFFFFFFFFFFFFFFFFFFFF MUL NOT AND SWAP1 DUP4 PUSH20 0xFFFFFFFFFFFFFFFFFFFFFFFFFFFFFFFFFFFFFFFF AND MUL OR SWAP1 SSTORE POP DUP1 PUSH1 0x5 DUP2 SWAP1 SSTORE POP POP POP PUSH3 0x667 JUMP JUMPDEST PUSH1 0x0 PUSH1 0x40 MLOAD SWAP1 POP SWAP1 JUMP JUMPDEST PUSH1 0x0 DUP1 REVERT JUMPDEST PUSH1 0x0 DUP1 REVERT JUMPDEST PUSH1 0x0 DUP1 REVERT JUMPDEST PUSH1 0x0 DUP1 REVERT JUMPDEST PUSH1 0x0 PUSH1 0x1F NOT PUSH1 0x1F DUP4 ADD AND SWAP1 POP SWAP2 SWAP1 POP JUMP JUMPDEST PUSH32 0x4E487B7100000000000000000000000000000000000000000000000000000000 PUSH1 0x0 MSTORE PUSH1 0x41 PUSH1 0x4 MSTORE PUSH1 0x24 PUSH1 0x0 REVERT JUMPDEST PUSH3 0x174 DUP3 PUSH3 0x129 JUMP JUMPDEST DUP2 ADD DUP2 DUP2 LT PUSH8 0xFFFFFFFFFFFFFFFF DUP3 GT OR ISZERO PUSH3 0x196 JUMPI PUSH3 0x195 PUSH3 0x13A JUMP JUMPDEST JUMPDEST DUP1 PUSH1 0x40 MSTORE POP POP POP JUMP JUMPDEST PUSH1 0x0 PUSH3 0x1AB PUSH3 0x10B JUMP JUMPDEST SWAP1 POP PUSH3 0x1B9 DUP3 DUP3 PUSH3 0x169 JUMP JUMPDEST SWAP2 SWAP1 POP JUMP JUMPDEST PUSH1 0x0 PUSH8 0xFFFFFFFFFFFFFFFF DUP3 GT ISZERO PUSH3 0x1DC JUMPI PUSH3 0x1DB PUSH3 0x13A JUMP JUMPDEST JUMPDEST PUSH3 0x1E7 DUP3 PUSH3 0x129 JUMP JUMPDEST SWAP1 POP PUSH1 0x20 DUP2 ADD SWAP1 POP SWAP2 SWAP1 POP JUMP JUMPDEST PUSH1 0x0 JUMPDEST DUP4 DUP2 LT ISZERO PUSH3 0x214 JUMPI DUP1 DUP3 ADD MLOAD DUP2 DUP5 ADD MSTORE PUSH1 0x20 DUP2 ADD SWAP1 POP PUSH3 0x1F7 JUMP JUMPDEST PUSH1 0x0 DUP5 DUP5 ADD MSTORE POP POP POP POP JUMP JUMPDEST PUSH1 0x0 PUSH3 0x237 PUSH3 0x231 DUP5 PUSH3 0x1BE JUMP JUMPDEST PUSH3 0x19F JUMP JUMPDEST SWAP1 POP DUP3 DUP2 MSTORE PUSH1 0x20 DUP2 ADD DUP5 DUP5 DUP5 ADD GT ISZERO PUSH3 0x256 JUMPI PUSH3 0x255 PUSH3 0x124 JUMP JUMPDEST JUMPDEST PUSH3 0x263 DUP5 DUP3 DUP6 PUSH3 0x1F4 JUMP JUMPDEST POP SWAP4 SWAP3 POP POP POP JUMP JUMPDEST PUSH1 0x0 DUP3 PUSH1 0x1F DUP4 ADD SLT PUSH3 0x283 JUMPI PUSH3 0x282 PUSH3 0x11F JUMP JUMPDEST JUMPDEST DUP2 MLOAD PUSH3 0x295 DUP5 DUP3 PUSH1 0x20 DUP7 ADD PUSH3 0x220 JUMP JUMPDEST SWAP2 POP POP SWAP3 SWAP2 POP POP JUMP JUMPDEST PUSH1 0x0 DUP2 SWAP1 POP SWAP2 SWAP1 POP JUMP JUMPDEST PUSH3 0x2B3 DUP2 PUSH3 0x29E JUMP JUMPDEST DUP2 EQ PUSH3 0x2BF JUMPI PUSH1 0x0 DUP1 REVERT JUMPDEST POP JUMP JUMPDEST PUSH1 0x0 DUP2 MLOAD SWAP1 POP PUSH3 0x2D3 DUP2 PUSH3 0x2A8 JUMP JUMPDEST SWAP3 SWAP2 POP POP JUMP JUMPDEST PUSH1 0x0 DUP1 PUSH1 0x40 DUP4 DUP6 SUB SLT ISZERO PUSH3 0x2F3 JUMPI PUSH3 0x2F2 PUSH3 0x115 JUMP JUMPDEST JUMPDEST PUSH1 0x0 DUP4 ADD MLOAD PUSH8 0xFFFFFFFFFFFFFFFF DUP2 GT ISZERO PUSH3 0x314 JUMPI PUSH3 0x313 PUSH3 0x11A JUMP JUMPDEST JUMPDEST PUSH3 0x322 DUP6 DUP3 DUP7 ADD PUSH3 0x26B JUMP JUMPDEST SWAP3 POP POP PUSH1 0x20 PUSH3 0x335 DUP6 DUP3 DUP7 ADD PUSH3 0x2C2 JUMP JUMPDEST SWAP2 POP POP SWAP3 POP SWAP3 SWAP1 POP JUMP JUMPDEST PUSH1 0x0 DUP2 MLOAD SWAP1 POP SWAP2 SWAP1 POP JUMP JUMPDEST PUSH32 0x4E487B7100000000000000000000000000000000000000000000000000000000 PUSH1 0x0 MSTORE PUSH1 0x22 PUSH1 0x4 MSTORE PUSH1 0x24 PUSH1 0x0 REVERT JUMPDEST PUSH1 0x0 PUSH1 0x2 DUP3 DIV SWAP1 POP PUSH1 0x1 DUP3 AND DUP1 PUSH3 0x392 JUMPI PUSH1 0x7F DUP3 AND SWAP2 POP JUMPDEST PUSH1 0x20 DUP3 LT DUP2 SUB PUSH3 0x3A8 JUMPI PUSH3 0x3A7 PUSH3 0x34A JUMP JUMPDEST JUMPDEST POP SWAP2 SWAP1 POP JUMP JUMPDEST PUSH1 0x0 DUP2 SWAP1 POP DUP2 PUSH1 0x0 MSTORE PUSH1 0x20 PUSH1 0x0 KECCAK256 SWAP1 POP SWAP2 SWAP1 POP JUMP JUMPDEST PUSH1 0x0 PUSH1 0x20 PUSH1 0x1F DUP4 ADD DIV SWAP1 POP SWAP2 SWAP1 POP JUMP JUMPDEST PUSH1 0x0 DUP3 DUP3 SHL SWAP1 POP SWAP3 SWAP2 POP POP JUMP JUMPDEST PUSH1 0x0 PUSH1 0x8 DUP4 MUL PUSH3 0x412 PUSH32 0xFFFFFFFFFFFFFFFFFFFFFFFFFFFFFFFFFFFFFFFFFFFFFFFFFFFFFFFFFFFFFFFF DUP3 PUSH3 0x3D3 JUMP JUMPDEST PUSH3 0x41E DUP7 DUP4 PUSH3 0x3D3 JUMP JUMPDEST SWAP6 POP DUP1 NOT DUP5 AND SWAP4 POP DUP1 DUP7 AND DUP5 OR SWAP3 POP POP POP SWAP4 SWAP3 POP POP POP JUMP JUMPDEST PUSH1 0x0 DUP2 SWAP1 POP SWAP2 SWAP1 POP JUMP JUMPDEST PUSH1 0x0 PUSH3 0x461 PUSH3 0x45B PUSH3 0x455 DUP5 PUSH3 0x29E JUMP JUMPDEST PUSH3 0x436 JUMP JUMPDEST PUSH3 0x29E JUMP JUMPDEST SWAP1 POP SWAP2 SWAP1 POP JUMP JUMPDEST PUSH1 0x0 DUP2 SWAP1 POP SWAP2 SWAP1 POP JUMP JUMPDEST PUSH3 0x47D DUP4 PUSH3 0x440 JUMP JUMPDEST PUSH3 0x495 PUSH3 0x48C DUP3 PUSH3 0x468 JUMP JUMPDEST DUP5 DUP5 SLOAD PUSH3 0x3E0 JUMP JUMPDEST DUP3 SSTORE POP POP POP POP JUMP JUMPDEST PUSH1 0x0 SWAP1 JUMP JUMPDEST PUSH3 0x4AC PUSH3 0x49D JUMP JUMPDEST PUSH3 0x4B9 DUP2 DUP5 DUP5 PUSH3 0x472 JUMP JUMPDEST POP POP POP JUMP JUMPDEST JUMPDEST DUP2 DUP2 LT ISZERO PUSH3 0x4E1 JUMPI PUSH3 0x4D5 PUSH1 0x0 DUP3 PUSH3 0x4A2 JUMP JUMPDEST PUSH1 0x1 DUP2 ADD SWAP1 POP PUSH3 0x4BF JUMP JUMPDEST POP POP JUMP JUMPDEST PUSH1 0x1F DUP3 GT ISZERO PUSH3 0x530 JUMPI PUSH3 0x4FA DUP2 PUSH3 0x3AE JUMP JUMPDEST PUSH3 0x505 DUP5 PUSH3 0x3C3 JUMP JUMPDEST DUP2 ADD PUSH1 0x20 DUP6 LT ISZERO PUSH3 0x515 JUMPI DUP2 SWAP1 POP JUMPDEST PUSH3 0x52D PUSH3 0x524 DUP6 PUSH3 0x3C3 JUMP JUMPDEST DUP4 ADD DUP3 PUSH3 0x4BE JUMP JUMPDEST POP POP JUMPDEST POP POP POP JUMP JUMPDEST PUSH1 0x0 DUP3 DUP3 SHR SWAP1 POP SWAP3 SWAP2 POP POP JUMP JUMPDEST PUSH1 0x0 PUSH3 0x555 PUSH1 0x0 NOT DUP5 PUSH1 0x8 MUL PUSH3 0x535 JUMP JUMPDEST NOT DUP1 DUP4 AND SWAP2 POP POP SWAP3 SWAP2 POP POP JUMP JUMPDEST PUSH1 0x0 PUSH3 0x570 DUP4 DUP4 PUSH3 0x542 JUMP JUMPDEST SWAP2 POP DUP3 PUSH1 0x2 MUL DUP3 OR SWAP1 POP SWAP3 SWAP2 POP POP JUMP JUMPDEST PUSH3 0x58B DUP3 PUSH3 0x33F JUMP JUMPDEST PUSH8 0xFFFFFFFFFFFFFFFF DUP2 GT ISZERO PUSH3 0x5A7 JUMPI PUSH3 0x5A6 PUSH3 0x13A JUMP JUMPDEST JUMPDEST PUSH3 0x5B3 DUP3 SLOAD PUSH3 0x379 JUMP JUMPDEST PUSH3 0x5C0 DUP3 DUP3 DUP6 PUSH3 0x4E5 JUMP JUMPDEST PUSH1 0x0 PUSH1 0x20 SWAP1 POP PUSH1 0x1F DUP4 GT PUSH1 0x1 DUP2 EQ PUSH3 0x5F8 JUMPI PUSH1 0x0 DUP5 ISZERO PUSH3 0x5E3 JUMPI DUP3 DUP8 ADD MLOAD SWAP1 POP JUMPDEST PUSH3 0x5EF DUP6 DUP3 PUSH3 0x562 JUMP JUMPDEST DUP7 SSTORE POP PUSH3 0x65F JUMP JUMPDEST PUSH1 0x1F NOT DUP5 AND PUSH3 0x608 DUP7 PUSH3 0x3AE JUMP JUMPDEST PUSH1 0x0 JUMPDEST DUP3 DUP2 LT ISZERO PUSH3 0x632 JUMPI DUP5 DUP10 ADD MLOAD DUP3 SSTORE PUSH1 0x1 DUP3 ADD SWAP2 POP PUSH1 0x20 DUP6 ADD SWAP5 POP PUSH1 0x20 DUP2 ADD SWAP1 POP PUSH3 0x60B JUMP JUMPDEST DUP7 DUP4 LT ISZERO PUSH3 0x652 JUMPI DUP5 DUP10 ADD MLOAD PUSH3 0x64E PUSH1 0x1F DUP10 AND DUP3 PUSH3 0x542 JUMP JUMPDEST DUP4 SSTORE POP JUMPDEST PUSH1 0x1 PUSH1 0x2 DUP9 MUL ADD DUP9 SSTORE POP POP POP JUMPDEST POP POP POP POP POP POP JUMP JUMPDEST PUSH2 0x348 DUP1 PUSH3 0x677 PUSH1 0x0 CODECOPY PUSH1 0x0 RETURN INVALID PUSH1 0x80 PUSH1 0x40 MSTORE CALLVALUE DUP1 ISZERO PUSH2 0x10 JUMPI PUSH1 0x0 DUP1 REVERT JUMPDEST POP PUSH1 0x4 CALLDATASIZE LT PUSH2 0x4C JUMPI PUSH1 0x0 CALLDATALOAD PUSH1 0xE0 SHR DUP1 PUSH4 0x19E6F3A5 EQ PUSH2 0x51 JUMPI DUP1 PUSH4 0x5F644DA9 EQ PUSH2 0x6F JUMPI DUP1 PUSH4 0x98D5FDCA EQ PUSH2 0x8D JUMPI DUP1 PUSH4 0xA0BFA1E0 EQ PUSH2 0xAB JUMPI JUMPDEST PUSH1 0x0 DUP1 REVERT JUMPDEST PUSH2 0x59 PUSH2 0xC9 JUMP JUMPDEST PUSH1 0x40 MLOAD PUSH2 0x66 SWAP2 SWAP1 PUSH2 0x1B1 JUMP JUMPDEST PUSH1 0x40 MLOAD DUP1 SWAP2 SUB SWAP1 RETURN JUMPDEST PUSH2 0x77 PUSH2 0xE0 JUMP JUMPDEST PUSH1 0x40 MLOAD PUSH2 0x84 SWAP2 SWAP1 PUSH2 0x1E5 JUMP JUMPDEST PUSH1 0x40 MLOAD DUP1 SWAP2 SUB SWAP1 RETURN JUMPDEST PUSH2 0x95 PUSH2 0xEF JUMP JUMPDEST PUSH1 0x40 MLOAD PUSH2 0xA2 SWAP2 SWAP1 PUSH2 0x1E5 JUMP JUMPDEST PUSH1 0x40 MLOAD DUP1 SWAP2 SUB SWAP1 RETURN JUMPDEST PUSH2 0xB3 PUSH2 0xF9 JUMP JUMPDEST PUSH1 0x40 MLOAD PUSH2 0xC0 SWAP2 SWAP1 PUSH2 0x290 JUMP JUMPDEST PUSH1 0x40 MLOAD DUP1 SWAP2 SUB SWAP1 RETURN JUMPDEST PUSH1 0x0 PUSH1 0x1 PUSH1 0x0 SWAP1 SLOAD SWAP1 PUSH2 0x100 EXP SWAP1 DIV PUSH1 0xFF AND SWAP1 POP SWAP1 JUMP JUMPDEST PUSH1 0x0 PUSH2 0xEA PUSH2 0x18B JUMP JUMPDEST SWAP1 POP SWAP1 JUMP JUMPDEST PUSH1 0x0 PUSH1 0x5 SLOAD SWAP1 POP SWAP1 JUMP JUMPDEST PUSH1 0x60 PUSH1 0x3 DUP1 SLOAD PUSH2 0x108 SWAP1 PUSH2 0x2E1 JUMP JUMPDEST DUP1 PUSH1 0x1F ADD PUSH1 0x20 DUP1 SWAP2 DIV MUL PUSH1 0x20 ADD PUSH1 0x40 MLOAD SWAP1 DUP2 ADD PUSH1 0x40 MSTORE DUP1 SWAP3 SWAP2 SWAP1 DUP2 DUP2 MSTORE PUSH1 0x20 ADD DUP3 DUP1 SLOAD PUSH2 0x134 SWAP1 PUSH2 0x2E1 JUMP JUMPDEST DUP1 ISZERO PUSH2 0x181 JUMPI DUP1 PUSH1 0x1F LT PUSH2 0x156 JUMPI PUSH2 0x100 DUP1 DUP4 SLOAD DIV MUL DUP4 MSTORE SWAP2 PUSH1 0x20 ADD SWAP2 PUSH2 0x181 JUMP JUMPDEST DUP3 ADD SWAP2 SWAP1 PUSH1 0x0 MSTORE PUSH1 0x20 PUSH1 0x0 KECCAK256 SWAP1 JUMPDEST DUP2 SLOAD DUP2 MSTORE SWAP1 PUSH1 0x1 ADD SWAP1 PUSH1 0x20 ADD DUP1 DUP4 GT PUSH2 0x164 JUMPI DUP3 SWAP1 SUB PUSH1 0x1F AND DUP3 ADD SWAP2 JUMPDEST POP POP POP POP POP SWAP1 POP SWAP1 JUMP JUMPDEST PUSH1 0x0 PUSH1 0x2 SLOAD SWAP1 POP SWAP1 JUMP JUMPDEST PUSH1 0x0 PUSH1 0xFF DUP3 AND SWAP1 POP SWAP2 SWAP1 POP JUMP JUMPDEST PUSH2 0x1AB DUP2 PUSH2 0x195 JUMP JUMPDEST DUP3 MSTORE POP POP JUMP JUMPDEST PUSH1 0x0 PUSH1 0x20 DUP3 ADD SWAP1 POP PUSH2 0x1C6 PUSH1 0x0 DUP4 ADD DUP5 PUSH2 0x1A2 JUMP JUMPDEST SWAP3 SWAP2 POP POP JUMP JUMPDEST PUSH1 0x0 DUP2 SWAP1 POP SWAP2 SWAP1 POP JUMP JUMPDEST PUSH2 0x1DF DUP2 PUSH2 0x1CC JUMP JUMPDEST DUP3 MSTORE POP POP JUMP JUMPDEST PUSH1 0x0 PUSH1 0x20 DUP3 ADD SWAP1 POP PUSH2 0x1FA PUSH1 0x0 DUP4 ADD DUP5 PUSH2 0x1D6 JUMP JUMPDEST SWAP3 SWAP2 POP POP JUMP JUMPDEST PUSH1 0x0 DUP2 MLOAD SWAP1 POP SWAP2 SWAP1 POP JUMP JUMPDEST PUSH1 0x0 DUP3 DUP3 MSTORE PUSH1 0x20 DUP3 ADD SWAP1 POP SWAP3 SWAP2 POP POP JUMP JUMPDEST PUSH1 0x0 JUMPDEST DUP4 DUP2 LT ISZERO PUSH2 0x23A JUMPI DUP1 DUP3 ADD MLOAD DUP2 DUP5 ADD MSTORE PUSH1 0x20 DUP2 ADD SWAP1 POP PUSH2 0x21F JUMP JUMPDEST PUSH1 0x0 DUP5 DUP5 ADD MSTORE POP POP POP POP JUMP JUMPDEST PUSH1 0x0 PUSH1 0x1F NOT PUSH1 0x1F DUP4 ADD AND SWAP1 POP SWAP2 SWAP1 POP JUMP JUMPDEST PUSH1 0x0 PUSH2 0x262 DUP3 PUSH2 0x200 JUMP JUMPDEST PUSH2 0x26C DUP2 DUP6 PUSH2 0x20B JUMP JUMPDEST SWAP4 POP PUSH2 0x27C DUP2 DUP6 PUSH1 0x20 DUP7 ADD PUSH2 0x21C JUMP JUMPDEST PUSH2 0x285 DUP2 PUSH2 0x246 JUMP JUMPDEST DUP5 ADD SWAP2 POP POP SWAP3 SWAP2 POP POP JUMP JUMPDEST PUSH1 0x0 PUSH1 0x20 DUP3 ADD SWAP1 POP DUP2 DUP2 SUB PUSH1 0x0 DUP4 ADD MSTORE PUSH2 0x2AA DUP2 DUP5 PUSH2 0x257 JUMP JUMPDEST SWAP1 POP SWAP3 SWAP2 POP POP JUMP JUMPDEST PUSH32 0x4E487B7100000000000000000000000000000000000000000000000000000000 PUSH1 0x0 MSTORE PUSH1 0x22 PUSH1 0x4 MSTORE PUSH1 0x24 PUSH1 0x0 REVERT JUMPDEST PUSH1 0x0 PUSH1 0x2 DUP3 DIV SWAP1 POP PUSH1 0x1 DUP3 AND DUP1 PUSH2 0x2F9 JUMPI PUSH1 0x7F DUP3 AND SWAP2 POP JUMPDEST PUSH1 0x20 DUP3 LT DUP2 SUB PUSH2 0x30C JUMPI PUSH2 0x30B PUSH2 0x2B2 JUMP JUMPDEST JUMPDEST POP SWAP2 SWAP1 POP JUMP INVALID LOG2 PUSH5 0x6970667358 0x22 SLT KECCAK256 SLT PUSH26 0xC9FD4794D9961274647A2AE65D6F2F5A00CEA67F7F6AB54DB7DD 0xBC 0xE5 0xED SWAP6 PUSH5 0x736F6C6343 STOP ADDMOD SLT STOP CALLER "
		},
		"gasEstimates": {
			"creation": {
				"codeDepositCost": "168000",
				"executionCost": "infinite",
				"totalCost": "infinite"
			},
			"external": {
				"getCarPrice()": "2472",
				"getDoor()": "2457",
				"getModel()": "infinite",
				"getPrice()": "2459"
			}
		},
		"methodIdentifiers": {
			"getCarPrice()": "5f644da9",
			"getDoor()": "19e6f3a5",
			"getModel()": "a0bfa1e0",
			"getPrice()": "98d5fdca"
		}
	},
	"abi": [
		{
			"inputs": [
				{
					"internalType": "string",
					"name": "_model",
					"type": "string"
				},
				{
					"internalType": "uint256",
					"name": "_premium",
					"type": "uint256"
				}
			],
			"stateMutability": "nonpayable",
			"type": "constructor"
		},
		{
			"inputs": [],
			"name": "getCarPrice",
			"outputs": [
				{
					"internalType": "uint256",
					"name": "",
					"type": "uint256"
				}
			],
			"stateMutability": "view",
			"type": "function"
		},
		{
			"inputs": [],
			"name": "getDoor",
			"outputs": [
				{
					"internalType": "uint8",
					"name": "",
					"type": "uint8"
				}
			],
			"stateMutability": "view",
			"type": "function"
		},
		{
			"inputs": [],
			"name": "getModel",
			"outputs": [
				{
					"internalType": "string",
					"name": "",
					"type": "string"
				}
			],
			"stateMutability": "view",
			"type": "function"
		},
		{
			"inputs": [],
			"name": "getPrice",
			"outputs": [
				{
					"internalType": "uint256",
					"name": "",
					"type": "uint256"
				}
			],
			"stateMutability": "view",
			"type": "function"
		}
	]
}