{
	"data": {
		"bytecode": {
			"linkReferences": {},
			"object": "608060405234801561001057600080fd5b506040516106dc3803806106dc83398181016040528101906100329190610250565b826000908161004191906104d6565b5081600160006101000a81548160ff021916908360ff160217905550806002819055505050506105a8565b6000604051905090565b600080fd5b600080fd5b600080fd5b600080fd5b6000601f19601f8301169050919050565b7f4e487b7100000000000000000000000000000000000000000000000000000000600052604160045260246000fd5b6100d38261008a565b810181811067ffffffffffffffff821117156100f2576100f161009b565b5b80604052505050565b600061010561006c565b905061011182826100ca565b919050565b600067ffffffffffffffff8211156101315761013061009b565b5b61013a8261008a565b9050602081019050919050565b60005b8381101561016557808201518184015260208101905061014a565b60008484015250505050565b600061018461017f84610116565b6100fb565b9050828152602081018484840111156101a05761019f610085565b5b6101ab848285610147565b509392505050565b600082601f8301126101c8576101c7610080565b5b81516101d8848260208601610171565b91505092915050565b600060ff82169050919050565b6101f7816101e1565b811461020257600080fd5b50565b600081519050610214816101ee565b92915050565b6000819050919050565b61022d8161021a565b811461023857600080fd5b50565b60008151905061024a81610224565b92915050565b60008060006060848603121561026957610268610076565b5b600084015167ffffffffffffffff8111156102875761028661007b565b5b610293868287016101b3565b93505060206102a486828701610205565b92505060406102b58682870161023b565b9150509250925092565b600081519050919050565b7f4e487b7100000000000000000000000000000000000000000000000000000000600052602260045260246000fd5b6000600282049050600182168061031157607f821691505b602082108103610324576103236102ca565b5b50919050565b60008190508160005260206000209050919050565b60006020601f8301049050919050565b600082821b905092915050565b60006008830261038c7fffffffffffffffffffffffffffffffffffffffffffffffffffffffffffffffff8261034f565b610396868361034f565b95508019841693508086168417925050509392505050565b6000819050919050565b60006103d36103ce6103c98461021a565b6103ae565b61021a565b9050919050565b6000819050919050565b6103ed836103b8565b6104016103f9826103da565b84845461035c565b825550505050565b600090565b610416610409565b6104218184846103e4565b505050565b5b818110156104455761043a60008261040e565b600181019050610427565b5050565b601f82111561048a5761045b8161032a565b6104648461033f565b81016020851015610473578190505b61048761047f8561033f565b830182610426565b50505b505050565b600082821c905092915050565b60006104ad6000198460080261048f565b1980831691505092915050565b60006104c6838361049c565b9150826002028217905092915050565b6104df826102bf565b67ffffffffffffffff8111156104f8576104f761009b565b5b61050282546102f9565b61050d828285610449565b600060209050601f831160018114610540576000841561052e578287015190505b61053885826104ba565b8655506105a0565b601f19841661054e8661032a565b60005b8281101561057657848901518255600182019150602085019450602081019050610551565b86831015610593578489015161058f601f89168261049c565b8355505b6001600288020188555050505b505050505050565b610125806105b76000396000f3fe6080604052348015600f57600080fd5b506004361060325760003560e01c806319e6f3a514603757806398d5fdca146051575b600080fd5b603d606b565b6040516048919060a6565b60405180910390f35b60576082565b6040516062919060d6565b60405180910390f35b6000600160009054906101000a900460ff16905090565b6000600254905090565b600060ff82169050919050565b60a081608c565b82525050565b600060208201905060b960008301846099565b92915050565b6000819050919050565b60d08160bf565b82525050565b600060208201905060e9600083018460c9565b9291505056fea2646970667358221220b85a943ed188385e3d5867bf33a52a453ced94a563b975155a0db8fed748c8b664736f6c63430008120033",
			"opcodes": "PUSH1 0x80 PUSH1 0x40 MSTORE CALLVALUE DUP1 ISZERO PUSH2 0x10 JUMPI PUSH1 0x0 DUP1 REVERT JUMPDEST POP PUSH1 0x40 MLOAD PUSH2 0x6DC CODESIZE SUB DUP1 PUSH2 0x6DC DUP4 CODECOPY DUP2 DUP2 ADD PUSH1 0x40 MSTORE DUP2 ADD SWAP1 PUSH2 0x32 SWAP2 SWAP1 PUSH2 0x250 JUMP JUMPDEST DUP3 PUSH1 0x0 SWAP1 DUP2 PUSH2 0x41 SWAP2 SWAP1 PUSH2 0x4D6 JUMP JUMPDEST POP DUP2 PUSH1 0x1 PUSH1 0x0 PUSH2 0x100 EXP DUP2 SLOAD DUP2 PUSH1 0xFF MUL NOT AND SWAP1 DUP4 PUSH1 0xFF AND MUL OR SWAP1 SSTORE POP DUP1 PUSH1 0x2 DUP2 SWAP1 SSTORE POP POP POP POP PUSH2 0x5A8 JUMP JUMPDEST PUSH1 0x0 PUSH1 0x40 MLOAD SWAP1 POP SWAP1 JUMP JUMPDEST PUSH1 0x0 DUP1 REVERT JUMPDEST PUSH1 0x0 DUP1 REVERT JUMPDEST PUSH1 0x0 DUP1 REVERT JUMPDEST PUSH1 0x0 DUP1 REVERT JUMPDEST PUSH1 0x0 PUSH1 0x1F NOT PUSH1 0x1F DUP4 ADD AND SWAP1 POP SWAP2 SWAP1 POP JUMP JUMPDEST PUSH32 0x4E487B7100000000000000000000000000000000000000000000000000000000 PUSH1 0x0 MSTORE PUSH1 0x41 PUSH1 0x4 MSTORE PUSH1 0x24 PUSH1 0x0 REVERT JUMPDEST PUSH2 0xD3 DUP3 PUSH2 0x8A JUMP JUMPDEST DUP2 ADD DUP2 DUP2 LT PUSH8 0xFFFFFFFFFFFFFFFF DUP3 GT OR ISZERO PUSH2 0xF2 JUMPI PUSH2 0xF1 PUSH2 0x9B JUMP JUMPDEST JUMPDEST DUP1 PUSH1 0x40 MSTORE POP POP POP JUMP JUMPDEST PUSH1 0x0 PUSH2 0x105 PUSH2 0x6C JUMP JUMPDEST SWAP1 POP PUSH2 0x111 DUP3 DUP3 PUSH2 0xCA JUMP JUMPDEST SWAP2 SWAP1 POP JUMP JUMPDEST PUSH1 0x0 PUSH8 0xFFFFFFFFFFFFFFFF DUP3 GT ISZERO PUSH2 0x131 JUMPI PUSH2 0x130 PUSH2 0x9B JUMP JUMPDEST JUMPDEST PUSH2 0x13A DUP3 PUSH2 0x8A JUMP JUMPDEST SWAP1 POP PUSH1 0x20 DUP2 ADD SWAP1 POP SWAP2 SWAP1 POP JUMP JUMPDEST PUSH1 0x0 JUMPDEST DUP4 DUP2 LT ISZERO PUSH2 0x165 JUMPI DUP1 DUP3 ADD MLOAD DUP2 DUP5 ADD MSTORE PUSH1 0x20 DUP2 ADD SWAP1 POP PUSH2 0x14A JUMP JUMPDEST PUSH1 0x0 DUP5 DUP5 ADD MSTORE POP POP POP POP JUMP JUMPDEST PUSH1 0x0 PUSH2 0x184 PUSH2 0x17F DUP5 PUSH2 0x116 JUMP JUMPDEST PUSH2 0xFB JUMP JUMPDEST SWAP1 POP DUP3 DUP2 MSTORE PUSH1 0x20 DUP2 ADD DUP5 DUP5 DUP5 ADD GT ISZERO PUSH2 0x1A0 JUMPI PUSH2 0x19F PUSH2 0x85 JUMP JUMPDEST JUMPDEST PUSH2 0x1AB DUP5 DUP3 DUP6 PUSH2 0x147 JUMP JUMPDEST POP SWAP4 SWAP3 POP POP POP JUMP JUMPDEST PUSH1 0x0 DUP3 PUSH1 0x1F DUP4 ADD SLT PUSH2 0x1C8 JUMPI PUSH2 0x1C7 PUSH2 0x80 JUMP JUMPDEST JUMPDEST DUP2 MLOAD PUSH2 0x1D8 DUP5 DUP3 PUSH1 0x20 DUP7 ADD PUSH2 0x171 JUMP JUMPDEST SWAP2 POP POP SWAP3 SWAP2 POP POP JUMP JUMPDEST PUSH1 0x0 PUSH1 0xFF DUP3 AND SWAP1 POP SWAP2 SWAP1 POP JUMP JUMPDEST PUSH2 0x1F7 DUP2 PUSH2 0x1E1 JUMP JUMPDEST DUP2 EQ PUSH2 0x202 JUMPI PUSH1 0x0 DUP1 REVERT JUMPDEST POP JUMP JUMPDEST PUSH1 0x0 DUP2 MLOAD SWAP1 POP PUSH2 0x214 DUP2 PUSH2 0x1EE JUMP JUMPDEST SWAP3 SWAP2 POP POP JUMP JUMPDEST PUSH1 0x0 DUP2 SWAP1 POP SWAP2 SWAP1 POP JUMP JUMPDEST PUSH2 0x22D DUP2 PUSH2 0x21A JUMP JUMPDEST DUP2 EQ PUSH2 0x238 JUMPI PUSH1 0x0 DUP1 REVERT JUMPDEST POP JUMP JUMPDEST PUSH1 0x0 DUP2 MLOAD SWAP1 POP PUSH2 0x24A DUP2 PUSH2 0x224 JUMP JUMPDEST SWAP3 SWAP2 POP POP JUMP JUMPDEST PUSH1 0x0 DUP1 PUSH1 0x0 PUSH1 0x60 DUP5 DUP7 SUB SLT ISZERO PUSH2 0x269 JUMPI PUSH2 0x268 PUSH2 0x76 JUMP JUMPDEST JUMPDEST PUSH1 0x0 DUP5 ADD MLOAD PUSH8 0xFFFFFFFFFFFFFFFF DUP2 GT ISZERO PUSH2 0x287 JUMPI PUSH2 0x286 PUSH2 0x7B JUMP JUMPDEST JUMPDEST PUSH2 0x293 DUP7 DUP3 DUP8 ADD PUSH2 0x1B3 JUMP JUMPDEST SWAP4 POP POP PUSH1 0x20 PUSH2 0x2A4 DUP7 DUP3 DUP8 ADD PUSH2 0x205 JUMP JUMPDEST SWAP3 POP POP PUSH1 0x40 PUSH2 0x2B5 DUP7 DUP3 DUP8 ADD PUSH2 0x23B JUMP JUMPDEST SWAP2 POP POP SWAP3 POP SWAP3 POP SWAP3 JUMP JUMPDEST PUSH1 0x0 DUP2 MLOAD SWAP1 POP SWAP2 SWAP1 POP JUMP JUMPDEST PUSH32 0x4E487B7100000000000000000000000000000000000000000000000000000000 PUSH1 0x0 MSTORE PUSH1 0x22 PUSH1 0x4 MSTORE PUSH1 0x24 PUSH1 0x0 REVERT JUMPDEST PUSH1 0x0 PUSH1 0x2 DUP3 DIV SWAP1 POP PUSH1 0x1 DUP3 AND DUP1 PUSH2 0x311 JUMPI PUSH1 0x7F DUP3 AND SWAP2 POP JUMPDEST PUSH1 0x20 DUP3 LT DUP2 SUB PUSH2 0x324 JUMPI PUSH2 0x323 PUSH2 0x2CA JUMP JUMPDEST JUMPDEST POP SWAP2 SWAP1 POP JUMP JUMPDEST PUSH1 0x0 DUP2 SWAP1 POP DUP2 PUSH1 0x0 MSTORE PUSH1 0x20 PUSH1 0x0 KECCAK256 SWAP1 POP SWAP2 SWAP1 POP JUMP JUMPDEST PUSH1 0x0 PUSH1 0x20 PUSH1 0x1F DUP4 ADD DIV SWAP1 POP SWAP2 SWAP1 POP JUMP JUMPDEST PUSH1 0x0 DUP3 DUP3 SHL SWAP1 POP SWAP3 SWAP2 POP POP JUMP JUMPDEST PUSH1 0x0 PUSH1 0x8 DUP4 MUL PUSH2 0x38C PUSH32 0xFFFFFFFFFFFFFFFFFFFFFFFFFFFFFFFFFFFFFFFFFFFFFFFFFFFFFFFFFFFFFFFF DUP3 PUSH2 0x34F JUMP JUMPDEST PUSH2 0x396 DUP7 DUP4 PUSH2 0x34F JUMP JUMPDEST SWAP6 POP DUP1 NOT DUP5 AND SWAP4 POP DUP1 DUP7 AND DUP5 OR SWAP3 POP POP POP SWAP4 SWAP3 POP POP POP JUMP JUMPDEST PUSH1 0x0 DUP2 SWAP1 POP SWAP2 SWAP1 POP JUMP JUMPDEST PUSH1 0x0 PUSH2 0x3D3 PUSH2 0x3CE PUSH2 0x3C9 DUP5 PUSH2 0x21A JUMP JUMPDEST PUSH2 0x3AE JUMP JUMPDEST PUSH2 0x21A JUMP JUMPDEST SWAP1 POP SWAP2 SWAP1 POP JUMP JUMPDEST PUSH1 0x0 DUP2 SWAP1 POP SWAP2 SWAP1 POP JUMP JUMPDEST PUSH2 0x3ED DUP4 PUSH2 0x3B8 JUMP JUMPDEST PUSH2 0x401 PUSH2 0x3F9 DUP3 PUSH2 0x3DA JUMP JUMPDEST DUP5 DUP5 SLOAD PUSH2 0x35C JUMP JUMPDEST DUP3 SSTORE POP POP POP POP JUMP JUMPDEST PUSH1 0x0 SWAP1 JUMP JUMPDEST PUSH2 0x416 PUSH2 0x409 JUMP JUMPDEST PUSH2 0x421 DUP2 DUP5 DUP5 PUSH2 0x3E4 JUMP JUMPDEST POP POP POP JUMP JUMPDEST JUMPDEST DUP2 DUP2 LT ISZERO PUSH2 0x445 JUMPI PUSH2 0x43A PUSH1 0x0 DUP3 PUSH2 0x40E JUMP JUMPDEST PUSH1 0x1 DUP2 ADD SWAP1 POP PUSH2 0x427 JUMP JUMPDEST POP POP JUMP JUMPDEST PUSH1 0x1F DUP3 GT ISZERO PUSH2 0x48A JUMPI PUSH2 0x45B DUP2 PUSH2 0x32A JUMP JUMPDEST PUSH2 0x464 DUP5 PUSH2 0x33F JUMP JUMPDEST DUP2 ADD PUSH1 0x20 DUP6 LT ISZERO PUSH2 0x473 JUMPI DUP2 SWAP1 POP JUMPDEST PUSH2 0x487 PUSH2 0x47F DUP6 PUSH2 0x33F JUMP JUMPDEST DUP4 ADD DUP3 PUSH2 0x426 JUMP JUMPDEST POP POP JUMPDEST POP POP POP JUMP JUMPDEST PUSH1 0x0 DUP3 DUP3 SHR SWAP1 POP SWAP3 SWAP2 POP POP JUMP JUMPDEST PUSH1 0x0 PUSH2 0x4AD PUSH1 0x0 NOT DUP5 PUSH1 0x8 MUL PUSH2 0x48F JUMP JUMPDEST NOT DUP1 DUP4 AND SWAP2 POP POP SWAP3 SWAP2 POP POP JUMP JUMPDEST PUSH1 0x0 PUSH2 0x4C6 DUP4 DUP4 PUSH2 0x49C JUMP JUMPDEST SWAP2 POP DUP3 PUSH1 0x2 MUL DUP3 OR SWAP1 POP SWAP3 SWAP2 POP POP JUMP JUMPDEST PUSH2 0x4DF DUP3 PUSH2 0x2BF JUMP JUMPDEST PUSH8 0xFFFFFFFFFFFFFFFF DUP2 GT ISZERO PUSH2 0x4F8 JUMPI PUSH2 0x4F7 PUSH2 0x9B JUMP JUMPDEST JUMPDEST PUSH2 0x502 DUP3 SLOAD PUSH2 0x2F9 JUMP JUMPDEST PUSH2 0x50D DUP3 DUP3 DUP6 PUSH2 0x449 JUMP JUMPDEST PUSH1 0x0 PUSH1 0x20 SWAP1 POP PUSH1 0x1F DUP4 GT PUSH1 0x1 DUP2 EQ PUSH2 0x540 JUMPI PUSH1 0x0 DUP5 ISZERO PUSH2 0x52E JUMPI DUP3 DUP8 ADD MLOAD SWAP1 POP JUMPDEST PUSH2 0x538 DUP6 DUP3 PUSH2 0x4BA JUMP JUMPDEST DUP7 SSTORE POP PUSH2 0x5A0 JUMP JUMPDEST PUSH1 0x1F NOT DUP5 AND PUSH2 0x54E DUP7 PUSH2 0x32A JUMP JUMPDEST PUSH1 0x0 JUMPDEST DUP3 DUP2 LT ISZERO PUSH2 0x576 JUMPI DUP5 DUP10 ADD MLOAD DUP3 SSTORE PUSH1 0x1 DUP3 ADD SWAP2 POP PUSH1 0x20 DUP6 ADD SWAP5 POP PUSH1 0x20 DUP2 ADD SWAP1 POP PUSH2 0x551 JUMP JUMPDEST DUP7 DUP4 LT ISZERO PUSH2 0x593 JUMPI DUP5 DUP10 ADD MLOAD PUSH2 0x58F PUSH1 0x1F DUP10 AND DUP3 PUSH2 0x49C JUMP JUMPDEST DUP4 SSTORE POP JUMPDEST PUSH1 0x1 PUSH1 0x2 DUP9 MUL ADD DUP9 SSTORE POP POP POP JUMPDEST POP POP POP POP POP POP JUMP JUMPDEST PUSH2 0x125 DUP1 PUSH2 0x5B7 PUSH1 0x0 CODECOPY PUSH1 0x0 RETURN INVALID PUSH1 0x80 PUSH1 0x40 MSTORE CALLVALUE DUP1 ISZERO PUSH1 0xF JUMPI PUSH1 0x0 DUP1 REVERT JUMPDEST POP PUSH1 0x4 CALLDATASIZE LT PUSH1 0x32 JUMPI PUSH1 0x0 CALLDATALOAD PUSH1 0xE0 SHR DUP1 PUSH4 0x19E6F3A5 EQ PUSH1 0x37 JUMPI DUP1 PUSH4 0x98D5FDCA EQ PUSH1 0x51 JUMPI JUMPDEST PUSH1 0x0 DUP1 REVERT JUMPDEST PUSH1 0x3D PUSH1 0x6B JUMP JUMPDEST PUSH1 0x40 MLOAD PUSH1 0x48 SWAP2 SWAP1 PUSH1 0xA6 JUMP JUMPDEST PUSH1 0x40 MLOAD DUP1 SWAP2 SUB SWAP1 RETURN JUMPDEST PUSH1 0x57 PUSH1 0x82 JUMP JUMPDEST PUSH1 0x40 MLOAD PUSH1 0x62 SWAP2 SWAP1 PUSH1 0xD6 JUMP JUMPDEST PUSH1 0x40 MLOAD DUP1 SWAP2 SUB SWAP1 RETURN JUMPDEST PUSH1 0x0 PUSH1 0x1 PUSH1 0x0 SWAP1 SLOAD SWAP1 PUSH2 0x100 EXP SWAP1 DIV PUSH1 0xFF AND SWAP1 POP SWAP1 JUMP JUMPDEST PUSH1 0x0 PUSH1 0x2 SLOAD SWAP1 POP SWAP1 JUMP JUMPDEST PUSH1 0x0 PUSH1 0xFF DUP3 AND SWAP1 POP SWAP2 SWAP1 POP JUMP JUMPDEST PUSH1 0xA0 DUP2 PUSH1 0x8C JUMP JUMPDEST DUP3 MSTORE POP POP JUMP JUMPDEST PUSH1 0x0 PUSH1 0x20 DUP3 ADD SWAP1 POP PUSH1 0xB9 PUSH1 0x0 DUP4 ADD DUP5 PUSH1 0x99 JUMP JUMPDEST SWAP3 SWAP2 POP POP JUMP JUMPDEST PUSH1 0x0 DUP2 SWAP1 POP SWAP2 SWAP1 POP JUMP JUMPDEST PUSH1 0xD0 DUP2 PUSH1 0xBF JUMP JUMPDEST DUP3 MSTORE POP POP JUMP JUMPDEST PUSH1 0x0 PUSH1 0x20 DUP3 ADD SWAP1 POP PUSH1 0xE9 PUSH1 0x0 DUP4 ADD DUP5 PUSH1 0xC9 JUMP JUMPDEST SWAP3 SWAP2 POP POP JUMP INVALID LOG2 PUSH5 0x6970667358 0x22 SLT KECCAK256 0xB8 GAS SWAP5 RETURNDATACOPY 0xD1 DUP9 CODESIZE 0x5E RETURNDATASIZE PC PUSH8 0xBF33A52A453CED94 0xA5 PUSH4 0xB975155A 0xD 0xB8 INVALID 0xD7 BASEFEE 0xC8 0xB6 PUSH5 0x736F6C6343 STOP ADDMOD SLT STOP CALLER "
		},
		"gasEstimates": {
			"creation": {
				"codeDepositCost": "58600",
				"executionCost": "infinite",
				"totalCost": "infinite"
			},
			"external": {
				"getDoor()": "2457",
				"getPrice()": "2437"
			}
		},
		"methodIdentifiers": {
			"getDoor()": "19e6f3a5",
			"getPrice()": "98d5fdca"
		}
	},
	"abi": [
		{
			"inputs": [
				{
					"internalType": "string",
					"name": "_type",
					"type": "string"
				},
				{
					"internalType": "uint8",
					"name": "_door",
					"type": "uint8"
				},
				{
					"internalType": "uint256",
					"name": "_price",
					"type": "uint256"
				}
			],
			"stateMutability": "nonpayable",
			"type": "constructor"
		},
		{
			"inputs": [],
			"name": "getDoor",
			"outputs": [
				{
					"internalType": "uint8",
					"name": "",
					"type": "uint8"
				}
			],
			"stateMutability": "view",
			"type": "function"
		},
		{
			"inputs": [],
			"name": "getPrice",
			"outputs": [
				{
					"internalType": "uint256",
					"name": "",
					"type": "uint256"
				}
			],
			"stateMutability": "view",
			"type": "function"
		}
	]
}