{
	"data": {
		"bytecode": {
			"linkReferences": {},
			"object": "608060405234801561001057600080fd5b5061039a806100206000396000f3fe608060405234801561001057600080fd5b50600436106100575760003560e01c806328eb7ef31461005c578063a94fb0351461007a578063e7c898ef14610098578063ed62931a146100b6578063fc0e6008146100d4575b600080fd5b6100646100f2565b604051610071919061027b565b60405180910390f35b610082610132565b60405161008f919061027b565b60405180910390f35b6100a0610185565b6040516100ad919061027b565b60405180910390f35b6100be6101cb565b6040516100cb919061027b565b60405180910390f35b6100dc61021c565b6040516100e9919061027b565b60405180910390f35b600080600090506000600190505b8060ff168261010f91906102c5565b9150808061011c90610306565b915050600b8160ff161061010057819250505090565b600080600090506000600190505b600b8160ff16101561017a57600a8160ff160315610167578082610164919061032f565b91505b808061017290610306565b915050610140565b508060ff1691505090565b600080600090506000600190505b600b8160ff1610156101c05780826101ab919061032f565b915080806101b890610306565b915050610193565b8160ff169250505090565b600080600090506000600190505b600b8160ff1610156102115780826101f1919061032f565b915060058160ff161161021157808061020990610306565b9150506101d9565b508060ff1691505090565b600080600090506000600190505b600b8160ff161015610257578082610242919061032f565b9150808061024f90610306565b91505061022a565b508060ff1691505090565b6000819050919050565b61027581610262565b82525050565b6000602082019050610290600083018461026c565b92915050565b7f4e487b7100000000000000000000000000000000000000000000000000000000600052601160045260246000fd5b60006102d082610262565b91506102db83610262565b92508282019050808211156102f3576102f2610296565b5b92915050565b600060ff82169050919050565b6000610311826102f9565b915060ff820361032457610323610296565b5b600182019050919050565b600061033a826102f9565b9150610345836102f9565b9250828201905060ff81111561035e5761035d610296565b5b9291505056fea26469706673582212200988e7c18abf0ce0ab939c8dd176bffd31ca49d57e23e9318052b93002e1971764736f6c63430008120033",
			"opcodes": "PUSH1 0x80 PUSH1 0x40 MSTORE CALLVALUE DUP1 ISZERO PUSH2 0x10 JUMPI PUSH1 0x0 DUP1 REVERT JUMPDEST POP PUSH2 0x39A DUP1 PUSH2 0x20 PUSH1 0x0 CODECOPY PUSH1 0x0 RETURN INVALID PUSH1 0x80 PUSH1 0x40 MSTORE CALLVALUE DUP1 ISZERO PUSH2 0x10 JUMPI PUSH1 0x0 DUP1 REVERT JUMPDEST POP PUSH1 0x4 CALLDATASIZE LT PUSH2 0x57 JUMPI PUSH1 0x0 CALLDATALOAD PUSH1 0xE0 SHR DUP1 PUSH4 0x28EB7EF3 EQ PUSH2 0x5C JUMPI DUP1 PUSH4 0xA94FB035 EQ PUSH2 0x7A JUMPI DUP1 PUSH4 0xE7C898EF EQ PUSH2 0x98 JUMPI DUP1 PUSH4 0xED62931A EQ PUSH2 0xB6 JUMPI DUP1 PUSH4 0xFC0E6008 EQ PUSH2 0xD4 JUMPI JUMPDEST PUSH1 0x0 DUP1 REVERT JUMPDEST PUSH2 0x64 PUSH2 0xF2 JUMP JUMPDEST PUSH1 0x40 MLOAD PUSH2 0x71 SWAP2 SWAP1 PUSH2 0x27B JUMP JUMPDEST PUSH1 0x40 MLOAD DUP1 SWAP2 SUB SWAP1 RETURN JUMPDEST PUSH2 0x82 PUSH2 0x132 JUMP JUMPDEST PUSH1 0x40 MLOAD PUSH2 0x8F SWAP2 SWAP1 PUSH2 0x27B JUMP JUMPDEST PUSH1 0x40 MLOAD DUP1 SWAP2 SUB SWAP1 RETURN JUMPDEST PUSH2 0xA0 PUSH2 0x185 JUMP JUMPDEST PUSH1 0x40 MLOAD PUSH2 0xAD SWAP2 SWAP1 PUSH2 0x27B JUMP JUMPDEST PUSH1 0x40 MLOAD DUP1 SWAP2 SUB SWAP1 RETURN JUMPDEST PUSH2 0xBE PUSH2 0x1CB JUMP JUMPDEST PUSH1 0x40 MLOAD PUSH2 0xCB SWAP2 SWAP1 PUSH2 0x27B JUMP JUMPDEST PUSH1 0x40 MLOAD DUP1 SWAP2 SUB SWAP1 RETURN JUMPDEST PUSH2 0xDC PUSH2 0x21C JUMP JUMPDEST PUSH1 0x40 MLOAD PUSH2 0xE9 SWAP2 SWAP1 PUSH2 0x27B JUMP JUMPDEST PUSH1 0x40 MLOAD DUP1 SWAP2 SUB SWAP1 RETURN JUMPDEST PUSH1 0x0 DUP1 PUSH1 0x0 SWAP1 POP PUSH1 0x0 PUSH1 0x1 SWAP1 POP JUMPDEST DUP1 PUSH1 0xFF AND DUP3 PUSH2 0x10F SWAP2 SWAP1 PUSH2 0x2C5 JUMP JUMPDEST SWAP2 POP DUP1 DUP1 PUSH2 0x11C SWAP1 PUSH2 0x306 JUMP JUMPDEST SWAP2 POP POP PUSH1 0xB DUP2 PUSH1 0xFF AND LT PUSH2 0x100 JUMPI DUP2 SWAP3 POP POP POP SWAP1 JUMP JUMPDEST PUSH1 0x0 DUP1 PUSH1 0x0 SWAP1 POP PUSH1 0x0 PUSH1 0x1 SWAP1 POP JUMPDEST PUSH1 0xB DUP2 PUSH1 0xFF AND LT ISZERO PUSH2 0x17A JUMPI PUSH1 0xA DUP2 PUSH1 0xFF AND SUB ISZERO PUSH2 0x167 JUMPI DUP1 DUP3 PUSH2 0x164 SWAP2 SWAP1 PUSH2 0x32F JUMP JUMPDEST SWAP2 POP JUMPDEST DUP1 DUP1 PUSH2 0x172 SWAP1 PUSH2 0x306 JUMP JUMPDEST SWAP2 POP POP PUSH2 0x140 JUMP JUMPDEST POP DUP1 PUSH1 0xFF AND SWAP2 POP POP SWAP1 JUMP JUMPDEST PUSH1 0x0 DUP1 PUSH1 0x0 SWAP1 POP PUSH1 0x0 PUSH1 0x1 SWAP1 POP JUMPDEST PUSH1 0xB DUP2 PUSH1 0xFF AND LT ISZERO PUSH2 0x1C0 JUMPI DUP1 DUP3 PUSH2 0x1AB SWAP2 SWAP1 PUSH2 0x32F JUMP JUMPDEST SWAP2 POP DUP1 DUP1 PUSH2 0x1B8 SWAP1 PUSH2 0x306 JUMP JUMPDEST SWAP2 POP POP PUSH2 0x193 JUMP JUMPDEST DUP2 PUSH1 0xFF AND SWAP3 POP POP POP SWAP1 JUMP JUMPDEST PUSH1 0x0 DUP1 PUSH1 0x0 SWAP1 POP PUSH1 0x0 PUSH1 0x1 SWAP1 POP JUMPDEST PUSH1 0xB DUP2 PUSH1 0xFF AND LT ISZERO PUSH2 0x211 JUMPI DUP1 DUP3 PUSH2 0x1F1 SWAP2 SWAP1 PUSH2 0x32F JUMP JUMPDEST SWAP2 POP PUSH1 0x5 DUP2 PUSH1 0xFF AND GT PUSH2 0x211 JUMPI DUP1 DUP1 PUSH2 0x209 SWAP1 PUSH2 0x306 JUMP JUMPDEST SWAP2 POP POP PUSH2 0x1D9 JUMP JUMPDEST POP DUP1 PUSH1 0xFF AND SWAP2 POP POP SWAP1 JUMP JUMPDEST PUSH1 0x0 DUP1 PUSH1 0x0 SWAP1 POP PUSH1 0x0 PUSH1 0x1 SWAP1 POP JUMPDEST PUSH1 0xB DUP2 PUSH1 0xFF AND LT ISZERO PUSH2 0x257 JUMPI DUP1 DUP3 PUSH2 0x242 SWAP2 SWAP1 PUSH2 0x32F JUMP JUMPDEST SWAP2 POP DUP1 DUP1 PUSH2 0x24F SWAP1 PUSH2 0x306 JUMP JUMPDEST SWAP2 POP POP PUSH2 0x22A JUMP JUMPDEST POP DUP1 PUSH1 0xFF AND SWAP2 POP POP SWAP1 JUMP JUMPDEST PUSH1 0x0 DUP2 SWAP1 POP SWAP2 SWAP1 POP JUMP JUMPDEST PUSH2 0x275 DUP2 PUSH2 0x262 JUMP JUMPDEST DUP3 MSTORE POP POP JUMP JUMPDEST PUSH1 0x0 PUSH1 0x20 DUP3 ADD SWAP1 POP PUSH2 0x290 PUSH1 0x0 DUP4 ADD DUP5 PUSH2 0x26C JUMP JUMPDEST SWAP3 SWAP2 POP POP JUMP JUMPDEST PUSH32 0x4E487B7100000000000000000000000000000000000000000000000000000000 PUSH1 0x0 MSTORE PUSH1 0x11 PUSH1 0x4 MSTORE PUSH1 0x24 PUSH1 0x0 REVERT JUMPDEST PUSH1 0x0 PUSH2 0x2D0 DUP3 PUSH2 0x262 JUMP JUMPDEST SWAP2 POP PUSH2 0x2DB DUP4 PUSH2 0x262 JUMP JUMPDEST SWAP3 POP DUP3 DUP3 ADD SWAP1 POP DUP1 DUP3 GT ISZERO PUSH2 0x2F3 JUMPI PUSH2 0x2F2 PUSH2 0x296 JUMP JUMPDEST JUMPDEST SWAP3 SWAP2 POP POP JUMP JUMPDEST PUSH1 0x0 PUSH1 0xFF DUP3 AND SWAP1 POP SWAP2 SWAP1 POP JUMP JUMPDEST PUSH1 0x0 PUSH2 0x311 DUP3 PUSH2 0x2F9 JUMP JUMPDEST SWAP2 POP PUSH1 0xFF DUP3 SUB PUSH2 0x324 JUMPI PUSH2 0x323 PUSH2 0x296 JUMP JUMPDEST JUMPDEST PUSH1 0x1 DUP3 ADD SWAP1 POP SWAP2 SWAP1 POP JUMP JUMPDEST PUSH1 0x0 PUSH2 0x33A DUP3 PUSH2 0x2F9 JUMP JUMPDEST SWAP2 POP PUSH2 0x345 DUP4 PUSH2 0x2F9 JUMP JUMPDEST SWAP3 POP DUP3 DUP3 ADD SWAP1 POP PUSH1 0xFF DUP2 GT ISZERO PUSH2 0x35E JUMPI PUSH2 0x35D PUSH2 0x296 JUMP JUMPDEST JUMPDEST SWAP3 SWAP2 POP POP JUMP INVALID LOG2 PUSH5 0x6970667358 0x22 SLT KECCAK256 MULMOD DUP9 0xE7 0xC1 DUP11 0xBF 0xC 0xE0 0xAB SWAP4 SWAP13 DUP14 0xD1 PUSH23 0xBFFD31CA49D57E23E9318052B93002E1971764736F6C63 NUMBER STOP ADDMOD SLT STOP CALLER "
		},
		"gasEstimates": {
			"creation": {
				"codeDepositCost": "184400",
				"executionCost": "226",
				"totalCost": "184626"
			},
			"external": {
				"dowhileLoop()": "infinite",
				"forLoop()": "infinite",
				"loopBreak()": "infinite",
				"loopContinue()": "infinite",
				"whileLoop()": "infinite"
			}
		},
		"methodIdentifiers": {
			"dowhileLoop()": "28eb7ef3",
			"forLoop()": "fc0e6008",
			"loopBreak()": "ed62931a",
			"loopContinue()": "a94fb035",
			"whileLoop()": "e7c898ef"
		}
	},
	"abi": [
		{
			"inputs": [],
			"name": "dowhileLoop",
			"outputs": [
				{
					"internalType": "uint256",
					"name": "",
					"type": "uint256"
				}
			],
			"stateMutability": "pure",
			"type": "function"
		},
		{
			"inputs": [],
			"name": "forLoop",
			"outputs": [
				{
					"internalType": "uint256",
					"name": "",
					"type": "uint256"
				}
			],
			"stateMutability": "pure",
			"type": "function"
		},
		{
			"inputs": [],
			"name": "loopBreak",
			"outputs": [
				{
					"internalType": "uint256",
					"name": "",
					"type": "uint256"
				}
			],
			"stateMutability": "pure",
			"type": "function"
		},
		{
			"inputs": [],
			"name": "loopContinue",
			"outputs": [
				{
					"internalType": "uint256",
					"name": "",
					"type": "uint256"
				}
			],
			"stateMutability": "pure",
			"type": "function"
		},
		{
			"inputs": [],
			"name": "whileLoop",
			"outputs": [
				{
					"internalType": "uint256",
					"name": "",
					"type": "uint256"
				}
			],
			"stateMutability": "pure",
			"type": "function"
		}
	]
}