{
	"ex13/BLockProperties.sol": {
		"BlockProperty": {
			"abi": [
				{
					"inputs": [],
					"name": "block1",
					"outputs": [
						{
							"internalType": "uint256",
							"name": "",
							"type": "uint256"
						}
					],
					"stateMutability": "view",
					"type": "function"
				},
				{
					"inputs": [],
					"name": "block2",
					"outputs": [
						{
							"internalType": "uint256",
							"name": "",
							"type": "uint256"
						}
					],
					"stateMutability": "view",
					"type": "function"
				},
				{
					"inputs": [],
					"name": "block3",
					"outputs": [
						{
							"internalType": "address",
							"name": "",
							"type": "address"
						}
					],
					"stateMutability": "view",
					"type": "function"
				},
				{
					"inputs": [],
					"name": "block4",
					"outputs": [
						{
							"internalType": "uint256",
							"name": "",
							"type": "uint256"
						}
					],
					"stateMutability": "view",
					"type": "function"
				},
				{
					"inputs": [],
					"name": "block5",
					"outputs": [
						{
							"internalType": "uint256",
							"name": "",
							"type": "uint256"
						}
					],
					"stateMutability": "view",
					"type": "function"
				},
				{
					"inputs": [],
					"name": "block6",
					"outputs": [
						{
							"internalType": "uint256",
							"name": "",
							"type": "uint256"
						}
					],
					"stateMutability": "view",
					"type": "function"
				},
				{
					"inputs": [],
					"name": "block7",
					"outputs": [
						{
							"internalType": "uint256",
							"name": "",
							"type": "uint256"
						}
					],
					"stateMutability": "view",
					"type": "function"
				},
				{
					"inputs": [],
					"name": "generateRandom",
					"outputs": [
						{
							"internalType": "uint8",
							"name": "",
							"type": "uint8"
						}
					],
					"stateMutability": "view",
					"type": "function"
				}
			],
			"devdoc": {
				"kind": "dev",
				"methods": {},
				"version": 1
			},
			"evm": {
				"assembly": "    /* \"ex13/BLockProperties.sol\":240:1301  contract BlockProperty {... */\n  mstore(0x40, 0x80)\n    /* \"ex13/BLockProperties.sol\":399:412  block.basefee */\n  basefee\n    /* \"ex13/BLockProperties.sol\":378:412  uint public block1 = block.basefee */\n  0x00\n  sstore\n    /* \"ex13/BLockProperties.sol\":437:450  block.chainid */\n  chainid\n    /* \"ex13/BLockProperties.sol\":416:450  uint public block2 = block.chainid */\n  0x01\n  sstore\n    /* \"ex13/BLockProperties.sol\":478:492  block.coinbase */\n  coinbase\n    /* \"ex13/BLockProperties.sol\":454:492  address public block3 = block.coinbase */\n  0x02\n  exp(0x0100, 0x00)\n  dup2\n  sload\n  dup2\n  0xffffffffffffffffffffffffffffffffffffffff\n  mul\n  not\n  and\n  swap1\n  dup4\n  0xffffffffffffffffffffffffffffffffffffffff\n  and\n  mul\n  or\n  swap1\n  sstore\n  pop\n    /* \"ex13/BLockProperties.sol\":517:533  block.difficulty */\n  prevrandao\n    /* \"ex13/BLockProperties.sol\":496:533  uint public block4 = block.difficulty */\n  0x03\n  sstore\n    /* \"ex13/BLockProperties.sol\":558:572  block.gaslimit */\n  gaslimit\n    /* \"ex13/BLockProperties.sol\":537:572  uint public block5 = block.gaslimit */\n  0x04\n  sstore\n    /* \"ex13/BLockProperties.sol\":597:609  block.number */\n  number\n    /* \"ex13/BLockProperties.sol\":576:609  uint public block6 = block.number */\n  0x05\n  sstore\n    /* \"ex13/BLockProperties.sol\":634:649  block.timestamp */\n  timestamp\n    /* \"ex13/BLockProperties.sol\":613:649  uint public block7 = block.timestamp */\n  0x06\n  sstore\n    /* \"ex13/BLockProperties.sol\":240:1301  contract BlockProperty {... */\n  callvalue\n  dup1\n  iszero\n  tag_1\n  jumpi\n  0x00\n  dup1\n  revert\ntag_1:\n  pop\n  dataSize(sub_0)\n  dup1\n  dataOffset(sub_0)\n  0x00\n  codecopy\n  0x00\n  return\nstop\n\nsub_0: assembly {\n        /* \"ex13/BLockProperties.sol\":240:1301  contract BlockProperty {... */\n      mstore(0x40, 0x80)\n      callvalue\n      dup1\n      iszero\n      tag_1\n      jumpi\n      0x00\n      dup1\n      revert\n    tag_1:\n      pop\n      jumpi(tag_2, lt(calldatasize, 0x04))\n      shr(0xe0, calldataload(0x00))\n      dup1\n      0x9163f897\n      gt\n      tag_11\n      jumpi\n      dup1\n      0x9163f897\n      eq\n      tag_7\n      jumpi\n      dup1\n      0x93c7542b\n      eq\n      tag_8\n      jumpi\n      dup1\n      0xa58c30c5\n      eq\n      tag_9\n      jumpi\n      dup1\n      0xad7eb560\n      eq\n      tag_10\n      jumpi\n      jump(tag_2)\n    tag_11:\n      dup1\n      0x02e4af01\n      eq\n      tag_3\n      jumpi\n      dup1\n      0x0eb524d4\n      eq\n      tag_4\n      jumpi\n      dup1\n      0x0fa2d864\n      eq\n      tag_5\n      jumpi\n      dup1\n      0x705a3644\n      eq\n      tag_6\n      jumpi\n    tag_2:\n      0x00\n      dup1\n      revert\n        /* \"ex13/BLockProperties.sol\":778:1299  function generateRandom() public view returns(uint8){... */\n    tag_3:\n      tag_12\n      tag_13\n      jump\t// in\n    tag_12:\n      mload(0x40)\n      tag_14\n      swap2\n      swap1\n      tag_15\n      jump\t// in\n    tag_14:\n      mload(0x40)\n      dup1\n      swap2\n      sub\n      swap1\n      return\n        /* \"ex13/BLockProperties.sol\":378:412  uint public block1 = block.basefee */\n    tag_4:\n      tag_16\n      tag_17\n      jump\t// in\n    tag_16:\n      mload(0x40)\n      tag_18\n      swap2\n      swap1\n      tag_19\n      jump\t// in\n    tag_18:\n      mload(0x40)\n      dup1\n      swap2\n      sub\n      swap1\n      return\n        /* \"ex13/BLockProperties.sol\":496:533  uint public block4 = block.difficulty */\n    tag_5:\n      tag_20\n      tag_21\n      jump\t// in\n    tag_20:\n      mload(0x40)\n      tag_22\n      swap2\n      swap1\n      tag_19\n      jump\t// in\n    tag_22:\n      mload(0x40)\n      dup1\n      swap2\n      sub\n      swap1\n      return\n        /* \"ex13/BLockProperties.sol\":454:492  address public block3 = block.coinbase */\n    tag_6:\n      tag_23\n      tag_24\n      jump\t// in\n    tag_23:\n      mload(0x40)\n      tag_25\n      swap2\n      swap1\n      tag_26\n      jump\t// in\n    tag_25:\n      mload(0x40)\n      dup1\n      swap2\n      sub\n      swap1\n      return\n        /* \"ex13/BLockProperties.sol\":576:609  uint public block6 = block.number */\n    tag_7:\n      tag_27\n      tag_28\n      jump\t// in\n    tag_27:\n      mload(0x40)\n      tag_29\n      swap2\n      swap1\n      tag_19\n      jump\t// in\n    tag_29:\n      mload(0x40)\n      dup1\n      swap2\n      sub\n      swap1\n      return\n        /* \"ex13/BLockProperties.sol\":613:649  uint public block7 = block.timestamp */\n    tag_8:\n      tag_30\n      tag_31\n      jump\t// in\n    tag_30:\n      mload(0x40)\n      tag_32\n      swap2\n      swap1\n      tag_19\n      jump\t// in\n    tag_32:\n      mload(0x40)\n      dup1\n      swap2\n      sub\n      swap1\n      return\n        /* \"ex13/BLockProperties.sol\":416:450  uint public block2 = block.chainid */\n    tag_9:\n      tag_33\n      tag_34\n      jump\t// in\n    tag_33:\n      mload(0x40)\n      tag_35\n      swap2\n      swap1\n      tag_19\n      jump\t// in\n    tag_35:\n      mload(0x40)\n      dup1\n      swap2\n      sub\n      swap1\n      return\n        /* \"ex13/BLockProperties.sol\":537:572  uint public block5 = block.gaslimit */\n    tag_10:\n      tag_36\n      tag_37\n      jump\t// in\n    tag_36:\n      mload(0x40)\n      tag_38\n      swap2\n      swap1\n      tag_19\n      jump\t// in\n    tag_38:\n      mload(0x40)\n      dup1\n      swap2\n      sub\n      swap1\n      return\n        /* \"ex13/BLockProperties.sol\":778:1299  function generateRandom() public view returns(uint8){... */\n    tag_13:\n        /* \"ex13/BLockProperties.sol\":824:829  uint8 */\n      0x00\n        /* \"ex13/BLockProperties.sol\":1176:1188  uint8 number */\n      dup1\n        /* \"ex13/BLockProperties.sol\":1269:1272  251 */\n      0xfb\n        /* \"ex13/BLockProperties.sol\":1232:1247  block.timestamp */\n      timestamp\n        /* \"ex13/BLockProperties.sol\":1249:1265  block.difficulty */\n      prevrandao\n        /* \"ex13/BLockProperties.sol\":1215:1266  abi.encodePacked(block.timestamp, block.difficulty) */\n      add(0x20, mload(0x40))\n      tag_40\n      swap3\n      swap2\n      swap1\n      tag_41\n      jump\t// in\n    tag_40:\n      mload(0x40)\n      0x20\n      dup2\n      dup4\n      sub\n      sub\n      dup2\n      mstore\n      swap1\n      0x40\n      mstore\n        /* \"ex13/BLockProperties.sol\":1205:1267  keccak256(abi.encodePacked(block.timestamp, block.difficulty)) */\n      dup1\n      mload\n      swap1\n      0x20\n      add\n      keccak256\n        /* \"ex13/BLockProperties.sol\":1197:1268  uint256(keccak256(abi.encodePacked(block.timestamp, block.difficulty))) */\n      0x00\n      shr\n        /* \"ex13/BLockProperties.sol\":1197:1272  uint256(keccak256(abi.encodePacked(block.timestamp, block.difficulty)))%251 */\n      tag_42\n      swap2\n      swap1\n      tag_43\n      jump\t// in\n    tag_42:\n        /* \"ex13/BLockProperties.sol\":1176:1273  uint8 number = uint8(uint256(keccak256(abi.encodePacked(block.timestamp, block.difficulty)))%251) */\n      swap1\n      pop\n        /* \"ex13/BLockProperties.sol\":1288:1294  number */\n      dup1\n        /* \"ex13/BLockProperties.sol\":1281:1294  return number */\n      swap2\n      pop\n      pop\n        /* \"ex13/BLockProperties.sol\":778:1299  function generateRandom() public view returns(uint8){... */\n      swap1\n      jump\t// out\n        /* \"ex13/BLockProperties.sol\":378:412  uint public block1 = block.basefee */\n    tag_17:\n      sload(0x00)\n      dup2\n      jump\t// out\n        /* \"ex13/BLockProperties.sol\":496:533  uint public block4 = block.difficulty */\n    tag_21:\n      sload(0x03)\n      dup2\n      jump\t// out\n        /* \"ex13/BLockProperties.sol\":454:492  address public block3 = block.coinbase */\n    tag_24:\n      0x02\n      0x00\n      swap1\n      sload\n      swap1\n      0x0100\n      exp\n      swap1\n      div\n      0xffffffffffffffffffffffffffffffffffffffff\n      and\n      dup2\n      jump\t// out\n        /* \"ex13/BLockProperties.sol\":576:609  uint public block6 = block.number */\n    tag_28:\n      sload(0x05)\n      dup2\n      jump\t// out\n        /* \"ex13/BLockProperties.sol\":613:649  uint public block7 = block.timestamp */\n    tag_31:\n      sload(0x06)\n      dup2\n      jump\t// out\n        /* \"ex13/BLockProperties.sol\":416:450  uint public block2 = block.chainid */\n    tag_34:\n      sload(0x01)\n      dup2\n      jump\t// out\n        /* \"ex13/BLockProperties.sol\":537:572  uint public block5 = block.gaslimit */\n    tag_37:\n      sload(0x04)\n      dup2\n      jump\t// out\n        /* \"#utility.yul\":7:93   */\n    tag_44:\n        /* \"#utility.yul\":42:49   */\n      0x00\n        /* \"#utility.yul\":82:86   */\n      0xff\n        /* \"#utility.yul\":75:80   */\n      dup3\n        /* \"#utility.yul\":71:87   */\n      and\n        /* \"#utility.yul\":60:87   */\n      swap1\n      pop\n        /* \"#utility.yul\":7:93   */\n      swap2\n      swap1\n      pop\n      jump\t// out\n        /* \"#utility.yul\":99:211   */\n    tag_45:\n        /* \"#utility.yul\":182:204   */\n      tag_57\n        /* \"#utility.yul\":198:203   */\n      dup2\n        /* \"#utility.yul\":182:204   */\n      tag_44\n      jump\t// in\n    tag_57:\n        /* \"#utility.yul\":177:180   */\n      dup3\n        /* \"#utility.yul\":170:205   */\n      mstore\n        /* \"#utility.yul\":99:211   */\n      pop\n      pop\n      jump\t// out\n        /* \"#utility.yul\":217:431   */\n    tag_15:\n        /* \"#utility.yul\":306:310   */\n      0x00\n        /* \"#utility.yul\":344:346   */\n      0x20\n        /* \"#utility.yul\":333:342   */\n      dup3\n        /* \"#utility.yul\":329:347   */\n      add\n        /* \"#utility.yul\":321:347   */\n      swap1\n      pop\n        /* \"#utility.yul\":357:424   */\n      tag_59\n        /* \"#utility.yul\":421:422   */\n      0x00\n        /* \"#utility.yul\":410:419   */\n      dup4\n        /* \"#utility.yul\":406:423   */\n      add\n        /* \"#utility.yul\":397:403   */\n      dup5\n        /* \"#utility.yul\":357:424   */\n      tag_45\n      jump\t// in\n    tag_59:\n        /* \"#utility.yul\":217:431   */\n      swap3\n      swap2\n      pop\n      pop\n      jump\t// out\n        /* \"#utility.yul\":437:514   */\n    tag_46:\n        /* \"#utility.yul\":474:481   */\n      0x00\n        /* \"#utility.yul\":503:508   */\n      dup2\n        /* \"#utility.yul\":492:508   */\n      swap1\n      pop\n        /* \"#utility.yul\":437:514   */\n      swap2\n      swap1\n      pop\n      jump\t// out\n        /* \"#utility.yul\":520:638   */\n    tag_47:\n        /* \"#utility.yul\":607:631   */\n      tag_62\n        /* \"#utility.yul\":625:630   */\n      dup2\n        /* \"#utility.yul\":607:631   */\n      tag_46\n      jump\t// in\n    tag_62:\n        /* \"#utility.yul\":602:605   */\n      dup3\n        /* \"#utility.yul\":595:632   */\n      mstore\n        /* \"#utility.yul\":520:638   */\n      pop\n      pop\n      jump\t// out\n        /* \"#utility.yul\":644:866   */\n    tag_19:\n        /* \"#utility.yul\":737:741   */\n      0x00\n        /* \"#utility.yul\":775:777   */\n      0x20\n        /* \"#utility.yul\":764:773   */\n      dup3\n        /* \"#utility.yul\":760:778   */\n      add\n        /* \"#utility.yul\":752:778   */\n      swap1\n      pop\n        /* \"#utility.yul\":788:859   */\n      tag_64\n        /* \"#utility.yul\":856:857   */\n      0x00\n        /* \"#utility.yul\":845:854   */\n      dup4\n        /* \"#utility.yul\":841:858   */\n      add\n        /* \"#utility.yul\":832:838   */\n      dup5\n        /* \"#utility.yul\":788:859   */\n      tag_47\n      jump\t// in\n    tag_64:\n        /* \"#utility.yul\":644:866   */\n      swap3\n      swap2\n      pop\n      pop\n      jump\t// out\n        /* \"#utility.yul\":872:998   */\n    tag_48:\n        /* \"#utility.yul\":909:916   */\n      0x00\n        /* \"#utility.yul\":949:991   */\n      0xffffffffffffffffffffffffffffffffffffffff\n        /* \"#utility.yul\":942:947   */\n      dup3\n        /* \"#utility.yul\":938:992   */\n      and\n        /* \"#utility.yul\":927:992   */\n      swap1\n      pop\n        /* \"#utility.yul\":872:998   */\n      swap2\n      swap1\n      pop\n      jump\t// out\n        /* \"#utility.yul\":1004:1100   */\n    tag_49:\n        /* \"#utility.yul\":1041:1048   */\n      0x00\n        /* \"#utility.yul\":1070:1094   */\n      tag_67\n        /* \"#utility.yul\":1088:1093   */\n      dup3\n        /* \"#utility.yul\":1070:1094   */\n      tag_48\n      jump\t// in\n    tag_67:\n        /* \"#utility.yul\":1059:1094   */\n      swap1\n      pop\n        /* \"#utility.yul\":1004:1100   */\n      swap2\n      swap1\n      pop\n      jump\t// out\n        /* \"#utility.yul\":1106:1224   */\n    tag_50:\n        /* \"#utility.yul\":1193:1217   */\n      tag_69\n        /* \"#utility.yul\":1211:1216   */\n      dup2\n        /* \"#utility.yul\":1193:1217   */\n      tag_49\n      jump\t// in\n    tag_69:\n        /* \"#utility.yul\":1188:1191   */\n      dup3\n        /* \"#utility.yul\":1181:1218   */\n      mstore\n        /* \"#utility.yul\":1106:1224   */\n      pop\n      pop\n      jump\t// out\n        /* \"#utility.yul\":1230:1452   */\n    tag_26:\n        /* \"#utility.yul\":1323:1327   */\n      0x00\n        /* \"#utility.yul\":1361:1363   */\n      0x20\n        /* \"#utility.yul\":1350:1359   */\n      dup3\n        /* \"#utility.yul\":1346:1364   */\n      add\n        /* \"#utility.yul\":1338:1364   */\n      swap1\n      pop\n        /* \"#utility.yul\":1374:1445   */\n      tag_71\n        /* \"#utility.yul\":1442:1443   */\n      0x00\n        /* \"#utility.yul\":1431:1440   */\n      dup4\n        /* \"#utility.yul\":1427:1444   */\n      add\n        /* \"#utility.yul\":1418:1424   */\n      dup5\n        /* \"#utility.yul\":1374:1445   */\n      tag_50\n      jump\t// in\n    tag_71:\n        /* \"#utility.yul\":1230:1452   */\n      swap3\n      swap2\n      pop\n      pop\n      jump\t// out\n        /* \"#utility.yul\":1458:1537   */\n    tag_51:\n        /* \"#utility.yul\":1497:1504   */\n      0x00\n        /* \"#utility.yul\":1526:1531   */\n      dup2\n        /* \"#utility.yul\":1515:1531   */\n      swap1\n      pop\n        /* \"#utility.yul\":1458:1537   */\n      swap2\n      swap1\n      pop\n      jump\t// out\n        /* \"#utility.yul\":1543:1700   */\n    tag_52:\n        /* \"#utility.yul\":1648:1693   */\n      tag_74\n        /* \"#utility.yul\":1668:1692   */\n      tag_75\n        /* \"#utility.yul\":1686:1691   */\n      dup3\n        /* \"#utility.yul\":1668:1692   */\n      tag_46\n      jump\t// in\n    tag_75:\n        /* \"#utility.yul\":1648:1693   */\n      tag_51\n      jump\t// in\n    tag_74:\n        /* \"#utility.yul\":1643:1646   */\n      dup3\n        /* \"#utility.yul\":1636:1694   */\n      mstore\n        /* \"#utility.yul\":1543:1700   */\n      pop\n      pop\n      jump\t// out\n        /* \"#utility.yul\":1706:2103   */\n    tag_41:\n        /* \"#utility.yul\":1846:1849   */\n      0x00\n        /* \"#utility.yul\":1861:1936   */\n      tag_77\n        /* \"#utility.yul\":1932:1935   */\n      dup3\n        /* \"#utility.yul\":1923:1929   */\n      dup6\n        /* \"#utility.yul\":1861:1936   */\n      tag_52\n      jump\t// in\n    tag_77:\n        /* \"#utility.yul\":1961:1963   */\n      0x20\n        /* \"#utility.yul\":1956:1959   */\n      dup3\n        /* \"#utility.yul\":1952:1964   */\n      add\n        /* \"#utility.yul\":1945:1964   */\n      swap2\n      pop\n        /* \"#utility.yul\":1974:2049   */\n      tag_78\n        /* \"#utility.yul\":2045:2048   */\n      dup3\n        /* \"#utility.yul\":2036:2042   */\n      dup5\n        /* \"#utility.yul\":1974:2049   */\n      tag_52\n      jump\t// in\n    tag_78:\n        /* \"#utility.yul\":2074:2076   */\n      0x20\n        /* \"#utility.yul\":2069:2072   */\n      dup3\n        /* \"#utility.yul\":2065:2077   */\n      add\n        /* \"#utility.yul\":2058:2077   */\n      swap2\n      pop\n        /* \"#utility.yul\":2094:2097   */\n      dup2\n        /* \"#utility.yul\":2087:2097   */\n      swap1\n      pop\n        /* \"#utility.yul\":1706:2103   */\n      swap4\n      swap3\n      pop\n      pop\n      pop\n      jump\t// out\n        /* \"#utility.yul\":2109:2289   */\n    tag_53:\n        /* \"#utility.yul\":2157:2234   */\n      0x4e487b7100000000000000000000000000000000000000000000000000000000\n        /* \"#utility.yul\":2154:2155   */\n      0x00\n        /* \"#utility.yul\":2147:2235   */\n      mstore\n        /* \"#utility.yul\":2254:2258   */\n      0x12\n        /* \"#utility.yul\":2251:2252   */\n      0x04\n        /* \"#utility.yul\":2244:2259   */\n      mstore\n        /* \"#utility.yul\":2278:2282   */\n      0x24\n        /* \"#utility.yul\":2275:2276   */\n      0x00\n        /* \"#utility.yul\":2268:2283   */\n      revert\n        /* \"#utility.yul\":2295:2471   */\n    tag_43:\n        /* \"#utility.yul\":2327:2328   */\n      0x00\n        /* \"#utility.yul\":2344:2364   */\n      tag_81\n        /* \"#utility.yul\":2362:2363   */\n      dup3\n        /* \"#utility.yul\":2344:2364   */\n      tag_46\n      jump\t// in\n    tag_81:\n        /* \"#utility.yul\":2339:2364   */\n      swap2\n      pop\n        /* \"#utility.yul\":2378:2398   */\n      tag_82\n        /* \"#utility.yul\":2396:2397   */\n      dup4\n        /* \"#utility.yul\":2378:2398   */\n      tag_46\n      jump\t// in\n    tag_82:\n        /* \"#utility.yul\":2373:2398   */\n      swap3\n      pop\n        /* \"#utility.yul\":2417:2418   */\n      dup3\n        /* \"#utility.yul\":2407:2442   */\n      tag_83\n      jumpi\n        /* \"#utility.yul\":2422:2440   */\n      tag_84\n      tag_53\n      jump\t// in\n    tag_84:\n        /* \"#utility.yul\":2407:2442   */\n    tag_83:\n        /* \"#utility.yul\":2463:2464   */\n      dup3\n        /* \"#utility.yul\":2460:2461   */\n      dup3\n        /* \"#utility.yul\":2456:2465   */\n      mod\n        /* \"#utility.yul\":2451:2465   */\n      swap1\n      pop\n        /* \"#utility.yul\":2295:2471   */\n      swap3\n      swap2\n      pop\n      pop\n      jump\t// out\n\n    auxdata: 0xa26469706673582212202977c29e5de4286be78fa364da3640f85d251bdfd2548356e5382a7c9528f53564736f6c63430008120033\n}\n",
				"bytecode": {
					"linkReferences": {},
					"object": "6080604052486000554660015541600260006101000a81548173ffffffffffffffffffffffffffffffffffffffff021916908373ffffffffffffffffffffffffffffffffffffffff1602179055504460035545600455436005554260065534801561006957600080fd5b506103b5806100796000396000f3fe608060405234801561001057600080fd5b50600436106100885760003560e01c80639163f8971161005b5780639163f8971461010557806393c7542b14610123578063a58c30c514610141578063ad7eb5601461015f57610088565b806302e4af011461008d5780630eb524d4146100ab5780630fa2d864146100c9578063705a3644146100e7575b600080fd5b61009561017d565b6040516100a29190610227565b60405180910390f35b6100b36101c1565b6040516100c0919061025b565b60405180910390f35b6100d16101c7565b6040516100de919061025b565b60405180910390f35b6100ef6101cd565b6040516100fc91906102b7565b60405180910390f35b61010d6101f3565b60405161011a919061025b565b60405180910390f35b61012b6101f9565b604051610138919061025b565b60405180910390f35b6101496101ff565b604051610156919061025b565b60405180910390f35b610167610205565b604051610174919061025b565b60405180910390f35b60008060fb42446040516020016101959291906102f3565b6040516020818303038152906040528051906020012060001c6101b8919061034e565b90508091505090565b60005481565b60035481565b600260009054906101000a900473ffffffffffffffffffffffffffffffffffffffff1681565b60055481565b60065481565b60015481565b60045481565b600060ff82169050919050565b6102218161020b565b82525050565b600060208201905061023c6000830184610218565b92915050565b6000819050919050565b61025581610242565b82525050565b6000602082019050610270600083018461024c565b92915050565b600073ffffffffffffffffffffffffffffffffffffffff82169050919050565b60006102a182610276565b9050919050565b6102b181610296565b82525050565b60006020820190506102cc60008301846102a8565b92915050565b6000819050919050565b6102ed6102e882610242565b6102d2565b82525050565b60006102ff82856102dc565b60208201915061030f82846102dc565b6020820191508190509392505050565b7f4e487b7100000000000000000000000000000000000000000000000000000000600052601260045260246000fd5b600061035982610242565b915061036483610242565b9250826103745761037361031f565b5b82820690509291505056fea26469706673582212202977c29e5de4286be78fa364da3640f85d251bdfd2548356e5382a7c9528f53564736f6c63430008120033",
					"opcodes": "PUSH1 0x80 PUSH1 0x40 MSTORE BASEFEE PUSH1 0x0 SSTORE CHAINID PUSH1 0x1 SSTORE COINBASE PUSH1 0x2 PUSH1 0x0 PUSH2 0x100 EXP DUP2 SLOAD DUP2 PUSH20 0xFFFFFFFFFFFFFFFFFFFFFFFFFFFFFFFFFFFFFFFF MUL NOT AND SWAP1 DUP4 PUSH20 0xFFFFFFFFFFFFFFFFFFFFFFFFFFFFFFFFFFFFFFFF AND MUL OR SWAP1 SSTORE POP PREVRANDAO PUSH1 0x3 SSTORE GASLIMIT PUSH1 0x4 SSTORE NUMBER PUSH1 0x5 SSTORE TIMESTAMP PUSH1 0x6 SSTORE CALLVALUE DUP1 ISZERO PUSH2 0x69 JUMPI PUSH1 0x0 DUP1 REVERT JUMPDEST POP PUSH2 0x3B5 DUP1 PUSH2 0x79 PUSH1 0x0 CODECOPY PUSH1 0x0 RETURN INVALID PUSH1 0x80 PUSH1 0x40 MSTORE CALLVALUE DUP1 ISZERO PUSH2 0x10 JUMPI PUSH1 0x0 DUP1 REVERT JUMPDEST POP PUSH1 0x4 CALLDATASIZE LT PUSH2 0x88 JUMPI PUSH1 0x0 CALLDATALOAD PUSH1 0xE0 SHR DUP1 PUSH4 0x9163F897 GT PUSH2 0x5B JUMPI DUP1 PUSH4 0x9163F897 EQ PUSH2 0x105 JUMPI DUP1 PUSH4 0x93C7542B EQ PUSH2 0x123 JUMPI DUP1 PUSH4 0xA58C30C5 EQ PUSH2 0x141 JUMPI DUP1 PUSH4 0xAD7EB560 EQ PUSH2 0x15F JUMPI PUSH2 0x88 JUMP JUMPDEST DUP1 PUSH4 0x2E4AF01 EQ PUSH2 0x8D JUMPI DUP1 PUSH4 0xEB524D4 EQ PUSH2 0xAB JUMPI DUP1 PUSH4 0xFA2D864 EQ PUSH2 0xC9 JUMPI DUP1 PUSH4 0x705A3644 EQ PUSH2 0xE7 JUMPI JUMPDEST PUSH1 0x0 DUP1 REVERT JUMPDEST PUSH2 0x95 PUSH2 0x17D JUMP JUMPDEST PUSH1 0x40 MLOAD PUSH2 0xA2 SWAP2 SWAP1 PUSH2 0x227 JUMP JUMPDEST PUSH1 0x40 MLOAD DUP1 SWAP2 SUB SWAP1 RETURN JUMPDEST PUSH2 0xB3 PUSH2 0x1C1 JUMP JUMPDEST PUSH1 0x40 MLOAD PUSH2 0xC0 SWAP2 SWAP1 PUSH2 0x25B JUMP JUMPDEST PUSH1 0x40 MLOAD DUP1 SWAP2 SUB SWAP1 RETURN JUMPDEST PUSH2 0xD1 PUSH2 0x1C7 JUMP JUMPDEST PUSH1 0x40 MLOAD PUSH2 0xDE SWAP2 SWAP1 PUSH2 0x25B JUMP JUMPDEST PUSH1 0x40 MLOAD DUP1 SWAP2 SUB SWAP1 RETURN JUMPDEST PUSH2 0xEF PUSH2 0x1CD JUMP JUMPDEST PUSH1 0x40 MLOAD PUSH2 0xFC SWAP2 SWAP1 PUSH2 0x2B7 JUMP JUMPDEST PUSH1 0x40 MLOAD DUP1 SWAP2 SUB SWAP1 RETURN JUMPDEST PUSH2 0x10D PUSH2 0x1F3 JUMP JUMPDEST PUSH1 0x40 MLOAD PUSH2 0x11A SWAP2 SWAP1 PUSH2 0x25B JUMP JUMPDEST PUSH1 0x40 MLOAD DUP1 SWAP2 SUB SWAP1 RETURN JUMPDEST PUSH2 0x12B PUSH2 0x1F9 JUMP JUMPDEST PUSH1 0x40 MLOAD PUSH2 0x138 SWAP2 SWAP1 PUSH2 0x25B JUMP JUMPDEST PUSH1 0x40 MLOAD DUP1 SWAP2 SUB SWAP1 RETURN JUMPDEST PUSH2 0x149 PUSH2 0x1FF JUMP JUMPDEST PUSH1 0x40 MLOAD PUSH2 0x156 SWAP2 SWAP1 PUSH2 0x25B JUMP JUMPDEST PUSH1 0x40 MLOAD DUP1 SWAP2 SUB SWAP1 RETURN JUMPDEST PUSH2 0x167 PUSH2 0x205 JUMP JUMPDEST PUSH1 0x40 MLOAD PUSH2 0x174 SWAP2 SWAP1 PUSH2 0x25B JUMP JUMPDEST PUSH1 0x40 MLOAD DUP1 SWAP2 SUB SWAP1 RETURN JUMPDEST PUSH1 0x0 DUP1 PUSH1 0xFB TIMESTAMP PREVRANDAO PUSH1 0x40 MLOAD PUSH1 0x20 ADD PUSH2 0x195 SWAP3 SWAP2 SWAP1 PUSH2 0x2F3 JUMP JUMPDEST PUSH1 0x40 MLOAD PUSH1 0x20 DUP2 DUP4 SUB SUB DUP2 MSTORE SWAP1 PUSH1 0x40 MSTORE DUP1 MLOAD SWAP1 PUSH1 0x20 ADD KECCAK256 PUSH1 0x0 SHR PUSH2 0x1B8 SWAP2 SWAP1 PUSH2 0x34E JUMP JUMPDEST SWAP1 POP DUP1 SWAP2 POP POP SWAP1 JUMP JUMPDEST PUSH1 0x0 SLOAD DUP2 JUMP JUMPDEST PUSH1 0x3 SLOAD DUP2 JUMP JUMPDEST PUSH1 0x2 PUSH1 0x0 SWAP1 SLOAD SWAP1 PUSH2 0x100 EXP SWAP1 DIV PUSH20 0xFFFFFFFFFFFFFFFFFFFFFFFFFFFFFFFFFFFFFFFF AND DUP2 JUMP JUMPDEST PUSH1 0x5 SLOAD DUP2 JUMP JUMPDEST PUSH1 0x6 SLOAD DUP2 JUMP JUMPDEST PUSH1 0x1 SLOAD DUP2 JUMP JUMPDEST PUSH1 0x4 SLOAD DUP2 JUMP JUMPDEST PUSH1 0x0 PUSH1 0xFF DUP3 AND SWAP1 POP SWAP2 SWAP1 POP JUMP JUMPDEST PUSH2 0x221 DUP2 PUSH2 0x20B JUMP JUMPDEST DUP3 MSTORE POP POP JUMP JUMPDEST PUSH1 0x0 PUSH1 0x20 DUP3 ADD SWAP1 POP PUSH2 0x23C PUSH1 0x0 DUP4 ADD DUP5 PUSH2 0x218 JUMP JUMPDEST SWAP3 SWAP2 POP POP JUMP JUMPDEST PUSH1 0x0 DUP2 SWAP1 POP SWAP2 SWAP1 POP JUMP JUMPDEST PUSH2 0x255 DUP2 PUSH2 0x242 JUMP JUMPDEST DUP3 MSTORE POP POP JUMP JUMPDEST PUSH1 0x0 PUSH1 0x20 DUP3 ADD SWAP1 POP PUSH2 0x270 PUSH1 0x0 DUP4 ADD DUP5 PUSH2 0x24C JUMP JUMPDEST SWAP3 SWAP2 POP POP JUMP JUMPDEST PUSH1 0x0 PUSH20 0xFFFFFFFFFFFFFFFFFFFFFFFFFFFFFFFFFFFFFFFF DUP3 AND SWAP1 POP SWAP2 SWAP1 POP JUMP JUMPDEST PUSH1 0x0 PUSH2 0x2A1 DUP3 PUSH2 0x276 JUMP JUMPDEST SWAP1 POP SWAP2 SWAP1 POP JUMP JUMPDEST PUSH2 0x2B1 DUP2 PUSH2 0x296 JUMP JUMPDEST DUP3 MSTORE POP POP JUMP JUMPDEST PUSH1 0x0 PUSH1 0x20 DUP3 ADD SWAP1 POP PUSH2 0x2CC PUSH1 0x0 DUP4 ADD DUP5 PUSH2 0x2A8 JUMP JUMPDEST SWAP3 SWAP2 POP POP JUMP JUMPDEST PUSH1 0x0 DUP2 SWAP1 POP SWAP2 SWAP1 POP JUMP JUMPDEST PUSH2 0x2ED PUSH2 0x2E8 DUP3 PUSH2 0x242 JUMP JUMPDEST PUSH2 0x2D2 JUMP JUMPDEST DUP3 MSTORE POP POP JUMP JUMPDEST PUSH1 0x0 PUSH2 0x2FF DUP3 DUP6 PUSH2 0x2DC JUMP JUMPDEST PUSH1 0x20 DUP3 ADD SWAP2 POP PUSH2 0x30F DUP3 DUP5 PUSH2 0x2DC JUMP JUMPDEST PUSH1 0x20 DUP3 ADD SWAP2 POP DUP2 SWAP1 POP SWAP4 SWAP3 POP POP POP JUMP JUMPDEST PUSH32 0x4E487B7100000000000000000000000000000000000000000000000000000000 PUSH1 0x0 MSTORE PUSH1 0x12 PUSH1 0x4 MSTORE PUSH1 0x24 PUSH1 0x0 REVERT JUMPDEST PUSH1 0x0 PUSH2 0x359 DUP3 PUSH2 0x242 JUMP JUMPDEST SWAP2 POP PUSH2 0x364 DUP4 PUSH2 0x242 JUMP JUMPDEST SWAP3 POP DUP3 PUSH2 0x374 JUMPI PUSH2 0x373 PUSH2 0x31F JUMP JUMPDEST JUMPDEST DUP3 DUP3 MOD SWAP1 POP SWAP3 SWAP2 POP POP JUMP INVALID LOG2 PUSH5 0x6970667358 0x22 SLT KECCAK256 0x29 PUSH24 0xC29E5DE4286BE78FA364DA3640F85D251BDFD2548356E538 0x2A PUSH29 0x9528F53564736F6C634300081200330000000000000000000000000000 "
				},
				"gasEstimates": {
					"creation": {
						"codeDepositCost": "189800",
						"executionCost": "157128",
						"totalCost": "346928"
					},
					"external": {
						"block1()": "2452",
						"block2()": "2473",
						"block3()": "2581",
						"block4()": "2474",
						"block5()": "2495",
						"block6()": "2429",
						"block7()": "2451",
						"generateRandom()": "infinite"
					}
				},
				"methodIdentifiers": {
					"block1()": "0eb524d4",
					"block2()": "a58c30c5",
					"block3()": "705a3644",
					"block4()": "0fa2d864",
					"block5()": "ad7eb560",
					"block6()": "9163f897",
					"block7()": "93c7542b",
					"generateRandom()": "02e4af01"
				}
			},
			"storageLayout": {
				"storage": [
					{
						"astId": 5,
						"contract": "ex13/BLockProperties.sol:BlockProperty",
						"label": "block1",
						"offset": 0,
						"slot": "0",
						"type": "t_uint256"
					},
					{
						"astId": 9,
						"contract": "ex13/BLockProperties.sol:BlockProperty",
						"label": "block2",
						"offset": 0,
						"slot": "1",
						"type": "t_uint256"
					},
					{
						"astId": 13,
						"contract": "ex13/BLockProperties.sol:BlockProperty",
						"label": "block3",
						"offset": 0,
						"slot": "2",
						"type": "t_address"
					},
					{
						"astId": 17,
						"contract": "ex13/BLockProperties.sol:BlockProperty",
						"label": "block4",
						"offset": 0,
						"slot": "3",
						"type": "t_uint256"
					},
					{
						"astId": 21,
						"contract": "ex13/BLockProperties.sol:BlockProperty",
						"label": "block5",
						"offset": 0,
						"slot": "4",
						"type": "t_uint256"
					},
					{
						"astId": 25,
						"contract": "ex13/BLockProperties.sol:BlockProperty",
						"label": "block6",
						"offset": 0,
						"slot": "5",
						"type": "t_uint256"
					},
					{
						"astId": 29,
						"contract": "ex13/BLockProperties.sol:BlockProperty",
						"label": "block7",
						"offset": 0,
						"slot": "6",
						"type": "t_uint256"
					}
				],
				"types": {
					"t_address": {
						"encoding": "inplace",
						"label": "address",
						"numberOfBytes": "20"
					},
					"t_uint256": {
						"encoding": "inplace",
						"label": "uint256",
						"numberOfBytes": "32"
					}
				}
			},
			"userdoc": {
				"kind": "user",
				"methods": {},
				"version": 1
			}
		}
	}
}