{
	"ex13/loof.sol": {
		"Loop": {
			"abi": [
				{
					"inputs": [],
					"name": "dowhileLoop",
					"outputs": [
						{
							"internalType": "uint256",
							"name": "",
							"type": "uint256"
						}
					],
					"stateMutability": "pure",
					"type": "function"
				},
				{
					"inputs": [],
					"name": "forLoop",
					"outputs": [
						{
							"internalType": "uint256",
							"name": "",
							"type": "uint256"
						}
					],
					"stateMutability": "pure",
					"type": "function"
				},
				{
					"inputs": [],
					"name": "loopBreak",
					"outputs": [
						{
							"internalType": "uint256",
							"name": "",
							"type": "uint256"
						}
					],
					"stateMutability": "pure",
					"type": "function"
				},
				{
					"inputs": [],
					"name": "loopContinue",
					"outputs": [
						{
							"internalType": "uint256",
							"name": "",
							"type": "uint256"
						}
					],
					"stateMutability": "pure",
					"type": "function"
				},
				{
					"inputs": [],
					"name": "whileLoop",
					"outputs": [
						{
							"internalType": "uint256",
							"name": "",
							"type": "uint256"
						}
					],
					"stateMutability": "pure",
					"type": "function"
				}
			],
			"devdoc": {
				"kind": "dev",
				"methods": {},
				"version": 1
			},
			"evm": {
				"assembly": "    /* \"ex13/loof.sol\":58:993  contract Loop {... */\n  mstore(0x40, 0x80)\n  callvalue\n  dup1\n  iszero\n  tag_1\n  jumpi\n  0x00\n  dup1\n  revert\ntag_1:\n  pop\n  dataSize(sub_0)\n  dup1\n  dataOffset(sub_0)\n  0x00\n  codecopy\n  0x00\n  return\nstop\n\nsub_0: assembly {\n        /* \"ex13/loof.sol\":58:993  contract Loop {... */\n      mstore(0x40, 0x80)\n      callvalue\n      dup1\n      iszero\n      tag_1\n      jumpi\n      0x00\n      dup1\n      revert\n    tag_1:\n      pop\n      jumpi(tag_2, lt(calldatasize, 0x04))\n      shr(0xe0, calldataload(0x00))\n      dup1\n      0x28eb7ef3\n      eq\n      tag_3\n      jumpi\n      dup1\n      0xa94fb035\n      eq\n      tag_4\n      jumpi\n      dup1\n      0xe7c898ef\n      eq\n      tag_5\n      jumpi\n      dup1\n      0xed62931a\n      eq\n      tag_6\n      jumpi\n      dup1\n      0xfc0e6008\n      eq\n      tag_7\n      jumpi\n    tag_2:\n      0x00\n      dup1\n      revert\n        /* \"ex13/loof.sol\":451:613  function dowhileLoop() public pure returns(uint){... */\n    tag_3:\n      tag_8\n      tag_9\n      jump\t// in\n    tag_8:\n      mload(0x40)\n      tag_10\n      swap2\n      swap1\n      tag_11\n      jump\t// in\n    tag_10:\n      mload(0x40)\n      dup1\n      swap2\n      sub\n      swap1\n      return\n        /* \"ex13/loof.sol\":802:991  function loopContinue() public pure returns(uint){... */\n    tag_4:\n      tag_12\n      tag_13\n      jump\t// in\n    tag_12:\n      mload(0x40)\n      tag_14\n      swap2\n      swap1\n      tag_11\n      jump\t// in\n    tag_14:\n      mload(0x40)\n      dup1\n      swap2\n      sub\n      swap1\n      return\n        /* \"ex13/loof.sol\":291:447  function whileLoop() public pure returns(uint){... */\n    tag_5:\n      tag_15\n      tag_16\n      jump\t// in\n    tag_15:\n      mload(0x40)\n      tag_17\n      swap2\n      swap1\n      tag_11\n      jump\t// in\n    tag_17:\n      mload(0x40)\n      dup1\n      swap2\n      sub\n      swap1\n      return\n        /* \"ex13/loof.sol\":617:798  function loopBreak() public pure returns(uint){... */\n    tag_6:\n      tag_18\n      tag_19\n      jump\t// in\n    tag_18:\n      mload(0x40)\n      tag_20\n      swap2\n      swap1\n      tag_11\n      jump\t// in\n    tag_20:\n      mload(0x40)\n      dup1\n      swap2\n      sub\n      swap1\n      return\n        /* \"ex13/loof.sol\":122:287  function forLoop() public pure returns(uint){... */\n    tag_7:\n      tag_21\n      tag_22\n      jump\t// in\n    tag_21:\n      mload(0x40)\n      tag_23\n      swap2\n      swap1\n      tag_11\n      jump\t// in\n    tag_23:\n      mload(0x40)\n      dup1\n      swap2\n      sub\n      swap1\n      return\n        /* \"ex13/loof.sol\":451:613  function dowhileLoop() public pure returns(uint){... */\n    tag_9:\n        /* \"ex13/loof.sol\":494:498  uint */\n      0x00\n        /* \"ex13/loof.sol\":505:513  uint sum */\n      dup1\n        /* \"ex13/loof.sol\":516:517  0 */\n      0x00\n        /* \"ex13/loof.sol\":505:517  uint sum = 0 */\n      swap1\n      pop\n        /* \"ex13/loof.sol\":523:530  uint8 i */\n      0x00\n        /* \"ex13/loof.sol\":533:534  1 */\n      0x01\n        /* \"ex13/loof.sol\":523:534  uint8 i = 1 */\n      swap1\n      pop\n        /* \"ex13/loof.sol\":540:593  do {... */\n    tag_25:\n        /* \"ex13/loof.sol\":558:559  i */\n      dup1\n        /* \"ex13/loof.sol\":551:559  sum += i */\n      0xff\n      and\n      dup3\n      tag_28\n      swap2\n      swap1\n      tag_29\n      jump\t// in\n    tag_28:\n      swap2\n      pop\n        /* \"ex13/loof.sol\":567:570  i++ */\n      dup1\n      dup1\n      tag_30\n      swap1\n      tag_31\n      jump\t// in\n    tag_30:\n      swap2\n      pop\n      pop\n        /* \"ex13/loof.sol\":589:591  11 */\n      0x0b\n        /* \"ex13/loof.sol\":585:586  i */\n      dup2\n        /* \"ex13/loof.sol\":585:591  i < 11 */\n      0xff\n      and\n      lt\n        /* \"ex13/loof.sol\":540:593  do {... */\n      tag_25\n      jumpi\n        /* \"ex13/loof.sol\":605:608  sum */\n      dup2\n        /* \"ex13/loof.sol\":598:608  return sum */\n      swap3\n      pop\n      pop\n      pop\n        /* \"ex13/loof.sol\":451:613  function dowhileLoop() public pure returns(uint){... */\n      swap1\n      jump\t// out\n        /* \"ex13/loof.sol\":802:991  function loopContinue() public pure returns(uint){... */\n    tag_13:\n        /* \"ex13/loof.sol\":846:850  uint */\n      0x00\n        /* \"ex13/loof.sol\":857:866  uint8 sum */\n      dup1\n        /* \"ex13/loof.sol\":867:868  0 */\n      0x00\n        /* \"ex13/loof.sol\":857:868  uint8 sum=0 */\n      swap1\n      pop\n        /* \"ex13/loof.sol\":878:885  uint8 i */\n      0x00\n        /* \"ex13/loof.sol\":886:887  1 */\n      0x01\n        /* \"ex13/loof.sol\":878:887  uint8 i=1 */\n      swap1\n      pop\n        /* \"ex13/loof.sol\":874:971  for(uint8 i=1; i < 11; i++) {... */\n    tag_33:\n        /* \"ex13/loof.sol\":893:895  11 */\n      0x0b\n        /* \"ex13/loof.sol\":889:890  i */\n      dup2\n        /* \"ex13/loof.sol\":889:895  i < 11 */\n      0xff\n      and\n      lt\n        /* \"ex13/loof.sol\":874:971  for(uint8 i=1; i < 11; i++) {... */\n      iszero\n      tag_34\n      jumpi\n        /* \"ex13/loof.sol\":918:920  10 */\n      0x0a\n        /* \"ex13/loof.sol\":913:914  i */\n      dup2\n        /* \"ex13/loof.sol\":913:920  i == 10 */\n      0xff\n      and\n      sub\n        /* \"ex13/loof.sol\":910:949  if(i == 10) {... */\n      iszero\n        /* \"ex13/loof.sol\":932:940  continue */\n      tag_35\n        /* \"ex13/loof.sol\":910:949  if(i == 10) {... */\n      jumpi\n        /* \"ex13/loof.sol\":963:964  i */\n      dup1\n        /* \"ex13/loof.sol\":956:964  sum += i */\n      dup3\n      tag_37\n      swap2\n      swap1\n      tag_38\n      jump\t// in\n    tag_37:\n      swap2\n      pop\n        /* \"ex13/loof.sol\":874:971  for(uint8 i=1; i < 11; i++) {... */\n    tag_35:\n        /* \"ex13/loof.sol\":897:900  i++ */\n      dup1\n      dup1\n      tag_39\n      swap1\n      tag_31\n      jump\t// in\n    tag_39:\n      swap2\n      pop\n      pop\n        /* \"ex13/loof.sol\":874:971  for(uint8 i=1; i < 11; i++) {... */\n      jump(tag_33)\n    tag_34:\n      pop\n        /* \"ex13/loof.sol\":983:986  sum */\n      dup1\n        /* \"ex13/loof.sol\":976:986  return sum */\n      0xff\n      and\n      swap2\n      pop\n      pop\n        /* \"ex13/loof.sol\":802:991  function loopContinue() public pure returns(uint){... */\n      swap1\n      jump\t// out\n        /* \"ex13/loof.sol\":291:447  function whileLoop() public pure returns(uint){... */\n    tag_16:\n        /* \"ex13/loof.sol\":332:336  uint */\n      0x00\n        /* \"ex13/loof.sol\":343:352  uint8 sum */\n      dup1\n        /* \"ex13/loof.sol\":355:356  0 */\n      0x00\n        /* \"ex13/loof.sol\":343:356  uint8 sum = 0 */\n      swap1\n      pop\n        /* \"ex13/loof.sol\":362:369  uint8 i */\n      0x00\n        /* \"ex13/loof.sol\":372:373  1 */\n      0x01\n        /* \"ex13/loof.sol\":362:373  uint8 i = 1 */\n      swap1\n      pop\n        /* \"ex13/loof.sol\":379:427  while(i < 11) {... */\n    tag_41:\n        /* \"ex13/loof.sol\":389:391  11 */\n      0x0b\n        /* \"ex13/loof.sol\":385:386  i */\n      dup2\n        /* \"ex13/loof.sol\":385:391  i < 11 */\n      0xff\n      and\n      lt\n        /* \"ex13/loof.sol\":379:427  while(i < 11) {... */\n      iszero\n      tag_42\n      jumpi\n        /* \"ex13/loof.sol\":408:409  i */\n      dup1\n        /* \"ex13/loof.sol\":401:409  sum += i */\n      dup3\n      tag_43\n      swap2\n      swap1\n      tag_38\n      jump\t// in\n    tag_43:\n      swap2\n      pop\n        /* \"ex13/loof.sol\":417:420  i++ */\n      dup1\n      dup1\n      tag_44\n      swap1\n      tag_31\n      jump\t// in\n    tag_44:\n      swap2\n      pop\n      pop\n        /* \"ex13/loof.sol\":379:427  while(i < 11) {... */\n      jump(tag_41)\n    tag_42:\n        /* \"ex13/loof.sol\":439:442  sum */\n      dup2\n        /* \"ex13/loof.sol\":432:442  return sum */\n      0xff\n      and\n      swap3\n      pop\n      pop\n      pop\n        /* \"ex13/loof.sol\":291:447  function whileLoop() public pure returns(uint){... */\n      swap1\n      jump\t// out\n        /* \"ex13/loof.sol\":617:798  function loopBreak() public pure returns(uint){... */\n    tag_19:\n        /* \"ex13/loof.sol\":658:662  uint */\n      0x00\n        /* \"ex13/loof.sol\":669:678  uint8 sum */\n      dup1\n        /* \"ex13/loof.sol\":679:680  0 */\n      0x00\n        /* \"ex13/loof.sol\":669:680  uint8 sum=0 */\n      swap1\n      pop\n        /* \"ex13/loof.sol\":690:697  uint8 i */\n      0x00\n        /* \"ex13/loof.sol\":698:699  1 */\n      0x01\n        /* \"ex13/loof.sol\":690:699  uint8 i=1 */\n      swap1\n      pop\n        /* \"ex13/loof.sol\":686:778  for(uint8 i=1; i < 11; i++) {... */\n    tag_46:\n        /* \"ex13/loof.sol\":705:707  11 */\n      0x0b\n        /* \"ex13/loof.sol\":701:702  i */\n      dup2\n        /* \"ex13/loof.sol\":701:707  i < 11 */\n      0xff\n      and\n      lt\n        /* \"ex13/loof.sol\":686:778  for(uint8 i=1; i < 11; i++) {... */\n      iszero\n      tag_47\n      jumpi\n        /* \"ex13/loof.sol\":729:730  i */\n      dup1\n        /* \"ex13/loof.sol\":722:730  sum += i */\n      dup3\n      tag_49\n      swap2\n      swap1\n      tag_38\n      jump\t// in\n    tag_49:\n      swap2\n      pop\n        /* \"ex13/loof.sol\":745:746  5 */\n      0x05\n        /* \"ex13/loof.sol\":741:742  i */\n      dup2\n        /* \"ex13/loof.sol\":741:746  i > 5 */\n      0xff\n      and\n      gt\n        /* \"ex13/loof.sol\":758:763  break */\n      tag_47\n        /* \"ex13/loof.sol\":738:772  if(i > 5) {... */\n      jumpi\n        /* \"ex13/loof.sol\":709:712  i++ */\n      dup1\n      dup1\n      tag_51\n      swap1\n      tag_31\n      jump\t// in\n    tag_51:\n      swap2\n      pop\n      pop\n        /* \"ex13/loof.sol\":686:778  for(uint8 i=1; i < 11; i++) {... */\n      jump(tag_46)\n    tag_47:\n      pop\n        /* \"ex13/loof.sol\":790:793  sum */\n      dup1\n        /* \"ex13/loof.sol\":783:793  return sum */\n      0xff\n      and\n      swap2\n      pop\n      pop\n        /* \"ex13/loof.sol\":617:798  function loopBreak() public pure returns(uint){... */\n      swap1\n      jump\t// out\n        /* \"ex13/loof.sol\":122:287  function forLoop() public pure returns(uint){... */\n    tag_22:\n        /* \"ex13/loof.sol\":161:165  uint */\n      0x00\n        /* \"ex13/loof.sol\":197:206  uint8 sum */\n      dup1\n        /* \"ex13/loof.sol\":209:210  0 */\n      0x00\n        /* \"ex13/loof.sol\":197:210  uint8 sum = 0 */\n      swap1\n      pop\n        /* \"ex13/loof.sol\":220:227  uint8 i */\n      0x00\n        /* \"ex13/loof.sol\":228:229  1 */\n      0x01\n        /* \"ex13/loof.sol\":220:229  uint8 i=1 */\n      swap1\n      pop\n        /* \"ex13/loof.sol\":216:267  for(uint8 i=1; i < 11; i++) {... */\n    tag_53:\n        /* \"ex13/loof.sol\":235:237  11 */\n      0x0b\n        /* \"ex13/loof.sol\":231:232  i */\n      dup2\n        /* \"ex13/loof.sol\":231:237  i < 11 */\n      0xff\n      and\n      lt\n        /* \"ex13/loof.sol\":216:267  for(uint8 i=1; i < 11; i++) {... */\n      iszero\n      tag_54\n      jumpi\n        /* \"ex13/loof.sol\":259:260  i */\n      dup1\n        /* \"ex13/loof.sol\":252:260  sum += i */\n      dup3\n      tag_56\n      swap2\n      swap1\n      tag_38\n      jump\t// in\n    tag_56:\n      swap2\n      pop\n        /* \"ex13/loof.sol\":239:242  i++ */\n      dup1\n      dup1\n      tag_57\n      swap1\n      tag_31\n      jump\t// in\n    tag_57:\n      swap2\n      pop\n      pop\n        /* \"ex13/loof.sol\":216:267  for(uint8 i=1; i < 11; i++) {... */\n      jump(tag_53)\n    tag_54:\n      pop\n        /* \"ex13/loof.sol\":279:282  sum */\n      dup1\n        /* \"ex13/loof.sol\":272:282  return sum */\n      0xff\n      and\n      swap2\n      pop\n      pop\n        /* \"ex13/loof.sol\":122:287  function forLoop() public pure returns(uint){... */\n      swap1\n      jump\t// out\n        /* \"#utility.yul\":7:84   */\n    tag_58:\n        /* \"#utility.yul\":44:51   */\n      0x00\n        /* \"#utility.yul\":73:78   */\n      dup2\n        /* \"#utility.yul\":62:78   */\n      swap1\n      pop\n        /* \"#utility.yul\":7:84   */\n      swap2\n      swap1\n      pop\n      jump\t// out\n        /* \"#utility.yul\":90:208   */\n    tag_59:\n        /* \"#utility.yul\":177:201   */\n      tag_65\n        /* \"#utility.yul\":195:200   */\n      dup2\n        /* \"#utility.yul\":177:201   */\n      tag_58\n      jump\t// in\n    tag_65:\n        /* \"#utility.yul\":172:175   */\n      dup3\n        /* \"#utility.yul\":165:202   */\n      mstore\n        /* \"#utility.yul\":90:208   */\n      pop\n      pop\n      jump\t// out\n        /* \"#utility.yul\":214:436   */\n    tag_11:\n        /* \"#utility.yul\":307:311   */\n      0x00\n        /* \"#utility.yul\":345:347   */\n      0x20\n        /* \"#utility.yul\":334:343   */\n      dup3\n        /* \"#utility.yul\":330:348   */\n      add\n        /* \"#utility.yul\":322:348   */\n      swap1\n      pop\n        /* \"#utility.yul\":358:429   */\n      tag_67\n        /* \"#utility.yul\":426:427   */\n      0x00\n        /* \"#utility.yul\":415:424   */\n      dup4\n        /* \"#utility.yul\":411:428   */\n      add\n        /* \"#utility.yul\":402:408   */\n      dup5\n        /* \"#utility.yul\":358:429   */\n      tag_59\n      jump\t// in\n    tag_67:\n        /* \"#utility.yul\":214:436   */\n      swap3\n      swap2\n      pop\n      pop\n      jump\t// out\n        /* \"#utility.yul\":442:622   */\n    tag_60:\n        /* \"#utility.yul\":490:567   */\n      0x4e487b7100000000000000000000000000000000000000000000000000000000\n        /* \"#utility.yul\":487:488   */\n      0x00\n        /* \"#utility.yul\":480:568   */\n      mstore\n        /* \"#utility.yul\":587:591   */\n      0x11\n        /* \"#utility.yul\":584:585   */\n      0x04\n        /* \"#utility.yul\":577:592   */\n      mstore\n        /* \"#utility.yul\":611:615   */\n      0x24\n        /* \"#utility.yul\":608:609   */\n      0x00\n        /* \"#utility.yul\":601:616   */\n      revert\n        /* \"#utility.yul\":628:819   */\n    tag_29:\n        /* \"#utility.yul\":668:671   */\n      0x00\n        /* \"#utility.yul\":687:707   */\n      tag_70\n        /* \"#utility.yul\":705:706   */\n      dup3\n        /* \"#utility.yul\":687:707   */\n      tag_58\n      jump\t// in\n    tag_70:\n        /* \"#utility.yul\":682:707   */\n      swap2\n      pop\n        /* \"#utility.yul\":721:741   */\n      tag_71\n        /* \"#utility.yul\":739:740   */\n      dup4\n        /* \"#utility.yul\":721:741   */\n      tag_58\n      jump\t// in\n    tag_71:\n        /* \"#utility.yul\":716:741   */\n      swap3\n      pop\n        /* \"#utility.yul\":764:765   */\n      dup3\n        /* \"#utility.yul\":761:762   */\n      dup3\n        /* \"#utility.yul\":757:766   */\n      add\n        /* \"#utility.yul\":750:766   */\n      swap1\n      pop\n        /* \"#utility.yul\":785:788   */\n      dup1\n        /* \"#utility.yul\":782:783   */\n      dup3\n        /* \"#utility.yul\":779:789   */\n      gt\n        /* \"#utility.yul\":776:812   */\n      iszero\n      tag_72\n      jumpi\n        /* \"#utility.yul\":792:810   */\n      tag_73\n      tag_60\n      jump\t// in\n    tag_73:\n        /* \"#utility.yul\":776:812   */\n    tag_72:\n        /* \"#utility.yul\":628:819   */\n      swap3\n      swap2\n      pop\n      pop\n      jump\t// out\n        /* \"#utility.yul\":825:911   */\n    tag_61:\n        /* \"#utility.yul\":860:867   */\n      0x00\n        /* \"#utility.yul\":900:904   */\n      0xff\n        /* \"#utility.yul\":893:898   */\n      dup3\n        /* \"#utility.yul\":889:905   */\n      and\n        /* \"#utility.yul\":878:905   */\n      swap1\n      pop\n        /* \"#utility.yul\":825:911   */\n      swap2\n      swap1\n      pop\n      jump\t// out\n        /* \"#utility.yul\":917:1084   */\n    tag_31:\n        /* \"#utility.yul\":954:957   */\n      0x00\n        /* \"#utility.yul\":977:999   */\n      tag_76\n        /* \"#utility.yul\":993:998   */\n      dup3\n        /* \"#utility.yul\":977:999   */\n      tag_61\n      jump\t// in\n    tag_76:\n        /* \"#utility.yul\":968:999   */\n      swap2\n      pop\n        /* \"#utility.yul\":1021:1025   */\n      0xff\n        /* \"#utility.yul\":1014:1019   */\n      dup3\n        /* \"#utility.yul\":1011:1026   */\n      sub\n        /* \"#utility.yul\":1008:1049   */\n      tag_77\n      jumpi\n        /* \"#utility.yul\":1029:1047   */\n      tag_78\n      tag_60\n      jump\t// in\n    tag_78:\n        /* \"#utility.yul\":1008:1049   */\n    tag_77:\n        /* \"#utility.yul\":1076:1077   */\n      0x01\n        /* \"#utility.yul\":1069:1074   */\n      dup3\n        /* \"#utility.yul\":1065:1078   */\n      add\n        /* \"#utility.yul\":1058:1078   */\n      swap1\n      pop\n        /* \"#utility.yul\":917:1084   */\n      swap2\n      swap1\n      pop\n      jump\t// out\n        /* \"#utility.yul\":1090:1278   */\n    tag_38:\n        /* \"#utility.yul\":1128:1131   */\n      0x00\n        /* \"#utility.yul\":1147:1165   */\n      tag_80\n        /* \"#utility.yul\":1163:1164   */\n      dup3\n        /* \"#utility.yul\":1147:1165   */\n      tag_61\n      jump\t// in\n    tag_80:\n        /* \"#utility.yul\":1142:1165   */\n      swap2\n      pop\n        /* \"#utility.yul\":1179:1197   */\n      tag_81\n        /* \"#utility.yul\":1195:1196   */\n      dup4\n        /* \"#utility.yul\":1179:1197   */\n      tag_61\n      jump\t// in\n    tag_81:\n        /* \"#utility.yul\":1174:1197   */\n      swap3\n      pop\n        /* \"#utility.yul\":1220:1221   */\n      dup3\n        /* \"#utility.yul\":1217:1218   */\n      dup3\n        /* \"#utility.yul\":1213:1222   */\n      add\n        /* \"#utility.yul\":1206:1222   */\n      swap1\n      pop\n        /* \"#utility.yul\":1243:1247   */\n      0xff\n        /* \"#utility.yul\":1238:1241   */\n      dup2\n        /* \"#utility.yul\":1235:1248   */\n      gt\n        /* \"#utility.yul\":1232:1271   */\n      iszero\n      tag_82\n      jumpi\n        /* \"#utility.yul\":1251:1269   */\n      tag_83\n      tag_60\n      jump\t// in\n    tag_83:\n        /* \"#utility.yul\":1232:1271   */\n    tag_82:\n        /* \"#utility.yul\":1090:1278   */\n      swap3\n      swap2\n      pop\n      pop\n      jump\t// out\n\n    auxdata: 0xa26469706673582212200988e7c18abf0ce0ab939c8dd176bffd31ca49d57e23e9318052b93002e1971764736f6c63430008120033\n}\n",
				"bytecode": {
					"linkReferences": {},
					"object": "608060405234801561001057600080fd5b5061039a806100206000396000f3fe608060405234801561001057600080fd5b50600436106100575760003560e01c806328eb7ef31461005c578063a94fb0351461007a578063e7c898ef14610098578063ed62931a146100b6578063fc0e6008146100d4575b600080fd5b6100646100f2565b604051610071919061027b565b60405180910390f35b610082610132565b60405161008f919061027b565b60405180910390f35b6100a0610185565b6040516100ad919061027b565b60405180910390f35b6100be6101cb565b6040516100cb919061027b565b60405180910390f35b6100dc61021c565b6040516100e9919061027b565b60405180910390f35b600080600090506000600190505b8060ff168261010f91906102c5565b9150808061011c90610306565b915050600b8160ff161061010057819250505090565b600080600090506000600190505b600b8160ff16101561017a57600a8160ff160315610167578082610164919061032f565b91505b808061017290610306565b915050610140565b508060ff1691505090565b600080600090506000600190505b600b8160ff1610156101c05780826101ab919061032f565b915080806101b890610306565b915050610193565b8160ff169250505090565b600080600090506000600190505b600b8160ff1610156102115780826101f1919061032f565b915060058160ff161161021157808061020990610306565b9150506101d9565b508060ff1691505090565b600080600090506000600190505b600b8160ff161015610257578082610242919061032f565b9150808061024f90610306565b91505061022a565b508060ff1691505090565b6000819050919050565b61027581610262565b82525050565b6000602082019050610290600083018461026c565b92915050565b7f4e487b7100000000000000000000000000000000000000000000000000000000600052601160045260246000fd5b60006102d082610262565b91506102db83610262565b92508282019050808211156102f3576102f2610296565b5b92915050565b600060ff82169050919050565b6000610311826102f9565b915060ff820361032457610323610296565b5b600182019050919050565b600061033a826102f9565b9150610345836102f9565b9250828201905060ff81111561035e5761035d610296565b5b9291505056fea26469706673582212200988e7c18abf0ce0ab939c8dd176bffd31ca49d57e23e9318052b93002e1971764736f6c63430008120033",
					"opcodes": "PUSH1 0x80 PUSH1 0x40 MSTORE CALLVALUE DUP1 ISZERO PUSH2 0x10 JUMPI PUSH1 0x0 DUP1 REVERT JUMPDEST POP PUSH2 0x39A DUP1 PUSH2 0x20 PUSH1 0x0 CODECOPY PUSH1 0x0 RETURN INVALID PUSH1 0x80 PUSH1 0x40 MSTORE CALLVALUE DUP1 ISZERO PUSH2 0x10 JUMPI PUSH1 0x0 DUP1 REVERT JUMPDEST POP PUSH1 0x4 CALLDATASIZE LT PUSH2 0x57 JUMPI PUSH1 0x0 CALLDATALOAD PUSH1 0xE0 SHR DUP1 PUSH4 0x28EB7EF3 EQ PUSH2 0x5C JUMPI DUP1 PUSH4 0xA94FB035 EQ PUSH2 0x7A JUMPI DUP1 PUSH4 0xE7C898EF EQ PUSH2 0x98 JUMPI DUP1 PUSH4 0xED62931A EQ PUSH2 0xB6 JUMPI DUP1 PUSH4 0xFC0E6008 EQ PUSH2 0xD4 JUMPI JUMPDEST PUSH1 0x0 DUP1 REVERT JUMPDEST PUSH2 0x64 PUSH2 0xF2 JUMP JUMPDEST PUSH1 0x40 MLOAD PUSH2 0x71 SWAP2 SWAP1 PUSH2 0x27B JUMP JUMPDEST PUSH1 0x40 MLOAD DUP1 SWAP2 SUB SWAP1 RETURN JUMPDEST PUSH2 0x82 PUSH2 0x132 JUMP JUMPDEST PUSH1 0x40 MLOAD PUSH2 0x8F SWAP2 SWAP1 PUSH2 0x27B JUMP JUMPDEST PUSH1 0x40 MLOAD DUP1 SWAP2 SUB SWAP1 RETURN JUMPDEST PUSH2 0xA0 PUSH2 0x185 JUMP JUMPDEST PUSH1 0x40 MLOAD PUSH2 0xAD SWAP2 SWAP1 PUSH2 0x27B JUMP JUMPDEST PUSH1 0x40 MLOAD DUP1 SWAP2 SUB SWAP1 RETURN JUMPDEST PUSH2 0xBE PUSH2 0x1CB JUMP JUMPDEST PUSH1 0x40 MLOAD PUSH2 0xCB SWAP2 SWAP1 PUSH2 0x27B JUMP JUMPDEST PUSH1 0x40 MLOAD DUP1 SWAP2 SUB SWAP1 RETURN JUMPDEST PUSH2 0xDC PUSH2 0x21C JUMP JUMPDEST PUSH1 0x40 MLOAD PUSH2 0xE9 SWAP2 SWAP1 PUSH2 0x27B JUMP JUMPDEST PUSH1 0x40 MLOAD DUP1 SWAP2 SUB SWAP1 RETURN JUMPDEST PUSH1 0x0 DUP1 PUSH1 0x0 SWAP1 POP PUSH1 0x0 PUSH1 0x1 SWAP1 POP JUMPDEST DUP1 PUSH1 0xFF AND DUP3 PUSH2 0x10F SWAP2 SWAP1 PUSH2 0x2C5 JUMP JUMPDEST SWAP2 POP DUP1 DUP1 PUSH2 0x11C SWAP1 PUSH2 0x306 JUMP JUMPDEST SWAP2 POP POP PUSH1 0xB DUP2 PUSH1 0xFF AND LT PUSH2 0x100 JUMPI DUP2 SWAP3 POP POP POP SWAP1 JUMP JUMPDEST PUSH1 0x0 DUP1 PUSH1 0x0 SWAP1 POP PUSH1 0x0 PUSH1 0x1 SWAP1 POP JUMPDEST PUSH1 0xB DUP2 PUSH1 0xFF AND LT ISZERO PUSH2 0x17A JUMPI PUSH1 0xA DUP2 PUSH1 0xFF AND SUB ISZERO PUSH2 0x167 JUMPI DUP1 DUP3 PUSH2 0x164 SWAP2 SWAP1 PUSH2 0x32F JUMP JUMPDEST SWAP2 POP JUMPDEST DUP1 DUP1 PUSH2 0x172 SWAP1 PUSH2 0x306 JUMP JUMPDEST SWAP2 POP POP PUSH2 0x140 JUMP JUMPDEST POP DUP1 PUSH1 0xFF AND SWAP2 POP POP SWAP1 JUMP JUMPDEST PUSH1 0x0 DUP1 PUSH1 0x0 SWAP1 POP PUSH1 0x0 PUSH1 0x1 SWAP1 POP JUMPDEST PUSH1 0xB DUP2 PUSH1 0xFF AND LT ISZERO PUSH2 0x1C0 JUMPI DUP1 DUP3 PUSH2 0x1AB SWAP2 SWAP1 PUSH2 0x32F JUMP JUMPDEST SWAP2 POP DUP1 DUP1 PUSH2 0x1B8 SWAP1 PUSH2 0x306 JUMP JUMPDEST SWAP2 POP POP PUSH2 0x193 JUMP JUMPDEST DUP2 PUSH1 0xFF AND SWAP3 POP POP POP SWAP1 JUMP JUMPDEST PUSH1 0x0 DUP1 PUSH1 0x0 SWAP1 POP PUSH1 0x0 PUSH1 0x1 SWAP1 POP JUMPDEST PUSH1 0xB DUP2 PUSH1 0xFF AND LT ISZERO PUSH2 0x211 JUMPI DUP1 DUP3 PUSH2 0x1F1 SWAP2 SWAP1 PUSH2 0x32F JUMP JUMPDEST SWAP2 POP PUSH1 0x5 DUP2 PUSH1 0xFF AND GT PUSH2 0x211 JUMPI DUP1 DUP1 PUSH2 0x209 SWAP1 PUSH2 0x306 JUMP JUMPDEST SWAP2 POP POP PUSH2 0x1D9 JUMP JUMPDEST POP DUP1 PUSH1 0xFF AND SWAP2 POP POP SWAP1 JUMP JUMPDEST PUSH1 0x0 DUP1 PUSH1 0x0 SWAP1 POP PUSH1 0x0 PUSH1 0x1 SWAP1 POP JUMPDEST PUSH1 0xB DUP2 PUSH1 0xFF AND LT ISZERO PUSH2 0x257 JUMPI DUP1 DUP3 PUSH2 0x242 SWAP2 SWAP1 PUSH2 0x32F JUMP JUMPDEST SWAP2 POP DUP1 DUP1 PUSH2 0x24F SWAP1 PUSH2 0x306 JUMP JUMPDEST SWAP2 POP POP PUSH2 0x22A JUMP JUMPDEST POP DUP1 PUSH1 0xFF AND SWAP2 POP POP SWAP1 JUMP JUMPDEST PUSH1 0x0 DUP2 SWAP1 POP SWAP2 SWAP1 POP JUMP JUMPDEST PUSH2 0x275 DUP2 PUSH2 0x262 JUMP JUMPDEST DUP3 MSTORE POP POP JUMP JUMPDEST PUSH1 0x0 PUSH1 0x20 DUP3 ADD SWAP1 POP PUSH2 0x290 PUSH1 0x0 DUP4 ADD DUP5 PUSH2 0x26C JUMP JUMPDEST SWAP3 SWAP2 POP POP JUMP JUMPDEST PUSH32 0x4E487B7100000000000000000000000000000000000000000000000000000000 PUSH1 0x0 MSTORE PUSH1 0x11 PUSH1 0x4 MSTORE PUSH1 0x24 PUSH1 0x0 REVERT JUMPDEST PUSH1 0x0 PUSH2 0x2D0 DUP3 PUSH2 0x262 JUMP JUMPDEST SWAP2 POP PUSH2 0x2DB DUP4 PUSH2 0x262 JUMP JUMPDEST SWAP3 POP DUP3 DUP3 ADD SWAP1 POP DUP1 DUP3 GT ISZERO PUSH2 0x2F3 JUMPI PUSH2 0x2F2 PUSH2 0x296 JUMP JUMPDEST JUMPDEST SWAP3 SWAP2 POP POP JUMP JUMPDEST PUSH1 0x0 PUSH1 0xFF DUP3 AND SWAP1 POP SWAP2 SWAP1 POP JUMP JUMPDEST PUSH1 0x0 PUSH2 0x311 DUP3 PUSH2 0x2F9 JUMP JUMPDEST SWAP2 POP PUSH1 0xFF DUP3 SUB PUSH2 0x324 JUMPI PUSH2 0x323 PUSH2 0x296 JUMP JUMPDEST JUMPDEST PUSH1 0x1 DUP3 ADD SWAP1 POP SWAP2 SWAP1 POP JUMP JUMPDEST PUSH1 0x0 PUSH2 0x33A DUP3 PUSH2 0x2F9 JUMP JUMPDEST SWAP2 POP PUSH2 0x345 DUP4 PUSH2 0x2F9 JUMP JUMPDEST SWAP3 POP DUP3 DUP3 ADD SWAP1 POP PUSH1 0xFF DUP2 GT ISZERO PUSH2 0x35E JUMPI PUSH2 0x35D PUSH2 0x296 JUMP JUMPDEST JUMPDEST SWAP3 SWAP2 POP POP JUMP INVALID LOG2 PUSH5 0x6970667358 0x22 SLT KECCAK256 MULMOD DUP9 0xE7 0xC1 DUP11 0xBF 0xC 0xE0 0xAB SWAP4 SWAP13 DUP14 0xD1 PUSH23 0xBFFD31CA49D57E23E9318052B93002E1971764736F6C63 NUMBER STOP ADDMOD SLT STOP CALLER "
				},
				"gasEstimates": {
					"creation": {
						"codeDepositCost": "184400",
						"executionCost": "226",
						"totalCost": "184626"
					},
					"external": {
						"dowhileLoop()": "infinite",
						"forLoop()": "infinite",
						"loopBreak()": "infinite",
						"loopContinue()": "infinite",
						"whileLoop()": "infinite"
					}
				},
				"methodIdentifiers": {
					"dowhileLoop()": "28eb7ef3",
					"forLoop()": "fc0e6008",
					"loopBreak()": "ed62931a",
					"loopContinue()": "a94fb035",
					"whileLoop()": "e7c898ef"
				}
			},
			"storageLayout": {
				"storage": [],
				"types": null
			},
			"userdoc": {
				"kind": "user",
				"methods": {},
				"version": 1
			}
		}
	}
}