{
	"ex13/TransactionProperty.sol": {
		"TransactionProperty": {
			"abi": [
				{
					"inputs": [],
					"name": "checkValue",
					"outputs": [
						{
							"internalType": "uint256",
							"name": "",
							"type": "uint256"
						}
					],
					"stateMutability": "payable",
					"type": "function"
				},
				{
					"inputs": [
						{
							"internalType": "string",
							"name": "_func",
							"type": "string"
						}
					],
					"name": "getSelector",
					"outputs": [
						{
							"internalType": "bytes4",
							"name": "",
							"type": "bytes4"
						}
					],
					"stateMutability": "pure",
					"type": "function"
				},
				{
					"inputs": [],
					"name": "msg1",
					"outputs": [
						{
							"internalType": "uint256",
							"name": "",
							"type": "uint256"
						}
					],
					"stateMutability": "view",
					"type": "function"
				},
				{
					"inputs": [],
					"name": "msg2",
					"outputs": [
						{
							"internalType": "bytes",
							"name": "",
							"type": "bytes"
						}
					],
					"stateMutability": "view",
					"type": "function"
				},
				{
					"inputs": [],
					"name": "msg3",
					"outputs": [
						{
							"internalType": "address",
							"name": "",
							"type": "address"
						}
					],
					"stateMutability": "view",
					"type": "function"
				},
				{
					"inputs": [],
					"name": "msg4",
					"outputs": [
						{
							"internalType": "bytes4",
							"name": "",
							"type": "bytes4"
						}
					],
					"stateMutability": "view",
					"type": "function"
				},
				{
					"inputs": [],
					"name": "msg5",
					"outputs": [
						{
							"internalType": "uint256",
							"name": "",
							"type": "uint256"
						}
					],
					"stateMutability": "view",
					"type": "function"
				},
				{
					"inputs": [],
					"name": "newCheckFunction",
					"outputs": [
						{
							"internalType": "bool",
							"name": "",
							"type": "bool"
						}
					],
					"stateMutability": "pure",
					"type": "function"
				},
				{
					"inputs": [],
					"name": "newOderList",
					"outputs": [],
					"stateMutability": "payable",
					"type": "function"
				},
				{
					"inputs": [],
					"name": "newOderList2",
					"outputs": [
						{
							"internalType": "bytes4",
							"name": "",
							"type": "bytes4"
						}
					],
					"stateMutability": "pure",
					"type": "function"
				}
			],
			"devdoc": {
				"kind": "dev",
				"methods": {},
				"version": 1
			},
			"evm": {
				"assembly": "    /* \"ex13/TransactionProperty.sol\":58:1818  contract TransactionProperty {... */\n  mstore(0x40, 0x80)\n    /* \"ex13/TransactionProperty.sol\":242:251  gasleft() */\n  gas\n    /* \"ex13/TransactionProperty.sol\":223:251  uint public msg1 = gasleft() */\n  0x00\n  sstore\n    /* \"ex13/TransactionProperty.sol\":306:314  msg.data */\n  0x00\n  calldatasize\n    /* \"ex13/TransactionProperty.sol\":286:314  bytes public msg2 = msg.data */\n  0x01\n  swap2\n  dup3\n  tag_1\n  swap3\n  swap2\n  swap1\n  tag_2\n  jump\t// in\ntag_1:\n  pop\n    /* \"ex13/TransactionProperty.sol\":374:384  msg.sender */\n  caller\n    /* \"ex13/TransactionProperty.sol\":352:384  address public msg3 = msg.sender */\n  0x02\n  exp(0x0100, 0x00)\n  dup2\n  sload\n  dup2\n  0xffffffffffffffffffffffffffffffffffffffff\n  mul\n  not\n  and\n  swap1\n  dup4\n  0xffffffffffffffffffffffffffffffffffffffff\n  and\n  mul\n  or\n  swap1\n  sstore\n  pop\n    /* \"ex13/TransactionProperty.sol\":554:561  msg.sig */\n  and(0xffffffff00000000000000000000000000000000000000000000000000000000, calldataload(0x00))\n    /* \"ex13/TransactionProperty.sol\":533:561  bytes4 public msg4 = msg.sig */\n  0x02\n  exp(0x0100, 0x14)\n  dup2\n  sload\n  dup2\n  0xffffffff\n  mul\n  not\n  and\n  swap1\n  dup4\n  0xe0\n  shr\n  mul\n  or\n  swap1\n  sstore\n  pop\n    /* \"ex13/TransactionProperty.sol\":620:629  msg.value */\n  callvalue\n    /* \"ex13/TransactionProperty.sol\":601:629  uint public msg5 = msg.value */\n  0x03\n  sstore\n    /* \"ex13/TransactionProperty.sol\":58:1818  contract TransactionProperty {... */\n  callvalue\n  dup1\n  iszero\n  tag_3\n  jumpi\n  0x00\n  dup1\n  revert\ntag_3:\n  pop\n  jump(tag_4)\n    /* \"#utility.yul\":7:103   */\ntag_5:\n    /* \"#utility.yul\":65:71   */\n  0x00\n    /* \"#utility.yul\":93:96   */\n  dup3\n    /* \"#utility.yul\":83:96   */\n  swap1\n  pop\n    /* \"#utility.yul\":7:103   */\n  swap3\n  swap2\n  pop\n  pop\n  jump\t// out\n    /* \"#utility.yul\":109:289   */\ntag_6:\n    /* \"#utility.yul\":157:234   */\n  0x4e487b7100000000000000000000000000000000000000000000000000000000\n    /* \"#utility.yul\":154:155   */\n  0x00\n    /* \"#utility.yul\":147:235   */\n  mstore\n    /* \"#utility.yul\":254:258   */\n  0x41\n    /* \"#utility.yul\":251:252   */\n  0x04\n    /* \"#utility.yul\":244:259   */\n  mstore\n    /* \"#utility.yul\":278:282   */\n  0x24\n    /* \"#utility.yul\":275:276   */\n  0x00\n    /* \"#utility.yul\":268:283   */\n  revert\n    /* \"#utility.yul\":295:475   */\ntag_7:\n    /* \"#utility.yul\":343:420   */\n  0x4e487b7100000000000000000000000000000000000000000000000000000000\n    /* \"#utility.yul\":340:341   */\n  0x00\n    /* \"#utility.yul\":333:421   */\n  mstore\n    /* \"#utility.yul\":440:444   */\n  0x22\n    /* \"#utility.yul\":437:438   */\n  0x04\n    /* \"#utility.yul\":430:445   */\n  mstore\n    /* \"#utility.yul\":464:468   */\n  0x24\n    /* \"#utility.yul\":461:462   */\n  0x00\n    /* \"#utility.yul\":454:469   */\n  revert\n    /* \"#utility.yul\":481:801   */\ntag_8:\n    /* \"#utility.yul\":525:531   */\n  0x00\n    /* \"#utility.yul\":562:563   */\n  0x02\n    /* \"#utility.yul\":556:560   */\n  dup3\n    /* \"#utility.yul\":552:564   */\n  div\n    /* \"#utility.yul\":542:564   */\n  swap1\n  pop\n    /* \"#utility.yul\":609:610   */\n  0x01\n    /* \"#utility.yul\":603:607   */\n  dup3\n    /* \"#utility.yul\":599:611   */\n  and\n    /* \"#utility.yul\":630:648   */\n  dup1\n    /* \"#utility.yul\":620:701   */\n  tag_30\n  jumpi\n    /* \"#utility.yul\":686:690   */\n  0x7f\n    /* \"#utility.yul\":678:684   */\n  dup3\n    /* \"#utility.yul\":674:691   */\n  and\n    /* \"#utility.yul\":664:691   */\n  swap2\n  pop\n    /* \"#utility.yul\":620:701   */\ntag_30:\n    /* \"#utility.yul\":748:750   */\n  0x20\n    /* \"#utility.yul\":740:746   */\n  dup3\n    /* \"#utility.yul\":737:751   */\n  lt\n    /* \"#utility.yul\":717:735   */\n  dup2\n    /* \"#utility.yul\":714:752   */\n  sub\n    /* \"#utility.yul\":711:795   */\n  tag_31\n  jumpi\n    /* \"#utility.yul\":767:785   */\n  tag_32\n  tag_7\n  jump\t// in\ntag_32:\n    /* \"#utility.yul\":711:795   */\ntag_31:\n    /* \"#utility.yul\":532:801   */\n  pop\n    /* \"#utility.yul\":481:801   */\n  swap2\n  swap1\n  pop\n  jump\t// out\n    /* \"#utility.yul\":807:947   */\ntag_9:\n    /* \"#utility.yul\":855:859   */\n  0x00\n    /* \"#utility.yul\":878:881   */\n  dup2\n    /* \"#utility.yul\":870:881   */\n  swap1\n  pop\n    /* \"#utility.yul\":901:904   */\n  dup2\n    /* \"#utility.yul\":898:899   */\n  0x00\n    /* \"#utility.yul\":891:905   */\n  mstore\n    /* \"#utility.yul\":935:939   */\n  0x20\n    /* \"#utility.yul\":932:933   */\n  0x00\n    /* \"#utility.yul\":922:940   */\n  keccak256\n    /* \"#utility.yul\":914:940   */\n  swap1\n  pop\n    /* \"#utility.yul\":807:947   */\n  swap2\n  swap1\n  pop\n  jump\t// out\n    /* \"#utility.yul\":953:1046   */\ntag_10:\n    /* \"#utility.yul\":990:996   */\n  0x00\n    /* \"#utility.yul\":1037:1039   */\n  0x20\n    /* \"#utility.yul\":1032:1034   */\n  0x1f\n    /* \"#utility.yul\":1025:1030   */\n  dup4\n    /* \"#utility.yul\":1021:1035   */\n  add\n    /* \"#utility.yul\":1017:1040   */\n  div\n    /* \"#utility.yul\":1007:1040   */\n  swap1\n  pop\n    /* \"#utility.yul\":953:1046   */\n  swap2\n  swap1\n  pop\n  jump\t// out\n    /* \"#utility.yul\":1052:1159   */\ntag_11:\n    /* \"#utility.yul\":1096:1104   */\n  0x00\n    /* \"#utility.yul\":1146:1151   */\n  dup3\n    /* \"#utility.yul\":1140:1144   */\n  dup3\n    /* \"#utility.yul\":1136:1152   */\n  shl\n    /* \"#utility.yul\":1115:1152   */\n  swap1\n  pop\n    /* \"#utility.yul\":1052:1159   */\n  swap3\n  swap2\n  pop\n  pop\n  jump\t// out\n    /* \"#utility.yul\":1165:1558   */\ntag_12:\n    /* \"#utility.yul\":1234:1240   */\n  0x00\n    /* \"#utility.yul\":1284:1285   */\n  0x08\n    /* \"#utility.yul\":1272:1282   */\n  dup4\n    /* \"#utility.yul\":1268:1286   */\n  mul\n    /* \"#utility.yul\":1307:1404   */\n  tag_37\n    /* \"#utility.yul\":1337:1403   */\n  0xffffffffffffffffffffffffffffffffffffffffffffffffffffffffffffffff\n    /* \"#utility.yul\":1326:1335   */\n  dup3\n    /* \"#utility.yul\":1307:1404   */\n  tag_11\n  jump\t// in\ntag_37:\n    /* \"#utility.yul\":1425:1464   */\n  tag_38\n    /* \"#utility.yul\":1455:1463   */\n  dup7\n    /* \"#utility.yul\":1444:1453   */\n  dup4\n    /* \"#utility.yul\":1425:1464   */\n  tag_11\n  jump\t// in\ntag_38:\n    /* \"#utility.yul\":1413:1464   */\n  swap6\n  pop\n    /* \"#utility.yul\":1497:1501   */\n  dup1\n    /* \"#utility.yul\":1493:1502   */\n  not\n    /* \"#utility.yul\":1486:1491   */\n  dup5\n    /* \"#utility.yul\":1482:1503   */\n  and\n    /* \"#utility.yul\":1473:1503   */\n  swap4\n  pop\n    /* \"#utility.yul\":1546:1550   */\n  dup1\n    /* \"#utility.yul\":1536:1544   */\n  dup7\n    /* \"#utility.yul\":1532:1551   */\n  and\n    /* \"#utility.yul\":1525:1530   */\n  dup5\n    /* \"#utility.yul\":1522:1552   */\n  or\n    /* \"#utility.yul\":1512:1552   */\n  swap3\n  pop\n    /* \"#utility.yul\":1241:1558   */\n  pop\n  pop\n    /* \"#utility.yul\":1165:1558   */\n  swap4\n  swap3\n  pop\n  pop\n  pop\n  jump\t// out\n    /* \"#utility.yul\":1564:1641   */\ntag_13:\n    /* \"#utility.yul\":1601:1608   */\n  0x00\n    /* \"#utility.yul\":1630:1635   */\n  dup2\n    /* \"#utility.yul\":1619:1635   */\n  swap1\n  pop\n    /* \"#utility.yul\":1564:1641   */\n  swap2\n  swap1\n  pop\n  jump\t// out\n    /* \"#utility.yul\":1647:1707   */\ntag_14:\n    /* \"#utility.yul\":1675:1678   */\n  0x00\n    /* \"#utility.yul\":1696:1701   */\n  dup2\n    /* \"#utility.yul\":1689:1701   */\n  swap1\n  pop\n    /* \"#utility.yul\":1647:1707   */\n  swap2\n  swap1\n  pop\n  jump\t// out\n    /* \"#utility.yul\":1713:1855   */\ntag_15:\n    /* \"#utility.yul\":1763:1772   */\n  0x00\n    /* \"#utility.yul\":1796:1849   */\n  tag_42\n    /* \"#utility.yul\":1814:1848   */\n  tag_43\n    /* \"#utility.yul\":1823:1847   */\n  tag_44\n    /* \"#utility.yul\":1841:1846   */\n  dup5\n    /* \"#utility.yul\":1823:1847   */\n  tag_13\n  jump\t// in\ntag_44:\n    /* \"#utility.yul\":1814:1848   */\n  tag_14\n  jump\t// in\ntag_43:\n    /* \"#utility.yul\":1796:1849   */\n  tag_13\n  jump\t// in\ntag_42:\n    /* \"#utility.yul\":1783:1849   */\n  swap1\n  pop\n    /* \"#utility.yul\":1713:1855   */\n  swap2\n  swap1\n  pop\n  jump\t// out\n    /* \"#utility.yul\":1861:1936   */\ntag_16:\n    /* \"#utility.yul\":1904:1907   */\n  0x00\n    /* \"#utility.yul\":1925:1930   */\n  dup2\n    /* \"#utility.yul\":1918:1930   */\n  swap1\n  pop\n    /* \"#utility.yul\":1861:1936   */\n  swap2\n  swap1\n  pop\n  jump\t// out\n    /* \"#utility.yul\":1942:2211   */\ntag_17:\n    /* \"#utility.yul\":2052:2091   */\n  tag_47\n    /* \"#utility.yul\":2083:2090   */\n  dup4\n    /* \"#utility.yul\":2052:2091   */\n  tag_15\n  jump\t// in\ntag_47:\n    /* \"#utility.yul\":2113:2204   */\n  tag_48\n    /* \"#utility.yul\":2162:2203   */\n  tag_49\n    /* \"#utility.yul\":2186:2202   */\n  dup3\n    /* \"#utility.yul\":2162:2203   */\n  tag_16\n  jump\t// in\ntag_49:\n    /* \"#utility.yul\":2154:2160   */\n  dup5\n    /* \"#utility.yul\":2147:2151   */\n  dup5\n    /* \"#utility.yul\":2141:2152   */\n  sload\n    /* \"#utility.yul\":2113:2204   */\n  tag_12\n  jump\t// in\ntag_48:\n    /* \"#utility.yul\":2107:2111   */\n  dup3\n    /* \"#utility.yul\":2100:2205   */\n  sstore\n    /* \"#utility.yul\":2018:2211   */\n  pop\n    /* \"#utility.yul\":1942:2211   */\n  pop\n  pop\n  pop\n  jump\t// out\n    /* \"#utility.yul\":2217:2290   */\ntag_18:\n    /* \"#utility.yul\":2262:2265   */\n  0x00\n    /* \"#utility.yul\":2217:2290   */\n  swap1\n  jump\t// out\n    /* \"#utility.yul\":2296:2485   */\ntag_19:\n    /* \"#utility.yul\":2373:2405   */\n  tag_52\n  tag_18\n  jump\t// in\ntag_52:\n    /* \"#utility.yul\":2414:2479   */\n  tag_53\n    /* \"#utility.yul\":2472:2478   */\n  dup2\n    /* \"#utility.yul\":2464:2470   */\n  dup5\n    /* \"#utility.yul\":2458:2462   */\n  dup5\n    /* \"#utility.yul\":2414:2479   */\n  tag_17\n  jump\t// in\ntag_53:\n    /* \"#utility.yul\":2349:2485   */\n  pop\n    /* \"#utility.yul\":2296:2485   */\n  pop\n  pop\n  jump\t// out\n    /* \"#utility.yul\":2491:2677   */\ntag_20:\n    /* \"#utility.yul\":2551:2671   */\ntag_55:\n    /* \"#utility.yul\":2568:2571   */\n  dup2\n    /* \"#utility.yul\":2561:2566   */\n  dup2\n    /* \"#utility.yul\":2558:2572   */\n  lt\n    /* \"#utility.yul\":2551:2671   */\n  iszero\n  tag_57\n  jumpi\n    /* \"#utility.yul\":2622:2661   */\n  tag_58\n    /* \"#utility.yul\":2659:2660   */\n  0x00\n    /* \"#utility.yul\":2652:2657   */\n  dup3\n    /* \"#utility.yul\":2622:2661   */\n  tag_19\n  jump\t// in\ntag_58:\n    /* \"#utility.yul\":2595:2596   */\n  0x01\n    /* \"#utility.yul\":2588:2593   */\n  dup2\n    /* \"#utility.yul\":2584:2597   */\n  add\n    /* \"#utility.yul\":2575:2597   */\n  swap1\n  pop\n    /* \"#utility.yul\":2551:2671   */\n  jump(tag_55)\ntag_57:\n    /* \"#utility.yul\":2491:2677   */\n  pop\n  pop\n  jump\t// out\n    /* \"#utility.yul\":2683:3224   */\ntag_21:\n    /* \"#utility.yul\":2783:2785   */\n  0x1f\n    /* \"#utility.yul\":2778:2781   */\n  dup3\n    /* \"#utility.yul\":2775:2786   */\n  gt\n    /* \"#utility.yul\":2772:3217   */\n  iszero\n  tag_60\n  jumpi\n    /* \"#utility.yul\":2817:2854   */\n  tag_61\n    /* \"#utility.yul\":2848:2853   */\n  dup2\n    /* \"#utility.yul\":2817:2854   */\n  tag_9\n  jump\t// in\ntag_61:\n    /* \"#utility.yul\":2900:2929   */\n  tag_62\n    /* \"#utility.yul\":2918:2928   */\n  dup5\n    /* \"#utility.yul\":2900:2929   */\n  tag_10\n  jump\t// in\ntag_62:\n    /* \"#utility.yul\":2890:2898   */\n  dup2\n    /* \"#utility.yul\":2886:2930   */\n  add\n    /* \"#utility.yul\":3083:3085   */\n  0x20\n    /* \"#utility.yul\":3071:3081   */\n  dup6\n    /* \"#utility.yul\":3068:3086   */\n  lt\n    /* \"#utility.yul\":3065:3114   */\n  iszero\n  tag_63\n  jumpi\n    /* \"#utility.yul\":3104:3112   */\n  dup2\n    /* \"#utility.yul\":3089:3112   */\n  swap1\n  pop\n    /* \"#utility.yul\":3065:3114   */\ntag_63:\n    /* \"#utility.yul\":3127:3207   */\n  tag_64\n    /* \"#utility.yul\":3183:3205   */\n  tag_65\n    /* \"#utility.yul\":3201:3204   */\n  dup6\n    /* \"#utility.yul\":3183:3205   */\n  tag_10\n  jump\t// in\ntag_65:\n    /* \"#utility.yul\":3173:3181   */\n  dup4\n    /* \"#utility.yul\":3169:3206   */\n  add\n    /* \"#utility.yul\":3156:3167   */\n  dup3\n    /* \"#utility.yul\":3127:3207   */\n  tag_20\n  jump\t// in\ntag_64:\n    /* \"#utility.yul\":2787:3217   */\n  pop\n  pop\n    /* \"#utility.yul\":2772:3217   */\ntag_60:\n    /* \"#utility.yul\":2683:3224   */\n  pop\n  pop\n  pop\n  jump\t// out\n    /* \"#utility.yul\":3230:3347   */\ntag_22:\n    /* \"#utility.yul\":3284:3292   */\n  0x00\n    /* \"#utility.yul\":3334:3339   */\n  dup3\n    /* \"#utility.yul\":3328:3332   */\n  dup3\n    /* \"#utility.yul\":3324:3340   */\n  shr\n    /* \"#utility.yul\":3303:3340   */\n  swap1\n  pop\n    /* \"#utility.yul\":3230:3347   */\n  swap3\n  swap2\n  pop\n  pop\n  jump\t// out\n    /* \"#utility.yul\":3353:3522   */\ntag_23:\n    /* \"#utility.yul\":3397:3403   */\n  0x00\n    /* \"#utility.yul\":3430:3481   */\n  tag_68\n    /* \"#utility.yul\":3478:3479   */\n  0x00\n    /* \"#utility.yul\":3474:3480   */\n  not\n    /* \"#utility.yul\":3466:3471   */\n  dup5\n    /* \"#utility.yul\":3463:3464   */\n  0x08\n    /* \"#utility.yul\":3459:3472   */\n  mul\n    /* \"#utility.yul\":3430:3481   */\n  tag_22\n  jump\t// in\ntag_68:\n    /* \"#utility.yul\":3426:3482   */\n  not\n    /* \"#utility.yul\":3511:3515   */\n  dup1\n    /* \"#utility.yul\":3505:3509   */\n  dup4\n    /* \"#utility.yul\":3501:3516   */\n  and\n    /* \"#utility.yul\":3491:3516   */\n  swap2\n  pop\n    /* \"#utility.yul\":3404:3522   */\n  pop\n    /* \"#utility.yul\":3353:3522   */\n  swap3\n  swap2\n  pop\n  pop\n  jump\t// out\n    /* \"#utility.yul\":3527:3822   */\ntag_24:\n    /* \"#utility.yul\":3603:3607   */\n  0x00\n    /* \"#utility.yul\":3749:3778   */\n  tag_70\n    /* \"#utility.yul\":3774:3777   */\n  dup4\n    /* \"#utility.yul\":3768:3772   */\n  dup4\n    /* \"#utility.yul\":3749:3778   */\n  tag_23\n  jump\t// in\ntag_70:\n    /* \"#utility.yul\":3741:3778   */\n  swap2\n  pop\n    /* \"#utility.yul\":3811:3814   */\n  dup3\n    /* \"#utility.yul\":3808:3809   */\n  0x02\n    /* \"#utility.yul\":3804:3815   */\n  mul\n    /* \"#utility.yul\":3798:3802   */\n  dup3\n    /* \"#utility.yul\":3795:3816   */\n  or\n    /* \"#utility.yul\":3787:3816   */\n  swap1\n  pop\n    /* \"#utility.yul\":3527:3822   */\n  swap3\n  swap2\n  pop\n  pop\n  jump\t// out\n    /* \"#utility.yul\":3827:5225   */\ntag_2:\n    /* \"#utility.yul\":3949:3992   */\n  tag_72\n    /* \"#utility.yul\":3988:3991   */\n  dup4\n    /* \"#utility.yul\":3983:3986   */\n  dup4\n    /* \"#utility.yul\":3949:3992   */\n  tag_5\n  jump\t// in\ntag_72:\n    /* \"#utility.yul\":4057:4075   */\n  0xffffffffffffffff\n    /* \"#utility.yul\":4049:4055   */\n  dup2\n    /* \"#utility.yul\":4046:4076   */\n  gt\n    /* \"#utility.yul\":4043:4099   */\n  iszero\n  tag_73\n  jumpi\n    /* \"#utility.yul\":4079:4097   */\n  tag_74\n  tag_6\n  jump\t// in\ntag_74:\n    /* \"#utility.yul\":4043:4099   */\ntag_73:\n    /* \"#utility.yul\":4123:4161   */\n  tag_75\n    /* \"#utility.yul\":4155:4159   */\n  dup3\n    /* \"#utility.yul\":4149:4160   */\n  sload\n    /* \"#utility.yul\":4123:4161   */\n  tag_8\n  jump\t// in\ntag_75:\n    /* \"#utility.yul\":4208:4274   */\n  tag_76\n    /* \"#utility.yul\":4267:4273   */\n  dup3\n    /* \"#utility.yul\":4259:4265   */\n  dup3\n    /* \"#utility.yul\":4253:4257   */\n  dup6\n    /* \"#utility.yul\":4208:4274   */\n  tag_21\n  jump\t// in\ntag_76:\n    /* \"#utility.yul\":4301:4302   */\n  0x00\n    /* \"#utility.yul\":4330:4332   */\n  0x1f\n    /* \"#utility.yul\":4322:4328   */\n  dup4\n    /* \"#utility.yul\":4319:4333   */\n  gt\n    /* \"#utility.yul\":4347:4348   */\n  0x01\n    /* \"#utility.yul\":4342:4973   */\n  dup2\n  eq\n  tag_78\n  jumpi\n    /* \"#utility.yul\":5017:5018   */\n  0x00\n    /* \"#utility.yul\":5034:5040   */\n  dup5\n    /* \"#utility.yul\":5031:5115   */\n  iszero\n  tag_79\n  jumpi\n    /* \"#utility.yul\":5090:5099   */\n  dup3\n    /* \"#utility.yul\":5085:5088   */\n  dup8\n    /* \"#utility.yul\":5081:5100   */\n  add\n    /* \"#utility.yul\":5068:5101   */\n  calldataload\n    /* \"#utility.yul\":5059:5101   */\n  swap1\n  pop\n    /* \"#utility.yul\":5031:5115   */\ntag_79:\n    /* \"#utility.yul\":5141:5208   */\n  tag_80\n    /* \"#utility.yul\":5201:5207   */\n  dup6\n    /* \"#utility.yul\":5194:5199   */\n  dup3\n    /* \"#utility.yul\":5141:5208   */\n  tag_24\n  jump\t// in\ntag_80:\n    /* \"#utility.yul\":5135:5139   */\n  dup7\n    /* \"#utility.yul\":5128:5209   */\n  sstore\n    /* \"#utility.yul\":4990:5219   */\n  pop\n    /* \"#utility.yul\":4312:5219   */\n  jump(tag_77)\n    /* \"#utility.yul\":4342:4973   */\ntag_78:\n    /* \"#utility.yul\":4394:4398   */\n  0x1f\n    /* \"#utility.yul\":4390:4399   */\n  not\n    /* \"#utility.yul\":4382:4388   */\n  dup5\n    /* \"#utility.yul\":4378:4400   */\n  and\n    /* \"#utility.yul\":4428:4464   */\n  tag_81\n    /* \"#utility.yul\":4459:4463   */\n  dup7\n    /* \"#utility.yul\":4428:4464   */\n  tag_9\n  jump\t// in\ntag_81:\n    /* \"#utility.yul\":4486:4487   */\n  0x00\n    /* \"#utility.yul\":4500:4715   */\ntag_82:\n    /* \"#utility.yul\":4514:4521   */\n  dup3\n    /* \"#utility.yul\":4511:4512   */\n  dup2\n    /* \"#utility.yul\":4508:4522   */\n  lt\n    /* \"#utility.yul\":4500:4715   */\n  iszero\n  tag_84\n  jumpi\n    /* \"#utility.yul\":4600:4609   */\n  dup5\n    /* \"#utility.yul\":4595:4598   */\n  dup10\n    /* \"#utility.yul\":4591:4610   */\n  add\n    /* \"#utility.yul\":4578:4611   */\n  calldataload\n    /* \"#utility.yul\":4570:4576   */\n  dup3\n    /* \"#utility.yul\":4563:4612   */\n  sstore\n    /* \"#utility.yul\":4651:4652   */\n  0x01\n    /* \"#utility.yul\":4643:4649   */\n  dup3\n    /* \"#utility.yul\":4639:4653   */\n  add\n    /* \"#utility.yul\":4629:4653   */\n  swap2\n  pop\n    /* \"#utility.yul\":4698:4700   */\n  0x20\n    /* \"#utility.yul\":4687:4696   */\n  dup6\n    /* \"#utility.yul\":4683:4701   */\n  add\n    /* \"#utility.yul\":4670:4701   */\n  swap5\n  pop\n    /* \"#utility.yul\":4537:4541   */\n  0x20\n    /* \"#utility.yul\":4534:4535   */\n  dup2\n    /* \"#utility.yul\":4530:4542   */\n  add\n    /* \"#utility.yul\":4525:4542   */\n  swap1\n  pop\n    /* \"#utility.yul\":4500:4715   */\n  jump(tag_82)\ntag_84:\n    /* \"#utility.yul\":4743:4749   */\n  dup7\n    /* \"#utility.yul\":4734:4741   */\n  dup4\n    /* \"#utility.yul\":4731:4750   */\n  lt\n    /* \"#utility.yul\":4728:4914   */\n  iszero\n  tag_85\n  jumpi\n    /* \"#utility.yul\":4808:4817   */\n  dup5\n    /* \"#utility.yul\":4803:4806   */\n  dup10\n    /* \"#utility.yul\":4799:4818   */\n  add\n    /* \"#utility.yul\":4786:4819   */\n  calldataload\n    /* \"#utility.yul\":4851:4899   */\n  tag_86\n    /* \"#utility.yul\":4893:4897   */\n  0x1f\n    /* \"#utility.yul\":4885:4891   */\n  dup10\n    /* \"#utility.yul\":4881:4898   */\n  and\n    /* \"#utility.yul\":4870:4879   */\n  dup3\n    /* \"#utility.yul\":4851:4899   */\n  tag_23\n  jump\t// in\ntag_86:\n    /* \"#utility.yul\":4843:4849   */\n  dup4\n    /* \"#utility.yul\":4836:4900   */\n  sstore\n    /* \"#utility.yul\":4751:4914   */\n  pop\n    /* \"#utility.yul\":4728:4914   */\ntag_85:\n    /* \"#utility.yul\":4960:4961   */\n  0x01\n    /* \"#utility.yul\":4956:4957   */\n  0x02\n    /* \"#utility.yul\":4948:4954   */\n  dup9\n    /* \"#utility.yul\":4944:4958   */\n  mul\n    /* \"#utility.yul\":4940:4962   */\n  add\n    /* \"#utility.yul\":4934:4938   */\n  dup9\n    /* \"#utility.yul\":4927:4963   */\n  sstore\n    /* \"#utility.yul\":4349:4973   */\n  pop\n  pop\n  pop\n    /* \"#utility.yul\":4312:5219   */\ntag_77:\n  pop\n    /* \"#utility.yul\":3924:5225   */\n  pop\n  pop\n  pop\n    /* \"#utility.yul\":3827:5225   */\n  pop\n  pop\n  pop\n  jump\t// out\n    /* \"ex13/TransactionProperty.sol\":58:1818  contract TransactionProperty {... */\ntag_4:\n  dataSize(sub_0)\n  dup1\n  dataOffset(sub_0)\n  0x00\n  codecopy\n  0x00\n  return\nstop\n\nsub_0: assembly {\n        /* \"ex13/TransactionProperty.sol\":58:1818  contract TransactionProperty {... */\n      mstore(0x40, 0x80)\n      jumpi(tag_1, lt(calldatasize, 0x04))\n      shr(0xe0, calldataload(0x00))\n      dup1\n      0x8edc02a1\n      gt\n      tag_12\n      jumpi\n      dup1\n      0x8edc02a1\n      eq\n      tag_7\n      jumpi\n      dup1\n      0xb099e701\n      eq\n      tag_8\n      jumpi\n      dup1\n      0xb10cbd0c\n      eq\n      tag_9\n      jumpi\n      dup1\n      0xe5eeefb9\n      eq\n      tag_10\n      jumpi\n      dup1\n      0xf3571f29\n      eq\n      tag_11\n      jumpi\n      jump(tag_1)\n    tag_12:\n      dup1\n      0x1b33b381\n      eq\n      tag_2\n      jumpi\n      dup1\n      0x56d6b8aa\n      eq\n      tag_3\n      jumpi\n      dup1\n      0x5c681920\n      eq\n      tag_4\n      jumpi\n      dup1\n      0x69a757e1\n      eq\n      tag_5\n      jumpi\n      dup1\n      0x80a003ff\n      eq\n      tag_6\n      jumpi\n    tag_1:\n      0x00\n      dup1\n      revert\n        /* \"ex13/TransactionProperty.sol\":1409:1816  function newCheckFunction() external pure returns(bool) {... */\n    tag_2:\n      callvalue\n      dup1\n      iszero\n      tag_13\n      jumpi\n      0x00\n      dup1\n      revert\n    tag_13:\n      pop\n      tag_14\n      tag_15\n      jump\t// in\n    tag_14:\n      mload(0x40)\n      tag_16\n      swap2\n      swap1\n      tag_17\n      jump\t// in\n    tag_16:\n      mload(0x40)\n      dup1\n      swap2\n      sub\n      swap1\n      return\n        /* \"ex13/TransactionProperty.sol\":601:629  uint public msg5 = msg.value */\n    tag_3:\n      callvalue\n      dup1\n      iszero\n      tag_18\n      jumpi\n      0x00\n      dup1\n      revert\n    tag_18:\n      pop\n      tag_19\n      tag_20\n      jump\t// in\n    tag_19:\n      mload(0x40)\n      tag_21\n      swap2\n      swap1\n      tag_22\n      jump\t// in\n    tag_21:\n      mload(0x40)\n      dup1\n      swap2\n      sub\n      swap1\n      return\n        /* \"ex13/TransactionProperty.sol\":755:860  function checkValue() external payable returns(uint){ ... */\n    tag_4:\n      tag_23\n      tag_24\n      jump\t// in\n    tag_23:\n      mload(0x40)\n      tag_25\n      swap2\n      swap1\n      tag_22\n      jump\t// in\n    tag_25:\n      mload(0x40)\n      dup1\n      swap2\n      sub\n      swap1\n      return\n        /* \"ex13/TransactionProperty.sol\":533:561  bytes4 public msg4 = msg.sig */\n    tag_5:\n      callvalue\n      dup1\n      iszero\n      tag_26\n      jumpi\n      0x00\n      dup1\n      revert\n    tag_26:\n      pop\n      tag_27\n      tag_28\n      jump\t// in\n    tag_27:\n      mload(0x40)\n      tag_29\n      swap2\n      swap1\n      tag_30\n      jump\t// in\n    tag_29:\n      mload(0x40)\n      dup1\n      swap2\n      sub\n      swap1\n      return\n        /* \"ex13/TransactionProperty.sol\":1279:1405  function getSelector(string calldata _func) external pure returns (bytes4) {... */\n    tag_6:\n      callvalue\n      dup1\n      iszero\n      tag_31\n      jumpi\n      0x00\n      dup1\n      revert\n    tag_31:\n      pop\n      tag_32\n      0x04\n      dup1\n      calldatasize\n      sub\n      dup2\n      add\n      swap1\n      tag_33\n      swap2\n      swap1\n      tag_34\n      jump\t// in\n    tag_33:\n      tag_35\n      jump\t// in\n    tag_32:\n      mload(0x40)\n      tag_36\n      swap2\n      swap1\n      tag_30\n      jump\t// in\n    tag_36:\n      mload(0x40)\n      dup1\n      swap2\n      sub\n      swap1\n      return\n        /* \"ex13/TransactionProperty.sol\":1195:1275  function newOderList2() external pure returns(bytes4){... */\n    tag_7:\n      callvalue\n      dup1\n      iszero\n      tag_37\n      jumpi\n      0x00\n      dup1\n      revert\n    tag_37:\n      pop\n      tag_38\n      tag_39\n      jump\t// in\n    tag_38:\n      mload(0x40)\n      tag_40\n      swap2\n      swap1\n      tag_30\n      jump\t// in\n    tag_40:\n      mload(0x40)\n      dup1\n      swap2\n      sub\n      swap1\n      return\n        /* \"ex13/TransactionProperty.sol\":997:1114  function newOderList() external payable {... */\n    tag_8:\n      tag_41\n      tag_42\n      jump\t// in\n    tag_41:\n      stop\n        /* \"ex13/TransactionProperty.sol\":286:314  bytes public msg2 = msg.data */\n    tag_9:\n      callvalue\n      dup1\n      iszero\n      tag_43\n      jumpi\n      0x00\n      dup1\n      revert\n    tag_43:\n      pop\n      tag_44\n      tag_45\n      jump\t// in\n    tag_44:\n      mload(0x40)\n      tag_46\n      swap2\n      swap1\n      tag_47\n      jump\t// in\n    tag_46:\n      mload(0x40)\n      dup1\n      swap2\n      sub\n      swap1\n      return\n        /* \"ex13/TransactionProperty.sol\":352:384  address public msg3 = msg.sender */\n    tag_10:\n      callvalue\n      dup1\n      iszero\n      tag_48\n      jumpi\n      0x00\n      dup1\n      revert\n    tag_48:\n      pop\n      tag_49\n      tag_50\n      jump\t// in\n    tag_49:\n      mload(0x40)\n      tag_51\n      swap2\n      swap1\n      tag_52\n      jump\t// in\n    tag_51:\n      mload(0x40)\n      dup1\n      swap2\n      sub\n      swap1\n      return\n        /* \"ex13/TransactionProperty.sol\":223:251  uint public msg1 = gasleft() */\n    tag_11:\n      callvalue\n      dup1\n      iszero\n      tag_53\n      jumpi\n      0x00\n      dup1\n      revert\n    tag_53:\n      pop\n      tag_54\n      tag_55\n      jump\t// in\n    tag_54:\n      mload(0x40)\n      tag_56\n      swap2\n      swap1\n      tag_22\n      jump\t// in\n    tag_56:\n      mload(0x40)\n      dup1\n      swap2\n      sub\n      swap1\n      return\n        /* \"ex13/TransactionProperty.sol\":1409:1816  function newCheckFunction() external pure returns(bool) {... */\n    tag_15:\n        /* \"ex13/TransactionProperty.sol\":1459:1463  bool */\n      0x00\n        /* \"ex13/TransactionProperty.sol\":1473:1488  bytes4 selector */\n      dup1\n        /* \"ex13/TransactionProperty.sol\":1508:1542  abi.encodePacked(\"newOderList2()\") */\n      add(0x20, mload(0x40))\n      tag_58\n      swap1\n      tag_59\n      jump\t// in\n    tag_58:\n      mload(0x40)\n      0x20\n      dup2\n      dup4\n      sub\n      sub\n      dup2\n      mstore\n      swap1\n      0x40\n      mstore\n        /* \"ex13/TransactionProperty.sol\":1498:1543  keccak256(abi.encodePacked(\"newOderList2()\")) */\n      dup1\n      mload\n      swap1\n      0x20\n      add\n      keccak256\n        /* \"ex13/TransactionProperty.sol\":1473:1544  bytes4 selector = bytes4(keccak256(abi.encodePacked(\"newOderList2()\"))) */\n      swap1\n      pop\n        /* \"ex13/TransactionProperty.sol\":1616:1626  bool check */\n      0x00\n        /* \"ex13/TransactionProperty.sol\":1658:1665  msg.sig */\n      dup1\n      calldataload\n      0xffffffff00000000000000000000000000000000000000000000000000000000\n      and\n        /* \"ex13/TransactionProperty.sol\":1646:1665  selector == msg.sig */\n      not(0xffffffffffffffffffffffffffffffffffffffffffffffffffffffff)\n      and\n        /* \"ex13/TransactionProperty.sol\":1646:1654  selector */\n      dup3\n        /* \"ex13/TransactionProperty.sol\":1646:1665  selector == msg.sig */\n      not(0xffffffffffffffffffffffffffffffffffffffffffffffffffffffff)\n      and\n      sub\n        /* \"ex13/TransactionProperty.sol\":1642:1792  if (selector == msg.sig) {... */\n      tag_60\n      jumpi\n        /* \"ex13/TransactionProperty.sol\":1686:1691  false */\n      0x00\n        /* \"ex13/TransactionProperty.sol\":1679:1691  return false */\n      swap3\n      pop\n      pop\n      pop\n      jump(tag_57)\n        /* \"ex13/TransactionProperty.sol\":1642:1792  if (selector == msg.sig) {... */\n    tag_60:\n        /* \"ex13/TransactionProperty.sol\":1721:1731  0x1b33b381 */\n      0x1b33b381\n        /* \"ex13/TransactionProperty.sol\":1710:1731  msg.sig == 0x1b33b381 */\n      0xe0\n      shl\n        /* \"ex13/TransactionProperty.sol\":1710:1717  msg.sig */\n      and(0xffffffff00000000000000000000000000000000000000000000000000000000, calldataload(0x00))\n        /* \"ex13/TransactionProperty.sol\":1710:1731  msg.sig == 0x1b33b381 */\n      not(0xffffffffffffffffffffffffffffffffffffffffffffffffffffffff)\n      and\n      sub\n        /* \"ex13/TransactionProperty.sol\":1706:1792  if (msg.sig == 0x1b33b381) { // newCheckFunction() sig... */\n      tag_62\n      jumpi\n        /* \"ex13/TransactionProperty.sol\":1779:1783  true */\n      0x01\n        /* \"ex13/TransactionProperty.sol\":1771:1783  check = true */\n      swap1\n      pop\n        /* \"ex13/TransactionProperty.sol\":1706:1792  if (msg.sig == 0x1b33b381) { // newCheckFunction() sig... */\n    tag_62:\n        /* \"ex13/TransactionProperty.sol\":1806:1811  check */\n      dup1\n        /* \"ex13/TransactionProperty.sol\":1799:1811  return check */\n      swap3\n      pop\n      pop\n      pop\n        /* \"ex13/TransactionProperty.sol\":1409:1816  function newCheckFunction() external pure returns(bool) {... */\n    tag_57:\n      swap1\n      jump\t// out\n        /* \"ex13/TransactionProperty.sol\":601:629  uint public msg5 = msg.value */\n    tag_20:\n      sload(0x03)\n      dup2\n      jump\t// out\n        /* \"ex13/TransactionProperty.sol\":755:860  function checkValue() external payable returns(uint){ ... */\n    tag_24:\n        /* \"ex13/TransactionProperty.sol\":802:806  uint */\n      0x00\n        /* \"ex13/TransactionProperty.sol\":814:824  uint value */\n      dup1\n        /* \"ex13/TransactionProperty.sol\":827:836  msg.value */\n      callvalue\n        /* \"ex13/TransactionProperty.sol\":814:836  uint value = msg.value */\n      swap1\n      pop\n        /* \"ex13/TransactionProperty.sol\":850:855  value */\n      dup1\n        /* \"ex13/TransactionProperty.sol\":843:855  return value */\n      swap2\n      pop\n      pop\n        /* \"ex13/TransactionProperty.sol\":755:860  function checkValue() external payable returns(uint){ ... */\n      swap1\n      jump\t// out\n        /* \"ex13/TransactionProperty.sol\":533:561  bytes4 public msg4 = msg.sig */\n    tag_28:\n      0x02\n      0x14\n      swap1\n      sload\n      swap1\n      0x0100\n      exp\n      swap1\n      div\n      0xe0\n      shl\n      dup2\n      jump\t// out\n        /* \"ex13/TransactionProperty.sol\":1279:1405  function getSelector(string calldata _func) external pure returns (bytes4) {... */\n    tag_35:\n        /* \"ex13/TransactionProperty.sol\":1346:1352  bytes4 */\n      0x00\n        /* \"ex13/TransactionProperty.sol\":1392:1397  _func */\n      dup3\n      dup3\n        /* \"ex13/TransactionProperty.sol\":1376:1399  keccak256(bytes(_func)) */\n      mload(0x40)\n      tag_65\n      swap3\n      swap2\n      swap1\n      tag_66\n      jump\t// in\n    tag_65:\n      mload(0x40)\n      dup1\n      swap2\n      sub\n      swap1\n      keccak256\n        /* \"ex13/TransactionProperty.sol\":1362:1400  return bytes4(keccak256(bytes(_func))) */\n      swap1\n      pop\n        /* \"ex13/TransactionProperty.sol\":1279:1405  function getSelector(string calldata _func) external pure returns (bytes4) {... */\n      swap3\n      swap2\n      pop\n      pop\n      jump\t// out\n        /* \"ex13/TransactionProperty.sol\":1195:1275  function newOderList2() external pure returns(bytes4){... */\n    tag_39:\n        /* \"ex13/TransactionProperty.sol\":1241:1247  bytes4 */\n      0x00\n        /* \"ex13/TransactionProperty.sol\":1263:1270  msg.sig */\n      dup1\n      calldataload\n      0xffffffff00000000000000000000000000000000000000000000000000000000\n      and\n        /* \"ex13/TransactionProperty.sol\":1256:1270  return msg.sig */\n      swap1\n      pop\n        /* \"ex13/TransactionProperty.sol\":1195:1275  function newOderList2() external pure returns(bytes4){... */\n      swap1\n      jump\t// out\n        /* \"ex13/TransactionProperty.sol\":997:1114  function newOderList() external payable {... */\n    tag_42:\n        /* \"ex13/TransactionProperty.sol\":1069:1078  msg.value */\n      callvalue\n        /* \"ex13/TransactionProperty.sol\":1045:1054  orderList */\n      0x04\n        /* \"ex13/TransactionProperty.sol\":1045:1066  orderList[msg.sender] */\n      0x00\n        /* \"ex13/TransactionProperty.sol\":1055:1065  msg.sender */\n      caller\n        /* \"ex13/TransactionProperty.sol\":1045:1066  orderList[msg.sender] */\n      0xffffffffffffffffffffffffffffffffffffffff\n      and\n      0xffffffffffffffffffffffffffffffffffffffff\n      and\n      dup2\n      mstore\n      0x20\n      add\n      swap1\n      dup2\n      mstore\n      0x20\n      add\n      0x00\n      keccak256\n        /* \"ex13/TransactionProperty.sol\":1045:1078  orderList[msg.sender] = msg.value */\n      dup2\n      swap1\n      sstore\n      pop\n        /* \"ex13/TransactionProperty.sol\":1086:1090  this */\n      address\n        /* \"ex13/TransactionProperty.sol\":1086:1107  this.newCheckFunction */\n      0xffffffffffffffffffffffffffffffffffffffff\n      and\n      0x1b33b381\n        /* \"ex13/TransactionProperty.sol\":1086:1109  this.newCheckFunction() */\n      mload(0x40)\n      dup2\n      0xffffffff\n      and\n      0xe0\n      shl\n      dup2\n      mstore\n      0x04\n      add\n      0x20\n      mload(0x40)\n      dup1\n      dup4\n      sub\n      dup2\n      dup7\n      gas\n      staticcall\n      iszero\n      dup1\n      iszero\n      tag_70\n      jumpi\n      returndatasize\n      0x00\n      dup1\n      returndatacopy\n      revert(0x00, returndatasize)\n    tag_70:\n      pop\n      pop\n      pop\n      pop\n      mload(0x40)\n      returndatasize\n      not(0x1f)\n      0x1f\n      dup3\n      add\n      and\n      dup3\n      add\n      dup1\n      0x40\n      mstore\n      pop\n      dup2\n      add\n      swap1\n      tag_71\n      swap2\n      swap1\n      tag_72\n      jump\t// in\n    tag_71:\n      pop\n        /* \"ex13/TransactionProperty.sol\":997:1114  function newOderList() external payable {... */\n      jump\t// out\n        /* \"ex13/TransactionProperty.sol\":286:314  bytes public msg2 = msg.data */\n    tag_45:\n      0x01\n      dup1\n      sload\n      tag_73\n      swap1\n      tag_74\n      jump\t// in\n    tag_73:\n      dup1\n      0x1f\n      add\n      0x20\n      dup1\n      swap2\n      div\n      mul\n      0x20\n      add\n      mload(0x40)\n      swap1\n      dup2\n      add\n      0x40\n      mstore\n      dup1\n      swap3\n      swap2\n      swap1\n      dup2\n      dup2\n      mstore\n      0x20\n      add\n      dup3\n      dup1\n      sload\n      tag_75\n      swap1\n      tag_74\n      jump\t// in\n    tag_75:\n      dup1\n      iszero\n      tag_76\n      jumpi\n      dup1\n      0x1f\n      lt\n      tag_77\n      jumpi\n      0x0100\n      dup1\n      dup4\n      sload\n      div\n      mul\n      dup4\n      mstore\n      swap2\n      0x20\n      add\n      swap2\n      jump(tag_76)\n    tag_77:\n      dup3\n      add\n      swap2\n      swap1\n      0x00\n      mstore\n      keccak256(0x00, 0x20)\n      swap1\n    tag_78:\n      dup2\n      sload\n      dup2\n      mstore\n      swap1\n      0x01\n      add\n      swap1\n      0x20\n      add\n      dup1\n      dup4\n      gt\n      tag_78\n      jumpi\n      dup3\n      swap1\n      sub\n      0x1f\n      and\n      dup3\n      add\n      swap2\n    tag_76:\n      pop\n      pop\n      pop\n      pop\n      pop\n      dup2\n      jump\t// out\n        /* \"ex13/TransactionProperty.sol\":352:384  address public msg3 = msg.sender */\n    tag_50:\n      0x02\n      0x00\n      swap1\n      sload\n      swap1\n      0x0100\n      exp\n      swap1\n      div\n      0xffffffffffffffffffffffffffffffffffffffff\n      and\n      dup2\n      jump\t// out\n        /* \"ex13/TransactionProperty.sol\":223:251  uint public msg1 = gasleft() */\n    tag_55:\n      sload(0x00)\n      dup2\n      jump\t// out\n        /* \"#utility.yul\":7:97   */\n    tag_79:\n        /* \"#utility.yul\":41:48   */\n      0x00\n        /* \"#utility.yul\":84:89   */\n      dup2\n        /* \"#utility.yul\":77:90   */\n      iszero\n        /* \"#utility.yul\":70:91   */\n      iszero\n        /* \"#utility.yul\":59:91   */\n      swap1\n      pop\n        /* \"#utility.yul\":7:97   */\n      swap2\n      swap1\n      pop\n      jump\t// out\n        /* \"#utility.yul\":103:212   */\n    tag_80:\n        /* \"#utility.yul\":184:205   */\n      tag_112\n        /* \"#utility.yul\":199:204   */\n      dup2\n        /* \"#utility.yul\":184:205   */\n      tag_79\n      jump\t// in\n    tag_112:\n        /* \"#utility.yul\":179:182   */\n      dup3\n        /* \"#utility.yul\":172:206   */\n      mstore\n        /* \"#utility.yul\":103:212   */\n      pop\n      pop\n      jump\t// out\n        /* \"#utility.yul\":218:428   */\n    tag_17:\n        /* \"#utility.yul\":305:309   */\n      0x00\n        /* \"#utility.yul\":343:345   */\n      0x20\n        /* \"#utility.yul\":332:341   */\n      dup3\n        /* \"#utility.yul\":328:346   */\n      add\n        /* \"#utility.yul\":320:346   */\n      swap1\n      pop\n        /* \"#utility.yul\":356:421   */\n      tag_114\n        /* \"#utility.yul\":418:419   */\n      0x00\n        /* \"#utility.yul\":407:416   */\n      dup4\n        /* \"#utility.yul\":403:420   */\n      add\n        /* \"#utility.yul\":394:400   */\n      dup5\n        /* \"#utility.yul\":356:421   */\n      tag_80\n      jump\t// in\n    tag_114:\n        /* \"#utility.yul\":218:428   */\n      swap3\n      swap2\n      pop\n      pop\n      jump\t// out\n        /* \"#utility.yul\":434:511   */\n    tag_81:\n        /* \"#utility.yul\":471:478   */\n      0x00\n        /* \"#utility.yul\":500:505   */\n      dup2\n        /* \"#utility.yul\":489:505   */\n      swap1\n      pop\n        /* \"#utility.yul\":434:511   */\n      swap2\n      swap1\n      pop\n      jump\t// out\n        /* \"#utility.yul\":517:635   */\n    tag_82:\n        /* \"#utility.yul\":604:628   */\n      tag_117\n        /* \"#utility.yul\":622:627   */\n      dup2\n        /* \"#utility.yul\":604:628   */\n      tag_81\n      jump\t// in\n    tag_117:\n        /* \"#utility.yul\":599:602   */\n      dup3\n        /* \"#utility.yul\":592:629   */\n      mstore\n        /* \"#utility.yul\":517:635   */\n      pop\n      pop\n      jump\t// out\n        /* \"#utility.yul\":641:863   */\n    tag_22:\n        /* \"#utility.yul\":734:738   */\n      0x00\n        /* \"#utility.yul\":772:774   */\n      0x20\n        /* \"#utility.yul\":761:770   */\n      dup3\n        /* \"#utility.yul\":757:775   */\n      add\n        /* \"#utility.yul\":749:775   */\n      swap1\n      pop\n        /* \"#utility.yul\":785:856   */\n      tag_119\n        /* \"#utility.yul\":853:854   */\n      0x00\n        /* \"#utility.yul\":842:851   */\n      dup4\n        /* \"#utility.yul\":838:855   */\n      add\n        /* \"#utility.yul\":829:835   */\n      dup5\n        /* \"#utility.yul\":785:856   */\n      tag_82\n      jump\t// in\n    tag_119:\n        /* \"#utility.yul\":641:863   */\n      swap3\n      swap2\n      pop\n      pop\n      jump\t// out\n        /* \"#utility.yul\":869:1018   */\n    tag_83:\n        /* \"#utility.yul\":905:912   */\n      0x00\n        /* \"#utility.yul\":945:1011   */\n      0xffffffff00000000000000000000000000000000000000000000000000000000\n        /* \"#utility.yul\":938:943   */\n      dup3\n        /* \"#utility.yul\":934:1012   */\n      and\n        /* \"#utility.yul\":923:1012   */\n      swap1\n      pop\n        /* \"#utility.yul\":869:1018   */\n      swap2\n      swap1\n      pop\n      jump\t// out\n        /* \"#utility.yul\":1024:1139   */\n    tag_84:\n        /* \"#utility.yul\":1109:1132   */\n      tag_122\n        /* \"#utility.yul\":1126:1131   */\n      dup2\n        /* \"#utility.yul\":1109:1132   */\n      tag_83\n      jump\t// in\n    tag_122:\n        /* \"#utility.yul\":1104:1107   */\n      dup3\n        /* \"#utility.yul\":1097:1133   */\n      mstore\n        /* \"#utility.yul\":1024:1139   */\n      pop\n      pop\n      jump\t// out\n        /* \"#utility.yul\":1145:1363   */\n    tag_30:\n        /* \"#utility.yul\":1236:1240   */\n      0x00\n        /* \"#utility.yul\":1274:1276   */\n      0x20\n        /* \"#utility.yul\":1263:1272   */\n      dup3\n        /* \"#utility.yul\":1259:1277   */\n      add\n        /* \"#utility.yul\":1251:1277   */\n      swap1\n      pop\n        /* \"#utility.yul\":1287:1356   */\n      tag_124\n        /* \"#utility.yul\":1353:1354   */\n      0x00\n        /* \"#utility.yul\":1342:1351   */\n      dup4\n        /* \"#utility.yul\":1338:1355   */\n      add\n        /* \"#utility.yul\":1329:1335   */\n      dup5\n        /* \"#utility.yul\":1287:1356   */\n      tag_84\n      jump\t// in\n    tag_124:\n        /* \"#utility.yul\":1145:1363   */\n      swap3\n      swap2\n      pop\n      pop\n      jump\t// out\n        /* \"#utility.yul\":1450:1567   */\n    tag_86:\n        /* \"#utility.yul\":1559:1560   */\n      0x00\n        /* \"#utility.yul\":1556:1557   */\n      dup1\n        /* \"#utility.yul\":1549:1561   */\n      revert\n        /* \"#utility.yul\":1573:1690   */\n    tag_87:\n        /* \"#utility.yul\":1682:1683   */\n      0x00\n        /* \"#utility.yul\":1679:1680   */\n      dup1\n        /* \"#utility.yul\":1672:1684   */\n      revert\n        /* \"#utility.yul\":1696:1813   */\n    tag_88:\n        /* \"#utility.yul\":1805:1806   */\n      0x00\n        /* \"#utility.yul\":1802:1803   */\n      dup1\n        /* \"#utility.yul\":1795:1807   */\n      revert\n        /* \"#utility.yul\":1819:1936   */\n    tag_89:\n        /* \"#utility.yul\":1928:1929   */\n      0x00\n        /* \"#utility.yul\":1925:1926   */\n      dup1\n        /* \"#utility.yul\":1918:1930   */\n      revert\n        /* \"#utility.yul\":1942:2059   */\n    tag_90:\n        /* \"#utility.yul\":2051:2052   */\n      0x00\n        /* \"#utility.yul\":2048:2049   */\n      dup1\n        /* \"#utility.yul\":2041:2053   */\n      revert\n        /* \"#utility.yul\":2079:2632   */\n    tag_91:\n        /* \"#utility.yul\":2137:2145   */\n      0x00\n        /* \"#utility.yul\":2147:2153   */\n      dup1\n        /* \"#utility.yul\":2197:2200   */\n      dup4\n        /* \"#utility.yul\":2190:2194   */\n      0x1f\n        /* \"#utility.yul\":2182:2188   */\n      dup5\n        /* \"#utility.yul\":2178:2195   */\n      add\n        /* \"#utility.yul\":2174:2201   */\n      slt\n        /* \"#utility.yul\":2164:2286   */\n      tag_132\n      jumpi\n        /* \"#utility.yul\":2205:2284   */\n      tag_133\n      tag_88\n      jump\t// in\n    tag_133:\n        /* \"#utility.yul\":2164:2286   */\n    tag_132:\n        /* \"#utility.yul\":2318:2324   */\n      dup3\n        /* \"#utility.yul\":2305:2325   */\n      calldataload\n        /* \"#utility.yul\":2295:2325   */\n      swap1\n      pop\n        /* \"#utility.yul\":2348:2366   */\n      0xffffffffffffffff\n        /* \"#utility.yul\":2340:2346   */\n      dup2\n        /* \"#utility.yul\":2337:2367   */\n      gt\n        /* \"#utility.yul\":2334:2451   */\n      iszero\n      tag_134\n      jumpi\n        /* \"#utility.yul\":2370:2449   */\n      tag_135\n      tag_89\n      jump\t// in\n    tag_135:\n        /* \"#utility.yul\":2334:2451   */\n    tag_134:\n        /* \"#utility.yul\":2484:2488   */\n      0x20\n        /* \"#utility.yul\":2476:2482   */\n      dup4\n        /* \"#utility.yul\":2472:2489   */\n      add\n        /* \"#utility.yul\":2460:2489   */\n      swap2\n      pop\n        /* \"#utility.yul\":2538:2541   */\n      dup4\n        /* \"#utility.yul\":2530:2534   */\n      0x01\n        /* \"#utility.yul\":2522:2528   */\n      dup3\n        /* \"#utility.yul\":2518:2535   */\n      mul\n        /* \"#utility.yul\":2508:2516   */\n      dup4\n        /* \"#utility.yul\":2504:2536   */\n      add\n        /* \"#utility.yul\":2501:2542   */\n      gt\n        /* \"#utility.yul\":2498:2626   */\n      iszero\n      tag_136\n      jumpi\n        /* \"#utility.yul\":2545:2624   */\n      tag_137\n      tag_90\n      jump\t// in\n    tag_137:\n        /* \"#utility.yul\":2498:2626   */\n    tag_136:\n        /* \"#utility.yul\":2079:2632   */\n      swap3\n      pop\n      swap3\n      swap1\n      pop\n      jump\t// out\n        /* \"#utility.yul\":2638:3167   */\n    tag_34:\n        /* \"#utility.yul\":2709:2715   */\n      0x00\n        /* \"#utility.yul\":2717:2723   */\n      dup1\n        /* \"#utility.yul\":2766:2768   */\n      0x20\n        /* \"#utility.yul\":2754:2763   */\n      dup4\n        /* \"#utility.yul\":2745:2752   */\n      dup6\n        /* \"#utility.yul\":2741:2764   */\n      sub\n        /* \"#utility.yul\":2737:2769   */\n      slt\n        /* \"#utility.yul\":2734:2853   */\n      iszero\n      tag_139\n      jumpi\n        /* \"#utility.yul\":2772:2851   */\n      tag_140\n      tag_86\n      jump\t// in\n    tag_140:\n        /* \"#utility.yul\":2734:2853   */\n    tag_139:\n        /* \"#utility.yul\":2920:2921   */\n      0x00\n        /* \"#utility.yul\":2909:2918   */\n      dup4\n        /* \"#utility.yul\":2905:2922   */\n      add\n        /* \"#utility.yul\":2892:2923   */\n      calldataload\n        /* \"#utility.yul\":2950:2968   */\n      0xffffffffffffffff\n        /* \"#utility.yul\":2942:2948   */\n      dup2\n        /* \"#utility.yul\":2939:2969   */\n      gt\n        /* \"#utility.yul\":2936:3053   */\n      iszero\n      tag_141\n      jumpi\n        /* \"#utility.yul\":2972:3051   */\n      tag_142\n      tag_87\n      jump\t// in\n    tag_142:\n        /* \"#utility.yul\":2936:3053   */\n    tag_141:\n        /* \"#utility.yul\":3085:3150   */\n      tag_143\n        /* \"#utility.yul\":3142:3149   */\n      dup6\n        /* \"#utility.yul\":3133:3139   */\n      dup3\n        /* \"#utility.yul\":3122:3131   */\n      dup7\n        /* \"#utility.yul\":3118:3140   */\n      add\n        /* \"#utility.yul\":3085:3150   */\n      tag_91\n      jump\t// in\n    tag_143:\n        /* \"#utility.yul\":3067:3150   */\n      swap3\n      pop\n      swap3\n      pop\n        /* \"#utility.yul\":2863:3160   */\n      pop\n        /* \"#utility.yul\":2638:3167   */\n      swap3\n      pop\n      swap3\n      swap1\n      pop\n      jump\t// out\n        /* \"#utility.yul\":3173:3271   */\n    tag_92:\n        /* \"#utility.yul\":3224:3230   */\n      0x00\n        /* \"#utility.yul\":3258:3263   */\n      dup2\n        /* \"#utility.yul\":3252:3264   */\n      mload\n        /* \"#utility.yul\":3242:3264   */\n      swap1\n      pop\n        /* \"#utility.yul\":3173:3271   */\n      swap2\n      swap1\n      pop\n      jump\t// out\n        /* \"#utility.yul\":3277:3445   */\n    tag_93:\n        /* \"#utility.yul\":3360:3371   */\n      0x00\n        /* \"#utility.yul\":3394:3400   */\n      dup3\n        /* \"#utility.yul\":3389:3392   */\n      dup3\n        /* \"#utility.yul\":3382:3401   */\n      mstore\n        /* \"#utility.yul\":3434:3438   */\n      0x20\n        /* \"#utility.yul\":3429:3432   */\n      dup3\n        /* \"#utility.yul\":3425:3439   */\n      add\n        /* \"#utility.yul\":3410:3439   */\n      swap1\n      pop\n        /* \"#utility.yul\":3277:3445   */\n      swap3\n      swap2\n      pop\n      pop\n      jump\t// out\n        /* \"#utility.yul\":3451:3697   */\n    tag_94:\n        /* \"#utility.yul\":3532:3533   */\n      0x00\n        /* \"#utility.yul\":3542:3655   */\n    tag_147:\n        /* \"#utility.yul\":3556:3562   */\n      dup4\n        /* \"#utility.yul\":3553:3554   */\n      dup2\n        /* \"#utility.yul\":3550:3563   */\n      lt\n        /* \"#utility.yul\":3542:3655   */\n      iszero\n      tag_149\n      jumpi\n        /* \"#utility.yul\":3641:3642   */\n      dup1\n        /* \"#utility.yul\":3636:3639   */\n      dup3\n        /* \"#utility.yul\":3632:3643   */\n      add\n        /* \"#utility.yul\":3626:3644   */\n      mload\n        /* \"#utility.yul\":3622:3623   */\n      dup2\n        /* \"#utility.yul\":3617:3620   */\n      dup5\n        /* \"#utility.yul\":3613:3624   */\n      add\n        /* \"#utility.yul\":3606:3645   */\n      mstore\n        /* \"#utility.yul\":3578:3580   */\n      0x20\n        /* \"#utility.yul\":3575:3576   */\n      dup2\n        /* \"#utility.yul\":3571:3581   */\n      add\n        /* \"#utility.yul\":3566:3581   */\n      swap1\n      pop\n        /* \"#utility.yul\":3542:3655   */\n      jump(tag_147)\n    tag_149:\n        /* \"#utility.yul\":3689:3690   */\n      0x00\n        /* \"#utility.yul\":3680:3686   */\n      dup5\n        /* \"#utility.yul\":3675:3678   */\n      dup5\n        /* \"#utility.yul\":3671:3687   */\n      add\n        /* \"#utility.yul\":3664:3691   */\n      mstore\n        /* \"#utility.yul\":3513:3697   */\n      pop\n        /* \"#utility.yul\":3451:3697   */\n      pop\n      pop\n      pop\n      jump\t// out\n        /* \"#utility.yul\":3703:3805   */\n    tag_95:\n        /* \"#utility.yul\":3744:3750   */\n      0x00\n        /* \"#utility.yul\":3795:3797   */\n      0x1f\n        /* \"#utility.yul\":3791:3798   */\n      not\n        /* \"#utility.yul\":3786:3788   */\n      0x1f\n        /* \"#utility.yul\":3779:3784   */\n      dup4\n        /* \"#utility.yul\":3775:3789   */\n      add\n        /* \"#utility.yul\":3771:3799   */\n      and\n        /* \"#utility.yul\":3761:3799   */\n      swap1\n      pop\n        /* \"#utility.yul\":3703:3805   */\n      swap2\n      swap1\n      pop\n      jump\t// out\n        /* \"#utility.yul\":3811:4184   */\n    tag_96:\n        /* \"#utility.yul\":3897:3900   */\n      0x00\n        /* \"#utility.yul\":3925:3963   */\n      tag_152\n        /* \"#utility.yul\":3957:3962   */\n      dup3\n        /* \"#utility.yul\":3925:3963   */\n      tag_92\n      jump\t// in\n    tag_152:\n        /* \"#utility.yul\":3979:4049   */\n      tag_153\n        /* \"#utility.yul\":4042:4048   */\n      dup2\n        /* \"#utility.yul\":4037:4040   */\n      dup6\n        /* \"#utility.yul\":3979:4049   */\n      tag_93\n      jump\t// in\n    tag_153:\n        /* \"#utility.yul\":3972:4049   */\n      swap4\n      pop\n        /* \"#utility.yul\":4058:4123   */\n      tag_154\n        /* \"#utility.yul\":4116:4122   */\n      dup2\n        /* \"#utility.yul\":4111:4114   */\n      dup6\n        /* \"#utility.yul\":4104:4108   */\n      0x20\n        /* \"#utility.yul\":4097:4102   */\n      dup7\n        /* \"#utility.yul\":4093:4109   */\n      add\n        /* \"#utility.yul\":4058:4123   */\n      tag_94\n      jump\t// in\n    tag_154:\n        /* \"#utility.yul\":4148:4177   */\n      tag_155\n        /* \"#utility.yul\":4170:4176   */\n      dup2\n        /* \"#utility.yul\":4148:4177   */\n      tag_95\n      jump\t// in\n    tag_155:\n        /* \"#utility.yul\":4143:4146   */\n      dup5\n        /* \"#utility.yul\":4139:4178   */\n      add\n        /* \"#utility.yul\":4132:4178   */\n      swap2\n      pop\n        /* \"#utility.yul\":3901:4184   */\n      pop\n        /* \"#utility.yul\":3811:4184   */\n      swap3\n      swap2\n      pop\n      pop\n      jump\t// out\n        /* \"#utility.yul\":4190:4499   */\n    tag_47:\n        /* \"#utility.yul\":4301:4305   */\n      0x00\n        /* \"#utility.yul\":4339:4341   */\n      0x20\n        /* \"#utility.yul\":4328:4337   */\n      dup3\n        /* \"#utility.yul\":4324:4342   */\n      add\n        /* \"#utility.yul\":4316:4342   */\n      swap1\n      pop\n        /* \"#utility.yul\":4388:4397   */\n      dup2\n        /* \"#utility.yul\":4382:4386   */\n      dup2\n        /* \"#utility.yul\":4378:4398   */\n      sub\n        /* \"#utility.yul\":4374:4375   */\n      0x00\n        /* \"#utility.yul\":4363:4372   */\n      dup4\n        /* \"#utility.yul\":4359:4376   */\n      add\n        /* \"#utility.yul\":4352:4399   */\n      mstore\n        /* \"#utility.yul\":4416:4492   */\n      tag_157\n        /* \"#utility.yul\":4487:4491   */\n      dup2\n        /* \"#utility.yul\":4478:4484   */\n      dup5\n        /* \"#utility.yul\":4416:4492   */\n      tag_96\n      jump\t// in\n    tag_157:\n        /* \"#utility.yul\":4408:4492   */\n      swap1\n      pop\n        /* \"#utility.yul\":4190:4499   */\n      swap3\n      swap2\n      pop\n      pop\n      jump\t// out\n        /* \"#utility.yul\":4505:4631   */\n    tag_97:\n        /* \"#utility.yul\":4542:4549   */\n      0x00\n        /* \"#utility.yul\":4582:4624   */\n      0xffffffffffffffffffffffffffffffffffffffff\n        /* \"#utility.yul\":4575:4580   */\n      dup3\n        /* \"#utility.yul\":4571:4625   */\n      and\n        /* \"#utility.yul\":4560:4625   */\n      swap1\n      pop\n        /* \"#utility.yul\":4505:4631   */\n      swap2\n      swap1\n      pop\n      jump\t// out\n        /* \"#utility.yul\":4637:4733   */\n    tag_98:\n        /* \"#utility.yul\":4674:4681   */\n      0x00\n        /* \"#utility.yul\":4703:4727   */\n      tag_160\n        /* \"#utility.yul\":4721:4726   */\n      dup3\n        /* \"#utility.yul\":4703:4727   */\n      tag_97\n      jump\t// in\n    tag_160:\n        /* \"#utility.yul\":4692:4727   */\n      swap1\n      pop\n        /* \"#utility.yul\":4637:4733   */\n      swap2\n      swap1\n      pop\n      jump\t// out\n        /* \"#utility.yul\":4739:4857   */\n    tag_99:\n        /* \"#utility.yul\":4826:4850   */\n      tag_162\n        /* \"#utility.yul\":4844:4849   */\n      dup2\n        /* \"#utility.yul\":4826:4850   */\n      tag_98\n      jump\t// in\n    tag_162:\n        /* \"#utility.yul\":4821:4824   */\n      dup3\n        /* \"#utility.yul\":4814:4851   */\n      mstore\n        /* \"#utility.yul\":4739:4857   */\n      pop\n      pop\n      jump\t// out\n        /* \"#utility.yul\":4863:5085   */\n    tag_52:\n        /* \"#utility.yul\":4956:4960   */\n      0x00\n        /* \"#utility.yul\":4994:4996   */\n      0x20\n        /* \"#utility.yul\":4983:4992   */\n      dup3\n        /* \"#utility.yul\":4979:4997   */\n      add\n        /* \"#utility.yul\":4971:4997   */\n      swap1\n      pop\n        /* \"#utility.yul\":5007:5078   */\n      tag_164\n        /* \"#utility.yul\":5075:5076   */\n      0x00\n        /* \"#utility.yul\":5064:5073   */\n      dup4\n        /* \"#utility.yul\":5060:5077   */\n      add\n        /* \"#utility.yul\":5051:5057   */\n      dup5\n        /* \"#utility.yul\":5007:5078   */\n      tag_99\n      jump\t// in\n    tag_164:\n        /* \"#utility.yul\":4863:5085   */\n      swap3\n      swap2\n      pop\n      pop\n      jump\t// out\n        /* \"#utility.yul\":5091:5239   */\n    tag_100:\n        /* \"#utility.yul\":5193:5204   */\n      0x00\n        /* \"#utility.yul\":5230:5233   */\n      dup2\n        /* \"#utility.yul\":5215:5233   */\n      swap1\n      pop\n        /* \"#utility.yul\":5091:5239   */\n      swap3\n      swap2\n      pop\n      pop\n      jump\t// out\n        /* \"#utility.yul\":5245:5409   */\n    tag_101:\n        /* \"#utility.yul\":5385:5401   */\n      0x6e65774f6465724c697374322829000000000000000000000000000000000000\n        /* \"#utility.yul\":5381:5382   */\n      0x00\n        /* \"#utility.yul\":5373:5379   */\n      dup3\n        /* \"#utility.yul\":5369:5383   */\n      add\n        /* \"#utility.yul\":5362:5402   */\n      mstore\n        /* \"#utility.yul\":5245:5409   */\n      pop\n      jump\t// out\n        /* \"#utility.yul\":5415:5817   */\n    tag_102:\n        /* \"#utility.yul\":5575:5578   */\n      0x00\n        /* \"#utility.yul\":5596:5681   */\n      tag_168\n        /* \"#utility.yul\":5678:5680   */\n      0x0e\n        /* \"#utility.yul\":5673:5676   */\n      dup4\n        /* \"#utility.yul\":5596:5681   */\n      tag_100\n      jump\t// in\n    tag_168:\n        /* \"#utility.yul\":5589:5681   */\n      swap2\n      pop\n        /* \"#utility.yul\":5690:5783   */\n      tag_169\n        /* \"#utility.yul\":5779:5782   */\n      dup3\n        /* \"#utility.yul\":5690:5783   */\n      tag_101\n      jump\t// in\n    tag_169:\n        /* \"#utility.yul\":5808:5810   */\n      0x0e\n        /* \"#utility.yul\":5803:5806   */\n      dup3\n        /* \"#utility.yul\":5799:5811   */\n      add\n        /* \"#utility.yul\":5792:5811   */\n      swap1\n      pop\n        /* \"#utility.yul\":5415:5817   */\n      swap2\n      swap1\n      pop\n      jump\t// out\n        /* \"#utility.yul\":5823:6204   */\n    tag_59:\n        /* \"#utility.yul\":6008:6011   */\n      0x00\n        /* \"#utility.yul\":6030:6178   */\n      tag_171\n        /* \"#utility.yul\":6174:6177   */\n      dup3\n        /* \"#utility.yul\":6030:6178   */\n      tag_102\n      jump\t// in\n    tag_171:\n        /* \"#utility.yul\":6023:6178   */\n      swap2\n      pop\n        /* \"#utility.yul\":6195:6198   */\n      dup2\n        /* \"#utility.yul\":6188:6198   */\n      swap1\n      pop\n        /* \"#utility.yul\":5823:6204   */\n      swap2\n      swap1\n      pop\n      jump\t// out\n        /* \"#utility.yul\":6210:6357   */\n    tag_103:\n        /* \"#utility.yul\":6311:6322   */\n      0x00\n        /* \"#utility.yul\":6348:6351   */\n      dup2\n        /* \"#utility.yul\":6333:6351   */\n      swap1\n      pop\n        /* \"#utility.yul\":6210:6357   */\n      swap3\n      swap2\n      pop\n      pop\n      jump\t// out\n        /* \"#utility.yul\":6363:6509   */\n    tag_104:\n        /* \"#utility.yul\":6460:6466   */\n      dup3\n        /* \"#utility.yul\":6455:6458   */\n      dup2\n        /* \"#utility.yul\":6450:6453   */\n      dup4\n        /* \"#utility.yul\":6437:6467   */\n      calldatacopy\n        /* \"#utility.yul\":6501:6502   */\n      0x00\n        /* \"#utility.yul\":6492:6498   */\n      dup4\n        /* \"#utility.yul\":6487:6490   */\n      dup4\n        /* \"#utility.yul\":6483:6499   */\n      add\n        /* \"#utility.yul\":6476:6503   */\n      mstore\n        /* \"#utility.yul\":6363:6509   */\n      pop\n      pop\n      pop\n      jump\t// out\n        /* \"#utility.yul\":6537:6864   */\n    tag_105:\n        /* \"#utility.yul\":6651:6654   */\n      0x00\n        /* \"#utility.yul\":6672:6760   */\n      tag_175\n        /* \"#utility.yul\":6753:6759   */\n      dup4\n        /* \"#utility.yul\":6748:6751   */\n      dup6\n        /* \"#utility.yul\":6672:6760   */\n      tag_103\n      jump\t// in\n    tag_175:\n        /* \"#utility.yul\":6665:6760   */\n      swap4\n      pop\n        /* \"#utility.yul\":6770:6826   */\n      tag_176\n        /* \"#utility.yul\":6819:6825   */\n      dup4\n        /* \"#utility.yul\":6814:6817   */\n      dup6\n        /* \"#utility.yul\":6807:6812   */\n      dup5\n        /* \"#utility.yul\":6770:6826   */\n      tag_104\n      jump\t// in\n    tag_176:\n        /* \"#utility.yul\":6851:6857   */\n      dup3\n        /* \"#utility.yul\":6846:6849   */\n      dup5\n        /* \"#utility.yul\":6842:6858   */\n      add\n        /* \"#utility.yul\":6835:6858   */\n      swap1\n      pop\n        /* \"#utility.yul\":6537:6864   */\n      swap4\n      swap3\n      pop\n      pop\n      pop\n      jump\t// out\n        /* \"#utility.yul\":6870:7161   */\n    tag_66:\n        /* \"#utility.yul\":7010:7013   */\n      0x00\n        /* \"#utility.yul\":7032:7135   */\n      tag_178\n        /* \"#utility.yul\":7131:7134   */\n      dup3\n        /* \"#utility.yul\":7122:7128   */\n      dup5\n        /* \"#utility.yul\":7114:7120   */\n      dup7\n        /* \"#utility.yul\":7032:7135   */\n      tag_105\n      jump\t// in\n    tag_178:\n        /* \"#utility.yul\":7025:7135   */\n      swap2\n      pop\n        /* \"#utility.yul\":7152:7155   */\n      dup2\n        /* \"#utility.yul\":7145:7155   */\n      swap1\n      pop\n        /* \"#utility.yul\":6870:7161   */\n      swap4\n      swap3\n      pop\n      pop\n      pop\n      jump\t// out\n        /* \"#utility.yul\":7167:7283   */\n    tag_106:\n        /* \"#utility.yul\":7237:7258   */\n      tag_180\n        /* \"#utility.yul\":7252:7257   */\n      dup2\n        /* \"#utility.yul\":7237:7258   */\n      tag_79\n      jump\t// in\n    tag_180:\n        /* \"#utility.yul\":7230:7235   */\n      dup2\n        /* \"#utility.yul\":7227:7259   */\n      eq\n        /* \"#utility.yul\":7217:7277   */\n      tag_181\n      jumpi\n        /* \"#utility.yul\":7273:7274   */\n      0x00\n        /* \"#utility.yul\":7270:7271   */\n      dup1\n        /* \"#utility.yul\":7263:7275   */\n      revert\n        /* \"#utility.yul\":7217:7277   */\n    tag_181:\n        /* \"#utility.yul\":7167:7283   */\n      pop\n      jump\t// out\n        /* \"#utility.yul\":7289:7426   */\n    tag_107:\n        /* \"#utility.yul\":7343:7348   */\n      0x00\n        /* \"#utility.yul\":7374:7380   */\n      dup2\n        /* \"#utility.yul\":7368:7381   */\n      mload\n        /* \"#utility.yul\":7359:7381   */\n      swap1\n      pop\n        /* \"#utility.yul\":7390:7420   */\n      tag_183\n        /* \"#utility.yul\":7414:7419   */\n      dup2\n        /* \"#utility.yul\":7390:7420   */\n      tag_106\n      jump\t// in\n    tag_183:\n        /* \"#utility.yul\":7289:7426   */\n      swap3\n      swap2\n      pop\n      pop\n      jump\t// out\n        /* \"#utility.yul\":7432:7777   */\n    tag_72:\n        /* \"#utility.yul\":7499:7505   */\n      0x00\n        /* \"#utility.yul\":7548:7550   */\n      0x20\n        /* \"#utility.yul\":7536:7545   */\n      dup3\n        /* \"#utility.yul\":7527:7534   */\n      dup5\n        /* \"#utility.yul\":7523:7546   */\n      sub\n        /* \"#utility.yul\":7519:7551   */\n      slt\n        /* \"#utility.yul\":7516:7635   */\n      iszero\n      tag_185\n      jumpi\n        /* \"#utility.yul\":7554:7633   */\n      tag_186\n      tag_86\n      jump\t// in\n    tag_186:\n        /* \"#utility.yul\":7516:7635   */\n    tag_185:\n        /* \"#utility.yul\":7674:7675   */\n      0x00\n        /* \"#utility.yul\":7699:7760   */\n      tag_187\n        /* \"#utility.yul\":7752:7759   */\n      dup5\n        /* \"#utility.yul\":7743:7749   */\n      dup3\n        /* \"#utility.yul\":7732:7741   */\n      dup6\n        /* \"#utility.yul\":7728:7750   */\n      add\n        /* \"#utility.yul\":7699:7760   */\n      tag_107\n      jump\t// in\n    tag_187:\n        /* \"#utility.yul\":7689:7760   */\n      swap2\n      pop\n        /* \"#utility.yul\":7645:7770   */\n      pop\n        /* \"#utility.yul\":7432:7777   */\n      swap3\n      swap2\n      pop\n      pop\n      jump\t// out\n        /* \"#utility.yul\":7783:7963   */\n    tag_108:\n        /* \"#utility.yul\":7831:7908   */\n      0x4e487b7100000000000000000000000000000000000000000000000000000000\n        /* \"#utility.yul\":7828:7829   */\n      0x00\n        /* \"#utility.yul\":7821:7909   */\n      mstore\n        /* \"#utility.yul\":7928:7932   */\n      0x22\n        /* \"#utility.yul\":7925:7926   */\n      0x04\n        /* \"#utility.yul\":7918:7933   */\n      mstore\n        /* \"#utility.yul\":7952:7956   */\n      0x24\n        /* \"#utility.yul\":7949:7950   */\n      0x00\n        /* \"#utility.yul\":7942:7957   */\n      revert\n        /* \"#utility.yul\":7969:8289   */\n    tag_74:\n        /* \"#utility.yul\":8013:8019   */\n      0x00\n        /* \"#utility.yul\":8050:8051   */\n      0x02\n        /* \"#utility.yul\":8044:8048   */\n      dup3\n        /* \"#utility.yul\":8040:8052   */\n      div\n        /* \"#utility.yul\":8030:8052   */\n      swap1\n      pop\n        /* \"#utility.yul\":8097:8098   */\n      0x01\n        /* \"#utility.yul\":8091:8095   */\n      dup3\n        /* \"#utility.yul\":8087:8099   */\n      and\n        /* \"#utility.yul\":8118:8136   */\n      dup1\n        /* \"#utility.yul\":8108:8189   */\n      tag_190\n      jumpi\n        /* \"#utility.yul\":8174:8178   */\n      0x7f\n        /* \"#utility.yul\":8166:8172   */\n      dup3\n        /* \"#utility.yul\":8162:8179   */\n      and\n        /* \"#utility.yul\":8152:8179   */\n      swap2\n      pop\n        /* \"#utility.yul\":8108:8189   */\n    tag_190:\n        /* \"#utility.yul\":8236:8238   */\n      0x20\n        /* \"#utility.yul\":8228:8234   */\n      dup3\n        /* \"#utility.yul\":8225:8239   */\n      lt\n        /* \"#utility.yul\":8205:8223   */\n      dup2\n        /* \"#utility.yul\":8202:8240   */\n      sub\n        /* \"#utility.yul\":8199:8283   */\n      tag_191\n      jumpi\n        /* \"#utility.yul\":8255:8273   */\n      tag_192\n      tag_108\n      jump\t// in\n    tag_192:\n        /* \"#utility.yul\":8199:8283   */\n    tag_191:\n        /* \"#utility.yul\":8020:8289   */\n      pop\n        /* \"#utility.yul\":7969:8289   */\n      swap2\n      swap1\n      pop\n      jump\t// out\n\n    auxdata: 0xa2646970667358221220bea98d90df10b858a0e6d04fef79ece51ddcf55ae63e48c8bb4a16fc872af6e164736f6c63430008120033\n}\n",
				"bytecode": {
					"linkReferences": {},
					"object": "60806040525a600055600036600191826200001c92919062000332565b5033600260006101000a81548173ffffffffffffffffffffffffffffffffffffffff021916908373ffffffffffffffffffffffffffffffffffffffff1602179055506000357fffffffff0000000000000000000000000000000000000000000000000000000016600260146101000a81548163ffffffff021916908360e01c021790555034600355348015620000b157600080fd5b5062000417565b600082905092915050565b7f4e487b7100000000000000000000000000000000000000000000000000000000600052604160045260246000fd5b7f4e487b7100000000000000000000000000000000000000000000000000000000600052602260045260246000fd5b600060028204905060018216806200013a57607f821691505b60208210810362000150576200014f620000f2565b5b50919050565b60008190508160005260206000209050919050565b60006020601f8301049050919050565b600082821b905092915050565b600060088302620001ba7fffffffffffffffffffffffffffffffffffffffffffffffffffffffffffffffff826200017b565b620001c686836200017b565b95508019841693508086168417925050509392505050565b6000819050919050565b6000819050919050565b6000620002136200020d6200020784620001de565b620001e8565b620001de565b9050919050565b6000819050919050565b6200022f83620001f2565b620002476200023e826200021a565b84845462000188565b825550505050565b600090565b6200025e6200024f565b6200026b81848462000224565b505050565b5b8181101562000293576200028760008262000254565b60018101905062000271565b5050565b601f821115620002e257620002ac8162000156565b620002b7846200016b565b81016020851015620002c7578190505b620002df620002d6856200016b565b83018262000270565b50505b505050565b600082821c905092915050565b60006200030760001984600802620002e7565b1980831691505092915050565b6000620003228383620002f4565b9150826002028217905092915050565b6200033e8383620000b8565b67ffffffffffffffff8111156200035a5762000359620000c3565b5b62000366825462000121565b6200037382828562000297565b6000601f831160018114620003a7576000841562000392578287013590505b6200039e858262000314565b8655506200040e565b601f198416620003b78662000156565b60005b82811015620003e157848901358255600182019150602085019450602081019050620003ba565b86831015620004015784890135620003fd601f891682620002f4565b8355505b6001600288020188555050505b50505050505050565b61094680620004276000396000f3fe6080604052600436106100915760003560e01c80638edc02a1116100595780638edc02a114610172578063b099e7011461019d578063b10cbd0c146101a7578063e5eeefb9146101d2578063f3571f29146101fd57610091565b80631b33b3811461009657806356d6b8aa146100c15780635c681920146100ec57806369a757e11461010a57806380a003ff14610135575b600080fd5b3480156100a257600080fd5b506100ab610228565b6040516100b89190610524565b60405180910390f35b3480156100cd57600080fd5b506100d6610326565b6040516100e39190610558565b60405180910390f35b6100f461032c565b6040516101019190610558565b60405180910390f35b34801561011657600080fd5b5061011f610339565b60405161012c91906105ae565b60405180910390f35b34801561014157600080fd5b5061015c60048036038101906101579190610638565b61034c565b60405161016991906105ae565b60405180910390f35b34801561017e57600080fd5b5061018761036e565b60405161019491906105ae565b60405180910390f35b6101a5610399565b005b3480156101b357600080fd5b506101bc61044f565b6040516101c99190610715565b60405180910390f35b3480156101de57600080fd5b506101e76104dd565b6040516101f49190610778565b60405180910390f35b34801561020957600080fd5b50610212610503565b60405161021f9190610558565b60405180910390f35b60008060405160200161023a906107ea565b604051602081830303815290604052805190602001209050600080357fffffffff00000000000000000000000000000000000000000000000000000000167bffffffffffffffffffffffffffffffffffffffffffffffffffffffff1916827bffffffffffffffffffffffffffffffffffffffffffffffffffffffff1916036102c757600092505050610323565b631b33b38160e01b6000357fffffffff00000000000000000000000000000000000000000000000000000000167bffffffffffffffffffffffffffffffffffffffffffffffffffffffff19160361031d57600190505b80925050505b90565b60035481565b6000803490508091505090565b600260149054906101000a900460e01b81565b6000828260405161035e92919061083e565b6040518091039020905092915050565b600080357fffffffff0000000000000000000000000000000000000000000000000000000016905090565b34600460003373ffffffffffffffffffffffffffffffffffffffff1673ffffffffffffffffffffffffffffffffffffffff168152602001908152602001600020819055503073ffffffffffffffffffffffffffffffffffffffff16631b33b3816040518163ffffffff1660e01b8152600401602060405180830381865afa158015610428573d6000803e3d6000fd5b505050506040513d601f19601f8201168201806040525081019061044c9190610883565b50565b6001805461045c906108df565b80601f0160208091040260200160405190810160405280929190818152602001828054610488906108df565b80156104d55780601f106104aa576101008083540402835291602001916104d5565b820191906000526020600020905b8154815290600101906020018083116104b857829003601f168201915b505050505081565b600260009054906101000a900473ffffffffffffffffffffffffffffffffffffffff1681565b60005481565b60008115159050919050565b61051e81610509565b82525050565b60006020820190506105396000830184610515565b92915050565b6000819050919050565b6105528161053f565b82525050565b600060208201905061056d6000830184610549565b92915050565b60007fffffffff0000000000000000000000000000000000000000000000000000000082169050919050565b6105a881610573565b82525050565b60006020820190506105c3600083018461059f565b92915050565b600080fd5b600080fd5b600080fd5b600080fd5b600080fd5b60008083601f8401126105f8576105f76105d3565b5b8235905067ffffffffffffffff811115610615576106146105d8565b5b602083019150836001820283011115610631576106306105dd565b5b9250929050565b6000806020838503121561064f5761064e6105c9565b5b600083013567ffffffffffffffff81111561066d5761066c6105ce565b5b610679858286016105e2565b92509250509250929050565b600081519050919050565b600082825260208201905092915050565b60005b838110156106bf5780820151818401526020810190506106a4565b60008484015250505050565b6000601f19601f8301169050919050565b60006106e782610685565b6106f18185610690565b93506107018185602086016106a1565b61070a816106cb565b840191505092915050565b6000602082019050818103600083015261072f81846106dc565b905092915050565b600073ffffffffffffffffffffffffffffffffffffffff82169050919050565b600061076282610737565b9050919050565b61077281610757565b82525050565b600060208201905061078d6000830184610769565b92915050565b600081905092915050565b7f6e65774f6465724c697374322829000000000000000000000000000000000000600082015250565b60006107d4600e83610793565b91506107df8261079e565b600e82019050919050565b60006107f5826107c7565b9150819050919050565b600081905092915050565b82818337600083830152505050565b600061082583856107ff565b935061083283858461080a565b82840190509392505050565b600061084b828486610819565b91508190509392505050565b61086081610509565b811461086b57600080fd5b50565b60008151905061087d81610857565b92915050565b600060208284031215610899576108986105c9565b5b60006108a78482850161086e565b91505092915050565b7f4e487b7100000000000000000000000000000000000000000000000000000000600052602260045260246000fd5b600060028204905060018216806108f757607f821691505b60208210810361090a576109096108b0565b5b5091905056fea2646970667358221220bea98d90df10b858a0e6d04fef79ece51ddcf55ae63e48c8bb4a16fc872af6e164736f6c63430008120033",
					"opcodes": "PUSH1 0x80 PUSH1 0x40 MSTORE GAS PUSH1 0x0 SSTORE PUSH1 0x0 CALLDATASIZE PUSH1 0x1 SWAP2 DUP3 PUSH3 0x1C SWAP3 SWAP2 SWAP1 PUSH3 0x332 JUMP JUMPDEST POP CALLER PUSH1 0x2 PUSH1 0x0 PUSH2 0x100 EXP DUP2 SLOAD DUP2 PUSH20 0xFFFFFFFFFFFFFFFFFFFFFFFFFFFFFFFFFFFFFFFF MUL NOT AND SWAP1 DUP4 PUSH20 0xFFFFFFFFFFFFFFFFFFFFFFFFFFFFFFFFFFFFFFFF AND MUL OR SWAP1 SSTORE POP PUSH1 0x0 CALLDATALOAD PUSH32 0xFFFFFFFF00000000000000000000000000000000000000000000000000000000 AND PUSH1 0x2 PUSH1 0x14 PUSH2 0x100 EXP DUP2 SLOAD DUP2 PUSH4 0xFFFFFFFF MUL NOT AND SWAP1 DUP4 PUSH1 0xE0 SHR MUL OR SWAP1 SSTORE POP CALLVALUE PUSH1 0x3 SSTORE CALLVALUE DUP1 ISZERO PUSH3 0xB1 JUMPI PUSH1 0x0 DUP1 REVERT JUMPDEST POP PUSH3 0x417 JUMP JUMPDEST PUSH1 0x0 DUP3 SWAP1 POP SWAP3 SWAP2 POP POP JUMP JUMPDEST PUSH32 0x4E487B7100000000000000000000000000000000000000000000000000000000 PUSH1 0x0 MSTORE PUSH1 0x41 PUSH1 0x4 MSTORE PUSH1 0x24 PUSH1 0x0 REVERT JUMPDEST PUSH32 0x4E487B7100000000000000000000000000000000000000000000000000000000 PUSH1 0x0 MSTORE PUSH1 0x22 PUSH1 0x4 MSTORE PUSH1 0x24 PUSH1 0x0 REVERT JUMPDEST PUSH1 0x0 PUSH1 0x2 DUP3 DIV SWAP1 POP PUSH1 0x1 DUP3 AND DUP1 PUSH3 0x13A JUMPI PUSH1 0x7F DUP3 AND SWAP2 POP JUMPDEST PUSH1 0x20 DUP3 LT DUP2 SUB PUSH3 0x150 JUMPI PUSH3 0x14F PUSH3 0xF2 JUMP JUMPDEST JUMPDEST POP SWAP2 SWAP1 POP JUMP JUMPDEST PUSH1 0x0 DUP2 SWAP1 POP DUP2 PUSH1 0x0 MSTORE PUSH1 0x20 PUSH1 0x0 KECCAK256 SWAP1 POP SWAP2 SWAP1 POP JUMP JUMPDEST PUSH1 0x0 PUSH1 0x20 PUSH1 0x1F DUP4 ADD DIV SWAP1 POP SWAP2 SWAP1 POP JUMP JUMPDEST PUSH1 0x0 DUP3 DUP3 SHL SWAP1 POP SWAP3 SWAP2 POP POP JUMP JUMPDEST PUSH1 0x0 PUSH1 0x8 DUP4 MUL PUSH3 0x1BA PUSH32 0xFFFFFFFFFFFFFFFFFFFFFFFFFFFFFFFFFFFFFFFFFFFFFFFFFFFFFFFFFFFFFFFF DUP3 PUSH3 0x17B JUMP JUMPDEST PUSH3 0x1C6 DUP7 DUP4 PUSH3 0x17B JUMP JUMPDEST SWAP6 POP DUP1 NOT DUP5 AND SWAP4 POP DUP1 DUP7 AND DUP5 OR SWAP3 POP POP POP SWAP4 SWAP3 POP POP POP JUMP JUMPDEST PUSH1 0x0 DUP2 SWAP1 POP SWAP2 SWAP1 POP JUMP JUMPDEST PUSH1 0x0 DUP2 SWAP1 POP SWAP2 SWAP1 POP JUMP JUMPDEST PUSH1 0x0 PUSH3 0x213 PUSH3 0x20D PUSH3 0x207 DUP5 PUSH3 0x1DE JUMP JUMPDEST PUSH3 0x1E8 JUMP JUMPDEST PUSH3 0x1DE JUMP JUMPDEST SWAP1 POP SWAP2 SWAP1 POP JUMP JUMPDEST PUSH1 0x0 DUP2 SWAP1 POP SWAP2 SWAP1 POP JUMP JUMPDEST PUSH3 0x22F DUP4 PUSH3 0x1F2 JUMP JUMPDEST PUSH3 0x247 PUSH3 0x23E DUP3 PUSH3 0x21A JUMP JUMPDEST DUP5 DUP5 SLOAD PUSH3 0x188 JUMP JUMPDEST DUP3 SSTORE POP POP POP POP JUMP JUMPDEST PUSH1 0x0 SWAP1 JUMP JUMPDEST PUSH3 0x25E PUSH3 0x24F JUMP JUMPDEST PUSH3 0x26B DUP2 DUP5 DUP5 PUSH3 0x224 JUMP JUMPDEST POP POP POP JUMP JUMPDEST JUMPDEST DUP2 DUP2 LT ISZERO PUSH3 0x293 JUMPI PUSH3 0x287 PUSH1 0x0 DUP3 PUSH3 0x254 JUMP JUMPDEST PUSH1 0x1 DUP2 ADD SWAP1 POP PUSH3 0x271 JUMP JUMPDEST POP POP JUMP JUMPDEST PUSH1 0x1F DUP3 GT ISZERO PUSH3 0x2E2 JUMPI PUSH3 0x2AC DUP2 PUSH3 0x156 JUMP JUMPDEST PUSH3 0x2B7 DUP5 PUSH3 0x16B JUMP JUMPDEST DUP2 ADD PUSH1 0x20 DUP6 LT ISZERO PUSH3 0x2C7 JUMPI DUP2 SWAP1 POP JUMPDEST PUSH3 0x2DF PUSH3 0x2D6 DUP6 PUSH3 0x16B JUMP JUMPDEST DUP4 ADD DUP3 PUSH3 0x270 JUMP JUMPDEST POP POP JUMPDEST POP POP POP JUMP JUMPDEST PUSH1 0x0 DUP3 DUP3 SHR SWAP1 POP SWAP3 SWAP2 POP POP JUMP JUMPDEST PUSH1 0x0 PUSH3 0x307 PUSH1 0x0 NOT DUP5 PUSH1 0x8 MUL PUSH3 0x2E7 JUMP JUMPDEST NOT DUP1 DUP4 AND SWAP2 POP POP SWAP3 SWAP2 POP POP JUMP JUMPDEST PUSH1 0x0 PUSH3 0x322 DUP4 DUP4 PUSH3 0x2F4 JUMP JUMPDEST SWAP2 POP DUP3 PUSH1 0x2 MUL DUP3 OR SWAP1 POP SWAP3 SWAP2 POP POP JUMP JUMPDEST PUSH3 0x33E DUP4 DUP4 PUSH3 0xB8 JUMP JUMPDEST PUSH8 0xFFFFFFFFFFFFFFFF DUP2 GT ISZERO PUSH3 0x35A JUMPI PUSH3 0x359 PUSH3 0xC3 JUMP JUMPDEST JUMPDEST PUSH3 0x366 DUP3 SLOAD PUSH3 0x121 JUMP JUMPDEST PUSH3 0x373 DUP3 DUP3 DUP6 PUSH3 0x297 JUMP JUMPDEST PUSH1 0x0 PUSH1 0x1F DUP4 GT PUSH1 0x1 DUP2 EQ PUSH3 0x3A7 JUMPI PUSH1 0x0 DUP5 ISZERO PUSH3 0x392 JUMPI DUP3 DUP8 ADD CALLDATALOAD SWAP1 POP JUMPDEST PUSH3 0x39E DUP6 DUP3 PUSH3 0x314 JUMP JUMPDEST DUP7 SSTORE POP PUSH3 0x40E JUMP JUMPDEST PUSH1 0x1F NOT DUP5 AND PUSH3 0x3B7 DUP7 PUSH3 0x156 JUMP JUMPDEST PUSH1 0x0 JUMPDEST DUP3 DUP2 LT ISZERO PUSH3 0x3E1 JUMPI DUP5 DUP10 ADD CALLDATALOAD DUP3 SSTORE PUSH1 0x1 DUP3 ADD SWAP2 POP PUSH1 0x20 DUP6 ADD SWAP5 POP PUSH1 0x20 DUP2 ADD SWAP1 POP PUSH3 0x3BA JUMP JUMPDEST DUP7 DUP4 LT ISZERO PUSH3 0x401 JUMPI DUP5 DUP10 ADD CALLDATALOAD PUSH3 0x3FD PUSH1 0x1F DUP10 AND DUP3 PUSH3 0x2F4 JUMP JUMPDEST DUP4 SSTORE POP JUMPDEST PUSH1 0x1 PUSH1 0x2 DUP9 MUL ADD DUP9 SSTORE POP POP POP JUMPDEST POP POP POP POP POP POP POP JUMP JUMPDEST PUSH2 0x946 DUP1 PUSH3 0x427 PUSH1 0x0 CODECOPY PUSH1 0x0 RETURN INVALID PUSH1 0x80 PUSH1 0x40 MSTORE PUSH1 0x4 CALLDATASIZE LT PUSH2 0x91 JUMPI PUSH1 0x0 CALLDATALOAD PUSH1 0xE0 SHR DUP1 PUSH4 0x8EDC02A1 GT PUSH2 0x59 JUMPI DUP1 PUSH4 0x8EDC02A1 EQ PUSH2 0x172 JUMPI DUP1 PUSH4 0xB099E701 EQ PUSH2 0x19D JUMPI DUP1 PUSH4 0xB10CBD0C EQ PUSH2 0x1A7 JUMPI DUP1 PUSH4 0xE5EEEFB9 EQ PUSH2 0x1D2 JUMPI DUP1 PUSH4 0xF3571F29 EQ PUSH2 0x1FD JUMPI PUSH2 0x91 JUMP JUMPDEST DUP1 PUSH4 0x1B33B381 EQ PUSH2 0x96 JUMPI DUP1 PUSH4 0x56D6B8AA EQ PUSH2 0xC1 JUMPI DUP1 PUSH4 0x5C681920 EQ PUSH2 0xEC JUMPI DUP1 PUSH4 0x69A757E1 EQ PUSH2 0x10A JUMPI DUP1 PUSH4 0x80A003FF EQ PUSH2 0x135 JUMPI JUMPDEST PUSH1 0x0 DUP1 REVERT JUMPDEST CALLVALUE DUP1 ISZERO PUSH2 0xA2 JUMPI PUSH1 0x0 DUP1 REVERT JUMPDEST POP PUSH2 0xAB PUSH2 0x228 JUMP JUMPDEST PUSH1 0x40 MLOAD PUSH2 0xB8 SWAP2 SWAP1 PUSH2 0x524 JUMP JUMPDEST PUSH1 0x40 MLOAD DUP1 SWAP2 SUB SWAP1 RETURN JUMPDEST CALLVALUE DUP1 ISZERO PUSH2 0xCD JUMPI PUSH1 0x0 DUP1 REVERT JUMPDEST POP PUSH2 0xD6 PUSH2 0x326 JUMP JUMPDEST PUSH1 0x40 MLOAD PUSH2 0xE3 SWAP2 SWAP1 PUSH2 0x558 JUMP JUMPDEST PUSH1 0x40 MLOAD DUP1 SWAP2 SUB SWAP1 RETURN JUMPDEST PUSH2 0xF4 PUSH2 0x32C JUMP JUMPDEST PUSH1 0x40 MLOAD PUSH2 0x101 SWAP2 SWAP1 PUSH2 0x558 JUMP JUMPDEST PUSH1 0x40 MLOAD DUP1 SWAP2 SUB SWAP1 RETURN JUMPDEST CALLVALUE DUP1 ISZERO PUSH2 0x116 JUMPI PUSH1 0x0 DUP1 REVERT JUMPDEST POP PUSH2 0x11F PUSH2 0x339 JUMP JUMPDEST PUSH1 0x40 MLOAD PUSH2 0x12C SWAP2 SWAP1 PUSH2 0x5AE JUMP JUMPDEST PUSH1 0x40 MLOAD DUP1 SWAP2 SUB SWAP1 RETURN JUMPDEST CALLVALUE DUP1 ISZERO PUSH2 0x141 JUMPI PUSH1 0x0 DUP1 REVERT JUMPDEST POP PUSH2 0x15C PUSH1 0x4 DUP1 CALLDATASIZE SUB DUP2 ADD SWAP1 PUSH2 0x157 SWAP2 SWAP1 PUSH2 0x638 JUMP JUMPDEST PUSH2 0x34C JUMP JUMPDEST PUSH1 0x40 MLOAD PUSH2 0x169 SWAP2 SWAP1 PUSH2 0x5AE JUMP JUMPDEST PUSH1 0x40 MLOAD DUP1 SWAP2 SUB SWAP1 RETURN JUMPDEST CALLVALUE DUP1 ISZERO PUSH2 0x17E JUMPI PUSH1 0x0 DUP1 REVERT JUMPDEST POP PUSH2 0x187 PUSH2 0x36E JUMP JUMPDEST PUSH1 0x40 MLOAD PUSH2 0x194 SWAP2 SWAP1 PUSH2 0x5AE JUMP JUMPDEST PUSH1 0x40 MLOAD DUP1 SWAP2 SUB SWAP1 RETURN JUMPDEST PUSH2 0x1A5 PUSH2 0x399 JUMP JUMPDEST STOP JUMPDEST CALLVALUE DUP1 ISZERO PUSH2 0x1B3 JUMPI PUSH1 0x0 DUP1 REVERT JUMPDEST POP PUSH2 0x1BC PUSH2 0x44F JUMP JUMPDEST PUSH1 0x40 MLOAD PUSH2 0x1C9 SWAP2 SWAP1 PUSH2 0x715 JUMP JUMPDEST PUSH1 0x40 MLOAD DUP1 SWAP2 SUB SWAP1 RETURN JUMPDEST CALLVALUE DUP1 ISZERO PUSH2 0x1DE JUMPI PUSH1 0x0 DUP1 REVERT JUMPDEST POP PUSH2 0x1E7 PUSH2 0x4DD JUMP JUMPDEST PUSH1 0x40 MLOAD PUSH2 0x1F4 SWAP2 SWAP1 PUSH2 0x778 JUMP JUMPDEST PUSH1 0x40 MLOAD DUP1 SWAP2 SUB SWAP1 RETURN JUMPDEST CALLVALUE DUP1 ISZERO PUSH2 0x209 JUMPI PUSH1 0x0 DUP1 REVERT JUMPDEST POP PUSH2 0x212 PUSH2 0x503 JUMP JUMPDEST PUSH1 0x40 MLOAD PUSH2 0x21F SWAP2 SWAP1 PUSH2 0x558 JUMP JUMPDEST PUSH1 0x40 MLOAD DUP1 SWAP2 SUB SWAP1 RETURN JUMPDEST PUSH1 0x0 DUP1 PUSH1 0x40 MLOAD PUSH1 0x20 ADD PUSH2 0x23A SWAP1 PUSH2 0x7EA JUMP JUMPDEST PUSH1 0x40 MLOAD PUSH1 0x20 DUP2 DUP4 SUB SUB DUP2 MSTORE SWAP1 PUSH1 0x40 MSTORE DUP1 MLOAD SWAP1 PUSH1 0x20 ADD KECCAK256 SWAP1 POP PUSH1 0x0 DUP1 CALLDATALOAD PUSH32 0xFFFFFFFF00000000000000000000000000000000000000000000000000000000 AND PUSH28 0xFFFFFFFFFFFFFFFFFFFFFFFFFFFFFFFFFFFFFFFFFFFFFFFFFFFFFFFF NOT AND DUP3 PUSH28 0xFFFFFFFFFFFFFFFFFFFFFFFFFFFFFFFFFFFFFFFFFFFFFFFFFFFFFFFF NOT AND SUB PUSH2 0x2C7 JUMPI PUSH1 0x0 SWAP3 POP POP POP PUSH2 0x323 JUMP JUMPDEST PUSH4 0x1B33B381 PUSH1 0xE0 SHL PUSH1 0x0 CALLDATALOAD PUSH32 0xFFFFFFFF00000000000000000000000000000000000000000000000000000000 AND PUSH28 0xFFFFFFFFFFFFFFFFFFFFFFFFFFFFFFFFFFFFFFFFFFFFFFFFFFFFFFFF NOT AND SUB PUSH2 0x31D JUMPI PUSH1 0x1 SWAP1 POP JUMPDEST DUP1 SWAP3 POP POP POP JUMPDEST SWAP1 JUMP JUMPDEST PUSH1 0x3 SLOAD DUP2 JUMP JUMPDEST PUSH1 0x0 DUP1 CALLVALUE SWAP1 POP DUP1 SWAP2 POP POP SWAP1 JUMP JUMPDEST PUSH1 0x2 PUSH1 0x14 SWAP1 SLOAD SWAP1 PUSH2 0x100 EXP SWAP1 DIV PUSH1 0xE0 SHL DUP2 JUMP JUMPDEST PUSH1 0x0 DUP3 DUP3 PUSH1 0x40 MLOAD PUSH2 0x35E SWAP3 SWAP2 SWAP1 PUSH2 0x83E JUMP JUMPDEST PUSH1 0x40 MLOAD DUP1 SWAP2 SUB SWAP1 KECCAK256 SWAP1 POP SWAP3 SWAP2 POP POP JUMP JUMPDEST PUSH1 0x0 DUP1 CALLDATALOAD PUSH32 0xFFFFFFFF00000000000000000000000000000000000000000000000000000000 AND SWAP1 POP SWAP1 JUMP JUMPDEST CALLVALUE PUSH1 0x4 PUSH1 0x0 CALLER PUSH20 0xFFFFFFFFFFFFFFFFFFFFFFFFFFFFFFFFFFFFFFFF AND PUSH20 0xFFFFFFFFFFFFFFFFFFFFFFFFFFFFFFFFFFFFFFFF AND DUP2 MSTORE PUSH1 0x20 ADD SWAP1 DUP2 MSTORE PUSH1 0x20 ADD PUSH1 0x0 KECCAK256 DUP2 SWAP1 SSTORE POP ADDRESS PUSH20 0xFFFFFFFFFFFFFFFFFFFFFFFFFFFFFFFFFFFFFFFF AND PUSH4 0x1B33B381 PUSH1 0x40 MLOAD DUP2 PUSH4 0xFFFFFFFF AND PUSH1 0xE0 SHL DUP2 MSTORE PUSH1 0x4 ADD PUSH1 0x20 PUSH1 0x40 MLOAD DUP1 DUP4 SUB DUP2 DUP7 GAS STATICCALL ISZERO DUP1 ISZERO PUSH2 0x428 JUMPI RETURNDATASIZE PUSH1 0x0 DUP1 RETURNDATACOPY RETURNDATASIZE PUSH1 0x0 REVERT JUMPDEST POP POP POP POP PUSH1 0x40 MLOAD RETURNDATASIZE PUSH1 0x1F NOT PUSH1 0x1F DUP3 ADD AND DUP3 ADD DUP1 PUSH1 0x40 MSTORE POP DUP2 ADD SWAP1 PUSH2 0x44C SWAP2 SWAP1 PUSH2 0x883 JUMP JUMPDEST POP JUMP JUMPDEST PUSH1 0x1 DUP1 SLOAD PUSH2 0x45C SWAP1 PUSH2 0x8DF JUMP JUMPDEST DUP1 PUSH1 0x1F ADD PUSH1 0x20 DUP1 SWAP2 DIV MUL PUSH1 0x20 ADD PUSH1 0x40 MLOAD SWAP1 DUP2 ADD PUSH1 0x40 MSTORE DUP1 SWAP3 SWAP2 SWAP1 DUP2 DUP2 MSTORE PUSH1 0x20 ADD DUP3 DUP1 SLOAD PUSH2 0x488 SWAP1 PUSH2 0x8DF JUMP JUMPDEST DUP1 ISZERO PUSH2 0x4D5 JUMPI DUP1 PUSH1 0x1F LT PUSH2 0x4AA JUMPI PUSH2 0x100 DUP1 DUP4 SLOAD DIV MUL DUP4 MSTORE SWAP2 PUSH1 0x20 ADD SWAP2 PUSH2 0x4D5 JUMP JUMPDEST DUP3 ADD SWAP2 SWAP1 PUSH1 0x0 MSTORE PUSH1 0x20 PUSH1 0x0 KECCAK256 SWAP1 JUMPDEST DUP2 SLOAD DUP2 MSTORE SWAP1 PUSH1 0x1 ADD SWAP1 PUSH1 0x20 ADD DUP1 DUP4 GT PUSH2 0x4B8 JUMPI DUP3 SWAP1 SUB PUSH1 0x1F AND DUP3 ADD SWAP2 JUMPDEST POP POP POP POP POP DUP2 JUMP JUMPDEST PUSH1 0x2 PUSH1 0x0 SWAP1 SLOAD SWAP1 PUSH2 0x100 EXP SWAP1 DIV PUSH20 0xFFFFFFFFFFFFFFFFFFFFFFFFFFFFFFFFFFFFFFFF AND DUP2 JUMP JUMPDEST PUSH1 0x0 SLOAD DUP2 JUMP JUMPDEST PUSH1 0x0 DUP2 ISZERO ISZERO SWAP1 POP SWAP2 SWAP1 POP JUMP JUMPDEST PUSH2 0x51E DUP2 PUSH2 0x509 JUMP JUMPDEST DUP3 MSTORE POP POP JUMP JUMPDEST PUSH1 0x0 PUSH1 0x20 DUP3 ADD SWAP1 POP PUSH2 0x539 PUSH1 0x0 DUP4 ADD DUP5 PUSH2 0x515 JUMP JUMPDEST SWAP3 SWAP2 POP POP JUMP JUMPDEST PUSH1 0x0 DUP2 SWAP1 POP SWAP2 SWAP1 POP JUMP JUMPDEST PUSH2 0x552 DUP2 PUSH2 0x53F JUMP JUMPDEST DUP3 MSTORE POP POP JUMP JUMPDEST PUSH1 0x0 PUSH1 0x20 DUP3 ADD SWAP1 POP PUSH2 0x56D PUSH1 0x0 DUP4 ADD DUP5 PUSH2 0x549 JUMP JUMPDEST SWAP3 SWAP2 POP POP JUMP JUMPDEST PUSH1 0x0 PUSH32 0xFFFFFFFF00000000000000000000000000000000000000000000000000000000 DUP3 AND SWAP1 POP SWAP2 SWAP1 POP JUMP JUMPDEST PUSH2 0x5A8 DUP2 PUSH2 0x573 JUMP JUMPDEST DUP3 MSTORE POP POP JUMP JUMPDEST PUSH1 0x0 PUSH1 0x20 DUP3 ADD SWAP1 POP PUSH2 0x5C3 PUSH1 0x0 DUP4 ADD DUP5 PUSH2 0x59F JUMP JUMPDEST SWAP3 SWAP2 POP POP JUMP JUMPDEST PUSH1 0x0 DUP1 REVERT JUMPDEST PUSH1 0x0 DUP1 REVERT JUMPDEST PUSH1 0x0 DUP1 REVERT JUMPDEST PUSH1 0x0 DUP1 REVERT JUMPDEST PUSH1 0x0 DUP1 REVERT JUMPDEST PUSH1 0x0 DUP1 DUP4 PUSH1 0x1F DUP5 ADD SLT PUSH2 0x5F8 JUMPI PUSH2 0x5F7 PUSH2 0x5D3 JUMP JUMPDEST JUMPDEST DUP3 CALLDATALOAD SWAP1 POP PUSH8 0xFFFFFFFFFFFFFFFF DUP2 GT ISZERO PUSH2 0x615 JUMPI PUSH2 0x614 PUSH2 0x5D8 JUMP JUMPDEST JUMPDEST PUSH1 0x20 DUP4 ADD SWAP2 POP DUP4 PUSH1 0x1 DUP3 MUL DUP4 ADD GT ISZERO PUSH2 0x631 JUMPI PUSH2 0x630 PUSH2 0x5DD JUMP JUMPDEST JUMPDEST SWAP3 POP SWAP3 SWAP1 POP JUMP JUMPDEST PUSH1 0x0 DUP1 PUSH1 0x20 DUP4 DUP6 SUB SLT ISZERO PUSH2 0x64F JUMPI PUSH2 0x64E PUSH2 0x5C9 JUMP JUMPDEST JUMPDEST PUSH1 0x0 DUP4 ADD CALLDATALOAD PUSH8 0xFFFFFFFFFFFFFFFF DUP2 GT ISZERO PUSH2 0x66D JUMPI PUSH2 0x66C PUSH2 0x5CE JUMP JUMPDEST JUMPDEST PUSH2 0x679 DUP6 DUP3 DUP7 ADD PUSH2 0x5E2 JUMP JUMPDEST SWAP3 POP SWAP3 POP POP SWAP3 POP SWAP3 SWAP1 POP JUMP JUMPDEST PUSH1 0x0 DUP2 MLOAD SWAP1 POP SWAP2 SWAP1 POP JUMP JUMPDEST PUSH1 0x0 DUP3 DUP3 MSTORE PUSH1 0x20 DUP3 ADD SWAP1 POP SWAP3 SWAP2 POP POP JUMP JUMPDEST PUSH1 0x0 JUMPDEST DUP4 DUP2 LT ISZERO PUSH2 0x6BF JUMPI DUP1 DUP3 ADD MLOAD DUP2 DUP5 ADD MSTORE PUSH1 0x20 DUP2 ADD SWAP1 POP PUSH2 0x6A4 JUMP JUMPDEST PUSH1 0x0 DUP5 DUP5 ADD MSTORE POP POP POP POP JUMP JUMPDEST PUSH1 0x0 PUSH1 0x1F NOT PUSH1 0x1F DUP4 ADD AND SWAP1 POP SWAP2 SWAP1 POP JUMP JUMPDEST PUSH1 0x0 PUSH2 0x6E7 DUP3 PUSH2 0x685 JUMP JUMPDEST PUSH2 0x6F1 DUP2 DUP6 PUSH2 0x690 JUMP JUMPDEST SWAP4 POP PUSH2 0x701 DUP2 DUP6 PUSH1 0x20 DUP7 ADD PUSH2 0x6A1 JUMP JUMPDEST PUSH2 0x70A DUP2 PUSH2 0x6CB JUMP JUMPDEST DUP5 ADD SWAP2 POP POP SWAP3 SWAP2 POP POP JUMP JUMPDEST PUSH1 0x0 PUSH1 0x20 DUP3 ADD SWAP1 POP DUP2 DUP2 SUB PUSH1 0x0 DUP4 ADD MSTORE PUSH2 0x72F DUP2 DUP5 PUSH2 0x6DC JUMP JUMPDEST SWAP1 POP SWAP3 SWAP2 POP POP JUMP JUMPDEST PUSH1 0x0 PUSH20 0xFFFFFFFFFFFFFFFFFFFFFFFFFFFFFFFFFFFFFFFF DUP3 AND SWAP1 POP SWAP2 SWAP1 POP JUMP JUMPDEST PUSH1 0x0 PUSH2 0x762 DUP3 PUSH2 0x737 JUMP JUMPDEST SWAP1 POP SWAP2 SWAP1 POP JUMP JUMPDEST PUSH2 0x772 DUP2 PUSH2 0x757 JUMP JUMPDEST DUP3 MSTORE POP POP JUMP JUMPDEST PUSH1 0x0 PUSH1 0x20 DUP3 ADD SWAP1 POP PUSH2 0x78D PUSH1 0x0 DUP4 ADD DUP5 PUSH2 0x769 JUMP JUMPDEST SWAP3 SWAP2 POP POP JUMP JUMPDEST PUSH1 0x0 DUP2 SWAP1 POP SWAP3 SWAP2 POP POP JUMP JUMPDEST PUSH32 0x6E65774F6465724C697374322829000000000000000000000000000000000000 PUSH1 0x0 DUP3 ADD MSTORE POP JUMP JUMPDEST PUSH1 0x0 PUSH2 0x7D4 PUSH1 0xE DUP4 PUSH2 0x793 JUMP JUMPDEST SWAP2 POP PUSH2 0x7DF DUP3 PUSH2 0x79E JUMP JUMPDEST PUSH1 0xE DUP3 ADD SWAP1 POP SWAP2 SWAP1 POP JUMP JUMPDEST PUSH1 0x0 PUSH2 0x7F5 DUP3 PUSH2 0x7C7 JUMP JUMPDEST SWAP2 POP DUP2 SWAP1 POP SWAP2 SWAP1 POP JUMP JUMPDEST PUSH1 0x0 DUP2 SWAP1 POP SWAP3 SWAP2 POP POP JUMP JUMPDEST DUP3 DUP2 DUP4 CALLDATACOPY PUSH1 0x0 DUP4 DUP4 ADD MSTORE POP POP POP JUMP JUMPDEST PUSH1 0x0 PUSH2 0x825 DUP4 DUP6 PUSH2 0x7FF JUMP JUMPDEST SWAP4 POP PUSH2 0x832 DUP4 DUP6 DUP5 PUSH2 0x80A JUMP JUMPDEST DUP3 DUP5 ADD SWAP1 POP SWAP4 SWAP3 POP POP POP JUMP JUMPDEST PUSH1 0x0 PUSH2 0x84B DUP3 DUP5 DUP7 PUSH2 0x819 JUMP JUMPDEST SWAP2 POP DUP2 SWAP1 POP SWAP4 SWAP3 POP POP POP JUMP JUMPDEST PUSH2 0x860 DUP2 PUSH2 0x509 JUMP JUMPDEST DUP2 EQ PUSH2 0x86B JUMPI PUSH1 0x0 DUP1 REVERT JUMPDEST POP JUMP JUMPDEST PUSH1 0x0 DUP2 MLOAD SWAP1 POP PUSH2 0x87D DUP2 PUSH2 0x857 JUMP JUMPDEST SWAP3 SWAP2 POP POP JUMP JUMPDEST PUSH1 0x0 PUSH1 0x20 DUP3 DUP5 SUB SLT ISZERO PUSH2 0x899 JUMPI PUSH2 0x898 PUSH2 0x5C9 JUMP JUMPDEST JUMPDEST PUSH1 0x0 PUSH2 0x8A7 DUP5 DUP3 DUP6 ADD PUSH2 0x86E JUMP JUMPDEST SWAP2 POP POP SWAP3 SWAP2 POP POP JUMP JUMPDEST PUSH32 0x4E487B7100000000000000000000000000000000000000000000000000000000 PUSH1 0x0 MSTORE PUSH1 0x22 PUSH1 0x4 MSTORE PUSH1 0x24 PUSH1 0x0 REVERT JUMPDEST PUSH1 0x0 PUSH1 0x2 DUP3 DIV SWAP1 POP PUSH1 0x1 DUP3 AND DUP1 PUSH2 0x8F7 JUMPI PUSH1 0x7F DUP3 AND SWAP2 POP JUMPDEST PUSH1 0x20 DUP3 LT DUP2 SUB PUSH2 0x90A JUMPI PUSH2 0x909 PUSH2 0x8B0 JUMP JUMPDEST JUMPDEST POP SWAP2 SWAP1 POP JUMP INVALID LOG2 PUSH5 0x6970667358 0x22 SLT KECCAK256 0xBE 0xA9 DUP14 SWAP1 0xDF LT 0xB8 PC LOG0 0xE6 0xD0 0x4F 0xEF PUSH26 0xECE51DDCF55AE63E48C8BB4A16FC872AF6E164736F6C63430008 SLT STOP CALLER "
				},
				"gasEstimates": {
					"creation": {
						"codeDepositCost": "474800",
						"executionCost": "infinite",
						"totalCost": "infinite"
					},
					"external": {
						"checkValue()": "370",
						"getSelector(string)": "infinite",
						"msg1()": "2517",
						"msg2()": "infinite",
						"msg3()": "2580",
						"msg4()": "2588",
						"msg5()": "2452",
						"newCheckFunction()": "773",
						"newOderList()": "infinite",
						"newOderList2()": "352"
					}
				},
				"methodIdentifiers": {
					"checkValue()": "5c681920",
					"getSelector(string)": "80a003ff",
					"msg1()": "f3571f29",
					"msg2()": "b10cbd0c",
					"msg3()": "e5eeefb9",
					"msg4()": "69a757e1",
					"msg5()": "56d6b8aa",
					"newCheckFunction()": "1b33b381",
					"newOderList()": "b099e701",
					"newOderList2()": "8edc02a1"
				}
			},
			"storageLayout": {
				"storage": [
					{
						"astId": 5,
						"contract": "ex13/TransactionProperty.sol:TransactionProperty",
						"label": "msg1",
						"offset": 0,
						"slot": "0",
						"type": "t_uint256"
					},
					{
						"astId": 9,
						"contract": "ex13/TransactionProperty.sol:TransactionProperty",
						"label": "msg2",
						"offset": 0,
						"slot": "1",
						"type": "t_bytes_storage"
					},
					{
						"astId": 13,
						"contract": "ex13/TransactionProperty.sol:TransactionProperty",
						"label": "msg3",
						"offset": 0,
						"slot": "2",
						"type": "t_address"
					},
					{
						"astId": 17,
						"contract": "ex13/TransactionProperty.sol:TransactionProperty",
						"label": "msg4",
						"offset": 20,
						"slot": "2",
						"type": "t_bytes4"
					},
					{
						"astId": 21,
						"contract": "ex13/TransactionProperty.sol:TransactionProperty",
						"label": "msg5",
						"offset": 0,
						"slot": "3",
						"type": "t_uint256"
					},
					{
						"astId": 38,
						"contract": "ex13/TransactionProperty.sol:TransactionProperty",
						"label": "orderList",
						"offset": 0,
						"slot": "4",
						"type": "t_mapping(t_address,t_uint256)"
					},
					{
						"astId": 57,
						"contract": "ex13/TransactionProperty.sol:TransactionProperty",
						"label": "checkFunction",
						"offset": 0,
						"slot": "5",
						"type": "t_bytes4"
					}
				],
				"types": {
					"t_address": {
						"encoding": "inplace",
						"label": "address",
						"numberOfBytes": "20"
					},
					"t_bytes4": {
						"encoding": "inplace",
						"label": "bytes4",
						"numberOfBytes": "4"
					},
					"t_bytes_storage": {
						"encoding": "bytes",
						"label": "bytes",
						"numberOfBytes": "32"
					},
					"t_mapping(t_address,t_uint256)": {
						"encoding": "mapping",
						"key": "t_address",
						"label": "mapping(address => uint256)",
						"numberOfBytes": "32",
						"value": "t_uint256"
					},
					"t_uint256": {
						"encoding": "inplace",
						"label": "uint256",
						"numberOfBytes": "32"
					}
				}
			},
			"userdoc": {
				"kind": "user",
				"methods": {},
				"version": 1
			}
		}
	}
}