{
	"ex15/ethTransfer.sol": {
		"EthTransfer": {
			"abi": [
				{
					"anonymous": false,
					"inputs": [],
					"name": "Transfer",
					"type": "event"
				},
				{
					"anonymous": false,
					"inputs": [
						{
							"indexed": false,
							"internalType": "bytes",
							"name": "_data",
							"type": "bytes"
						}
					],
					"name": "TransferWithData",
					"type": "event"
				},
				{
					"inputs": [
						{
							"internalType": "address payable",
							"name": "to",
							"type": "address"
						}
					],
					"name": "call",
					"outputs": [],
					"stateMutability": "payable",
					"type": "function"
				},
				{
					"inputs": [
						{
							"internalType": "address payable",
							"name": "to",
							"type": "address"
						}
					],
					"name": "sendSend",
					"outputs": [],
					"stateMutability": "payable",
					"type": "function"
				},
				{
					"inputs": [
						{
							"internalType": "address payable",
							"name": "to",
							"type": "address"
						}
					],
					"name": "sendTransfer",
					"outputs": [],
					"stateMutability": "payable",
					"type": "function"
				}
			],
			"devdoc": {
				"kind": "dev",
				"methods": {},
				"version": 1
			},
			"evm": {
				"assembly": "    /* \"ex15/ethTransfer.sol\":57:1069  contract EthTransfer {... */\n  mstore(0x40, 0x80)\n  callvalue\n  dup1\n  iszero\n  tag_1\n  jumpi\n  0x00\n  dup1\n  revert\ntag_1:\n  pop\n  dataSize(sub_0)\n  dup1\n  dataOffset(sub_0)\n  0x00\n  codecopy\n  0x00\n  return\nstop\n\nsub_0: assembly {\n        /* \"ex15/ethTransfer.sol\":57:1069  contract EthTransfer {... */\n      mstore(0x40, 0x80)\n      jumpi(tag_1, lt(calldatasize, 0x04))\n      shr(0xe0, calldataload(0x00))\n      dup1\n      0x3a0216eb\n      eq\n      tag_2\n      jumpi\n      dup1\n      0xb41932c2\n      eq\n      tag_3\n      jumpi\n      dup1\n      0xf55332ab\n      eq\n      tag_4\n      jumpi\n    tag_1:\n      0x00\n      dup1\n      revert\n        /* \"ex15/ethTransfer.sol\":418:672  function sendSend(address payable to) public payable {... */\n    tag_2:\n      tag_5\n      0x04\n      dup1\n      calldatasize\n      sub\n      dup2\n      add\n      swap1\n      tag_6\n      swap2\n      swap1\n      tag_7\n      jump\t// in\n    tag_6:\n      tag_8\n      jump\t// in\n    tag_5:\n      stop\n        /* \"ex15/ethTransfer.sol\":241:337  function sendTransfer(address payable to) public payable {... */\n    tag_3:\n      tag_9\n      0x04\n      dup1\n      calldatasize\n      sub\n      dup2\n      add\n      swap1\n      tag_10\n      swap2\n      swap1\n      tag_7\n      jump\t// in\n    tag_10:\n      tag_11\n      jump\t// in\n    tag_9:\n      stop\n        /* \"ex15/ethTransfer.sol\":773:1067  function call(address payable to) public payable {... */\n    tag_4:\n      tag_12\n      0x04\n      dup1\n      calldatasize\n      sub\n      dup2\n      add\n      swap1\n      tag_13\n      swap2\n      swap1\n      tag_7\n      jump\t// in\n    tag_13:\n      tag_14\n      jump\t// in\n    tag_12:\n      stop\n        /* \"ex15/ethTransfer.sol\":418:672  function sendSend(address payable to) public payable {... */\n    tag_8:\n        /* \"ex15/ethTransfer.sol\":481:492  bool result */\n      0x00\n        /* \"ex15/ethTransfer.sol\":495:497  to */\n      dup2\n        /* \"ex15/ethTransfer.sol\":495:502  to.send */\n      0xffffffffffffffffffffffffffffffffffffffff\n      and\n        /* \"ex15/ethTransfer.sol\":495:513  to.send(msg.value) */\n      0x08fc\n        /* \"ex15/ethTransfer.sol\":503:512  msg.value */\n      callvalue\n        /* \"ex15/ethTransfer.sol\":495:513  to.send(msg.value) */\n      swap1\n      dup2\n      iszero\n      mul\n      swap1\n      mload(0x40)\n      0x00\n      mload(0x40)\n      dup1\n      dup4\n      sub\n      dup2\n      dup6\n      dup9\n      dup9\n      call\n      swap4\n      pop\n      pop\n      pop\n      pop\n        /* \"ex15/ethTransfer.sol\":481:513  bool result = to.send(msg.value) */\n      swap1\n      pop\n        /* \"ex15/ethTransfer.sol\":537:541  true */\n      0x01\n        /* \"ex15/ethTransfer.sol\":527:541  result == true */\n      iszero\n      iszero\n        /* \"ex15/ethTransfer.sol\":527:533  result */\n      dup2\n        /* \"ex15/ethTransfer.sol\":527:541  result == true */\n      iszero\n      iszero\n      sub\n        /* \"ex15/ethTransfer.sol\":523:666  if (result == true) {... */\n      tag_17\n      jumpi\n        /* \"ex15/ethTransfer.sol\":584:594  Transfer() */\n      0x406dade31f7ae4b5dbc276258c28dde5ae6d5c2773c5745802c493a2360e55e0\n      mload(0x40)\n      mload(0x40)\n      dup1\n      swap2\n      sub\n      swap1\n      log1\n        /* \"ex15/ethTransfer.sol\":523:666  if (result == true) {... */\n      jump(tag_18)\n    tag_17:\n        /* \"ex15/ethTransfer.sol\":647:655  revert() */\n      0x00\n      dup1\n      revert\n        /* \"ex15/ethTransfer.sol\":523:666  if (result == true) {... */\n    tag_18:\n        /* \"ex15/ethTransfer.sol\":471:672  {... */\n      pop\n        /* \"ex15/ethTransfer.sol\":418:672  function sendSend(address payable to) public payable {... */\n      pop\n      jump\t// out\n        /* \"ex15/ethTransfer.sol\":241:337  function sendTransfer(address payable to) public payable {... */\n    tag_11:\n        /* \"ex15/ethTransfer.sol\":308:310  to */\n      dup1\n        /* \"ex15/ethTransfer.sol\":308:319  to.transfer */\n      0xffffffffffffffffffffffffffffffffffffffff\n      and\n        /* \"ex15/ethTransfer.sol\":308:330  to.transfer(msg.value) */\n      0x08fc\n        /* \"ex15/ethTransfer.sol\":320:329  msg.value */\n      callvalue\n        /* \"ex15/ethTransfer.sol\":308:330  to.transfer(msg.value) */\n      swap1\n      dup2\n      iszero\n      mul\n      swap1\n      mload(0x40)\n      0x00\n      mload(0x40)\n      dup1\n      dup4\n      sub\n      dup2\n      dup6\n      dup9\n      dup9\n      call\n      swap4\n      pop\n      pop\n      pop\n      pop\n      iszero\n      dup1\n      iszero\n      tag_21\n      jumpi\n      returndatasize\n      0x00\n      dup1\n      returndatacopy\n      revert(0x00, returndatasize)\n    tag_21:\n      pop\n        /* \"ex15/ethTransfer.sol\":241:337  function sendTransfer(address payable to) public payable {... */\n      pop\n      jump\t// out\n        /* \"ex15/ethTransfer.sol\":773:1067  function call(address payable to) public payable {... */\n    tag_14:\n        /* \"ex15/ethTransfer.sol\":833:844  bool result */\n      0x00\n        /* \"ex15/ethTransfer.sol\":846:863  bytes memory data */\n      dup1\n        /* \"ex15/ethTransfer.sol\":867:869  to */\n      dup3\n        /* \"ex15/ethTransfer.sol\":867:874  to.call */\n      0xffffffffffffffffffffffffffffffffffffffff\n      and\n        /* \"ex15/ethTransfer.sol\":882:891  msg.value */\n      callvalue\n        /* \"ex15/ethTransfer.sol\":867:896  to.call{value: msg.value}(\"\") */\n      mload(0x40)\n      tag_23\n      swap1\n      tag_24\n      jump\t// in\n    tag_23:\n      0x00\n      mload(0x40)\n      dup1\n      dup4\n      sub\n      dup2\n      dup6\n      dup8\n      gas\n      call\n      swap3\n      pop\n      pop\n      pop\n      returndatasize\n      dup1\n      0x00\n      dup2\n      eq\n      tag_27\n      jumpi\n      mload(0x40)\n      swap2\n      pop\n      and(add(returndatasize, 0x3f), not(0x1f))\n      dup3\n      add\n      0x40\n      mstore\n      returndatasize\n      dup3\n      mstore\n      returndatasize\n      0x00\n      0x20\n      dup5\n      add\n      returndatacopy\n      jump(tag_26)\n    tag_27:\n      0x60\n      swap2\n      pop\n    tag_26:\n      pop\n        /* \"ex15/ethTransfer.sol\":832:896  (bool result, bytes memory data) = to.call{value: msg.value}(\"\") */\n      swap2\n      pop\n      swap2\n      pop\n        /* \"ex15/ethTransfer.sol\":920:924  true */\n      0x01\n        /* \"ex15/ethTransfer.sol\":910:924  result == true */\n      iszero\n      iszero\n        /* \"ex15/ethTransfer.sol\":910:916  result */\n      dup3\n        /* \"ex15/ethTransfer.sol\":910:924  result == true */\n      iszero\n      iszero\n      sub\n        /* \"ex15/ethTransfer.sol\":906:1061  if (result == true) {... */\n      tag_28\n      jumpi\n        /* \"ex15/ethTransfer.sol\":967:989  TransferWithData(data) */\n      0x6d990937182e49b1454e12e21a28d4ad8752167938c8a68caede311618cf317f\n        /* \"ex15/ethTransfer.sol\":984:988  data */\n      dup2\n        /* \"ex15/ethTransfer.sol\":967:989  TransferWithData(data) */\n      mload(0x40)\n      tag_29\n      swap2\n      swap1\n      tag_30\n      jump\t// in\n    tag_29:\n      mload(0x40)\n      dup1\n      swap2\n      sub\n      swap1\n      log1\n        /* \"ex15/ethTransfer.sol\":906:1061  if (result == true) {... */\n      jump(tag_31)\n    tag_28:\n        /* \"ex15/ethTransfer.sol\":1042:1050  revert() */\n      0x00\n      dup1\n      revert\n        /* \"ex15/ethTransfer.sol\":906:1061  if (result == true) {... */\n    tag_31:\n        /* \"ex15/ethTransfer.sol\":822:1067  {... */\n      pop\n      pop\n        /* \"ex15/ethTransfer.sol\":773:1067  function call(address payable to) public payable {... */\n      pop\n      jump\t// out\n        /* \"#utility.yul\":88:205   */\n    tag_33:\n        /* \"#utility.yul\":197:198   */\n      0x00\n        /* \"#utility.yul\":194:195   */\n      dup1\n        /* \"#utility.yul\":187:199   */\n      revert\n        /* \"#utility.yul\":334:460   */\n    tag_35:\n        /* \"#utility.yul\":371:378   */\n      0x00\n        /* \"#utility.yul\":411:453   */\n      0xffffffffffffffffffffffffffffffffffffffff\n        /* \"#utility.yul\":404:409   */\n      dup3\n        /* \"#utility.yul\":400:454   */\n      and\n        /* \"#utility.yul\":389:454   */\n      swap1\n      pop\n        /* \"#utility.yul\":334:460   */\n      swap2\n      swap1\n      pop\n      jump\t// out\n        /* \"#utility.yul\":466:570   */\n    tag_36:\n        /* \"#utility.yul\":511:518   */\n      0x00\n        /* \"#utility.yul\":540:564   */\n      tag_53\n        /* \"#utility.yul\":558:563   */\n      dup3\n        /* \"#utility.yul\":540:564   */\n      tag_35\n      jump\t// in\n    tag_53:\n        /* \"#utility.yul\":529:564   */\n      swap1\n      pop\n        /* \"#utility.yul\":466:570   */\n      swap2\n      swap1\n      pop\n      jump\t// out\n        /* \"#utility.yul\":576:714   */\n    tag_37:\n        /* \"#utility.yul\":657:689   */\n      tag_55\n        /* \"#utility.yul\":683:688   */\n      dup2\n        /* \"#utility.yul\":657:689   */\n      tag_36\n      jump\t// in\n    tag_55:\n        /* \"#utility.yul\":650:655   */\n      dup2\n        /* \"#utility.yul\":647:690   */\n      eq\n        /* \"#utility.yul\":637:708   */\n      tag_56\n      jumpi\n        /* \"#utility.yul\":704:705   */\n      0x00\n        /* \"#utility.yul\":701:702   */\n      dup1\n        /* \"#utility.yul\":694:706   */\n      revert\n        /* \"#utility.yul\":637:708   */\n    tag_56:\n        /* \"#utility.yul\":576:714   */\n      pop\n      jump\t// out\n        /* \"#utility.yul\":720:875   */\n    tag_38:\n        /* \"#utility.yul\":774:779   */\n      0x00\n        /* \"#utility.yul\":812:818   */\n      dup2\n        /* \"#utility.yul\":799:819   */\n      calldataload\n        /* \"#utility.yul\":790:819   */\n      swap1\n      pop\n        /* \"#utility.yul\":828:869   */\n      tag_58\n        /* \"#utility.yul\":863:868   */\n      dup2\n        /* \"#utility.yul\":828:869   */\n      tag_37\n      jump\t// in\n    tag_58:\n        /* \"#utility.yul\":720:875   */\n      swap3\n      swap2\n      pop\n      pop\n      jump\t// out\n        /* \"#utility.yul\":881:1226   */\n    tag_7:\n        /* \"#utility.yul\":948:954   */\n      0x00\n        /* \"#utility.yul\":997:999   */\n      0x20\n        /* \"#utility.yul\":985:994   */\n      dup3\n        /* \"#utility.yul\":976:983   */\n      dup5\n        /* \"#utility.yul\":972:995   */\n      sub\n        /* \"#utility.yul\":968:1000   */\n      slt\n        /* \"#utility.yul\":965:1084   */\n      iszero\n      tag_60\n      jumpi\n        /* \"#utility.yul\":1003:1082   */\n      tag_61\n      tag_33\n      jump\t// in\n    tag_61:\n        /* \"#utility.yul\":965:1084   */\n    tag_60:\n        /* \"#utility.yul\":1123:1124   */\n      0x00\n        /* \"#utility.yul\":1148:1209   */\n      tag_62\n        /* \"#utility.yul\":1201:1208   */\n      dup5\n        /* \"#utility.yul\":1192:1198   */\n      dup3\n        /* \"#utility.yul\":1181:1190   */\n      dup6\n        /* \"#utility.yul\":1177:1199   */\n      add\n        /* \"#utility.yul\":1148:1209   */\n      tag_38\n      jump\t// in\n    tag_62:\n        /* \"#utility.yul\":1138:1209   */\n      swap2\n      pop\n        /* \"#utility.yul\":1094:1219   */\n      pop\n        /* \"#utility.yul\":881:1226   */\n      swap3\n      swap2\n      pop\n      pop\n      jump\t// out\n        /* \"#utility.yul\":1232:1379   */\n    tag_39:\n        /* \"#utility.yul\":1333:1344   */\n      0x00\n        /* \"#utility.yul\":1370:1373   */\n      dup2\n        /* \"#utility.yul\":1355:1373   */\n      swap1\n      pop\n        /* \"#utility.yul\":1232:1379   */\n      swap3\n      swap2\n      pop\n      pop\n      jump\t// out\n        /* \"#utility.yul\":1385:1499   */\n    tag_40:\n      pop\n      jump\t// out\n        /* \"#utility.yul\":1505:1903   */\n    tag_41:\n        /* \"#utility.yul\":1664:1667   */\n      0x00\n        /* \"#utility.yul\":1685:1768   */\n      tag_66\n        /* \"#utility.yul\":1766:1767   */\n      0x00\n        /* \"#utility.yul\":1761:1764   */\n      dup4\n        /* \"#utility.yul\":1685:1768   */\n      tag_39\n      jump\t// in\n    tag_66:\n        /* \"#utility.yul\":1678:1768   */\n      swap2\n      pop\n        /* \"#utility.yul\":1777:1870   */\n      tag_67\n        /* \"#utility.yul\":1866:1869   */\n      dup3\n        /* \"#utility.yul\":1777:1870   */\n      tag_40\n      jump\t// in\n    tag_67:\n        /* \"#utility.yul\":1895:1896   */\n      0x00\n        /* \"#utility.yul\":1890:1893   */\n      dup3\n        /* \"#utility.yul\":1886:1897   */\n      add\n        /* \"#utility.yul\":1879:1897   */\n      swap1\n      pop\n        /* \"#utility.yul\":1505:1903   */\n      swap2\n      swap1\n      pop\n      jump\t// out\n        /* \"#utility.yul\":1909:2288   */\n    tag_24:\n        /* \"#utility.yul\":2093:2096   */\n      0x00\n        /* \"#utility.yul\":2115:2262   */\n      tag_69\n        /* \"#utility.yul\":2258:2261   */\n      dup3\n        /* \"#utility.yul\":2115:2262   */\n      tag_41\n      jump\t// in\n    tag_69:\n        /* \"#utility.yul\":2108:2262   */\n      swap2\n      pop\n        /* \"#utility.yul\":2279:2282   */\n      dup2\n        /* \"#utility.yul\":2272:2282   */\n      swap1\n      pop\n        /* \"#utility.yul\":1909:2288   */\n      swap2\n      swap1\n      pop\n      jump\t// out\n        /* \"#utility.yul\":2294:2392   */\n    tag_42:\n        /* \"#utility.yul\":2345:2351   */\n      0x00\n        /* \"#utility.yul\":2379:2384   */\n      dup2\n        /* \"#utility.yul\":2373:2385   */\n      mload\n        /* \"#utility.yul\":2363:2385   */\n      swap1\n      pop\n        /* \"#utility.yul\":2294:2392   */\n      swap2\n      swap1\n      pop\n      jump\t// out\n        /* \"#utility.yul\":2398:2566   */\n    tag_43:\n        /* \"#utility.yul\":2481:2492   */\n      0x00\n        /* \"#utility.yul\":2515:2521   */\n      dup3\n        /* \"#utility.yul\":2510:2513   */\n      dup3\n        /* \"#utility.yul\":2503:2522   */\n      mstore\n        /* \"#utility.yul\":2555:2559   */\n      0x20\n        /* \"#utility.yul\":2550:2553   */\n      dup3\n        /* \"#utility.yul\":2546:2560   */\n      add\n        /* \"#utility.yul\":2531:2560   */\n      swap1\n      pop\n        /* \"#utility.yul\":2398:2566   */\n      swap3\n      swap2\n      pop\n      pop\n      jump\t// out\n        /* \"#utility.yul\":2572:2818   */\n    tag_44:\n        /* \"#utility.yul\":2653:2654   */\n      0x00\n        /* \"#utility.yul\":2663:2776   */\n    tag_73:\n        /* \"#utility.yul\":2677:2683   */\n      dup4\n        /* \"#utility.yul\":2674:2675   */\n      dup2\n        /* \"#utility.yul\":2671:2684   */\n      lt\n        /* \"#utility.yul\":2663:2776   */\n      iszero\n      tag_75\n      jumpi\n        /* \"#utility.yul\":2762:2763   */\n      dup1\n        /* \"#utility.yul\":2757:2760   */\n      dup3\n        /* \"#utility.yul\":2753:2764   */\n      add\n        /* \"#utility.yul\":2747:2765   */\n      mload\n        /* \"#utility.yul\":2743:2744   */\n      dup2\n        /* \"#utility.yul\":2738:2741   */\n      dup5\n        /* \"#utility.yul\":2734:2745   */\n      add\n        /* \"#utility.yul\":2727:2766   */\n      mstore\n        /* \"#utility.yul\":2699:2701   */\n      0x20\n        /* \"#utility.yul\":2696:2697   */\n      dup2\n        /* \"#utility.yul\":2692:2702   */\n      add\n        /* \"#utility.yul\":2687:2702   */\n      swap1\n      pop\n        /* \"#utility.yul\":2663:2776   */\n      jump(tag_73)\n    tag_75:\n        /* \"#utility.yul\":2810:2811   */\n      0x00\n        /* \"#utility.yul\":2801:2807   */\n      dup5\n        /* \"#utility.yul\":2796:2799   */\n      dup5\n        /* \"#utility.yul\":2792:2808   */\n      add\n        /* \"#utility.yul\":2785:2812   */\n      mstore\n        /* \"#utility.yul\":2634:2818   */\n      pop\n        /* \"#utility.yul\":2572:2818   */\n      pop\n      pop\n      pop\n      jump\t// out\n        /* \"#utility.yul\":2824:2926   */\n    tag_45:\n        /* \"#utility.yul\":2865:2871   */\n      0x00\n        /* \"#utility.yul\":2916:2918   */\n      0x1f\n        /* \"#utility.yul\":2912:2919   */\n      not\n        /* \"#utility.yul\":2907:2909   */\n      0x1f\n        /* \"#utility.yul\":2900:2905   */\n      dup4\n        /* \"#utility.yul\":2896:2910   */\n      add\n        /* \"#utility.yul\":2892:2920   */\n      and\n        /* \"#utility.yul\":2882:2920   */\n      swap1\n      pop\n        /* \"#utility.yul\":2824:2926   */\n      swap2\n      swap1\n      pop\n      jump\t// out\n        /* \"#utility.yul\":2932:3305   */\n    tag_46:\n        /* \"#utility.yul\":3018:3021   */\n      0x00\n        /* \"#utility.yul\":3046:3084   */\n      tag_78\n        /* \"#utility.yul\":3078:3083   */\n      dup3\n        /* \"#utility.yul\":3046:3084   */\n      tag_42\n      jump\t// in\n    tag_78:\n        /* \"#utility.yul\":3100:3170   */\n      tag_79\n        /* \"#utility.yul\":3163:3169   */\n      dup2\n        /* \"#utility.yul\":3158:3161   */\n      dup6\n        /* \"#utility.yul\":3100:3170   */\n      tag_43\n      jump\t// in\n    tag_79:\n        /* \"#utility.yul\":3093:3170   */\n      swap4\n      pop\n        /* \"#utility.yul\":3179:3244   */\n      tag_80\n        /* \"#utility.yul\":3237:3243   */\n      dup2\n        /* \"#utility.yul\":3232:3235   */\n      dup6\n        /* \"#utility.yul\":3225:3229   */\n      0x20\n        /* \"#utility.yul\":3218:3223   */\n      dup7\n        /* \"#utility.yul\":3214:3230   */\n      add\n        /* \"#utility.yul\":3179:3244   */\n      tag_44\n      jump\t// in\n    tag_80:\n        /* \"#utility.yul\":3269:3298   */\n      tag_81\n        /* \"#utility.yul\":3291:3297   */\n      dup2\n        /* \"#utility.yul\":3269:3298   */\n      tag_45\n      jump\t// in\n    tag_81:\n        /* \"#utility.yul\":3264:3267   */\n      dup5\n        /* \"#utility.yul\":3260:3299   */\n      add\n        /* \"#utility.yul\":3253:3299   */\n      swap2\n      pop\n        /* \"#utility.yul\":3022:3305   */\n      pop\n        /* \"#utility.yul\":2932:3305   */\n      swap3\n      swap2\n      pop\n      pop\n      jump\t// out\n        /* \"#utility.yul\":3311:3620   */\n    tag_30:\n        /* \"#utility.yul\":3422:3426   */\n      0x00\n        /* \"#utility.yul\":3460:3462   */\n      0x20\n        /* \"#utility.yul\":3449:3458   */\n      dup3\n        /* \"#utility.yul\":3445:3463   */\n      add\n        /* \"#utility.yul\":3437:3463   */\n      swap1\n      pop\n        /* \"#utility.yul\":3509:3518   */\n      dup2\n        /* \"#utility.yul\":3503:3507   */\n      dup2\n        /* \"#utility.yul\":3499:3519   */\n      sub\n        /* \"#utility.yul\":3495:3496   */\n      0x00\n        /* \"#utility.yul\":3484:3493   */\n      dup4\n        /* \"#utility.yul\":3480:3497   */\n      add\n        /* \"#utility.yul\":3473:3520   */\n      mstore\n        /* \"#utility.yul\":3537:3613   */\n      tag_83\n        /* \"#utility.yul\":3608:3612   */\n      dup2\n        /* \"#utility.yul\":3599:3605   */\n      dup5\n        /* \"#utility.yul\":3537:3613   */\n      tag_46\n      jump\t// in\n    tag_83:\n        /* \"#utility.yul\":3529:3613   */\n      swap1\n      pop\n        /* \"#utility.yul\":3311:3620   */\n      swap3\n      swap2\n      pop\n      pop\n      jump\t// out\n\n    auxdata: 0xa264697066735822122059772eb63185225a15c3eef60ac4e6530b543cb7129f31df63459b28a377169b64736f6c63430008120033\n}\n",
				"bytecode": {
					"linkReferences": {},
					"object": "608060405234801561001057600080fd5b506103d4806100206000396000f3fe6080604052600436106100345760003560e01c80633a0216eb14610039578063b41932c214610055578063f55332ab14610071575b600080fd5b610053600480360381019061004e9190610279565b61008d565b005b61006f600480360381019061006a9190610279565b61010c565b005b61008b60048036038101906100869190610279565b610156565b005b60008173ffffffffffffffffffffffffffffffffffffffff166108fc349081150290604051600060405180830381858888f1935050505090506001151581151503610103577f406dade31f7ae4b5dbc276258c28dde5ae6d5c2773c5745802c493a2360e55e060405160405180910390a1610108565b600080fd5b5050565b8073ffffffffffffffffffffffffffffffffffffffff166108fc349081150290604051600060405180830381858888f19350505050158015610152573d6000803e3d6000fd5b5050565b6000808273ffffffffffffffffffffffffffffffffffffffff163460405161017d906102d7565b60006040518083038185875af1925050503d80600081146101ba576040519150601f19603f3d011682016040523d82523d6000602084013e6101bf565b606091505b5091509150600115158215150361020c577f6d990937182e49b1454e12e21a28d4ad8752167938c8a68caede311618cf317f816040516101ff919061037c565b60405180910390a1610211565b600080fd5b505050565b600080fd5b600073ffffffffffffffffffffffffffffffffffffffff82169050919050565b60006102468261021b565b9050919050565b6102568161023b565b811461026157600080fd5b50565b6000813590506102738161024d565b92915050565b60006020828403121561028f5761028e610216565b5b600061029d84828501610264565b91505092915050565b600081905092915050565b50565b60006102c16000836102a6565b91506102cc826102b1565b600082019050919050565b60006102e2826102b4565b9150819050919050565b600081519050919050565b600082825260208201905092915050565b60005b8381101561032657808201518184015260208101905061030b565b60008484015250505050565b6000601f19601f8301169050919050565b600061034e826102ec565b61035881856102f7565b9350610368818560208601610308565b61037181610332565b840191505092915050565b600060208201905081810360008301526103968184610343565b90509291505056fea264697066735822122059772eb63185225a15c3eef60ac4e6530b543cb7129f31df63459b28a377169b64736f6c63430008120033",
					"opcodes": "PUSH1 0x80 PUSH1 0x40 MSTORE CALLVALUE DUP1 ISZERO PUSH2 0x10 JUMPI PUSH1 0x0 DUP1 REVERT JUMPDEST POP PUSH2 0x3D4 DUP1 PUSH2 0x20 PUSH1 0x0 CODECOPY PUSH1 0x0 RETURN INVALID PUSH1 0x80 PUSH1 0x40 MSTORE PUSH1 0x4 CALLDATASIZE LT PUSH2 0x34 JUMPI PUSH1 0x0 CALLDATALOAD PUSH1 0xE0 SHR DUP1 PUSH4 0x3A0216EB EQ PUSH2 0x39 JUMPI DUP1 PUSH4 0xB41932C2 EQ PUSH2 0x55 JUMPI DUP1 PUSH4 0xF55332AB EQ PUSH2 0x71 JUMPI JUMPDEST PUSH1 0x0 DUP1 REVERT JUMPDEST PUSH2 0x53 PUSH1 0x4 DUP1 CALLDATASIZE SUB DUP2 ADD SWAP1 PUSH2 0x4E SWAP2 SWAP1 PUSH2 0x279 JUMP JUMPDEST PUSH2 0x8D JUMP JUMPDEST STOP JUMPDEST PUSH2 0x6F PUSH1 0x4 DUP1 CALLDATASIZE SUB DUP2 ADD SWAP1 PUSH2 0x6A SWAP2 SWAP1 PUSH2 0x279 JUMP JUMPDEST PUSH2 0x10C JUMP JUMPDEST STOP JUMPDEST PUSH2 0x8B PUSH1 0x4 DUP1 CALLDATASIZE SUB DUP2 ADD SWAP1 PUSH2 0x86 SWAP2 SWAP1 PUSH2 0x279 JUMP JUMPDEST PUSH2 0x156 JUMP JUMPDEST STOP JUMPDEST PUSH1 0x0 DUP2 PUSH20 0xFFFFFFFFFFFFFFFFFFFFFFFFFFFFFFFFFFFFFFFF AND PUSH2 0x8FC CALLVALUE SWAP1 DUP2 ISZERO MUL SWAP1 PUSH1 0x40 MLOAD PUSH1 0x0 PUSH1 0x40 MLOAD DUP1 DUP4 SUB DUP2 DUP6 DUP9 DUP9 CALL SWAP4 POP POP POP POP SWAP1 POP PUSH1 0x1 ISZERO ISZERO DUP2 ISZERO ISZERO SUB PUSH2 0x103 JUMPI PUSH32 0x406DADE31F7AE4B5DBC276258C28DDE5AE6D5C2773C5745802C493A2360E55E0 PUSH1 0x40 MLOAD PUSH1 0x40 MLOAD DUP1 SWAP2 SUB SWAP1 LOG1 PUSH2 0x108 JUMP JUMPDEST PUSH1 0x0 DUP1 REVERT JUMPDEST POP POP JUMP JUMPDEST DUP1 PUSH20 0xFFFFFFFFFFFFFFFFFFFFFFFFFFFFFFFFFFFFFFFF AND PUSH2 0x8FC CALLVALUE SWAP1 DUP2 ISZERO MUL SWAP1 PUSH1 0x40 MLOAD PUSH1 0x0 PUSH1 0x40 MLOAD DUP1 DUP4 SUB DUP2 DUP6 DUP9 DUP9 CALL SWAP4 POP POP POP POP ISZERO DUP1 ISZERO PUSH2 0x152 JUMPI RETURNDATASIZE PUSH1 0x0 DUP1 RETURNDATACOPY RETURNDATASIZE PUSH1 0x0 REVERT JUMPDEST POP POP JUMP JUMPDEST PUSH1 0x0 DUP1 DUP3 PUSH20 0xFFFFFFFFFFFFFFFFFFFFFFFFFFFFFFFFFFFFFFFF AND CALLVALUE PUSH1 0x40 MLOAD PUSH2 0x17D SWAP1 PUSH2 0x2D7 JUMP JUMPDEST PUSH1 0x0 PUSH1 0x40 MLOAD DUP1 DUP4 SUB DUP2 DUP6 DUP8 GAS CALL SWAP3 POP POP POP RETURNDATASIZE DUP1 PUSH1 0x0 DUP2 EQ PUSH2 0x1BA JUMPI PUSH1 0x40 MLOAD SWAP2 POP PUSH1 0x1F NOT PUSH1 0x3F RETURNDATASIZE ADD AND DUP3 ADD PUSH1 0x40 MSTORE RETURNDATASIZE DUP3 MSTORE RETURNDATASIZE PUSH1 0x0 PUSH1 0x20 DUP5 ADD RETURNDATACOPY PUSH2 0x1BF JUMP JUMPDEST PUSH1 0x60 SWAP2 POP JUMPDEST POP SWAP2 POP SWAP2 POP PUSH1 0x1 ISZERO ISZERO DUP3 ISZERO ISZERO SUB PUSH2 0x20C JUMPI PUSH32 0x6D990937182E49B1454E12E21A28D4AD8752167938C8A68CAEDE311618CF317F DUP2 PUSH1 0x40 MLOAD PUSH2 0x1FF SWAP2 SWAP1 PUSH2 0x37C JUMP JUMPDEST PUSH1 0x40 MLOAD DUP1 SWAP2 SUB SWAP1 LOG1 PUSH2 0x211 JUMP JUMPDEST PUSH1 0x0 DUP1 REVERT JUMPDEST POP POP POP JUMP JUMPDEST PUSH1 0x0 DUP1 REVERT JUMPDEST PUSH1 0x0 PUSH20 0xFFFFFFFFFFFFFFFFFFFFFFFFFFFFFFFFFFFFFFFF DUP3 AND SWAP1 POP SWAP2 SWAP1 POP JUMP JUMPDEST PUSH1 0x0 PUSH2 0x246 DUP3 PUSH2 0x21B JUMP JUMPDEST SWAP1 POP SWAP2 SWAP1 POP JUMP JUMPDEST PUSH2 0x256 DUP2 PUSH2 0x23B JUMP JUMPDEST DUP2 EQ PUSH2 0x261 JUMPI PUSH1 0x0 DUP1 REVERT JUMPDEST POP JUMP JUMPDEST PUSH1 0x0 DUP2 CALLDATALOAD SWAP1 POP PUSH2 0x273 DUP2 PUSH2 0x24D JUMP JUMPDEST SWAP3 SWAP2 POP POP JUMP JUMPDEST PUSH1 0x0 PUSH1 0x20 DUP3 DUP5 SUB SLT ISZERO PUSH2 0x28F JUMPI PUSH2 0x28E PUSH2 0x216 JUMP JUMPDEST JUMPDEST PUSH1 0x0 PUSH2 0x29D DUP5 DUP3 DUP6 ADD PUSH2 0x264 JUMP JUMPDEST SWAP2 POP POP SWAP3 SWAP2 POP POP JUMP JUMPDEST PUSH1 0x0 DUP2 SWAP1 POP SWAP3 SWAP2 POP POP JUMP JUMPDEST POP JUMP JUMPDEST PUSH1 0x0 PUSH2 0x2C1 PUSH1 0x0 DUP4 PUSH2 0x2A6 JUMP JUMPDEST SWAP2 POP PUSH2 0x2CC DUP3 PUSH2 0x2B1 JUMP JUMPDEST PUSH1 0x0 DUP3 ADD SWAP1 POP SWAP2 SWAP1 POP JUMP JUMPDEST PUSH1 0x0 PUSH2 0x2E2 DUP3 PUSH2 0x2B4 JUMP JUMPDEST SWAP2 POP DUP2 SWAP1 POP SWAP2 SWAP1 POP JUMP JUMPDEST PUSH1 0x0 DUP2 MLOAD SWAP1 POP SWAP2 SWAP1 POP JUMP JUMPDEST PUSH1 0x0 DUP3 DUP3 MSTORE PUSH1 0x20 DUP3 ADD SWAP1 POP SWAP3 SWAP2 POP POP JUMP JUMPDEST PUSH1 0x0 JUMPDEST DUP4 DUP2 LT ISZERO PUSH2 0x326 JUMPI DUP1 DUP3 ADD MLOAD DUP2 DUP5 ADD MSTORE PUSH1 0x20 DUP2 ADD SWAP1 POP PUSH2 0x30B JUMP JUMPDEST PUSH1 0x0 DUP5 DUP5 ADD MSTORE POP POP POP POP JUMP JUMPDEST PUSH1 0x0 PUSH1 0x1F NOT PUSH1 0x1F DUP4 ADD AND SWAP1 POP SWAP2 SWAP1 POP JUMP JUMPDEST PUSH1 0x0 PUSH2 0x34E DUP3 PUSH2 0x2EC JUMP JUMPDEST PUSH2 0x358 DUP2 DUP6 PUSH2 0x2F7 JUMP JUMPDEST SWAP4 POP PUSH2 0x368 DUP2 DUP6 PUSH1 0x20 DUP7 ADD PUSH2 0x308 JUMP JUMPDEST PUSH2 0x371 DUP2 PUSH2 0x332 JUMP JUMPDEST DUP5 ADD SWAP2 POP POP SWAP3 SWAP2 POP POP JUMP JUMPDEST PUSH1 0x0 PUSH1 0x20 DUP3 ADD SWAP1 POP DUP2 DUP2 SUB PUSH1 0x0 DUP4 ADD MSTORE PUSH2 0x396 DUP2 DUP5 PUSH2 0x343 JUMP JUMPDEST SWAP1 POP SWAP3 SWAP2 POP POP JUMP INVALID LOG2 PUSH5 0x6970667358 0x22 SLT KECCAK256 MSIZE PUSH24 0x2EB63185225A15C3EEF60AC4E6530B543CB7129F31DF6345 SWAP12 0x28 LOG3 PUSH24 0x169B64736F6C634300081200330000000000000000000000 "
				},
				"gasEstimates": {
					"creation": {
						"codeDepositCost": "196000",
						"executionCost": "238",
						"totalCost": "196238"
					},
					"external": {
						"call(address)": "infinite",
						"sendSend(address)": "infinite",
						"sendTransfer(address)": "infinite"
					}
				},
				"methodIdentifiers": {
					"call(address)": "f55332ab",
					"sendSend(address)": "3a0216eb",
					"sendTransfer(address)": "b41932c2"
				}
			},
			"storageLayout": {
				"storage": [],
				"types": null
			},
			"userdoc": {
				"kind": "user",
				"methods": {},
				"version": 1
			}
		}
	}
}