{
	"ex8/ex8.sol": {
		"Struct": {
			"abi": [
				{
					"inputs": [],
					"stateMutability": "nonpayable",
					"type": "constructor"
				},
				{
					"inputs": [],
					"name": "getMainProduct",
					"outputs": [
						{
							"components": [
								{
									"internalType": "string",
									"name": "name",
									"type": "string"
								},
								{
									"internalType": "uint256",
									"name": "price",
									"type": "uint256"
								}
							],
							"internalType": "struct Struct.Product",
							"name": "",
							"type": "tuple"
						}
					],
					"stateMutability": "view",
					"type": "function"
				},
				{
					"inputs": [],
					"name": "getMainProductName",
					"outputs": [
						{
							"internalType": "string",
							"name": "",
							"type": "string"
						}
					],
					"stateMutability": "view",
					"type": "function"
				},
				{
					"inputs": [],
					"name": "getMainProductPrice",
					"outputs": [
						{
							"internalType": "uint256",
							"name": "",
							"type": "uint256"
						}
					],
					"stateMutability": "view",
					"type": "function"
				},
				{
					"inputs": [],
					"name": "initProduct",
					"outputs": [],
					"stateMutability": "nonpayable",
					"type": "function"
				},
				{
					"inputs": [],
					"name": "mainProduct",
					"outputs": [
						{
							"internalType": "string",
							"name": "name",
							"type": "string"
						},
						{
							"internalType": "uint256",
							"name": "price",
							"type": "uint256"
						}
					],
					"stateMutability": "view",
					"type": "function"
				},
				{
					"inputs": [],
					"name": "maxProductCount",
					"outputs": [
						{
							"internalType": "uint256",
							"name": "",
							"type": "uint256"
						}
					],
					"stateMutability": "view",
					"type": "function"
				},
				{
					"inputs": [
						{
							"internalType": "string",
							"name": "_name",
							"type": "string"
						},
						{
							"internalType": "uint256",
							"name": "_price",
							"type": "uint256"
						}
					],
					"name": "setMainProduct",
					"outputs": [],
					"stateMutability": "nonpayable",
					"type": "function"
				}
			],
			"devdoc": {
				"kind": "dev",
				"methods": {},
				"version": 1
			},
			"evm": {
				"assembly": "    /* \"ex8/ex8.sol\":152:1347  contract Struct {... */\n  mstore(0x40, 0x80)\n    /* \"ex8/ex8.sol\":503:548  constructor() {... */\n  callvalue\n  dup1\n  iszero\n  tag_1\n  jumpi\n  0x00\n  dup1\n  revert\ntag_1:\n  pop\n    /* \"ex8/ex8.sol\":539:543  1000 */\n  0x03e8\n    /* \"ex8/ex8.sol\":523:538  maxProductCount */\n  0x02\n    /* \"ex8/ex8.sol\":523:543  maxProductCount=1000 */\n  dup2\n  swap1\n  sstore\n  pop\n    /* \"ex8/ex8.sol\":152:1347  contract Struct {... */\n  dataSize(sub_0)\n  dup1\n  dataOffset(sub_0)\n  0x00\n  codecopy\n  0x00\n  return\nstop\n\nsub_0: assembly {\n        /* \"ex8/ex8.sol\":152:1347  contract Struct {... */\n      mstore(0x40, 0x80)\n      callvalue\n      dup1\n      iszero\n      tag_1\n      jumpi\n      0x00\n      dup1\n      revert\n    tag_1:\n      pop\n      jumpi(tag_2, lt(calldatasize, 0x04))\n      shr(0xe0, calldataload(0x00))\n      dup1\n      0x512c009a\n      gt\n      tag_10\n      jumpi\n      dup1\n      0x512c009a\n      eq\n      tag_6\n      jumpi\n      dup1\n      0x80145671\n      eq\n      tag_7\n      jumpi\n      dup1\n      0xb4d92469\n      eq\n      tag_8\n      jumpi\n      dup1\n      0xcbf2dabb\n      eq\n      tag_9\n      jumpi\n      jump(tag_2)\n    tag_10:\n      dup1\n      0x20e6984a\n      eq\n      tag_3\n      jumpi\n      dup1\n      0x216dbcaf\n      eq\n      tag_4\n      jumpi\n      dup1\n      0x40b2b8ea\n      eq\n      tag_5\n      jumpi\n    tag_2:\n      0x00\n      dup1\n      revert\n        /* \"ex8/ex8.sol\":273:299  Product public mainProduct */\n    tag_3:\n      tag_11\n      tag_12\n      jump\t// in\n    tag_11:\n      mload(0x40)\n      tag_13\n      swap3\n      swap2\n      swap1\n      tag_14\n      jump\t// in\n    tag_13:\n      mload(0x40)\n      dup1\n      swap2\n      sub\n      swap1\n      return\n        /* \"ex8/ex8.sol\":738:870  function setMainProduct(string memory _name, uint _price) public {... */\n    tag_4:\n      tag_15\n      0x04\n      dup1\n      calldatasize\n      sub\n      dup2\n      add\n      swap1\n      tag_16\n      swap2\n      swap1\n      tag_17\n      jump\t// in\n    tag_16:\n      tag_18\n      jump\t// in\n    tag_15:\n      stop\n        /* \"ex8/ex8.sol\":472:499  uint public maxProductCount */\n    tag_5:\n      tag_19\n      tag_20\n      jump\t// in\n    tag_19:\n      mload(0x40)\n      tag_21\n      swap2\n      swap1\n      tag_22\n      jump\t// in\n    tag_21:\n      mload(0x40)\n      dup1\n      swap2\n      sub\n      swap1\n      return\n        /* \"ex8/ex8.sol\":998:1118  function getMainProduct() public view returns(Product memory) { // returns(Product) -> Error... */\n    tag_6:\n      tag_23\n      tag_24\n      jump\t// in\n    tag_23:\n      mload(0x40)\n      tag_25\n      swap2\n      swap1\n      tag_26\n      jump\t// in\n    tag_25:\n      mload(0x40)\n      dup1\n      swap2\n      sub\n      swap1\n      return\n        /* \"ex8/ex8.sol\":573:713  function initProduct() public {... */\n    tag_7:\n      tag_27\n      tag_28\n      jump\t// in\n    tag_27:\n      stop\n        /* \"ex8/ex8.sol\":1122:1249  function getMainProductName() public view returns(string memory) { // returns(string) -> Error... */\n    tag_8:\n      tag_29\n      tag_30\n      jump\t// in\n    tag_29:\n      mload(0x40)\n      tag_31\n      swap2\n      swap1\n      tag_32\n      jump\t// in\n    tag_31:\n      mload(0x40)\n      dup1\n      swap2\n      sub\n      swap1\n      return\n        /* \"ex8/ex8.sol\":1253:1345  function getMainProductPrice() public view returns(uint) {... */\n    tag_9:\n      tag_33\n      tag_34\n      jump\t// in\n    tag_33:\n      mload(0x40)\n      tag_35\n      swap2\n      swap1\n      tag_22\n      jump\t// in\n    tag_35:\n      mload(0x40)\n      dup1\n      swap2\n      sub\n      swap1\n      return\n        /* \"ex8/ex8.sol\":273:299  Product public mainProduct */\n    tag_12:\n      0x00\n      dup1\n      0x00\n      add\n      dup1\n      sload\n      tag_36\n      swap1\n      tag_37\n      jump\t// in\n    tag_36:\n      dup1\n      0x1f\n      add\n      0x20\n      dup1\n      swap2\n      div\n      mul\n      0x20\n      add\n      mload(0x40)\n      swap1\n      dup2\n      add\n      0x40\n      mstore\n      dup1\n      swap3\n      swap2\n      swap1\n      dup2\n      dup2\n      mstore\n      0x20\n      add\n      dup3\n      dup1\n      sload\n      tag_38\n      swap1\n      tag_37\n      jump\t// in\n    tag_38:\n      dup1\n      iszero\n      tag_39\n      jumpi\n      dup1\n      0x1f\n      lt\n      tag_40\n      jumpi\n      0x0100\n      dup1\n      dup4\n      sload\n      div\n      mul\n      dup4\n      mstore\n      swap2\n      0x20\n      add\n      swap2\n      jump(tag_39)\n    tag_40:\n      dup3\n      add\n      swap2\n      swap1\n      0x00\n      mstore\n      keccak256(0x00, 0x20)\n      swap1\n    tag_41:\n      dup2\n      sload\n      dup2\n      mstore\n      swap1\n      0x01\n      add\n      swap1\n      0x20\n      add\n      dup1\n      dup4\n      gt\n      tag_41\n      jumpi\n      dup3\n      swap1\n      sub\n      0x1f\n      and\n      dup3\n      add\n      swap2\n    tag_39:\n      pop\n      pop\n      pop\n      pop\n      pop\n      swap1\n      dup1\n      0x01\n      add\n      sload\n      swap1\n      pop\n      dup3\n      jump\t// out\n        /* \"ex8/ex8.sol\":738:870  function setMainProduct(string memory _name, uint _price) public {... */\n    tag_18:\n        /* \"ex8/ex8.sol\":828:833  _name */\n      dup2\n        /* \"ex8/ex8.sol\":809:820  mainProduct */\n      0x00\n        /* \"ex8/ex8.sol\":809:825  mainProduct.name */\n      dup1\n      add\n        /* \"ex8/ex8.sol\":809:833  mainProduct.name = _name */\n      swap1\n      dup2\n      tag_43\n      swap2\n      swap1\n      tag_44\n      jump\t// in\n    tag_43:\n      pop\n        /* \"ex8/ex8.sol\":859:865  _price */\n      dup1\n        /* \"ex8/ex8.sol\":839:850  mainProduct */\n      0x00\n        /* \"ex8/ex8.sol\":839:856  mainProduct.price */\n      0x01\n      add\n        /* \"ex8/ex8.sol\":839:865  mainProduct.price = _price */\n      dup2\n      swap1\n      sstore\n      pop\n        /* \"ex8/ex8.sol\":738:870  function setMainProduct(string memory _name, uint _price) public {... */\n      pop\n      pop\n      jump\t// out\n        /* \"ex8/ex8.sol\":472:499  uint public maxProductCount */\n    tag_20:\n      sload(0x02)\n      dup2\n      jump\t// out\n        /* \"ex8/ex8.sol\":998:1118  function getMainProduct() public view returns(Product memory) { // returns(Product) -> Error... */\n    tag_24:\n        /* \"ex8/ex8.sol\":1044:1058  Product memory */\n      tag_45\n      tag_46\n      jump\t// in\n    tag_45:\n        /* \"ex8/ex8.sol\":1102:1113  mainProduct */\n      0x00\n        /* \"ex8/ex8.sol\":1095:1113  return mainProduct */\n      mload(0x40)\n      dup1\n      0x40\n      add\n      0x40\n      mstore\n      swap1\n      dup2\n      0x00\n      dup3\n      add\n      dup1\n      sload\n      tag_48\n      swap1\n      tag_37\n      jump\t// in\n    tag_48:\n      dup1\n      0x1f\n      add\n      0x20\n      dup1\n      swap2\n      div\n      mul\n      0x20\n      add\n      mload(0x40)\n      swap1\n      dup2\n      add\n      0x40\n      mstore\n      dup1\n      swap3\n      swap2\n      swap1\n      dup2\n      dup2\n      mstore\n      0x20\n      add\n      dup3\n      dup1\n      sload\n      tag_49\n      swap1\n      tag_37\n      jump\t// in\n    tag_49:\n      dup1\n      iszero\n      tag_50\n      jumpi\n      dup1\n      0x1f\n      lt\n      tag_51\n      jumpi\n      0x0100\n      dup1\n      dup4\n      sload\n      div\n      mul\n      dup4\n      mstore\n      swap2\n      0x20\n      add\n      swap2\n      jump(tag_50)\n    tag_51:\n      dup3\n      add\n      swap2\n      swap1\n      0x00\n      mstore\n      keccak256(0x00, 0x20)\n      swap1\n    tag_52:\n      dup2\n      sload\n      dup2\n      mstore\n      swap1\n      0x01\n      add\n      swap1\n      0x20\n      add\n      dup1\n      dup4\n      gt\n      tag_52\n      jumpi\n      dup3\n      swap1\n      sub\n      0x1f\n      and\n      dup3\n      add\n      swap2\n    tag_50:\n      pop\n      pop\n      pop\n      pop\n      pop\n      dup2\n      mstore\n      0x20\n      add\n      0x01\n      dup3\n      add\n      sload\n      dup2\n      mstore\n      pop\n      pop\n      swap1\n      pop\n        /* \"ex8/ex8.sol\":998:1118  function getMainProduct() public view returns(Product memory) { // returns(Product) -> Error... */\n      swap1\n      jump\t// out\n        /* \"ex8/ex8.sol\":573:713  function initProduct() public {... */\n    tag_28:\n        /* \"ex8/ex8.sol\":609:636  Product memory firstProduct */\n      tag_54\n      tag_46\n      jump\t// in\n    tag_54:\n        /* \"ex8/ex8.sol\":657:676  Product(\"toy1\", 10) */\n      mload(0x40)\n      dup1\n      0x40\n      add\n      0x40\n      mstore\n      dup1\n      mload(0x40)\n      dup1\n      0x40\n      add\n      0x40\n      mstore\n      dup1\n      0x04\n      dup2\n      mstore\n      0x20\n      add\n      0x746f793100000000000000000000000000000000000000000000000000000000\n      dup2\n      mstore\n      pop\n      dup2\n      mstore\n      0x20\n      add\n        /* \"ex8/ex8.sol\":673:675  10 */\n      0x0a\n        /* \"ex8/ex8.sol\":657:676  Product(\"toy1\", 10) */\n      dup2\n      mstore\n      pop\n        /* \"ex8/ex8.sol\":642:676  firstProduct = Product(\"toy1\", 10) */\n      swap1\n      pop\n        /* \"ex8/ex8.sol\":696:708  firstProduct */\n      dup1\n        /* \"ex8/ex8.sol\":682:693  mainProduct */\n      0x00\n        /* \"ex8/ex8.sol\":682:708  mainProduct = firstProduct */\n      dup1\n      dup3\n      add\n      mload\n      dup2\n      0x00\n      add\n      swap1\n      dup2\n      tag_55\n      swap2\n      swap1\n      tag_44\n      jump\t// in\n    tag_55:\n      pop\n      0x20\n      dup3\n      add\n      mload\n      dup2\n      0x01\n      add\n      sstore\n      swap1\n      pop\n      pop\n        /* \"ex8/ex8.sol\":603:713  {... */\n      pop\n        /* \"ex8/ex8.sol\":573:713  function initProduct() public {... */\n      jump\t// out\n        /* \"ex8/ex8.sol\":1122:1249  function getMainProductName() public view returns(string memory) { // returns(string) -> Error... */\n    tag_30:\n        /* \"ex8/ex8.sol\":1172:1185  string memory */\n      0x60\n        /* \"ex8/ex8.sol\":1228:1239  mainProduct */\n      0x00\n        /* \"ex8/ex8.sol\":1228:1244  mainProduct.name */\n      dup1\n      add\n        /* \"ex8/ex8.sol\":1221:1244  return mainProduct.name */\n      dup1\n      sload\n      tag_57\n      swap1\n      tag_37\n      jump\t// in\n    tag_57:\n      dup1\n      0x1f\n      add\n      0x20\n      dup1\n      swap2\n      div\n      mul\n      0x20\n      add\n      mload(0x40)\n      swap1\n      dup2\n      add\n      0x40\n      mstore\n      dup1\n      swap3\n      swap2\n      swap1\n      dup2\n      dup2\n      mstore\n      0x20\n      add\n      dup3\n      dup1\n      sload\n      tag_58\n      swap1\n      tag_37\n      jump\t// in\n    tag_58:\n      dup1\n      iszero\n      tag_59\n      jumpi\n      dup1\n      0x1f\n      lt\n      tag_60\n      jumpi\n      0x0100\n      dup1\n      dup4\n      sload\n      div\n      mul\n      dup4\n      mstore\n      swap2\n      0x20\n      add\n      swap2\n      jump(tag_59)\n    tag_60:\n      dup3\n      add\n      swap2\n      swap1\n      0x00\n      mstore\n      keccak256(0x00, 0x20)\n      swap1\n    tag_61:\n      dup2\n      sload\n      dup2\n      mstore\n      swap1\n      0x01\n      add\n      swap1\n      0x20\n      add\n      dup1\n      dup4\n      gt\n      tag_61\n      jumpi\n      dup3\n      swap1\n      sub\n      0x1f\n      and\n      dup3\n      add\n      swap2\n    tag_59:\n      pop\n      pop\n      pop\n      pop\n      pop\n      swap1\n      pop\n        /* \"ex8/ex8.sol\":1122:1249  function getMainProductName() public view returns(string memory) { // returns(string) -> Error... */\n      swap1\n      jump\t// out\n        /* \"ex8/ex8.sol\":1253:1345  function getMainProductPrice() public view returns(uint) {... */\n    tag_34:\n        /* \"ex8/ex8.sol\":1304:1308  uint */\n      0x00\n        /* \"ex8/ex8.sol\":1323:1334  mainProduct */\n      dup1\n        /* \"ex8/ex8.sol\":1323:1340  mainProduct.price */\n      0x01\n      add\n      sload\n        /* \"ex8/ex8.sol\":1316:1340  return mainProduct.price */\n      swap1\n      pop\n        /* \"ex8/ex8.sol\":1253:1345  function getMainProductPrice() public view returns(uint) {... */\n      swap1\n      jump\t// out\n    tag_46:\n      mload(0x40)\n      dup1\n      0x40\n      add\n      0x40\n      mstore\n      dup1\n      0x60\n      dup2\n      mstore\n      0x20\n      add\n      0x00\n      dup2\n      mstore\n      pop\n      swap1\n      jump\t// out\n        /* \"#utility.yul\":7:106   */\n    tag_63:\n        /* \"#utility.yul\":59:65   */\n      0x00\n        /* \"#utility.yul\":93:98   */\n      dup2\n        /* \"#utility.yul\":87:99   */\n      mload\n        /* \"#utility.yul\":77:99   */\n      swap1\n      pop\n        /* \"#utility.yul\":7:106   */\n      swap2\n      swap1\n      pop\n      jump\t// out\n        /* \"#utility.yul\":112:281   */\n    tag_64:\n        /* \"#utility.yul\":196:207   */\n      0x00\n        /* \"#utility.yul\":230:236   */\n      dup3\n        /* \"#utility.yul\":225:228   */\n      dup3\n        /* \"#utility.yul\":218:237   */\n      mstore\n        /* \"#utility.yul\":270:274   */\n      0x20\n        /* \"#utility.yul\":265:268   */\n      dup3\n        /* \"#utility.yul\":261:275   */\n      add\n        /* \"#utility.yul\":246:275   */\n      swap1\n      pop\n        /* \"#utility.yul\":112:281   */\n      swap3\n      swap2\n      pop\n      pop\n      jump\t// out\n        /* \"#utility.yul\":287:533   */\n    tag_65:\n        /* \"#utility.yul\":368:369   */\n      0x00\n        /* \"#utility.yul\":378:491   */\n    tag_108:\n        /* \"#utility.yul\":392:398   */\n      dup4\n        /* \"#utility.yul\":389:390   */\n      dup2\n        /* \"#utility.yul\":386:399   */\n      lt\n        /* \"#utility.yul\":378:491   */\n      iszero\n      tag_110\n      jumpi\n        /* \"#utility.yul\":477:478   */\n      dup1\n        /* \"#utility.yul\":472:475   */\n      dup3\n        /* \"#utility.yul\":468:479   */\n      add\n        /* \"#utility.yul\":462:480   */\n      mload\n        /* \"#utility.yul\":458:459   */\n      dup2\n        /* \"#utility.yul\":453:456   */\n      dup5\n        /* \"#utility.yul\":449:460   */\n      add\n        /* \"#utility.yul\":442:481   */\n      mstore\n        /* \"#utility.yul\":414:416   */\n      0x20\n        /* \"#utility.yul\":411:412   */\n      dup2\n        /* \"#utility.yul\":407:417   */\n      add\n        /* \"#utility.yul\":402:417   */\n      swap1\n      pop\n        /* \"#utility.yul\":378:491   */\n      jump(tag_108)\n    tag_110:\n        /* \"#utility.yul\":525:526   */\n      0x00\n        /* \"#utility.yul\":516:522   */\n      dup5\n        /* \"#utility.yul\":511:514   */\n      dup5\n        /* \"#utility.yul\":507:523   */\n      add\n        /* \"#utility.yul\":500:527   */\n      mstore\n        /* \"#utility.yul\":349:533   */\n      pop\n        /* \"#utility.yul\":287:533   */\n      pop\n      pop\n      pop\n      jump\t// out\n        /* \"#utility.yul\":539:641   */\n    tag_66:\n        /* \"#utility.yul\":580:586   */\n      0x00\n        /* \"#utility.yul\":631:633   */\n      0x1f\n        /* \"#utility.yul\":627:634   */\n      not\n        /* \"#utility.yul\":622:624   */\n      0x1f\n        /* \"#utility.yul\":615:620   */\n      dup4\n        /* \"#utility.yul\":611:625   */\n      add\n        /* \"#utility.yul\":607:635   */\n      and\n        /* \"#utility.yul\":597:635   */\n      swap1\n      pop\n        /* \"#utility.yul\":539:641   */\n      swap2\n      swap1\n      pop\n      jump\t// out\n        /* \"#utility.yul\":647:1024   */\n    tag_67:\n        /* \"#utility.yul\":735:738   */\n      0x00\n        /* \"#utility.yul\":763:802   */\n      tag_113\n        /* \"#utility.yul\":796:801   */\n      dup3\n        /* \"#utility.yul\":763:802   */\n      tag_63\n      jump\t// in\n    tag_113:\n        /* \"#utility.yul\":818:889   */\n      tag_114\n        /* \"#utility.yul\":882:888   */\n      dup2\n        /* \"#utility.yul\":877:880   */\n      dup6\n        /* \"#utility.yul\":818:889   */\n      tag_64\n      jump\t// in\n    tag_114:\n        /* \"#utility.yul\":811:889   */\n      swap4\n      pop\n        /* \"#utility.yul\":898:963   */\n      tag_115\n        /* \"#utility.yul\":956:962   */\n      dup2\n        /* \"#utility.yul\":951:954   */\n      dup6\n        /* \"#utility.yul\":944:948   */\n      0x20\n        /* \"#utility.yul\":937:942   */\n      dup7\n        /* \"#utility.yul\":933:949   */\n      add\n        /* \"#utility.yul\":898:963   */\n      tag_65\n      jump\t// in\n    tag_115:\n        /* \"#utility.yul\":988:1017   */\n      tag_116\n        /* \"#utility.yul\":1010:1016   */\n      dup2\n        /* \"#utility.yul\":988:1017   */\n      tag_66\n      jump\t// in\n    tag_116:\n        /* \"#utility.yul\":983:986   */\n      dup5\n        /* \"#utility.yul\":979:1018   */\n      add\n        /* \"#utility.yul\":972:1018   */\n      swap2\n      pop\n        /* \"#utility.yul\":739:1024   */\n      pop\n        /* \"#utility.yul\":647:1024   */\n      swap3\n      swap2\n      pop\n      pop\n      jump\t// out\n        /* \"#utility.yul\":1030:1107   */\n    tag_68:\n        /* \"#utility.yul\":1067:1074   */\n      0x00\n        /* \"#utility.yul\":1096:1101   */\n      dup2\n        /* \"#utility.yul\":1085:1101   */\n      swap1\n      pop\n        /* \"#utility.yul\":1030:1107   */\n      swap2\n      swap1\n      pop\n      jump\t// out\n        /* \"#utility.yul\":1113:1231   */\n    tag_69:\n        /* \"#utility.yul\":1200:1224   */\n      tag_119\n        /* \"#utility.yul\":1218:1223   */\n      dup2\n        /* \"#utility.yul\":1200:1224   */\n      tag_68\n      jump\t// in\n    tag_119:\n        /* \"#utility.yul\":1195:1198   */\n      dup3\n        /* \"#utility.yul\":1188:1225   */\n      mstore\n        /* \"#utility.yul\":1113:1231   */\n      pop\n      pop\n      jump\t// out\n        /* \"#utility.yul\":1237:1660   */\n    tag_14:\n        /* \"#utility.yul\":1378:1382   */\n      0x00\n        /* \"#utility.yul\":1416:1418   */\n      0x40\n        /* \"#utility.yul\":1405:1414   */\n      dup3\n        /* \"#utility.yul\":1401:1419   */\n      add\n        /* \"#utility.yul\":1393:1419   */\n      swap1\n      pop\n        /* \"#utility.yul\":1465:1474   */\n      dup2\n        /* \"#utility.yul\":1459:1463   */\n      dup2\n        /* \"#utility.yul\":1455:1475   */\n      sub\n        /* \"#utility.yul\":1451:1452   */\n      0x00\n        /* \"#utility.yul\":1440:1449   */\n      dup4\n        /* \"#utility.yul\":1436:1453   */\n      add\n        /* \"#utility.yul\":1429:1476   */\n      mstore\n        /* \"#utility.yul\":1493:1571   */\n      tag_121\n        /* \"#utility.yul\":1566:1570   */\n      dup2\n        /* \"#utility.yul\":1557:1563   */\n      dup6\n        /* \"#utility.yul\":1493:1571   */\n      tag_67\n      jump\t// in\n    tag_121:\n        /* \"#utility.yul\":1485:1571   */\n      swap1\n      pop\n        /* \"#utility.yul\":1581:1653   */\n      tag_122\n        /* \"#utility.yul\":1649:1651   */\n      0x20\n        /* \"#utility.yul\":1638:1647   */\n      dup4\n        /* \"#utility.yul\":1634:1652   */\n      add\n        /* \"#utility.yul\":1625:1631   */\n      dup5\n        /* \"#utility.yul\":1581:1653   */\n      tag_69\n      jump\t// in\n    tag_122:\n        /* \"#utility.yul\":1237:1660   */\n      swap4\n      swap3\n      pop\n      pop\n      pop\n      jump\t// out\n        /* \"#utility.yul\":1666:1741   */\n    tag_70:\n        /* \"#utility.yul\":1699:1705   */\n      0x00\n        /* \"#utility.yul\":1732:1734   */\n      0x40\n        /* \"#utility.yul\":1726:1735   */\n      mload\n        /* \"#utility.yul\":1716:1735   */\n      swap1\n      pop\n        /* \"#utility.yul\":1666:1741   */\n      swap1\n      jump\t// out\n        /* \"#utility.yul\":1747:1864   */\n    tag_71:\n        /* \"#utility.yul\":1856:1857   */\n      0x00\n        /* \"#utility.yul\":1853:1854   */\n      dup1\n        /* \"#utility.yul\":1846:1858   */\n      revert\n        /* \"#utility.yul\":1870:1987   */\n    tag_72:\n        /* \"#utility.yul\":1979:1980   */\n      0x00\n        /* \"#utility.yul\":1976:1977   */\n      dup1\n        /* \"#utility.yul\":1969:1981   */\n      revert\n        /* \"#utility.yul\":1993:2110   */\n    tag_73:\n        /* \"#utility.yul\":2102:2103   */\n      0x00\n        /* \"#utility.yul\":2099:2100   */\n      dup1\n        /* \"#utility.yul\":2092:2104   */\n      revert\n        /* \"#utility.yul\":2116:2233   */\n    tag_74:\n        /* \"#utility.yul\":2225:2226   */\n      0x00\n        /* \"#utility.yul\":2222:2223   */\n      dup1\n        /* \"#utility.yul\":2215:2227   */\n      revert\n        /* \"#utility.yul\":2239:2419   */\n    tag_75:\n        /* \"#utility.yul\":2287:2364   */\n      0x4e487b7100000000000000000000000000000000000000000000000000000000\n        /* \"#utility.yul\":2284:2285   */\n      0x00\n        /* \"#utility.yul\":2277:2365   */\n      mstore\n        /* \"#utility.yul\":2384:2388   */\n      0x41\n        /* \"#utility.yul\":2381:2382   */\n      0x04\n        /* \"#utility.yul\":2374:2389   */\n      mstore\n        /* \"#utility.yul\":2408:2412   */\n      0x24\n        /* \"#utility.yul\":2405:2406   */\n      0x00\n        /* \"#utility.yul\":2398:2413   */\n      revert\n        /* \"#utility.yul\":2425:2706   */\n    tag_76:\n        /* \"#utility.yul\":2508:2535   */\n      tag_130\n        /* \"#utility.yul\":2530:2534   */\n      dup3\n        /* \"#utility.yul\":2508:2535   */\n      tag_66\n      jump\t// in\n    tag_130:\n        /* \"#utility.yul\":2500:2506   */\n      dup2\n        /* \"#utility.yul\":2496:2536   */\n      add\n        /* \"#utility.yul\":2638:2644   */\n      dup2\n        /* \"#utility.yul\":2626:2636   */\n      dup2\n        /* \"#utility.yul\":2623:2645   */\n      lt\n        /* \"#utility.yul\":2602:2620   */\n      0xffffffffffffffff\n        /* \"#utility.yul\":2590:2600   */\n      dup3\n        /* \"#utility.yul\":2587:2621   */\n      gt\n        /* \"#utility.yul\":2584:2646   */\n      or\n        /* \"#utility.yul\":2581:2669   */\n      iszero\n      tag_131\n      jumpi\n        /* \"#utility.yul\":2649:2667   */\n      tag_132\n      tag_75\n      jump\t// in\n    tag_132:\n        /* \"#utility.yul\":2581:2669   */\n    tag_131:\n        /* \"#utility.yul\":2689:2699   */\n      dup1\n        /* \"#utility.yul\":2685:2687   */\n      0x40\n        /* \"#utility.yul\":2678:2700   */\n      mstore\n        /* \"#utility.yul\":2468:2706   */\n      pop\n        /* \"#utility.yul\":2425:2706   */\n      pop\n      pop\n      jump\t// out\n        /* \"#utility.yul\":2712:2841   */\n    tag_77:\n        /* \"#utility.yul\":2746:2752   */\n      0x00\n        /* \"#utility.yul\":2773:2793   */\n      tag_134\n      tag_70\n      jump\t// in\n    tag_134:\n        /* \"#utility.yul\":2763:2793   */\n      swap1\n      pop\n        /* \"#utility.yul\":2802:2835   */\n      tag_135\n        /* \"#utility.yul\":2830:2834   */\n      dup3\n        /* \"#utility.yul\":2822:2828   */\n      dup3\n        /* \"#utility.yul\":2802:2835   */\n      tag_76\n      jump\t// in\n    tag_135:\n        /* \"#utility.yul\":2712:2841   */\n      swap2\n      swap1\n      pop\n      jump\t// out\n        /* \"#utility.yul\":2847:3155   */\n    tag_78:\n        /* \"#utility.yul\":2909:2913   */\n      0x00\n        /* \"#utility.yul\":2999:3017   */\n      0xffffffffffffffff\n        /* \"#utility.yul\":2991:2997   */\n      dup3\n        /* \"#utility.yul\":2988:3018   */\n      gt\n        /* \"#utility.yul\":2985:3041   */\n      iszero\n      tag_137\n      jumpi\n        /* \"#utility.yul\":3021:3039   */\n      tag_138\n      tag_75\n      jump\t// in\n    tag_138:\n        /* \"#utility.yul\":2985:3041   */\n    tag_137:\n        /* \"#utility.yul\":3059:3088   */\n      tag_139\n        /* \"#utility.yul\":3081:3087   */\n      dup3\n        /* \"#utility.yul\":3059:3088   */\n      tag_66\n      jump\t// in\n    tag_139:\n        /* \"#utility.yul\":3051:3088   */\n      swap1\n      pop\n        /* \"#utility.yul\":3143:3147   */\n      0x20\n        /* \"#utility.yul\":3137:3141   */\n      dup2\n        /* \"#utility.yul\":3133:3148   */\n      add\n        /* \"#utility.yul\":3125:3148   */\n      swap1\n      pop\n        /* \"#utility.yul\":2847:3155   */\n      swap2\n      swap1\n      pop\n      jump\t// out\n        /* \"#utility.yul\":3161:3307   */\n    tag_79:\n        /* \"#utility.yul\":3258:3264   */\n      dup3\n        /* \"#utility.yul\":3253:3256   */\n      dup2\n        /* \"#utility.yul\":3248:3251   */\n      dup4\n        /* \"#utility.yul\":3235:3265   */\n      calldatacopy\n        /* \"#utility.yul\":3299:3300   */\n      0x00\n        /* \"#utility.yul\":3290:3296   */\n      dup4\n        /* \"#utility.yul\":3285:3288   */\n      dup4\n        /* \"#utility.yul\":3281:3297   */\n      add\n        /* \"#utility.yul\":3274:3301   */\n      mstore\n        /* \"#utility.yul\":3161:3307   */\n      pop\n      pop\n      pop\n      jump\t// out\n        /* \"#utility.yul\":3313:3738   */\n    tag_80:\n        /* \"#utility.yul\":3391:3396   */\n      0x00\n        /* \"#utility.yul\":3416:3482   */\n      tag_142\n        /* \"#utility.yul\":3432:3481   */\n      tag_143\n        /* \"#utility.yul\":3474:3480   */\n      dup5\n        /* \"#utility.yul\":3432:3481   */\n      tag_78\n      jump\t// in\n    tag_143:\n        /* \"#utility.yul\":3416:3482   */\n      tag_77\n      jump\t// in\n    tag_142:\n        /* \"#utility.yul\":3407:3482   */\n      swap1\n      pop\n        /* \"#utility.yul\":3505:3511   */\n      dup3\n        /* \"#utility.yul\":3498:3503   */\n      dup2\n        /* \"#utility.yul\":3491:3512   */\n      mstore\n        /* \"#utility.yul\":3543:3547   */\n      0x20\n        /* \"#utility.yul\":3536:3541   */\n      dup2\n        /* \"#utility.yul\":3532:3548   */\n      add\n        /* \"#utility.yul\":3581:3584   */\n      dup5\n        /* \"#utility.yul\":3572:3578   */\n      dup5\n        /* \"#utility.yul\":3567:3570   */\n      dup5\n        /* \"#utility.yul\":3563:3579   */\n      add\n        /* \"#utility.yul\":3560:3585   */\n      gt\n        /* \"#utility.yul\":3557:3669   */\n      iszero\n      tag_144\n      jumpi\n        /* \"#utility.yul\":3588:3667   */\n      tag_145\n      tag_74\n      jump\t// in\n    tag_145:\n        /* \"#utility.yul\":3557:3669   */\n    tag_144:\n        /* \"#utility.yul\":3678:3732   */\n      tag_146\n        /* \"#utility.yul\":3725:3731   */\n      dup5\n        /* \"#utility.yul\":3720:3723   */\n      dup3\n        /* \"#utility.yul\":3715:3718   */\n      dup6\n        /* \"#utility.yul\":3678:3732   */\n      tag_79\n      jump\t// in\n    tag_146:\n        /* \"#utility.yul\":3397:3738   */\n      pop\n        /* \"#utility.yul\":3313:3738   */\n      swap4\n      swap3\n      pop\n      pop\n      pop\n      jump\t// out\n        /* \"#utility.yul\":3758:4098   */\n    tag_81:\n        /* \"#utility.yul\":3814:3819   */\n      0x00\n        /* \"#utility.yul\":3863:3866   */\n      dup3\n        /* \"#utility.yul\":3856:3860   */\n      0x1f\n        /* \"#utility.yul\":3848:3854   */\n      dup4\n        /* \"#utility.yul\":3844:3861   */\n      add\n        /* \"#utility.yul\":3840:3867   */\n      slt\n        /* \"#utility.yul\":3830:3952   */\n      tag_148\n      jumpi\n        /* \"#utility.yul\":3871:3950   */\n      tag_149\n      tag_73\n      jump\t// in\n    tag_149:\n        /* \"#utility.yul\":3830:3952   */\n    tag_148:\n        /* \"#utility.yul\":3988:3994   */\n      dup2\n        /* \"#utility.yul\":3975:3995   */\n      calldataload\n        /* \"#utility.yul\":4013:4092   */\n      tag_150\n        /* \"#utility.yul\":4088:4091   */\n      dup5\n        /* \"#utility.yul\":4080:4086   */\n      dup3\n        /* \"#utility.yul\":4073:4077   */\n      0x20\n        /* \"#utility.yul\":4065:4071   */\n      dup7\n        /* \"#utility.yul\":4061:4078   */\n      add\n        /* \"#utility.yul\":4013:4092   */\n      tag_80\n      jump\t// in\n    tag_150:\n        /* \"#utility.yul\":4004:4092   */\n      swap2\n      pop\n        /* \"#utility.yul\":3820:4098   */\n      pop\n        /* \"#utility.yul\":3758:4098   */\n      swap3\n      swap2\n      pop\n      pop\n      jump\t// out\n        /* \"#utility.yul\":4104:4226   */\n    tag_82:\n        /* \"#utility.yul\":4177:4201   */\n      tag_152\n        /* \"#utility.yul\":4195:4200   */\n      dup2\n        /* \"#utility.yul\":4177:4201   */\n      tag_68\n      jump\t// in\n    tag_152:\n        /* \"#utility.yul\":4170:4175   */\n      dup2\n        /* \"#utility.yul\":4167:4202   */\n      eq\n        /* \"#utility.yul\":4157:4220   */\n      tag_153\n      jumpi\n        /* \"#utility.yul\":4216:4217   */\n      0x00\n        /* \"#utility.yul\":4213:4214   */\n      dup1\n        /* \"#utility.yul\":4206:4218   */\n      revert\n        /* \"#utility.yul\":4157:4220   */\n    tag_153:\n        /* \"#utility.yul\":4104:4226   */\n      pop\n      jump\t// out\n        /* \"#utility.yul\":4232:4371   */\n    tag_83:\n        /* \"#utility.yul\":4278:4283   */\n      0x00\n        /* \"#utility.yul\":4316:4322   */\n      dup2\n        /* \"#utility.yul\":4303:4323   */\n      calldataload\n        /* \"#utility.yul\":4294:4323   */\n      swap1\n      pop\n        /* \"#utility.yul\":4332:4365   */\n      tag_155\n        /* \"#utility.yul\":4359:4364   */\n      dup2\n        /* \"#utility.yul\":4332:4365   */\n      tag_82\n      jump\t// in\n    tag_155:\n        /* \"#utility.yul\":4232:4371   */\n      swap3\n      swap2\n      pop\n      pop\n      jump\t// out\n        /* \"#utility.yul\":4377:5031   */\n    tag_17:\n        /* \"#utility.yul\":4455:4461   */\n      0x00\n        /* \"#utility.yul\":4463:4469   */\n      dup1\n        /* \"#utility.yul\":4512:4514   */\n      0x40\n        /* \"#utility.yul\":4500:4509   */\n      dup4\n        /* \"#utility.yul\":4491:4498   */\n      dup6\n        /* \"#utility.yul\":4487:4510   */\n      sub\n        /* \"#utility.yul\":4483:4515   */\n      slt\n        /* \"#utility.yul\":4480:4599   */\n      iszero\n      tag_157\n      jumpi\n        /* \"#utility.yul\":4518:4597   */\n      tag_158\n      tag_71\n      jump\t// in\n    tag_158:\n        /* \"#utility.yul\":4480:4599   */\n    tag_157:\n        /* \"#utility.yul\":4666:4667   */\n      0x00\n        /* \"#utility.yul\":4655:4664   */\n      dup4\n        /* \"#utility.yul\":4651:4668   */\n      add\n        /* \"#utility.yul\":4638:4669   */\n      calldataload\n        /* \"#utility.yul\":4696:4714   */\n      0xffffffffffffffff\n        /* \"#utility.yul\":4688:4694   */\n      dup2\n        /* \"#utility.yul\":4685:4715   */\n      gt\n        /* \"#utility.yul\":4682:4799   */\n      iszero\n      tag_159\n      jumpi\n        /* \"#utility.yul\":4718:4797   */\n      tag_160\n      tag_72\n      jump\t// in\n    tag_160:\n        /* \"#utility.yul\":4682:4799   */\n    tag_159:\n        /* \"#utility.yul\":4823:4886   */\n      tag_161\n        /* \"#utility.yul\":4878:4885   */\n      dup6\n        /* \"#utility.yul\":4869:4875   */\n      dup3\n        /* \"#utility.yul\":4858:4867   */\n      dup7\n        /* \"#utility.yul\":4854:4876   */\n      add\n        /* \"#utility.yul\":4823:4886   */\n      tag_81\n      jump\t// in\n    tag_161:\n        /* \"#utility.yul\":4813:4886   */\n      swap3\n      pop\n        /* \"#utility.yul\":4609:4896   */\n      pop\n        /* \"#utility.yul\":4935:4937   */\n      0x20\n        /* \"#utility.yul\":4961:5014   */\n      tag_162\n        /* \"#utility.yul\":5006:5013   */\n      dup6\n        /* \"#utility.yul\":4997:5003   */\n      dup3\n        /* \"#utility.yul\":4986:4995   */\n      dup7\n        /* \"#utility.yul\":4982:5004   */\n      add\n        /* \"#utility.yul\":4961:5014   */\n      tag_83\n      jump\t// in\n    tag_162:\n        /* \"#utility.yul\":4951:5014   */\n      swap2\n      pop\n        /* \"#utility.yul\":4906:5024   */\n      pop\n        /* \"#utility.yul\":4377:5031   */\n      swap3\n      pop\n      swap3\n      swap1\n      pop\n      jump\t// out\n        /* \"#utility.yul\":5037:5259   */\n    tag_22:\n        /* \"#utility.yul\":5130:5134   */\n      0x00\n        /* \"#utility.yul\":5168:5170   */\n      0x20\n        /* \"#utility.yul\":5157:5166   */\n      dup3\n        /* \"#utility.yul\":5153:5171   */\n      add\n        /* \"#utility.yul\":5145:5171   */\n      swap1\n      pop\n        /* \"#utility.yul\":5181:5252   */\n      tag_164\n        /* \"#utility.yul\":5249:5250   */\n      0x00\n        /* \"#utility.yul\":5238:5247   */\n      dup4\n        /* \"#utility.yul\":5234:5251   */\n      add\n        /* \"#utility.yul\":5225:5231   */\n      dup5\n        /* \"#utility.yul\":5181:5252   */\n      tag_69\n      jump\t// in\n    tag_164:\n        /* \"#utility.yul\":5037:5259   */\n      swap3\n      swap2\n      pop\n      pop\n      jump\t// out\n        /* \"#utility.yul\":5265:5424   */\n    tag_84:\n        /* \"#utility.yul\":5339:5350   */\n      0x00\n        /* \"#utility.yul\":5373:5379   */\n      dup3\n        /* \"#utility.yul\":5368:5371   */\n      dup3\n        /* \"#utility.yul\":5361:5380   */\n      mstore\n        /* \"#utility.yul\":5413:5417   */\n      0x20\n        /* \"#utility.yul\":5408:5411   */\n      dup3\n        /* \"#utility.yul\":5404:5418   */\n      add\n        /* \"#utility.yul\":5389:5418   */\n      swap1\n      pop\n        /* \"#utility.yul\":5265:5424   */\n      swap3\n      swap2\n      pop\n      pop\n      jump\t// out\n        /* \"#utility.yul\":5430:5787   */\n    tag_85:\n        /* \"#utility.yul\":5508:5511   */\n      0x00\n        /* \"#utility.yul\":5536:5575   */\n      tag_167\n        /* \"#utility.yul\":5569:5574   */\n      dup3\n        /* \"#utility.yul\":5536:5575   */\n      tag_63\n      jump\t// in\n    tag_167:\n        /* \"#utility.yul\":5591:5652   */\n      tag_168\n        /* \"#utility.yul\":5645:5651   */\n      dup2\n        /* \"#utility.yul\":5640:5643   */\n      dup6\n        /* \"#utility.yul\":5591:5652   */\n      tag_84\n      jump\t// in\n    tag_168:\n        /* \"#utility.yul\":5584:5652   */\n      swap4\n      pop\n        /* \"#utility.yul\":5661:5726   */\n      tag_169\n        /* \"#utility.yul\":5719:5725   */\n      dup2\n        /* \"#utility.yul\":5714:5717   */\n      dup6\n        /* \"#utility.yul\":5707:5711   */\n      0x20\n        /* \"#utility.yul\":5700:5705   */\n      dup7\n        /* \"#utility.yul\":5696:5712   */\n      add\n        /* \"#utility.yul\":5661:5726   */\n      tag_65\n      jump\t// in\n    tag_169:\n        /* \"#utility.yul\":5751:5780   */\n      tag_170\n        /* \"#utility.yul\":5773:5779   */\n      dup2\n        /* \"#utility.yul\":5751:5780   */\n      tag_66\n      jump\t// in\n    tag_170:\n        /* \"#utility.yul\":5746:5749   */\n      dup5\n        /* \"#utility.yul\":5742:5781   */\n      add\n        /* \"#utility.yul\":5735:5781   */\n      swap2\n      pop\n        /* \"#utility.yul\":5512:5787   */\n      pop\n        /* \"#utility.yul\":5430:5787   */\n      swap3\n      swap2\n      pop\n      pop\n      jump\t// out\n        /* \"#utility.yul\":5793:5901   */\n    tag_86:\n        /* \"#utility.yul\":5870:5894   */\n      tag_172\n        /* \"#utility.yul\":5888:5893   */\n      dup2\n        /* \"#utility.yul\":5870:5894   */\n      tag_68\n      jump\t// in\n    tag_172:\n        /* \"#utility.yul\":5865:5868   */\n      dup3\n        /* \"#utility.yul\":5858:5895   */\n      mstore\n        /* \"#utility.yul\":5793:5901   */\n      pop\n      pop\n      jump\t// out\n        /* \"#utility.yul\":5961:6562   */\n    tag_87:\n        /* \"#utility.yul\":6074:6077   */\n      0x00\n        /* \"#utility.yul\":6110:6114   */\n      0x40\n        /* \"#utility.yul\":6105:6108   */\n      dup4\n        /* \"#utility.yul\":6101:6115   */\n      add\n        /* \"#utility.yul\":6197:6201   */\n      0x00\n        /* \"#utility.yul\":6190:6195   */\n      dup4\n        /* \"#utility.yul\":6186:6202   */\n      add\n        /* \"#utility.yul\":6180:6203   */\n      mload\n        /* \"#utility.yul\":6250:6253   */\n      dup5\n        /* \"#utility.yul\":6244:6248   */\n      dup3\n        /* \"#utility.yul\":6240:6254   */\n      sub\n        /* \"#utility.yul\":6233:6237   */\n      0x00\n        /* \"#utility.yul\":6228:6231   */\n      dup7\n        /* \"#utility.yul\":6224:6238   */\n      add\n        /* \"#utility.yul\":6217:6255   */\n      mstore\n        /* \"#utility.yul\":6276:6349   */\n      tag_174\n        /* \"#utility.yul\":6344:6348   */\n      dup3\n        /* \"#utility.yul\":6330:6342   */\n      dup3\n        /* \"#utility.yul\":6276:6349   */\n      tag_85\n      jump\t// in\n    tag_174:\n        /* \"#utility.yul\":6268:6349   */\n      swap2\n      pop\n        /* \"#utility.yul\":6125:6360   */\n      pop\n        /* \"#utility.yul\":6443:6447   */\n      0x20\n        /* \"#utility.yul\":6436:6441   */\n      dup4\n        /* \"#utility.yul\":6432:6448   */\n      add\n        /* \"#utility.yul\":6426:6449   */\n      mload\n        /* \"#utility.yul\":6462:6525   */\n      tag_175\n        /* \"#utility.yul\":6519:6523   */\n      0x20\n        /* \"#utility.yul\":6514:6517   */\n      dup7\n        /* \"#utility.yul\":6510:6524   */\n      add\n        /* \"#utility.yul\":6496:6508   */\n      dup3\n        /* \"#utility.yul\":6462:6525   */\n      tag_86\n      jump\t// in\n    tag_175:\n        /* \"#utility.yul\":6370:6535   */\n      pop\n        /* \"#utility.yul\":6552:6556   */\n      dup1\n        /* \"#utility.yul\":6545:6556   */\n      swap2\n      pop\n        /* \"#utility.yul\":6079:6562   */\n      pop\n        /* \"#utility.yul\":5961:6562   */\n      swap3\n      swap2\n      pop\n      pop\n      jump\t// out\n        /* \"#utility.yul\":6568:6929   */\n    tag_26:\n        /* \"#utility.yul\":6705:6709   */\n      0x00\n        /* \"#utility.yul\":6743:6745   */\n      0x20\n        /* \"#utility.yul\":6732:6741   */\n      dup3\n        /* \"#utility.yul\":6728:6746   */\n      add\n        /* \"#utility.yul\":6720:6746   */\n      swap1\n      pop\n        /* \"#utility.yul\":6792:6801   */\n      dup2\n        /* \"#utility.yul\":6786:6790   */\n      dup2\n        /* \"#utility.yul\":6782:6802   */\n      sub\n        /* \"#utility.yul\":6778:6779   */\n      0x00\n        /* \"#utility.yul\":6767:6776   */\n      dup4\n        /* \"#utility.yul\":6763:6780   */\n      add\n        /* \"#utility.yul\":6756:6803   */\n      mstore\n        /* \"#utility.yul\":6820:6922   */\n      tag_177\n        /* \"#utility.yul\":6917:6921   */\n      dup2\n        /* \"#utility.yul\":6908:6914   */\n      dup5\n        /* \"#utility.yul\":6820:6922   */\n      tag_87\n      jump\t// in\n    tag_177:\n        /* \"#utility.yul\":6812:6922   */\n      swap1\n      pop\n        /* \"#utility.yul\":6568:6929   */\n      swap3\n      swap2\n      pop\n      pop\n      jump\t// out\n        /* \"#utility.yul\":6935:7248   */\n    tag_32:\n        /* \"#utility.yul\":7048:7052   */\n      0x00\n        /* \"#utility.yul\":7086:7088   */\n      0x20\n        /* \"#utility.yul\":7075:7084   */\n      dup3\n        /* \"#utility.yul\":7071:7089   */\n      add\n        /* \"#utility.yul\":7063:7089   */\n      swap1\n      pop\n        /* \"#utility.yul\":7135:7144   */\n      dup2\n        /* \"#utility.yul\":7129:7133   */\n      dup2\n        /* \"#utility.yul\":7125:7145   */\n      sub\n        /* \"#utility.yul\":7121:7122   */\n      0x00\n        /* \"#utility.yul\":7110:7119   */\n      dup4\n        /* \"#utility.yul\":7106:7123   */\n      add\n        /* \"#utility.yul\":7099:7146   */\n      mstore\n        /* \"#utility.yul\":7163:7241   */\n      tag_179\n        /* \"#utility.yul\":7236:7240   */\n      dup2\n        /* \"#utility.yul\":7227:7233   */\n      dup5\n        /* \"#utility.yul\":7163:7241   */\n      tag_67\n      jump\t// in\n    tag_179:\n        /* \"#utility.yul\":7155:7241   */\n      swap1\n      pop\n        /* \"#utility.yul\":6935:7248   */\n      swap3\n      swap2\n      pop\n      pop\n      jump\t// out\n        /* \"#utility.yul\":7254:7434   */\n    tag_88:\n        /* \"#utility.yul\":7302:7379   */\n      0x4e487b7100000000000000000000000000000000000000000000000000000000\n        /* \"#utility.yul\":7299:7300   */\n      0x00\n        /* \"#utility.yul\":7292:7380   */\n      mstore\n        /* \"#utility.yul\":7399:7403   */\n      0x22\n        /* \"#utility.yul\":7396:7397   */\n      0x04\n        /* \"#utility.yul\":7389:7404   */\n      mstore\n        /* \"#utility.yul\":7423:7427   */\n      0x24\n        /* \"#utility.yul\":7420:7421   */\n      0x00\n        /* \"#utility.yul\":7413:7428   */\n      revert\n        /* \"#utility.yul\":7440:7760   */\n    tag_37:\n        /* \"#utility.yul\":7484:7490   */\n      0x00\n        /* \"#utility.yul\":7521:7522   */\n      0x02\n        /* \"#utility.yul\":7515:7519   */\n      dup3\n        /* \"#utility.yul\":7511:7523   */\n      div\n        /* \"#utility.yul\":7501:7523   */\n      swap1\n      pop\n        /* \"#utility.yul\":7568:7569   */\n      0x01\n        /* \"#utility.yul\":7562:7566   */\n      dup3\n        /* \"#utility.yul\":7558:7570   */\n      and\n        /* \"#utility.yul\":7589:7607   */\n      dup1\n        /* \"#utility.yul\":7579:7660   */\n      tag_182\n      jumpi\n        /* \"#utility.yul\":7645:7649   */\n      0x7f\n        /* \"#utility.yul\":7637:7643   */\n      dup3\n        /* \"#utility.yul\":7633:7650   */\n      and\n        /* \"#utility.yul\":7623:7650   */\n      swap2\n      pop\n        /* \"#utility.yul\":7579:7660   */\n    tag_182:\n        /* \"#utility.yul\":7707:7709   */\n      0x20\n        /* \"#utility.yul\":7699:7705   */\n      dup3\n        /* \"#utility.yul\":7696:7710   */\n      lt\n        /* \"#utility.yul\":7676:7694   */\n      dup2\n        /* \"#utility.yul\":7673:7711   */\n      sub\n        /* \"#utility.yul\":7670:7754   */\n      tag_183\n      jumpi\n        /* \"#utility.yul\":7726:7744   */\n      tag_184\n      tag_88\n      jump\t// in\n    tag_184:\n        /* \"#utility.yul\":7670:7754   */\n    tag_183:\n        /* \"#utility.yul\":7491:7760   */\n      pop\n        /* \"#utility.yul\":7440:7760   */\n      swap2\n      swap1\n      pop\n      jump\t// out\n        /* \"#utility.yul\":7766:7907   */\n    tag_89:\n        /* \"#utility.yul\":7815:7819   */\n      0x00\n        /* \"#utility.yul\":7838:7841   */\n      dup2\n        /* \"#utility.yul\":7830:7841   */\n      swap1\n      pop\n        /* \"#utility.yul\":7861:7864   */\n      dup2\n        /* \"#utility.yul\":7858:7859   */\n      0x00\n        /* \"#utility.yul\":7851:7865   */\n      mstore\n        /* \"#utility.yul\":7895:7899   */\n      0x20\n        /* \"#utility.yul\":7892:7893   */\n      0x00\n        /* \"#utility.yul\":7882:7900   */\n      keccak256\n        /* \"#utility.yul\":7874:7900   */\n      swap1\n      pop\n        /* \"#utility.yul\":7766:7907   */\n      swap2\n      swap1\n      pop\n      jump\t// out\n        /* \"#utility.yul\":7913:8006   */\n    tag_90:\n        /* \"#utility.yul\":7950:7956   */\n      0x00\n        /* \"#utility.yul\":7997:7999   */\n      0x20\n        /* \"#utility.yul\":7992:7994   */\n      0x1f\n        /* \"#utility.yul\":7985:7990   */\n      dup4\n        /* \"#utility.yul\":7981:7995   */\n      add\n        /* \"#utility.yul\":7977:8000   */\n      div\n        /* \"#utility.yul\":7967:8000   */\n      swap1\n      pop\n        /* \"#utility.yul\":7913:8006   */\n      swap2\n      swap1\n      pop\n      jump\t// out\n        /* \"#utility.yul\":8012:8119   */\n    tag_91:\n        /* \"#utility.yul\":8056:8064   */\n      0x00\n        /* \"#utility.yul\":8106:8111   */\n      dup3\n        /* \"#utility.yul\":8100:8104   */\n      dup3\n        /* \"#utility.yul\":8096:8112   */\n      shl\n        /* \"#utility.yul\":8075:8112   */\n      swap1\n      pop\n        /* \"#utility.yul\":8012:8119   */\n      swap3\n      swap2\n      pop\n      pop\n      jump\t// out\n        /* \"#utility.yul\":8125:8518   */\n    tag_92:\n        /* \"#utility.yul\":8194:8200   */\n      0x00\n        /* \"#utility.yul\":8244:8245   */\n      0x08\n        /* \"#utility.yul\":8232:8242   */\n      dup4\n        /* \"#utility.yul\":8228:8246   */\n      mul\n        /* \"#utility.yul\":8267:8364   */\n      tag_189\n        /* \"#utility.yul\":8297:8363   */\n      0xffffffffffffffffffffffffffffffffffffffffffffffffffffffffffffffff\n        /* \"#utility.yul\":8286:8295   */\n      dup3\n        /* \"#utility.yul\":8267:8364   */\n      tag_91\n      jump\t// in\n    tag_189:\n        /* \"#utility.yul\":8385:8424   */\n      tag_190\n        /* \"#utility.yul\":8415:8423   */\n      dup7\n        /* \"#utility.yul\":8404:8413   */\n      dup4\n        /* \"#utility.yul\":8385:8424   */\n      tag_91\n      jump\t// in\n    tag_190:\n        /* \"#utility.yul\":8373:8424   */\n      swap6\n      pop\n        /* \"#utility.yul\":8457:8461   */\n      dup1\n        /* \"#utility.yul\":8453:8462   */\n      not\n        /* \"#utility.yul\":8446:8451   */\n      dup5\n        /* \"#utility.yul\":8442:8463   */\n      and\n        /* \"#utility.yul\":8433:8463   */\n      swap4\n      pop\n        /* \"#utility.yul\":8506:8510   */\n      dup1\n        /* \"#utility.yul\":8496:8504   */\n      dup7\n        /* \"#utility.yul\":8492:8511   */\n      and\n        /* \"#utility.yul\":8485:8490   */\n      dup5\n        /* \"#utility.yul\":8482:8512   */\n      or\n        /* \"#utility.yul\":8472:8512   */\n      swap3\n      pop\n        /* \"#utility.yul\":8201:8518   */\n      pop\n      pop\n        /* \"#utility.yul\":8125:8518   */\n      swap4\n      swap3\n      pop\n      pop\n      pop\n      jump\t// out\n        /* \"#utility.yul\":8524:8584   */\n    tag_93:\n        /* \"#utility.yul\":8552:8555   */\n      0x00\n        /* \"#utility.yul\":8573:8578   */\n      dup2\n        /* \"#utility.yul\":8566:8578   */\n      swap1\n      pop\n        /* \"#utility.yul\":8524:8584   */\n      swap2\n      swap1\n      pop\n      jump\t// out\n        /* \"#utility.yul\":8590:8732   */\n    tag_94:\n        /* \"#utility.yul\":8640:8649   */\n      0x00\n        /* \"#utility.yul\":8673:8726   */\n      tag_193\n        /* \"#utility.yul\":8691:8725   */\n      tag_194\n        /* \"#utility.yul\":8700:8724   */\n      tag_195\n        /* \"#utility.yul\":8718:8723   */\n      dup5\n        /* \"#utility.yul\":8700:8724   */\n      tag_68\n      jump\t// in\n    tag_195:\n        /* \"#utility.yul\":8691:8725   */\n      tag_93\n      jump\t// in\n    tag_194:\n        /* \"#utility.yul\":8673:8726   */\n      tag_68\n      jump\t// in\n    tag_193:\n        /* \"#utility.yul\":8660:8726   */\n      swap1\n      pop\n        /* \"#utility.yul\":8590:8732   */\n      swap2\n      swap1\n      pop\n      jump\t// out\n        /* \"#utility.yul\":8738:8813   */\n    tag_95:\n        /* \"#utility.yul\":8781:8784   */\n      0x00\n        /* \"#utility.yul\":8802:8807   */\n      dup2\n        /* \"#utility.yul\":8795:8807   */\n      swap1\n      pop\n        /* \"#utility.yul\":8738:8813   */\n      swap2\n      swap1\n      pop\n      jump\t// out\n        /* \"#utility.yul\":8819:9088   */\n    tag_96:\n        /* \"#utility.yul\":8929:8968   */\n      tag_198\n        /* \"#utility.yul\":8960:8967   */\n      dup4\n        /* \"#utility.yul\":8929:8968   */\n      tag_94\n      jump\t// in\n    tag_198:\n        /* \"#utility.yul\":8990:9081   */\n      tag_199\n        /* \"#utility.yul\":9039:9080   */\n      tag_200\n        /* \"#utility.yul\":9063:9079   */\n      dup3\n        /* \"#utility.yul\":9039:9080   */\n      tag_95\n      jump\t// in\n    tag_200:\n        /* \"#utility.yul\":9031:9037   */\n      dup5\n        /* \"#utility.yul\":9024:9028   */\n      dup5\n        /* \"#utility.yul\":9018:9029   */\n      sload\n        /* \"#utility.yul\":8990:9081   */\n      tag_92\n      jump\t// in\n    tag_199:\n        /* \"#utility.yul\":8984:8988   */\n      dup3\n        /* \"#utility.yul\":8977:9082   */\n      sstore\n        /* \"#utility.yul\":8895:9088   */\n      pop\n        /* \"#utility.yul\":8819:9088   */\n      pop\n      pop\n      pop\n      jump\t// out\n        /* \"#utility.yul\":9094:9167   */\n    tag_97:\n        /* \"#utility.yul\":9139:9142   */\n      0x00\n        /* \"#utility.yul\":9094:9167   */\n      swap1\n      jump\t// out\n        /* \"#utility.yul\":9173:9362   */\n    tag_98:\n        /* \"#utility.yul\":9250:9282   */\n      tag_203\n      tag_97\n      jump\t// in\n    tag_203:\n        /* \"#utility.yul\":9291:9356   */\n      tag_204\n        /* \"#utility.yul\":9349:9355   */\n      dup2\n        /* \"#utility.yul\":9341:9347   */\n      dup5\n        /* \"#utility.yul\":9335:9339   */\n      dup5\n        /* \"#utility.yul\":9291:9356   */\n      tag_96\n      jump\t// in\n    tag_204:\n        /* \"#utility.yul\":9226:9362   */\n      pop\n        /* \"#utility.yul\":9173:9362   */\n      pop\n      pop\n      jump\t// out\n        /* \"#utility.yul\":9368:9554   */\n    tag_99:\n        /* \"#utility.yul\":9428:9548   */\n    tag_206:\n        /* \"#utility.yul\":9445:9448   */\n      dup2\n        /* \"#utility.yul\":9438:9443   */\n      dup2\n        /* \"#utility.yul\":9435:9449   */\n      lt\n        /* \"#utility.yul\":9428:9548   */\n      iszero\n      tag_208\n      jumpi\n        /* \"#utility.yul\":9499:9538   */\n      tag_209\n        /* \"#utility.yul\":9536:9537   */\n      0x00\n        /* \"#utility.yul\":9529:9534   */\n      dup3\n        /* \"#utility.yul\":9499:9538   */\n      tag_98\n      jump\t// in\n    tag_209:\n        /* \"#utility.yul\":9472:9473   */\n      0x01\n        /* \"#utility.yul\":9465:9470   */\n      dup2\n        /* \"#utility.yul\":9461:9474   */\n      add\n        /* \"#utility.yul\":9452:9474   */\n      swap1\n      pop\n        /* \"#utility.yul\":9428:9548   */\n      jump(tag_206)\n    tag_208:\n        /* \"#utility.yul\":9368:9554   */\n      pop\n      pop\n      jump\t// out\n        /* \"#utility.yul\":9560:10103   */\n    tag_100:\n        /* \"#utility.yul\":9661:9663   */\n      0x1f\n        /* \"#utility.yul\":9656:9659   */\n      dup3\n        /* \"#utility.yul\":9653:9664   */\n      gt\n        /* \"#utility.yul\":9650:10096   */\n      iszero\n      tag_211\n      jumpi\n        /* \"#utility.yul\":9695:9733   */\n      tag_212\n        /* \"#utility.yul\":9727:9732   */\n      dup2\n        /* \"#utility.yul\":9695:9733   */\n      tag_89\n      jump\t// in\n    tag_212:\n        /* \"#utility.yul\":9779:9808   */\n      tag_213\n        /* \"#utility.yul\":9797:9807   */\n      dup5\n        /* \"#utility.yul\":9779:9808   */\n      tag_90\n      jump\t// in\n    tag_213:\n        /* \"#utility.yul\":9769:9777   */\n      dup2\n        /* \"#utility.yul\":9765:9809   */\n      add\n        /* \"#utility.yul\":9962:9964   */\n      0x20\n        /* \"#utility.yul\":9950:9960   */\n      dup6\n        /* \"#utility.yul\":9947:9965   */\n      lt\n        /* \"#utility.yul\":9944:9993   */\n      iszero\n      tag_214\n      jumpi\n        /* \"#utility.yul\":9983:9991   */\n      dup2\n        /* \"#utility.yul\":9968:9991   */\n      swap1\n      pop\n        /* \"#utility.yul\":9944:9993   */\n    tag_214:\n        /* \"#utility.yul\":10006:10086   */\n      tag_215\n        /* \"#utility.yul\":10062:10084   */\n      tag_216\n        /* \"#utility.yul\":10080:10083   */\n      dup6\n        /* \"#utility.yul\":10062:10084   */\n      tag_90\n      jump\t// in\n    tag_216:\n        /* \"#utility.yul\":10052:10060   */\n      dup4\n        /* \"#utility.yul\":10048:10085   */\n      add\n        /* \"#utility.yul\":10035:10046   */\n      dup3\n        /* \"#utility.yul\":10006:10086   */\n      tag_99\n      jump\t// in\n    tag_215:\n        /* \"#utility.yul\":9665:10096   */\n      pop\n      pop\n        /* \"#utility.yul\":9650:10096   */\n    tag_211:\n        /* \"#utility.yul\":9560:10103   */\n      pop\n      pop\n      pop\n      jump\t// out\n        /* \"#utility.yul\":10109:10226   */\n    tag_101:\n        /* \"#utility.yul\":10163:10171   */\n      0x00\n        /* \"#utility.yul\":10213:10218   */\n      dup3\n        /* \"#utility.yul\":10207:10211   */\n      dup3\n        /* \"#utility.yul\":10203:10219   */\n      shr\n        /* \"#utility.yul\":10182:10219   */\n      swap1\n      pop\n        /* \"#utility.yul\":10109:10226   */\n      swap3\n      swap2\n      pop\n      pop\n      jump\t// out\n        /* \"#utility.yul\":10232:10401   */\n    tag_102:\n        /* \"#utility.yul\":10276:10282   */\n      0x00\n        /* \"#utility.yul\":10309:10360   */\n      tag_219\n        /* \"#utility.yul\":10357:10358   */\n      0x00\n        /* \"#utility.yul\":10353:10359   */\n      not\n        /* \"#utility.yul\":10345:10350   */\n      dup5\n        /* \"#utility.yul\":10342:10343   */\n      0x08\n        /* \"#utility.yul\":10338:10351   */\n      mul\n        /* \"#utility.yul\":10309:10360   */\n      tag_101\n      jump\t// in\n    tag_219:\n        /* \"#utility.yul\":10305:10361   */\n      not\n        /* \"#utility.yul\":10390:10394   */\n      dup1\n        /* \"#utility.yul\":10384:10388   */\n      dup4\n        /* \"#utility.yul\":10380:10395   */\n      and\n        /* \"#utility.yul\":10370:10395   */\n      swap2\n      pop\n        /* \"#utility.yul\":10283:10401   */\n      pop\n        /* \"#utility.yul\":10232:10401   */\n      swap3\n      swap2\n      pop\n      pop\n      jump\t// out\n        /* \"#utility.yul\":10406:10701   */\n    tag_103:\n        /* \"#utility.yul\":10482:10486   */\n      0x00\n        /* \"#utility.yul\":10628:10657   */\n      tag_221\n        /* \"#utility.yul\":10653:10656   */\n      dup4\n        /* \"#utility.yul\":10647:10651   */\n      dup4\n        /* \"#utility.yul\":10628:10657   */\n      tag_102\n      jump\t// in\n    tag_221:\n        /* \"#utility.yul\":10620:10657   */\n      swap2\n      pop\n        /* \"#utility.yul\":10690:10693   */\n      dup3\n        /* \"#utility.yul\":10687:10688   */\n      0x02\n        /* \"#utility.yul\":10683:10694   */\n      mul\n        /* \"#utility.yul\":10677:10681   */\n      dup3\n        /* \"#utility.yul\":10674:10695   */\n      or\n        /* \"#utility.yul\":10666:10695   */\n      swap1\n      pop\n        /* \"#utility.yul\":10406:10701   */\n      swap3\n      swap2\n      pop\n      pop\n      jump\t// out\n        /* \"#utility.yul\":10706:12101   */\n    tag_44:\n        /* \"#utility.yul\":10823:10860   */\n      tag_223\n        /* \"#utility.yul\":10856:10859   */\n      dup3\n        /* \"#utility.yul\":10823:10860   */\n      tag_63\n      jump\t// in\n    tag_223:\n        /* \"#utility.yul\":10925:10943   */\n      0xffffffffffffffff\n        /* \"#utility.yul\":10917:10923   */\n      dup2\n        /* \"#utility.yul\":10914:10944   */\n      gt\n        /* \"#utility.yul\":10911:10967   */\n      iszero\n      tag_224\n      jumpi\n        /* \"#utility.yul\":10947:10965   */\n      tag_225\n      tag_75\n      jump\t// in\n    tag_225:\n        /* \"#utility.yul\":10911:10967   */\n    tag_224:\n        /* \"#utility.yul\":10991:11029   */\n      tag_226\n        /* \"#utility.yul\":11023:11027   */\n      dup3\n        /* \"#utility.yul\":11017:11028   */\n      sload\n        /* \"#utility.yul\":10991:11029   */\n      tag_37\n      jump\t// in\n    tag_226:\n        /* \"#utility.yul\":11076:11143   */\n      tag_227\n        /* \"#utility.yul\":11136:11142   */\n      dup3\n        /* \"#utility.yul\":11128:11134   */\n      dup3\n        /* \"#utility.yul\":11122:11126   */\n      dup6\n        /* \"#utility.yul\":11076:11143   */\n      tag_100\n      jump\t// in\n    tag_227:\n        /* \"#utility.yul\":11170:11171   */\n      0x00\n        /* \"#utility.yul\":11194:11198   */\n      0x20\n        /* \"#utility.yul\":11181:11198   */\n      swap1\n      pop\n        /* \"#utility.yul\":11226:11228   */\n      0x1f\n        /* \"#utility.yul\":11218:11224   */\n      dup4\n        /* \"#utility.yul\":11215:11229   */\n      gt\n        /* \"#utility.yul\":11243:11244   */\n      0x01\n        /* \"#utility.yul\":11238:11856   */\n      dup2\n      eq\n      tag_229\n      jumpi\n        /* \"#utility.yul\":11900:11901   */\n      0x00\n        /* \"#utility.yul\":11917:11923   */\n      dup5\n        /* \"#utility.yul\":11914:11991   */\n      iszero\n      tag_230\n      jumpi\n        /* \"#utility.yul\":11966:11975   */\n      dup3\n        /* \"#utility.yul\":11961:11964   */\n      dup8\n        /* \"#utility.yul\":11957:11976   */\n      add\n        /* \"#utility.yul\":11951:11977   */\n      mload\n        /* \"#utility.yul\":11942:11977   */\n      swap1\n      pop\n        /* \"#utility.yul\":11914:11991   */\n    tag_230:\n        /* \"#utility.yul\":12017:12084   */\n      tag_231\n        /* \"#utility.yul\":12077:12083   */\n      dup6\n        /* \"#utility.yul\":12070:12075   */\n      dup3\n        /* \"#utility.yul\":12017:12084   */\n      tag_103\n      jump\t// in\n    tag_231:\n        /* \"#utility.yul\":12011:12015   */\n      dup7\n        /* \"#utility.yul\":12004:12085   */\n      sstore\n        /* \"#utility.yul\":11873:12095   */\n      pop\n        /* \"#utility.yul\":11208:12095   */\n      jump(tag_228)\n        /* \"#utility.yul\":11238:11856   */\n    tag_229:\n        /* \"#utility.yul\":11290:11294   */\n      0x1f\n        /* \"#utility.yul\":11286:11295   */\n      not\n        /* \"#utility.yul\":11278:11284   */\n      dup5\n        /* \"#utility.yul\":11274:11296   */\n      and\n        /* \"#utility.yul\":11324:11361   */\n      tag_232\n        /* \"#utility.yul\":11356:11360   */\n      dup7\n        /* \"#utility.yul\":11324:11361   */\n      tag_89\n      jump\t// in\n    tag_232:\n        /* \"#utility.yul\":11383:11384   */\n      0x00\n        /* \"#utility.yul\":11397:11605   */\n    tag_233:\n        /* \"#utility.yul\":11411:11418   */\n      dup3\n        /* \"#utility.yul\":11408:11409   */\n      dup2\n        /* \"#utility.yul\":11405:11419   */\n      lt\n        /* \"#utility.yul\":11397:11605   */\n      iszero\n      tag_235\n      jumpi\n        /* \"#utility.yul\":11490:11499   */\n      dup5\n        /* \"#utility.yul\":11485:11488   */\n      dup10\n        /* \"#utility.yul\":11481:11500   */\n      add\n        /* \"#utility.yul\":11475:11501   */\n      mload\n        /* \"#utility.yul\":11467:11473   */\n      dup3\n        /* \"#utility.yul\":11460:11502   */\n      sstore\n        /* \"#utility.yul\":11541:11542   */\n      0x01\n        /* \"#utility.yul\":11533:11539   */\n      dup3\n        /* \"#utility.yul\":11529:11543   */\n      add\n        /* \"#utility.yul\":11519:11543   */\n      swap2\n      pop\n        /* \"#utility.yul\":11588:11590   */\n      0x20\n        /* \"#utility.yul\":11577:11586   */\n      dup6\n        /* \"#utility.yul\":11573:11591   */\n      add\n        /* \"#utility.yul\":11560:11591   */\n      swap5\n      pop\n        /* \"#utility.yul\":11434:11438   */\n      0x20\n        /* \"#utility.yul\":11431:11432   */\n      dup2\n        /* \"#utility.yul\":11427:11439   */\n      add\n        /* \"#utility.yul\":11422:11439   */\n      swap1\n      pop\n        /* \"#utility.yul\":11397:11605   */\n      jump(tag_233)\n    tag_235:\n        /* \"#utility.yul\":11633:11639   */\n      dup7\n        /* \"#utility.yul\":11624:11631   */\n      dup4\n        /* \"#utility.yul\":11621:11640   */\n      lt\n        /* \"#utility.yul\":11618:11797   */\n      iszero\n      tag_236\n      jumpi\n        /* \"#utility.yul\":11691:11700   */\n      dup5\n        /* \"#utility.yul\":11686:11689   */\n      dup10\n        /* \"#utility.yul\":11682:11701   */\n      add\n        /* \"#utility.yul\":11676:11702   */\n      mload\n        /* \"#utility.yul\":11734:11782   */\n      tag_237\n        /* \"#utility.yul\":11776:11780   */\n      0x1f\n        /* \"#utility.yul\":11768:11774   */\n      dup10\n        /* \"#utility.yul\":11764:11781   */\n      and\n        /* \"#utility.yul\":11753:11762   */\n      dup3\n        /* \"#utility.yul\":11734:11782   */\n      tag_102\n      jump\t// in\n    tag_237:\n        /* \"#utility.yul\":11726:11732   */\n      dup4\n        /* \"#utility.yul\":11719:11783   */\n      sstore\n        /* \"#utility.yul\":11641:11797   */\n      pop\n        /* \"#utility.yul\":11618:11797   */\n    tag_236:\n        /* \"#utility.yul\":11843:11844   */\n      0x01\n        /* \"#utility.yul\":11839:11840   */\n      0x02\n        /* \"#utility.yul\":11831:11837   */\n      dup9\n        /* \"#utility.yul\":11827:11841   */\n      mul\n        /* \"#utility.yul\":11823:11845   */\n      add\n        /* \"#utility.yul\":11817:11821   */\n      dup9\n        /* \"#utility.yul\":11810:11846   */\n      sstore\n        /* \"#utility.yul\":11245:11856   */\n      pop\n      pop\n      pop\n        /* \"#utility.yul\":11208:12095   */\n    tag_228:\n      pop\n        /* \"#utility.yul\":10798:12101   */\n      pop\n      pop\n      pop\n        /* \"#utility.yul\":10706:12101   */\n      pop\n      pop\n      jump\t// out\n\n    auxdata: 0xa2646970667358221220a2c549c23f045513ff56389109049f62217377b6f0ea0aa7a88552ba03573eaf64736f6c63430008120033\n}\n",
				"bytecode": {
					"linkReferences": {},
					"object": "608060405234801561001057600080fd5b506103e8600281905550610a9f806100296000396000f3fe608060405234801561001057600080fd5b506004361061007d5760003560e01c8063512c009a1161005b578063512c009a146100db57806380145671146100f9578063b4d9246914610103578063cbf2dabb146101215761007d565b806320e6984a14610082578063216dbcaf146100a157806340b2b8ea146100bd575b600080fd5b61008a61013f565b604051610098929190610495565b60405180910390f35b6100bb60048036038101906100b6919061063a565b6101d9565b005b6100c56101f9565b6040516100d29190610696565b60405180910390f35b6100e36101ff565b6040516100f09190610747565b60405180910390f35b6101016102b5565b005b61010b610332565b6040516101189190610769565b60405180910390f35b6101296103c6565b6040516101369190610696565b60405180910390f35b6000806000018054610150906107ba565b80601f016020809104026020016040519081016040528092919081815260200182805461017c906107ba565b80156101c95780601f1061019e576101008083540402835291602001916101c9565b820191906000526020600020905b8154815290600101906020018083116101ac57829003601f168201915b5050505050908060010154905082565b816000800190816101ea9190610997565b50806000600101819055505050565b60025481565b6102076103d2565b6000604051806040016040529081600082018054610224906107ba565b80601f0160208091040260200160405190810160405280929190818152602001828054610250906107ba565b801561029d5780601f106102725761010080835404028352916020019161029d565b820191906000526020600020905b81548152906001019060200180831161028057829003601f168201915b50505050508152602001600182015481525050905090565b6102bd6103d2565b60405180604001604052806040518060400160405280600481526020017f746f7931000000000000000000000000000000000000000000000000000000008152508152602001600a8152509050806000808201518160000190816103219190610997565b506020820151816001015590505050565b6060600080018054610343906107ba565b80601f016020809104026020016040519081016040528092919081815260200182805461036f906107ba565b80156103bc5780601f10610391576101008083540402835291602001916103bc565b820191906000526020600020905b81548152906001019060200180831161039f57829003601f168201915b5050505050905090565b60008060010154905090565b604051806040016040528060608152602001600081525090565b600081519050919050565b600082825260208201905092915050565b60005b8381101561042657808201518184015260208101905061040b565b60008484015250505050565b6000601f19601f8301169050919050565b600061044e826103ec565b61045881856103f7565b9350610468818560208601610408565b61047181610432565b840191505092915050565b6000819050919050565b61048f8161047c565b82525050565b600060408201905081810360008301526104af8185610443565b90506104be6020830184610486565b9392505050565b6000604051905090565b600080fd5b600080fd5b600080fd5b600080fd5b7f4e487b7100000000000000000000000000000000000000000000000000000000600052604160045260246000fd5b61051b82610432565b810181811067ffffffffffffffff8211171561053a576105396104e3565b5b80604052505050565b600061054d6104c5565b90506105598282610512565b919050565b600067ffffffffffffffff821115610579576105786104e3565b5b61058282610432565b9050602081019050919050565b82818337600083830152505050565b60006105b16105ac8461055e565b610543565b9050828152602081018484840111156105cd576105cc6104de565b5b6105d884828561058f565b509392505050565b600082601f8301126105f5576105f46104d9565b5b813561060584826020860161059e565b91505092915050565b6106178161047c565b811461062257600080fd5b50565b6000813590506106348161060e565b92915050565b60008060408385031215610651576106506104cf565b5b600083013567ffffffffffffffff81111561066f5761066e6104d4565b5b61067b858286016105e0565b925050602061068c85828601610625565b9150509250929050565b60006020820190506106ab6000830184610486565b92915050565b600082825260208201905092915050565b60006106cd826103ec565b6106d781856106b1565b93506106e7818560208601610408565b6106f081610432565b840191505092915050565b6107048161047c565b82525050565b6000604083016000830151848203600086015261072782826106c2565b915050602083015161073c60208601826106fb565b508091505092915050565b60006020820190508181036000830152610761818461070a565b905092915050565b600060208201905081810360008301526107838184610443565b905092915050565b7f4e487b7100000000000000000000000000000000000000000000000000000000600052602260045260246000fd5b600060028204905060018216806107d257607f821691505b6020821081036107e5576107e461078b565b5b50919050565b60008190508160005260206000209050919050565b60006020601f8301049050919050565b600082821b905092915050565b60006008830261084d7fffffffffffffffffffffffffffffffffffffffffffffffffffffffffffffffff82610810565b6108578683610810565b95508019841693508086168417925050509392505050565b6000819050919050565b600061089461088f61088a8461047c565b61086f565b61047c565b9050919050565b6000819050919050565b6108ae83610879565b6108c26108ba8261089b565b84845461081d565b825550505050565b600090565b6108d76108ca565b6108e28184846108a5565b505050565b5b81811015610906576108fb6000826108cf565b6001810190506108e8565b5050565b601f82111561094b5761091c816107eb565b61092584610800565b81016020851015610934578190505b61094861094085610800565b8301826108e7565b50505b505050565b600082821c905092915050565b600061096e60001984600802610950565b1980831691505092915050565b6000610987838361095d565b9150826002028217905092915050565b6109a0826103ec565b67ffffffffffffffff8111156109b9576109b86104e3565b5b6109c382546107ba565b6109ce82828561090a565b600060209050601f831160018114610a0157600084156109ef578287015190505b6109f9858261097b565b865550610a61565b601f198416610a0f866107eb565b60005b82811015610a3757848901518255600182019150602085019450602081019050610a12565b86831015610a545784890151610a50601f89168261095d565b8355505b6001600288020188555050505b50505050505056fea2646970667358221220a2c549c23f045513ff56389109049f62217377b6f0ea0aa7a88552ba03573eaf64736f6c63430008120033",
					"opcodes": "PUSH1 0x80 PUSH1 0x40 MSTORE CALLVALUE DUP1 ISZERO PUSH2 0x10 JUMPI PUSH1 0x0 DUP1 REVERT JUMPDEST POP PUSH2 0x3E8 PUSH1 0x2 DUP2 SWAP1 SSTORE POP PUSH2 0xA9F DUP1 PUSH2 0x29 PUSH1 0x0 CODECOPY PUSH1 0x0 RETURN INVALID PUSH1 0x80 PUSH1 0x40 MSTORE CALLVALUE DUP1 ISZERO PUSH2 0x10 JUMPI PUSH1 0x0 DUP1 REVERT JUMPDEST POP PUSH1 0x4 CALLDATASIZE LT PUSH2 0x7D JUMPI PUSH1 0x0 CALLDATALOAD PUSH1 0xE0 SHR DUP1 PUSH4 0x512C009A GT PUSH2 0x5B JUMPI DUP1 PUSH4 0x512C009A EQ PUSH2 0xDB JUMPI DUP1 PUSH4 0x80145671 EQ PUSH2 0xF9 JUMPI DUP1 PUSH4 0xB4D92469 EQ PUSH2 0x103 JUMPI DUP1 PUSH4 0xCBF2DABB EQ PUSH2 0x121 JUMPI PUSH2 0x7D JUMP JUMPDEST DUP1 PUSH4 0x20E6984A EQ PUSH2 0x82 JUMPI DUP1 PUSH4 0x216DBCAF EQ PUSH2 0xA1 JUMPI DUP1 PUSH4 0x40B2B8EA EQ PUSH2 0xBD JUMPI JUMPDEST PUSH1 0x0 DUP1 REVERT JUMPDEST PUSH2 0x8A PUSH2 0x13F JUMP JUMPDEST PUSH1 0x40 MLOAD PUSH2 0x98 SWAP3 SWAP2 SWAP1 PUSH2 0x495 JUMP JUMPDEST PUSH1 0x40 MLOAD DUP1 SWAP2 SUB SWAP1 RETURN JUMPDEST PUSH2 0xBB PUSH1 0x4 DUP1 CALLDATASIZE SUB DUP2 ADD SWAP1 PUSH2 0xB6 SWAP2 SWAP1 PUSH2 0x63A JUMP JUMPDEST PUSH2 0x1D9 JUMP JUMPDEST STOP JUMPDEST PUSH2 0xC5 PUSH2 0x1F9 JUMP JUMPDEST PUSH1 0x40 MLOAD PUSH2 0xD2 SWAP2 SWAP1 PUSH2 0x696 JUMP JUMPDEST PUSH1 0x40 MLOAD DUP1 SWAP2 SUB SWAP1 RETURN JUMPDEST PUSH2 0xE3 PUSH2 0x1FF JUMP JUMPDEST PUSH1 0x40 MLOAD PUSH2 0xF0 SWAP2 SWAP1 PUSH2 0x747 JUMP JUMPDEST PUSH1 0x40 MLOAD DUP1 SWAP2 SUB SWAP1 RETURN JUMPDEST PUSH2 0x101 PUSH2 0x2B5 JUMP JUMPDEST STOP JUMPDEST PUSH2 0x10B PUSH2 0x332 JUMP JUMPDEST PUSH1 0x40 MLOAD PUSH2 0x118 SWAP2 SWAP1 PUSH2 0x769 JUMP JUMPDEST PUSH1 0x40 MLOAD DUP1 SWAP2 SUB SWAP1 RETURN JUMPDEST PUSH2 0x129 PUSH2 0x3C6 JUMP JUMPDEST PUSH1 0x40 MLOAD PUSH2 0x136 SWAP2 SWAP1 PUSH2 0x696 JUMP JUMPDEST PUSH1 0x40 MLOAD DUP1 SWAP2 SUB SWAP1 RETURN JUMPDEST PUSH1 0x0 DUP1 PUSH1 0x0 ADD DUP1 SLOAD PUSH2 0x150 SWAP1 PUSH2 0x7BA JUMP JUMPDEST DUP1 PUSH1 0x1F ADD PUSH1 0x20 DUP1 SWAP2 DIV MUL PUSH1 0x20 ADD PUSH1 0x40 MLOAD SWAP1 DUP2 ADD PUSH1 0x40 MSTORE DUP1 SWAP3 SWAP2 SWAP1 DUP2 DUP2 MSTORE PUSH1 0x20 ADD DUP3 DUP1 SLOAD PUSH2 0x17C SWAP1 PUSH2 0x7BA JUMP JUMPDEST DUP1 ISZERO PUSH2 0x1C9 JUMPI DUP1 PUSH1 0x1F LT PUSH2 0x19E JUMPI PUSH2 0x100 DUP1 DUP4 SLOAD DIV MUL DUP4 MSTORE SWAP2 PUSH1 0x20 ADD SWAP2 PUSH2 0x1C9 JUMP JUMPDEST DUP3 ADD SWAP2 SWAP1 PUSH1 0x0 MSTORE PUSH1 0x20 PUSH1 0x0 KECCAK256 SWAP1 JUMPDEST DUP2 SLOAD DUP2 MSTORE SWAP1 PUSH1 0x1 ADD SWAP1 PUSH1 0x20 ADD DUP1 DUP4 GT PUSH2 0x1AC JUMPI DUP3 SWAP1 SUB PUSH1 0x1F AND DUP3 ADD SWAP2 JUMPDEST POP POP POP POP POP SWAP1 DUP1 PUSH1 0x1 ADD SLOAD SWAP1 POP DUP3 JUMP JUMPDEST DUP2 PUSH1 0x0 DUP1 ADD SWAP1 DUP2 PUSH2 0x1EA SWAP2 SWAP1 PUSH2 0x997 JUMP JUMPDEST POP DUP1 PUSH1 0x0 PUSH1 0x1 ADD DUP2 SWAP1 SSTORE POP POP POP JUMP JUMPDEST PUSH1 0x2 SLOAD DUP2 JUMP JUMPDEST PUSH2 0x207 PUSH2 0x3D2 JUMP JUMPDEST PUSH1 0x0 PUSH1 0x40 MLOAD DUP1 PUSH1 0x40 ADD PUSH1 0x40 MSTORE SWAP1 DUP2 PUSH1 0x0 DUP3 ADD DUP1 SLOAD PUSH2 0x224 SWAP1 PUSH2 0x7BA JUMP JUMPDEST DUP1 PUSH1 0x1F ADD PUSH1 0x20 DUP1 SWAP2 DIV MUL PUSH1 0x20 ADD PUSH1 0x40 MLOAD SWAP1 DUP2 ADD PUSH1 0x40 MSTORE DUP1 SWAP3 SWAP2 SWAP1 DUP2 DUP2 MSTORE PUSH1 0x20 ADD DUP3 DUP1 SLOAD PUSH2 0x250 SWAP1 PUSH2 0x7BA JUMP JUMPDEST DUP1 ISZERO PUSH2 0x29D JUMPI DUP1 PUSH1 0x1F LT PUSH2 0x272 JUMPI PUSH2 0x100 DUP1 DUP4 SLOAD DIV MUL DUP4 MSTORE SWAP2 PUSH1 0x20 ADD SWAP2 PUSH2 0x29D JUMP JUMPDEST DUP3 ADD SWAP2 SWAP1 PUSH1 0x0 MSTORE PUSH1 0x20 PUSH1 0x0 KECCAK256 SWAP1 JUMPDEST DUP2 SLOAD DUP2 MSTORE SWAP1 PUSH1 0x1 ADD SWAP1 PUSH1 0x20 ADD DUP1 DUP4 GT PUSH2 0x280 JUMPI DUP3 SWAP1 SUB PUSH1 0x1F AND DUP3 ADD SWAP2 JUMPDEST POP POP POP POP POP DUP2 MSTORE PUSH1 0x20 ADD PUSH1 0x1 DUP3 ADD SLOAD DUP2 MSTORE POP POP SWAP1 POP SWAP1 JUMP JUMPDEST PUSH2 0x2BD PUSH2 0x3D2 JUMP JUMPDEST PUSH1 0x40 MLOAD DUP1 PUSH1 0x40 ADD PUSH1 0x40 MSTORE DUP1 PUSH1 0x40 MLOAD DUP1 PUSH1 0x40 ADD PUSH1 0x40 MSTORE DUP1 PUSH1 0x4 DUP2 MSTORE PUSH1 0x20 ADD PUSH32 0x746F793100000000000000000000000000000000000000000000000000000000 DUP2 MSTORE POP DUP2 MSTORE PUSH1 0x20 ADD PUSH1 0xA DUP2 MSTORE POP SWAP1 POP DUP1 PUSH1 0x0 DUP1 DUP3 ADD MLOAD DUP2 PUSH1 0x0 ADD SWAP1 DUP2 PUSH2 0x321 SWAP2 SWAP1 PUSH2 0x997 JUMP JUMPDEST POP PUSH1 0x20 DUP3 ADD MLOAD DUP2 PUSH1 0x1 ADD SSTORE SWAP1 POP POP POP JUMP JUMPDEST PUSH1 0x60 PUSH1 0x0 DUP1 ADD DUP1 SLOAD PUSH2 0x343 SWAP1 PUSH2 0x7BA JUMP JUMPDEST DUP1 PUSH1 0x1F ADD PUSH1 0x20 DUP1 SWAP2 DIV MUL PUSH1 0x20 ADD PUSH1 0x40 MLOAD SWAP1 DUP2 ADD PUSH1 0x40 MSTORE DUP1 SWAP3 SWAP2 SWAP1 DUP2 DUP2 MSTORE PUSH1 0x20 ADD DUP3 DUP1 SLOAD PUSH2 0x36F SWAP1 PUSH2 0x7BA JUMP JUMPDEST DUP1 ISZERO PUSH2 0x3BC JUMPI DUP1 PUSH1 0x1F LT PUSH2 0x391 JUMPI PUSH2 0x100 DUP1 DUP4 SLOAD DIV MUL DUP4 MSTORE SWAP2 PUSH1 0x20 ADD SWAP2 PUSH2 0x3BC JUMP JUMPDEST DUP3 ADD SWAP2 SWAP1 PUSH1 0x0 MSTORE PUSH1 0x20 PUSH1 0x0 KECCAK256 SWAP1 JUMPDEST DUP2 SLOAD DUP2 MSTORE SWAP1 PUSH1 0x1 ADD SWAP1 PUSH1 0x20 ADD DUP1 DUP4 GT PUSH2 0x39F JUMPI DUP3 SWAP1 SUB PUSH1 0x1F AND DUP3 ADD SWAP2 JUMPDEST POP POP POP POP POP SWAP1 POP SWAP1 JUMP JUMPDEST PUSH1 0x0 DUP1 PUSH1 0x1 ADD SLOAD SWAP1 POP SWAP1 JUMP JUMPDEST PUSH1 0x40 MLOAD DUP1 PUSH1 0x40 ADD PUSH1 0x40 MSTORE DUP1 PUSH1 0x60 DUP2 MSTORE PUSH1 0x20 ADD PUSH1 0x0 DUP2 MSTORE POP SWAP1 JUMP JUMPDEST PUSH1 0x0 DUP2 MLOAD SWAP1 POP SWAP2 SWAP1 POP JUMP JUMPDEST PUSH1 0x0 DUP3 DUP3 MSTORE PUSH1 0x20 DUP3 ADD SWAP1 POP SWAP3 SWAP2 POP POP JUMP JUMPDEST PUSH1 0x0 JUMPDEST DUP4 DUP2 LT ISZERO PUSH2 0x426 JUMPI DUP1 DUP3 ADD MLOAD DUP2 DUP5 ADD MSTORE PUSH1 0x20 DUP2 ADD SWAP1 POP PUSH2 0x40B JUMP JUMPDEST PUSH1 0x0 DUP5 DUP5 ADD MSTORE POP POP POP POP JUMP JUMPDEST PUSH1 0x0 PUSH1 0x1F NOT PUSH1 0x1F DUP4 ADD AND SWAP1 POP SWAP2 SWAP1 POP JUMP JUMPDEST PUSH1 0x0 PUSH2 0x44E DUP3 PUSH2 0x3EC JUMP JUMPDEST PUSH2 0x458 DUP2 DUP6 PUSH2 0x3F7 JUMP JUMPDEST SWAP4 POP PUSH2 0x468 DUP2 DUP6 PUSH1 0x20 DUP7 ADD PUSH2 0x408 JUMP JUMPDEST PUSH2 0x471 DUP2 PUSH2 0x432 JUMP JUMPDEST DUP5 ADD SWAP2 POP POP SWAP3 SWAP2 POP POP JUMP JUMPDEST PUSH1 0x0 DUP2 SWAP1 POP SWAP2 SWAP1 POP JUMP JUMPDEST PUSH2 0x48F DUP2 PUSH2 0x47C JUMP JUMPDEST DUP3 MSTORE POP POP JUMP JUMPDEST PUSH1 0x0 PUSH1 0x40 DUP3 ADD SWAP1 POP DUP2 DUP2 SUB PUSH1 0x0 DUP4 ADD MSTORE PUSH2 0x4AF DUP2 DUP6 PUSH2 0x443 JUMP JUMPDEST SWAP1 POP PUSH2 0x4BE PUSH1 0x20 DUP4 ADD DUP5 PUSH2 0x486 JUMP JUMPDEST SWAP4 SWAP3 POP POP POP JUMP JUMPDEST PUSH1 0x0 PUSH1 0x40 MLOAD SWAP1 POP SWAP1 JUMP JUMPDEST PUSH1 0x0 DUP1 REVERT JUMPDEST PUSH1 0x0 DUP1 REVERT JUMPDEST PUSH1 0x0 DUP1 REVERT JUMPDEST PUSH1 0x0 DUP1 REVERT JUMPDEST PUSH32 0x4E487B7100000000000000000000000000000000000000000000000000000000 PUSH1 0x0 MSTORE PUSH1 0x41 PUSH1 0x4 MSTORE PUSH1 0x24 PUSH1 0x0 REVERT JUMPDEST PUSH2 0x51B DUP3 PUSH2 0x432 JUMP JUMPDEST DUP2 ADD DUP2 DUP2 LT PUSH8 0xFFFFFFFFFFFFFFFF DUP3 GT OR ISZERO PUSH2 0x53A JUMPI PUSH2 0x539 PUSH2 0x4E3 JUMP JUMPDEST JUMPDEST DUP1 PUSH1 0x40 MSTORE POP POP POP JUMP JUMPDEST PUSH1 0x0 PUSH2 0x54D PUSH2 0x4C5 JUMP JUMPDEST SWAP1 POP PUSH2 0x559 DUP3 DUP3 PUSH2 0x512 JUMP JUMPDEST SWAP2 SWAP1 POP JUMP JUMPDEST PUSH1 0x0 PUSH8 0xFFFFFFFFFFFFFFFF DUP3 GT ISZERO PUSH2 0x579 JUMPI PUSH2 0x578 PUSH2 0x4E3 JUMP JUMPDEST JUMPDEST PUSH2 0x582 DUP3 PUSH2 0x432 JUMP JUMPDEST SWAP1 POP PUSH1 0x20 DUP2 ADD SWAP1 POP SWAP2 SWAP1 POP JUMP JUMPDEST DUP3 DUP2 DUP4 CALLDATACOPY PUSH1 0x0 DUP4 DUP4 ADD MSTORE POP POP POP JUMP JUMPDEST PUSH1 0x0 PUSH2 0x5B1 PUSH2 0x5AC DUP5 PUSH2 0x55E JUMP JUMPDEST PUSH2 0x543 JUMP JUMPDEST SWAP1 POP DUP3 DUP2 MSTORE PUSH1 0x20 DUP2 ADD DUP5 DUP5 DUP5 ADD GT ISZERO PUSH2 0x5CD JUMPI PUSH2 0x5CC PUSH2 0x4DE JUMP JUMPDEST JUMPDEST PUSH2 0x5D8 DUP5 DUP3 DUP6 PUSH2 0x58F JUMP JUMPDEST POP SWAP4 SWAP3 POP POP POP JUMP JUMPDEST PUSH1 0x0 DUP3 PUSH1 0x1F DUP4 ADD SLT PUSH2 0x5F5 JUMPI PUSH2 0x5F4 PUSH2 0x4D9 JUMP JUMPDEST JUMPDEST DUP2 CALLDATALOAD PUSH2 0x605 DUP5 DUP3 PUSH1 0x20 DUP7 ADD PUSH2 0x59E JUMP JUMPDEST SWAP2 POP POP SWAP3 SWAP2 POP POP JUMP JUMPDEST PUSH2 0x617 DUP2 PUSH2 0x47C JUMP JUMPDEST DUP2 EQ PUSH2 0x622 JUMPI PUSH1 0x0 DUP1 REVERT JUMPDEST POP JUMP JUMPDEST PUSH1 0x0 DUP2 CALLDATALOAD SWAP1 POP PUSH2 0x634 DUP2 PUSH2 0x60E JUMP JUMPDEST SWAP3 SWAP2 POP POP JUMP JUMPDEST PUSH1 0x0 DUP1 PUSH1 0x40 DUP4 DUP6 SUB SLT ISZERO PUSH2 0x651 JUMPI PUSH2 0x650 PUSH2 0x4CF JUMP JUMPDEST JUMPDEST PUSH1 0x0 DUP4 ADD CALLDATALOAD PUSH8 0xFFFFFFFFFFFFFFFF DUP2 GT ISZERO PUSH2 0x66F JUMPI PUSH2 0x66E PUSH2 0x4D4 JUMP JUMPDEST JUMPDEST PUSH2 0x67B DUP6 DUP3 DUP7 ADD PUSH2 0x5E0 JUMP JUMPDEST SWAP3 POP POP PUSH1 0x20 PUSH2 0x68C DUP6 DUP3 DUP7 ADD PUSH2 0x625 JUMP JUMPDEST SWAP2 POP POP SWAP3 POP SWAP3 SWAP1 POP JUMP JUMPDEST PUSH1 0x0 PUSH1 0x20 DUP3 ADD SWAP1 POP PUSH2 0x6AB PUSH1 0x0 DUP4 ADD DUP5 PUSH2 0x486 JUMP JUMPDEST SWAP3 SWAP2 POP POP JUMP JUMPDEST PUSH1 0x0 DUP3 DUP3 MSTORE PUSH1 0x20 DUP3 ADD SWAP1 POP SWAP3 SWAP2 POP POP JUMP JUMPDEST PUSH1 0x0 PUSH2 0x6CD DUP3 PUSH2 0x3EC JUMP JUMPDEST PUSH2 0x6D7 DUP2 DUP6 PUSH2 0x6B1 JUMP JUMPDEST SWAP4 POP PUSH2 0x6E7 DUP2 DUP6 PUSH1 0x20 DUP7 ADD PUSH2 0x408 JUMP JUMPDEST PUSH2 0x6F0 DUP2 PUSH2 0x432 JUMP JUMPDEST DUP5 ADD SWAP2 POP POP SWAP3 SWAP2 POP POP JUMP JUMPDEST PUSH2 0x704 DUP2 PUSH2 0x47C JUMP JUMPDEST DUP3 MSTORE POP POP JUMP JUMPDEST PUSH1 0x0 PUSH1 0x40 DUP4 ADD PUSH1 0x0 DUP4 ADD MLOAD DUP5 DUP3 SUB PUSH1 0x0 DUP7 ADD MSTORE PUSH2 0x727 DUP3 DUP3 PUSH2 0x6C2 JUMP JUMPDEST SWAP2 POP POP PUSH1 0x20 DUP4 ADD MLOAD PUSH2 0x73C PUSH1 0x20 DUP7 ADD DUP3 PUSH2 0x6FB JUMP JUMPDEST POP DUP1 SWAP2 POP POP SWAP3 SWAP2 POP POP JUMP JUMPDEST PUSH1 0x0 PUSH1 0x20 DUP3 ADD SWAP1 POP DUP2 DUP2 SUB PUSH1 0x0 DUP4 ADD MSTORE PUSH2 0x761 DUP2 DUP5 PUSH2 0x70A JUMP JUMPDEST SWAP1 POP SWAP3 SWAP2 POP POP JUMP JUMPDEST PUSH1 0x0 PUSH1 0x20 DUP3 ADD SWAP1 POP DUP2 DUP2 SUB PUSH1 0x0 DUP4 ADD MSTORE PUSH2 0x783 DUP2 DUP5 PUSH2 0x443 JUMP JUMPDEST SWAP1 POP SWAP3 SWAP2 POP POP JUMP JUMPDEST PUSH32 0x4E487B7100000000000000000000000000000000000000000000000000000000 PUSH1 0x0 MSTORE PUSH1 0x22 PUSH1 0x4 MSTORE PUSH1 0x24 PUSH1 0x0 REVERT JUMPDEST PUSH1 0x0 PUSH1 0x2 DUP3 DIV SWAP1 POP PUSH1 0x1 DUP3 AND DUP1 PUSH2 0x7D2 JUMPI PUSH1 0x7F DUP3 AND SWAP2 POP JUMPDEST PUSH1 0x20 DUP3 LT DUP2 SUB PUSH2 0x7E5 JUMPI PUSH2 0x7E4 PUSH2 0x78B JUMP JUMPDEST JUMPDEST POP SWAP2 SWAP1 POP JUMP JUMPDEST PUSH1 0x0 DUP2 SWAP1 POP DUP2 PUSH1 0x0 MSTORE PUSH1 0x20 PUSH1 0x0 KECCAK256 SWAP1 POP SWAP2 SWAP1 POP JUMP JUMPDEST PUSH1 0x0 PUSH1 0x20 PUSH1 0x1F DUP4 ADD DIV SWAP1 POP SWAP2 SWAP1 POP JUMP JUMPDEST PUSH1 0x0 DUP3 DUP3 SHL SWAP1 POP SWAP3 SWAP2 POP POP JUMP JUMPDEST PUSH1 0x0 PUSH1 0x8 DUP4 MUL PUSH2 0x84D PUSH32 0xFFFFFFFFFFFFFFFFFFFFFFFFFFFFFFFFFFFFFFFFFFFFFFFFFFFFFFFFFFFFFFFF DUP3 PUSH2 0x810 JUMP JUMPDEST PUSH2 0x857 DUP7 DUP4 PUSH2 0x810 JUMP JUMPDEST SWAP6 POP DUP1 NOT DUP5 AND SWAP4 POP DUP1 DUP7 AND DUP5 OR SWAP3 POP POP POP SWAP4 SWAP3 POP POP POP JUMP JUMPDEST PUSH1 0x0 DUP2 SWAP1 POP SWAP2 SWAP1 POP JUMP JUMPDEST PUSH1 0x0 PUSH2 0x894 PUSH2 0x88F PUSH2 0x88A DUP5 PUSH2 0x47C JUMP JUMPDEST PUSH2 0x86F JUMP JUMPDEST PUSH2 0x47C JUMP JUMPDEST SWAP1 POP SWAP2 SWAP1 POP JUMP JUMPDEST PUSH1 0x0 DUP2 SWAP1 POP SWAP2 SWAP1 POP JUMP JUMPDEST PUSH2 0x8AE DUP4 PUSH2 0x879 JUMP JUMPDEST PUSH2 0x8C2 PUSH2 0x8BA DUP3 PUSH2 0x89B JUMP JUMPDEST DUP5 DUP5 SLOAD PUSH2 0x81D JUMP JUMPDEST DUP3 SSTORE POP POP POP POP JUMP JUMPDEST PUSH1 0x0 SWAP1 JUMP JUMPDEST PUSH2 0x8D7 PUSH2 0x8CA JUMP JUMPDEST PUSH2 0x8E2 DUP2 DUP5 DUP5 PUSH2 0x8A5 JUMP JUMPDEST POP POP POP JUMP JUMPDEST JUMPDEST DUP2 DUP2 LT ISZERO PUSH2 0x906 JUMPI PUSH2 0x8FB PUSH1 0x0 DUP3 PUSH2 0x8CF JUMP JUMPDEST PUSH1 0x1 DUP2 ADD SWAP1 POP PUSH2 0x8E8 JUMP JUMPDEST POP POP JUMP JUMPDEST PUSH1 0x1F DUP3 GT ISZERO PUSH2 0x94B JUMPI PUSH2 0x91C DUP2 PUSH2 0x7EB JUMP JUMPDEST PUSH2 0x925 DUP5 PUSH2 0x800 JUMP JUMPDEST DUP2 ADD PUSH1 0x20 DUP6 LT ISZERO PUSH2 0x934 JUMPI DUP2 SWAP1 POP JUMPDEST PUSH2 0x948 PUSH2 0x940 DUP6 PUSH2 0x800 JUMP JUMPDEST DUP4 ADD DUP3 PUSH2 0x8E7 JUMP JUMPDEST POP POP JUMPDEST POP POP POP JUMP JUMPDEST PUSH1 0x0 DUP3 DUP3 SHR SWAP1 POP SWAP3 SWAP2 POP POP JUMP JUMPDEST PUSH1 0x0 PUSH2 0x96E PUSH1 0x0 NOT DUP5 PUSH1 0x8 MUL PUSH2 0x950 JUMP JUMPDEST NOT DUP1 DUP4 AND SWAP2 POP POP SWAP3 SWAP2 POP POP JUMP JUMPDEST PUSH1 0x0 PUSH2 0x987 DUP4 DUP4 PUSH2 0x95D JUMP JUMPDEST SWAP2 POP DUP3 PUSH1 0x2 MUL DUP3 OR SWAP1 POP SWAP3 SWAP2 POP POP JUMP JUMPDEST PUSH2 0x9A0 DUP3 PUSH2 0x3EC JUMP JUMPDEST PUSH8 0xFFFFFFFFFFFFFFFF DUP2 GT ISZERO PUSH2 0x9B9 JUMPI PUSH2 0x9B8 PUSH2 0x4E3 JUMP JUMPDEST JUMPDEST PUSH2 0x9C3 DUP3 SLOAD PUSH2 0x7BA JUMP JUMPDEST PUSH2 0x9CE DUP3 DUP3 DUP6 PUSH2 0x90A JUMP JUMPDEST PUSH1 0x0 PUSH1 0x20 SWAP1 POP PUSH1 0x1F DUP4 GT PUSH1 0x1 DUP2 EQ PUSH2 0xA01 JUMPI PUSH1 0x0 DUP5 ISZERO PUSH2 0x9EF JUMPI DUP3 DUP8 ADD MLOAD SWAP1 POP JUMPDEST PUSH2 0x9F9 DUP6 DUP3 PUSH2 0x97B JUMP JUMPDEST DUP7 SSTORE POP PUSH2 0xA61 JUMP JUMPDEST PUSH1 0x1F NOT DUP5 AND PUSH2 0xA0F DUP7 PUSH2 0x7EB JUMP JUMPDEST PUSH1 0x0 JUMPDEST DUP3 DUP2 LT ISZERO PUSH2 0xA37 JUMPI DUP5 DUP10 ADD MLOAD DUP3 SSTORE PUSH1 0x1 DUP3 ADD SWAP2 POP PUSH1 0x20 DUP6 ADD SWAP5 POP PUSH1 0x20 DUP2 ADD SWAP1 POP PUSH2 0xA12 JUMP JUMPDEST DUP7 DUP4 LT ISZERO PUSH2 0xA54 JUMPI DUP5 DUP10 ADD MLOAD PUSH2 0xA50 PUSH1 0x1F DUP10 AND DUP3 PUSH2 0x95D JUMP JUMPDEST DUP4 SSTORE POP JUMPDEST PUSH1 0x1 PUSH1 0x2 DUP9 MUL ADD DUP9 SSTORE POP POP POP JUMPDEST POP POP POP POP POP POP JUMP INVALID LOG2 PUSH5 0x6970667358 0x22 SLT KECCAK256 LOG2 0xC5 0x49 0xC2 EXTCODEHASH DIV SSTORE SGT SELFDESTRUCT JUMP CODESIZE SWAP2 MULMOD DIV SWAP16 PUSH3 0x217377 0xB6 CREATE 0xEA EXP 0xA7 0xA8 DUP6 MSTORE 0xBA SUB JUMPI RETURNDATACOPY 0xAF PUSH5 0x736F6C6343 STOP ADDMOD SLT STOP CALLER "
				},
				"gasEstimates": {
					"creation": {
						"codeDepositCost": "543800",
						"executionCost": "22689",
						"totalCost": "566489"
					},
					"external": {
						"getMainProduct()": "infinite",
						"getMainProductName()": "infinite",
						"getMainProductPrice()": "2509",
						"initProduct()": "infinite",
						"mainProduct()": "infinite",
						"maxProductCount()": "2474",
						"setMainProduct(string,uint256)": "infinite"
					}
				},
				"methodIdentifiers": {
					"getMainProduct()": "512c009a",
					"getMainProductName()": "b4d92469",
					"getMainProductPrice()": "cbf2dabb",
					"initProduct()": "80145671",
					"mainProduct()": "20e6984a",
					"maxProductCount()": "40b2b8ea",
					"setMainProduct(string,uint256)": "216dbcaf"
				}
			},
			"storageLayout": {
				"storage": [
					{
						"astId": 9,
						"contract": "ex8/ex8.sol:Struct",
						"label": "mainProduct",
						"offset": 0,
						"slot": "0",
						"type": "t_struct(Product)6_storage"
					},
					{
						"astId": 11,
						"contract": "ex8/ex8.sol:Struct",
						"label": "maxProductCount",
						"offset": 0,
						"slot": "2",
						"type": "t_uint256"
					}
				],
				"types": {
					"t_string_storage": {
						"encoding": "bytes",
						"label": "string",
						"numberOfBytes": "32"
					},
					"t_struct(Product)6_storage": {
						"encoding": "inplace",
						"label": "struct Struct.Product",
						"members": [
							{
								"astId": 3,
								"contract": "ex8/ex8.sol:Struct",
								"label": "name",
								"offset": 0,
								"slot": "0",
								"type": "t_string_storage"
							},
							{
								"astId": 5,
								"contract": "ex8/ex8.sol:Struct",
								"label": "price",
								"offset": 0,
								"slot": "1",
								"type": "t_uint256"
							}
						],
						"numberOfBytes": "64"
					},
					"t_uint256": {
						"encoding": "inplace",
						"label": "uint256",
						"numberOfBytes": "32"
					}
				}
			},
			"userdoc": {
				"kind": "user",
				"methods": {},
				"version": 1
			}
		}
	}
}