{
	"Haru/implementation-v1.sol": {
		"hImplementV1": {
			"abi": [
				{
					"inputs": [],
					"name": "implementation",
					"outputs": [
						{
							"internalType": "address",
							"name": "",
							"type": "address"
						}
					],
					"stateMutability": "view",
					"type": "function"
				},
				{
					"inputs": [],
					"name": "inc",
					"outputs": [],
					"stateMutability": "nonpayable",
					"type": "function"
				},
				{
					"inputs": [],
					"name": "x",
					"outputs": [
						{
							"internalType": "uint256",
							"name": "",
							"type": "uint256"
						}
					],
					"stateMutability": "view",
					"type": "function"
				}
			],
			"devdoc": {
				"kind": "dev",
				"methods": {},
				"version": 1
			},
			"evm": {
				"assembly": "    /* \"Haru/implementation-v1.sol\":65:198  contract hImplementV1 {... */\n  mstore(0x40, 0x80)\n  callvalue\n  dup1\n  iszero\n  tag_1\n  jumpi\n  0x00\n  dup1\n  revert\ntag_1:\n  pop\n  dataSize(sub_0)\n  dup1\n  dataOffset(sub_0)\n  0x00\n  codecopy\n  0x00\n  return\nstop\n\nsub_0: assembly {\n        /* \"Haru/implementation-v1.sol\":65:198  contract hImplementV1 {... */\n      mstore(0x40, 0x80)\n      callvalue\n      dup1\n      iszero\n      tag_1\n      jumpi\n      0x00\n      dup1\n      revert\n    tag_1:\n      pop\n      jumpi(tag_2, lt(calldatasize, 0x04))\n      shr(0xe0, calldataload(0x00))\n      dup1\n      0x0c55699c\n      eq\n      tag_3\n      jumpi\n      dup1\n      0x371303c0\n      eq\n      tag_4\n      jumpi\n      dup1\n      0x5c60da1b\n      eq\n      tag_5\n      jumpi\n    tag_2:\n      0x00\n      dup1\n      revert\n        /* \"Haru/implementation-v1.sol\":128:141  uint public x */\n    tag_3:\n      tag_6\n      sload(0x01)\n      dup2\n      jump\n    tag_6:\n      mload(0x40)\n        /* \"#utility.yul\":160:185   */\n      swap1\n      dup2\n      mstore\n        /* \"#utility.yul\":148:150   */\n      0x20\n        /* \"#utility.yul\":133:151   */\n      add\n        /* \"Haru/implementation-v1.sol\":128:141  uint public x */\n    tag_8:\n      mload(0x40)\n      dup1\n      swap2\n      sub\n      swap1\n      return\n        /* \"Haru/implementation-v1.sol\":148:195  function inc() external {... */\n    tag_4:\n      tag_10\n      tag_11\n      jump\t// in\n    tag_10:\n      stop\n        /* \"Haru/implementation-v1.sol\":93:122  address public implementation */\n    tag_5:\n      sload(0x00)\n      tag_12\n      swap1\n      sub(shl(0xa0, 0x01), 0x01)\n      and\n      dup2\n      jump\n    tag_12:\n      mload(0x40)\n      sub(shl(0xa0, 0x01), 0x01)\n        /* \"#utility.yul\":360:392   */\n      swap1\n      swap2\n      and\n        /* \"#utility.yul\":342:393   */\n      dup2\n      mstore\n        /* \"#utility.yul\":330:332   */\n      0x20\n        /* \"#utility.yul\":315:333   */\n      add\n        /* \"Haru/implementation-v1.sol\":93:122  address public implementation */\n      tag_8\n        /* \"#utility.yul\":196:399   */\n      jump\n        /* \"Haru/implementation-v1.sol\":148:195  function inc() external {... */\n    tag_11:\n        /* \"Haru/implementation-v1.sol\":187:188  1 */\n      0x01\n        /* \"Haru/implementation-v1.sol\":182:183  x */\n      dup1\n      0x00\n        /* \"Haru/implementation-v1.sol\":182:188  x += 1 */\n      dup3\n      dup3\n      sload\n      tag_17\n      swap2\n      swap1\n      tag_18\n      jump\t// in\n    tag_17:\n      swap1\n      swap2\n      sstore\n      pop\n      pop\n        /* \"Haru/implementation-v1.sol\":148:195  function inc() external {... */\n      jump\t// out\n        /* \"#utility.yul\":404:626   */\n    tag_18:\n        /* \"#utility.yul\":469:478   */\n      dup1\n      dup3\n      add\n        /* \"#utility.yul\":490:500   */\n      dup1\n      dup3\n      gt\n        /* \"#utility.yul\":487:620   */\n      iszero\n      tag_23\n      jumpi\n        /* \"#utility.yul\":542:552   */\n      0x4e487b71\n        /* \"#utility.yul\":537:540   */\n      0xe0\n        /* \"#utility.yul\":533:553   */\n      shl\n        /* \"#utility.yul\":530:531   */\n      0x00\n        /* \"#utility.yul\":523:554   */\n      mstore\n        /* \"#utility.yul\":577:581   */\n      0x11\n        /* \"#utility.yul\":574:575   */\n      0x04\n        /* \"#utility.yul\":567:582   */\n      mstore\n        /* \"#utility.yul\":605:609   */\n      0x24\n        /* \"#utility.yul\":602:603   */\n      0x00\n        /* \"#utility.yul\":595:610   */\n      revert\n        /* \"#utility.yul\":487:620   */\n    tag_23:\n        /* \"#utility.yul\":404:626   */\n      swap3\n      swap2\n      pop\n      pop\n      jump\t// out\n\n    auxdata: 0xa264697066735822122090e1ac0c822f2501f1fafd8c15aabc601eb8d8652228a866684ec0a1e6257dcd64736f6c63430008150033\n}\n",
				"bytecode": {
					"linkReferences": {},
					"object": "608060405234801561001057600080fd5b50610100806100206000396000f3fe6080604052348015600f57600080fd5b5060043610603c5760003560e01c80630c55699c146041578063371303c014605c5780635c60da1b146064575b600080fd5b604960015481565b6040519081526020015b60405180910390f35b6062608d565b005b6000546076906001600160a01b031681565b6040516001600160a01b0390911681526020016053565b6001806000828254609d919060a4565b9091555050565b8082018082111560c457634e487b7160e01b600052601160045260246000fd5b9291505056fea264697066735822122090e1ac0c822f2501f1fafd8c15aabc601eb8d8652228a866684ec0a1e6257dcd64736f6c63430008150033",
					"opcodes": "PUSH1 0x80 PUSH1 0x40 MSTORE CALLVALUE DUP1 ISZERO PUSH2 0x10 JUMPI PUSH1 0x0 DUP1 REVERT JUMPDEST POP PUSH2 0x100 DUP1 PUSH2 0x20 PUSH1 0x0 CODECOPY PUSH1 0x0 RETURN INVALID PUSH1 0x80 PUSH1 0x40 MSTORE CALLVALUE DUP1 ISZERO PUSH1 0xF JUMPI PUSH1 0x0 DUP1 REVERT JUMPDEST POP PUSH1 0x4 CALLDATASIZE LT PUSH1 0x3C JUMPI PUSH1 0x0 CALLDATALOAD PUSH1 0xE0 SHR DUP1 PUSH4 0xC55699C EQ PUSH1 0x41 JUMPI DUP1 PUSH4 0x371303C0 EQ PUSH1 0x5C JUMPI DUP1 PUSH4 0x5C60DA1B EQ PUSH1 0x64 JUMPI JUMPDEST PUSH1 0x0 DUP1 REVERT JUMPDEST PUSH1 0x49 PUSH1 0x1 SLOAD DUP2 JUMP JUMPDEST PUSH1 0x40 MLOAD SWAP1 DUP2 MSTORE PUSH1 0x20 ADD JUMPDEST PUSH1 0x40 MLOAD DUP1 SWAP2 SUB SWAP1 RETURN JUMPDEST PUSH1 0x62 PUSH1 0x8D JUMP JUMPDEST STOP JUMPDEST PUSH1 0x0 SLOAD PUSH1 0x76 SWAP1 PUSH1 0x1 PUSH1 0x1 PUSH1 0xA0 SHL SUB AND DUP2 JUMP JUMPDEST PUSH1 0x40 MLOAD PUSH1 0x1 PUSH1 0x1 PUSH1 0xA0 SHL SUB SWAP1 SWAP2 AND DUP2 MSTORE PUSH1 0x20 ADD PUSH1 0x53 JUMP JUMPDEST PUSH1 0x1 DUP1 PUSH1 0x0 DUP3 DUP3 SLOAD PUSH1 0x9D SWAP2 SWAP1 PUSH1 0xA4 JUMP JUMPDEST SWAP1 SWAP2 SSTORE POP POP JUMP JUMPDEST DUP1 DUP3 ADD DUP1 DUP3 GT ISZERO PUSH1 0xC4 JUMPI PUSH4 0x4E487B71 PUSH1 0xE0 SHL PUSH1 0x0 MSTORE PUSH1 0x11 PUSH1 0x4 MSTORE PUSH1 0x24 PUSH1 0x0 REVERT JUMPDEST SWAP3 SWAP2 POP POP JUMP INVALID LOG2 PUSH5 0x6970667358 0x22 SLT KECCAK256 SWAP1 0xE1 0xAC 0xC DUP3 0x2F 0x25 ADD CALL STATICCALL REVERT DUP13 ISZERO 0xAA 0xBC PUSH1 0x1E 0xB8 0xD8 PUSH6 0x2228A866684E 0xC0 LOG1 0xE6 0x25 PUSH30 0xCD64736F6C63430008150033000000000000000000000000000000000000 "
				},
				"gasEstimates": {
					"creation": {
						"codeDepositCost": "51200",
						"executionCost": "99",
						"totalCost": "51299"
					},
					"external": {
						"implementation()": "2359",
						"inc()": "24444",
						"x()": "2262"
					}
				},
				"methodIdentifiers": {
					"implementation()": "5c60da1b",
					"inc()": "371303c0",
					"x()": "0c55699c"
				}
			},
			"storageLayout": {
				"storage": [
					{
						"astId": 3,
						"contract": "Haru/implementation-v1.sol:hImplementV1",
						"label": "implementation",
						"offset": 0,
						"slot": "0",
						"type": "t_address"
					},
					{
						"astId": 5,
						"contract": "Haru/implementation-v1.sol:hImplementV1",
						"label": "x",
						"offset": 0,
						"slot": "1",
						"type": "t_uint256"
					}
				],
				"types": {
					"t_address": {
						"encoding": "inplace",
						"label": "address",
						"numberOfBytes": "20"
					},
					"t_uint256": {
						"encoding": "inplace",
						"label": "uint256",
						"numberOfBytes": "32"
					}
				}
			},
			"userdoc": {
				"kind": "user",
				"methods": {},
				"version": 1
			}
		}
	}
}