{
	"Haru/implementation-v2.sol": {
		"hImplementV2": {
			"abi": [
				{
					"inputs": [],
					"name": "dec",
					"outputs": [],
					"stateMutability": "nonpayable",
					"type": "function"
				},
				{
					"inputs": [],
					"name": "implementation",
					"outputs": [
						{
							"internalType": "address",
							"name": "",
							"type": "address"
						}
					],
					"stateMutability": "view",
					"type": "function"
				},
				{
					"inputs": [],
					"name": "inc",
					"outputs": [],
					"stateMutability": "nonpayable",
					"type": "function"
				},
				{
					"inputs": [],
					"name": "x",
					"outputs": [
						{
							"internalType": "uint256",
							"name": "",
							"type": "uint256"
						}
					],
					"stateMutability": "view",
					"type": "function"
				},
				{
					"inputs": [],
					"name": "y",
					"outputs": [
						{
							"internalType": "uint256",
							"name": "",
							"type": "uint256"
						}
					],
					"stateMutability": "view",
					"type": "function"
				}
			],
			"devdoc": {
				"kind": "dev",
				"methods": {},
				"version": 1
			},
			"evm": {
				"assembly": "    /* \"Haru/implementation-v2.sol\":65:269  contract hImplementV2 {... */\n  mstore(0x40, 0x80)\n  callvalue\n  dup1\n  iszero\n  tag_1\n  jumpi\n  0x00\n  dup1\n  revert\ntag_1:\n  pop\n  dataSize(sub_0)\n  dup1\n  dataOffset(sub_0)\n  0x00\n  codecopy\n  0x00\n  return\nstop\n\nsub_0: assembly {\n        /* \"Haru/implementation-v2.sol\":65:269  contract hImplementV2 {... */\n      mstore(0x40, 0x80)\n      callvalue\n      dup1\n      iszero\n      tag_1\n      jumpi\n      0x00\n      dup1\n      revert\n    tag_1:\n      pop\n      jumpi(tag_2, lt(calldatasize, 0x04))\n      shr(0xe0, calldataload(0x00))\n      dup1\n      0x0c55699c\n      eq\n      tag_3\n      jumpi\n      dup1\n      0x371303c0\n      eq\n      tag_4\n      jumpi\n      dup1\n      0x5c60da1b\n      eq\n      tag_5\n      jumpi\n      dup1\n      0xa56dfe4a\n      eq\n      tag_6\n      jumpi\n      dup1\n      0xb3bcfa82\n      eq\n      tag_7\n      jumpi\n    tag_2:\n      0x00\n      dup1\n      revert\n        /* \"Haru/implementation-v2.sol\":128:141  uint public x */\n    tag_3:\n      tag_8\n      sload(0x01)\n      dup2\n      jump\n    tag_8:\n      mload(0x40)\n        /* \"#utility.yul\":160:185   */\n      swap1\n      dup2\n      mstore\n        /* \"#utility.yul\":148:150   */\n      0x20\n        /* \"#utility.yul\":133:151   */\n      add\n        /* \"Haru/implementation-v2.sol\":128:141  uint public x */\n    tag_10:\n      mload(0x40)\n      dup1\n      swap2\n      sub\n      swap1\n      return\n        /* \"Haru/implementation-v2.sol\":167:214  function inc() external {... */\n    tag_4:\n      tag_12\n      tag_13\n      jump\t// in\n    tag_12:\n      stop\n        /* \"Haru/implementation-v2.sol\":93:122  address public implementation */\n    tag_5:\n      sload(0x00)\n      tag_14\n      swap1\n      sub(shl(0xa0, 0x01), 0x01)\n      and\n      dup2\n      jump\n    tag_14:\n      mload(0x40)\n      sub(shl(0xa0, 0x01), 0x01)\n        /* \"#utility.yul\":360:392   */\n      swap1\n      swap2\n      and\n        /* \"#utility.yul\":342:393   */\n      dup2\n      mstore\n        /* \"#utility.yul\":330:332   */\n      0x20\n        /* \"#utility.yul\":315:333   */\n      add\n        /* \"Haru/implementation-v2.sol\":93:122  address public implementation */\n      tag_10\n        /* \"#utility.yul\":196:399   */\n      jump\n        /* \"Haru/implementation-v2.sol\":147:160  uint public y */\n    tag_6:\n      tag_8\n      sload(0x02)\n      dup2\n      jump\n        /* \"Haru/implementation-v2.sol\":220:267  function dec() external {... */\n    tag_7:\n      tag_12\n      tag_22\n      jump\t// in\n        /* \"Haru/implementation-v2.sol\":167:214  function inc() external {... */\n    tag_13:\n        /* \"Haru/implementation-v2.sol\":206:207  1 */\n      0x01\n        /* \"Haru/implementation-v2.sol\":201:202  y */\n      0x02\n      0x00\n        /* \"Haru/implementation-v2.sol\":201:207  y += 1 */\n      dup3\n      dup3\n      sload\n      tag_24\n      swap2\n      swap1\n      tag_25\n      jump\t// in\n    tag_24:\n      swap1\n      swap2\n      sstore\n      pop\n      pop\n        /* \"Haru/implementation-v2.sol\":167:214  function inc() external {... */\n      jump\t// out\n        /* \"Haru/implementation-v2.sol\":220:267  function dec() external {... */\n    tag_22:\n        /* \"Haru/implementation-v2.sol\":259:260  1 */\n      0x01\n        /* \"Haru/implementation-v2.sol\":254:255  y */\n      0x02\n      0x00\n        /* \"Haru/implementation-v2.sol\":254:260  y -= 1 */\n      dup3\n      dup3\n      sload\n      tag_24\n      swap2\n      swap1\n      tag_28\n      jump\t// in\n        /* \"#utility.yul\":404:531   */\n    tag_29:\n        /* \"#utility.yul\":465:475   */\n      0x4e487b71\n        /* \"#utility.yul\":460:463   */\n      0xe0\n        /* \"#utility.yul\":456:476   */\n      shl\n        /* \"#utility.yul\":453:454   */\n      0x00\n        /* \"#utility.yul\":446:477   */\n      mstore\n        /* \"#utility.yul\":496:500   */\n      0x11\n        /* \"#utility.yul\":493:494   */\n      0x04\n        /* \"#utility.yul\":486:501   */\n      mstore\n        /* \"#utility.yul\":520:524   */\n      0x24\n        /* \"#utility.yul\":517:518   */\n      0x00\n        /* \"#utility.yul\":510:525   */\n      revert\n        /* \"#utility.yul\":536:661   */\n    tag_25:\n        /* \"#utility.yul\":601:610   */\n      dup1\n      dup3\n      add\n        /* \"#utility.yul\":622:632   */\n      dup1\n      dup3\n      gt\n        /* \"#utility.yul\":619:655   */\n      iszero\n      tag_36\n      jumpi\n        /* \"#utility.yul\":635:653   */\n      tag_36\n      tag_29\n      jump\t// in\n    tag_36:\n        /* \"#utility.yul\":536:661   */\n      swap3\n      swap2\n      pop\n      pop\n      jump\t// out\n        /* \"#utility.yul\":666:794   */\n    tag_28:\n        /* \"#utility.yul\":733:742   */\n      dup2\n      dup2\n      sub\n        /* \"#utility.yul\":754:765   */\n      dup2\n      dup2\n      gt\n        /* \"#utility.yul\":751:788   */\n      iszero\n      tag_36\n      jumpi\n        /* \"#utility.yul\":768:786   */\n      tag_36\n      tag_29\n      jump\t// in\n\n    auxdata: 0xa264697066735822122019bc0acf278e24183f1cd377a9e8f567c415c3cdd3e0a57d3e359ed52041383864736f6c63430008150033\n}\n",
				"bytecode": {
					"linkReferences": {},
					"object": "608060405234801561001057600080fd5b50610163806100206000396000f3fe608060405234801561001057600080fd5b50600436106100575760003560e01c80630c55699c1461005c578063371303c0146100785780635c60da1b14610082578063a56dfe4a146100ad578063b3bcfa82146100b6575b600080fd5b61006560015481565b6040519081526020015b60405180910390f35b6100806100be565b005b600054610095906001600160a01b031681565b6040516001600160a01b03909116815260200161006f565b61006560025481565b6100806100d8565b6001600260008282546100d19190610101565b9091555050565b6001600260008282546100d1919061011a565b634e487b7160e01b600052601160045260246000fd5b80820180821115610114576101146100eb565b92915050565b81810381811115610114576101146100eb56fea264697066735822122019bc0acf278e24183f1cd377a9e8f567c415c3cdd3e0a57d3e359ed52041383864736f6c63430008150033",
					"opcodes": "PUSH1 0x80 PUSH1 0x40 MSTORE CALLVALUE DUP1 ISZERO PUSH2 0x10 JUMPI PUSH1 0x0 DUP1 REVERT JUMPDEST POP PUSH2 0x163 DUP1 PUSH2 0x20 PUSH1 0x0 CODECOPY PUSH1 0x0 RETURN INVALID PUSH1 0x80 PUSH1 0x40 MSTORE CALLVALUE DUP1 ISZERO PUSH2 0x10 JUMPI PUSH1 0x0 DUP1 REVERT JUMPDEST POP PUSH1 0x4 CALLDATASIZE LT PUSH2 0x57 JUMPI PUSH1 0x0 CALLDATALOAD PUSH1 0xE0 SHR DUP1 PUSH4 0xC55699C EQ PUSH2 0x5C JUMPI DUP1 PUSH4 0x371303C0 EQ PUSH2 0x78 JUMPI DUP1 PUSH4 0x5C60DA1B EQ PUSH2 0x82 JUMPI DUP1 PUSH4 0xA56DFE4A EQ PUSH2 0xAD JUMPI DUP1 PUSH4 0xB3BCFA82 EQ PUSH2 0xB6 JUMPI JUMPDEST PUSH1 0x0 DUP1 REVERT JUMPDEST PUSH2 0x65 PUSH1 0x1 SLOAD DUP2 JUMP JUMPDEST PUSH1 0x40 MLOAD SWAP1 DUP2 MSTORE PUSH1 0x20 ADD JUMPDEST PUSH1 0x40 MLOAD DUP1 SWAP2 SUB SWAP1 RETURN JUMPDEST PUSH2 0x80 PUSH2 0xBE JUMP JUMPDEST STOP JUMPDEST PUSH1 0x0 SLOAD PUSH2 0x95 SWAP1 PUSH1 0x1 PUSH1 0x1 PUSH1 0xA0 SHL SUB AND DUP2 JUMP JUMPDEST PUSH1 0x40 MLOAD PUSH1 0x1 PUSH1 0x1 PUSH1 0xA0 SHL SUB SWAP1 SWAP2 AND DUP2 MSTORE PUSH1 0x20 ADD PUSH2 0x6F JUMP JUMPDEST PUSH2 0x65 PUSH1 0x2 SLOAD DUP2 JUMP JUMPDEST PUSH2 0x80 PUSH2 0xD8 JUMP JUMPDEST PUSH1 0x1 PUSH1 0x2 PUSH1 0x0 DUP3 DUP3 SLOAD PUSH2 0xD1 SWAP2 SWAP1 PUSH2 0x101 JUMP JUMPDEST SWAP1 SWAP2 SSTORE POP POP JUMP JUMPDEST PUSH1 0x1 PUSH1 0x2 PUSH1 0x0 DUP3 DUP3 SLOAD PUSH2 0xD1 SWAP2 SWAP1 PUSH2 0x11A JUMP JUMPDEST PUSH4 0x4E487B71 PUSH1 0xE0 SHL PUSH1 0x0 MSTORE PUSH1 0x11 PUSH1 0x4 MSTORE PUSH1 0x24 PUSH1 0x0 REVERT JUMPDEST DUP1 DUP3 ADD DUP1 DUP3 GT ISZERO PUSH2 0x114 JUMPI PUSH2 0x114 PUSH2 0xEB JUMP JUMPDEST SWAP3 SWAP2 POP POP JUMP JUMPDEST DUP2 DUP2 SUB DUP2 DUP2 GT ISZERO PUSH2 0x114 JUMPI PUSH2 0x114 PUSH2 0xEB JUMP INVALID LOG2 PUSH5 0x6970667358 0x22 SLT KECCAK256 NOT 0xBC EXP 0xCF 0x27 DUP15 0x24 XOR EXTCODEHASH SHR 0xD3 PUSH24 0xA9E8F567C415C3CDD3E0A57D3E359ED52041383864736F6C PUSH4 0x43000815 STOP CALLER "
				},
				"gasEstimates": {
					"creation": {
						"codeDepositCost": "71000",
						"executionCost": "123",
						"totalCost": "71123"
					},
					"external": {
						"dec()": "24510",
						"implementation()": "2359",
						"inc()": "24444",
						"x()": "2262",
						"y()": "2328"
					}
				},
				"methodIdentifiers": {
					"dec()": "b3bcfa82",
					"implementation()": "5c60da1b",
					"inc()": "371303c0",
					"x()": "0c55699c",
					"y()": "a56dfe4a"
				}
			},
			"storageLayout": {
				"storage": [
					{
						"astId": 3,
						"contract": "Haru/implementation-v2.sol:hImplementV2",
						"label": "implementation",
						"offset": 0,
						"slot": "0",
						"type": "t_address"
					},
					{
						"astId": 5,
						"contract": "Haru/implementation-v2.sol:hImplementV2",
						"label": "x",
						"offset": 0,
						"slot": "1",
						"type": "t_uint256"
					},
					{
						"astId": 7,
						"contract": "Haru/implementation-v2.sol:hImplementV2",
						"label": "y",
						"offset": 0,
						"slot": "2",
						"type": "t_uint256"
					}
				],
				"types": {
					"t_address": {
						"encoding": "inplace",
						"label": "address",
						"numberOfBytes": "20"
					},
					"t_uint256": {
						"encoding": "inplace",
						"label": "uint256",
						"numberOfBytes": "32"
					}
				}
			},
			"userdoc": {
				"kind": "user",
				"methods": {},
				"version": 1
			}
		}
	}
}