{
	"ex16 call/call.sol": {
		"Call": {
			"abi": [
				{
					"inputs": [
						{
							"internalType": "address payable",
							"name": "_address",
							"type": "address"
						},
						{
							"internalType": "uint256",
							"name": "_a",
							"type": "uint256"
						},
						{
							"internalType": "uint256",
							"name": "_b",
							"type": "uint256"
						}
					],
					"name": "callFunc",
					"outputs": [
						{
							"internalType": "bytes",
							"name": "",
							"type": "bytes"
						}
					],
					"stateMutability": "nonpayable",
					"type": "function"
				},
				{
					"inputs": [
						{
							"internalType": "address payable",
							"name": "_address",
							"type": "address"
						},
						{
							"internalType": "uint256",
							"name": "_a",
							"type": "uint256"
						},
						{
							"internalType": "uint256",
							"name": "_b",
							"type": "uint256"
						}
					],
					"name": "callNotFunc",
					"outputs": [
						{
							"internalType": "bytes",
							"name": "",
							"type": "bytes"
						}
					],
					"stateMutability": "nonpayable",
					"type": "function"
				}
			],
			"devdoc": {
				"kind": "dev",
				"methods": {},
				"version": 1
			},
			"evm": {
				"assembly": "    /* \"ex16 call/call.sol\":1019:2583  contract Call {... */\n  mstore(0x40, 0x80)\n  callvalue\n  dup1\n  iszero\n  tag_1\n  jumpi\n  0x00\n  dup1\n  revert\ntag_1:\n  pop\n  dataSize(sub_0)\n  dup1\n  dataOffset(sub_0)\n  0x00\n  codecopy\n  0x00\n  return\nstop\n\nsub_0: assembly {\n        /* \"ex16 call/call.sol\":1019:2583  contract Call {... */\n      mstore(0x40, 0x80)\n      callvalue\n      dup1\n      iszero\n      tag_1\n      jumpi\n      0x00\n      dup1\n      revert\n    tag_1:\n      pop\n      jumpi(tag_2, lt(calldatasize, 0x04))\n      shr(0xe0, calldataload(0x00))\n      dup1\n      0x06a9d934\n      eq\n      tag_3\n      jumpi\n      dup1\n      0xa72d2473\n      eq\n      tag_4\n      jumpi\n    tag_2:\n      0x00\n      dup1\n      revert\n        /* \"ex16 call/call.sol\":1937:2578  function callNotFunc(address payable _address, uint _a, uint _b) public returns(bytes memory) {... */\n    tag_3:\n      tag_5\n      0x04\n      dup1\n      calldatasize\n      sub\n      dup2\n      add\n      swap1\n      tag_6\n      swap2\n      swap1\n      tag_7\n      jump\t// in\n    tag_6:\n      tag_8\n      jump\t// in\n    tag_5:\n      mload(0x40)\n      tag_9\n      swap2\n      swap1\n      tag_10\n      jump\t// in\n    tag_9:\n      mload(0x40)\n      dup1\n      swap2\n      sub\n      swap1\n      return\n        /* \"ex16 call/call.sol\":1305:1934  function callFunc(address payable _address, uint _a, uint _b) public returns(bytes memory) {... */\n    tag_4:\n      tag_11\n      0x04\n      dup1\n      calldatasize\n      sub\n      dup2\n      add\n      swap1\n      tag_12\n      swap2\n      swap1\n      tag_7\n      jump\t// in\n    tag_12:\n      tag_13\n      jump\t// in\n    tag_11:\n      mload(0x40)\n      tag_14\n      swap2\n      swap1\n      tag_10\n      jump\t// in\n    tag_14:\n      mload(0x40)\n      dup1\n      swap2\n      sub\n      swap1\n      return\n        /* \"ex16 call/call.sol\":1937:2578  function callNotFunc(address payable _address, uint _a, uint _b) public returns(bytes memory) {... */\n    tag_8:\n        /* \"ex16 call/call.sol\":2017:2029  bytes memory */\n      0x60\n        /* \"ex16 call/call.sol\":2152:2178  bytes memory callFuncBytes */\n      0x00\n        /* \"ex16 call/call.sol\":2238:2240  _a */\n      dup4\n        /* \"ex16 call/call.sol\":2242:2244  _b */\n      dup4\n        /* \"ex16 call/call.sol\":2181:2245  abi.encodeWithSignature(\"NotExistFunc(uint256,uint256)\", _a, _b) */\n      add(0x24, mload(0x40))\n      tag_16\n      swap3\n      swap2\n      swap1\n      tag_17\n      jump\t// in\n    tag_16:\n      mload(0x40)\n      0x20\n      dup2\n      dup4\n      sub\n      sub\n      dup2\n      mstore\n      swap1\n      0x40\n      mstore\n      and(not(0xffffffffffffffffffffffffffffffffffffffffffffffffffffffff), 0xb8d2a4c500000000000000000000000000000000000000000000000000000000)\n      0x20\n      dup3\n      add\n      dup1\n      mload\n      0xffffffffffffffffffffffffffffffffffffffffffffffffffffffff\n      dup4\n      dup2\n      dup4\n      and\n      or\n      dup4\n      mstore\n      pop\n      pop\n      pop\n      pop\n        /* \"ex16 call/call.sol\":2152:2245  bytes memory callFuncBytes = abi.encodeWithSignature(\"NotExistFunc(uint256,uint256)\", _a, _b) */\n      swap1\n      pop\n        /* \"ex16 call/call.sol\":2342:2346  true */\n      0x01\n        /* \"ex16 call/call.sol\":2318:2346  isContract(_address) == true */\n      iszero\n      iszero\n        /* \"ex16 call/call.sol\":2318:2338  isContract(_address) */\n      tag_18\n        /* \"ex16 call/call.sol\":2329:2337  _address */\n      dup7\n        /* \"ex16 call/call.sol\":2318:2328  isContract */\n      tag_19\n        /* \"ex16 call/call.sol\":2318:2338  isContract(_address) */\n      jump\t// in\n    tag_18:\n        /* \"ex16 call/call.sol\":2318:2346  isContract(_address) == true */\n      iszero\n      iszero\n      sub\n        /* \"ex16 call/call.sol\":2314:2575  if (isContract(_address) == true) {... */\n      tag_20\n      jumpi\n        /* \"ex16 call/call.sol\":2359:2370  bool result */\n      0x00\n        /* \"ex16 call/call.sol\":2372:2395  bytes memory returnData */\n      dup1\n        /* \"ex16 call/call.sol\":2399:2407  _address */\n      dup7\n        /* \"ex16 call/call.sol\":2399:2412  _address.call */\n      0xffffffffffffffffffffffffffffffffffffffff\n      and\n        /* \"ex16 call/call.sol\":2413:2426  callFuncBytes */\n      dup4\n        /* \"ex16 call/call.sol\":2399:2427  _address.call(callFuncBytes) */\n      mload(0x40)\n      tag_21\n      swap2\n      swap1\n      tag_22\n      jump\t// in\n    tag_21:\n      0x00\n      mload(0x40)\n      dup1\n      dup4\n      sub\n      dup2\n      0x00\n      dup7\n      gas\n      call\n      swap2\n      pop\n      pop\n      returndatasize\n      dup1\n      0x00\n      dup2\n      eq\n      tag_25\n      jumpi\n      mload(0x40)\n      swap2\n      pop\n      and(add(returndatasize, 0x3f), not(0x1f))\n      dup3\n      add\n      0x40\n      mstore\n      returndatasize\n      dup3\n      mstore\n      returndatasize\n      0x00\n      0x20\n      dup5\n      add\n      returndatacopy\n      jump(tag_24)\n    tag_25:\n      0x60\n      swap2\n      pop\n    tag_24:\n      pop\n        /* \"ex16 call/call.sol\":2358:2427  (bool result, bytes memory returnData) = _address.call(callFuncBytes) */\n      swap2\n      pop\n      swap2\n      pop\n        /* \"ex16 call/call.sol\":2451:2455  true */\n      0x01\n        /* \"ex16 call/call.sol\":2441:2455  result == true */\n      iszero\n      iszero\n        /* \"ex16 call/call.sol\":2441:2447  result */\n      dup3\n        /* \"ex16 call/call.sol\":2441:2455  result == true */\n      iszero\n      iszero\n      sub\n        /* \"ex16 call/call.sol\":2437:2538  if (result == true) {... */\n      tag_26\n      jumpi\n        /* \"ex16 call/call.sol\":2478:2488  returnData */\n      dup1\n        /* \"ex16 call/call.sol\":2471:2488  return returnData */\n      swap4\n      pop\n      pop\n      pop\n      pop\n      jump(tag_15)\n        /* \"ex16 call/call.sol\":2437:2538  if (result == true) {... */\n    tag_26:\n        /* \"ex16 call/call.sol\":2519:2527  revert() */\n      0x00\n      dup1\n      revert\n        /* \"ex16 call/call.sol\":2314:2575  if (isContract(_address) == true) {... */\n    tag_20:\n        /* \"ex16 call/call.sol\":2560:2568  revert() */\n      0x00\n      dup1\n      revert\n        /* \"ex16 call/call.sol\":1937:2578  function callNotFunc(address payable _address, uint _a, uint _b) public returns(bytes memory) {... */\n    tag_15:\n      swap4\n      swap3\n      pop\n      pop\n      pop\n      jump\t// out\n        /* \"ex16 call/call.sol\":1305:1934  function callFunc(address payable _address, uint _a, uint _b) public returns(bytes memory) {... */\n    tag_13:\n        /* \"ex16 call/call.sol\":1382:1394  bytes memory */\n      0x60\n        /* \"ex16 call/call.sol\":1517:1543  bytes memory callFuncBytes */\n      0x00\n        /* \"ex16 call/call.sol\":1594:1596  _a */\n      dup4\n        /* \"ex16 call/call.sol\":1598:1600  _b */\n      dup4\n        /* \"ex16 call/call.sol\":1546:1601  abi.encodeWithSignature(\"add(uint256,uint256)\", _a, _b) */\n      add(0x24, mload(0x40))\n      tag_30\n      swap3\n      swap2\n      swap1\n      tag_17\n      jump\t// in\n    tag_30:\n      mload(0x40)\n      0x20\n      dup2\n      dup4\n      sub\n      sub\n      dup2\n      mstore\n      swap1\n      0x40\n      mstore\n      and(not(0xffffffffffffffffffffffffffffffffffffffffffffffffffffffff), 0x771602f700000000000000000000000000000000000000000000000000000000)\n      0x20\n      dup3\n      add\n      dup1\n      mload\n      0xffffffffffffffffffffffffffffffffffffffffffffffffffffffff\n      dup4\n      dup2\n      dup4\n      and\n      or\n      dup4\n      mstore\n      pop\n      pop\n      pop\n      pop\n        /* \"ex16 call/call.sol\":1517:1601  bytes memory callFuncBytes = abi.encodeWithSignature(\"add(uint256,uint256)\", _a, _b) */\n      swap1\n      pop\n        /* \"ex16 call/call.sol\":1698:1702  true */\n      0x01\n        /* \"ex16 call/call.sol\":1674:1702  isContract(_address) == true */\n      iszero\n      iszero\n        /* \"ex16 call/call.sol\":1674:1694  isContract(_address) */\n      tag_31\n        /* \"ex16 call/call.sol\":1685:1693  _address */\n      dup7\n        /* \"ex16 call/call.sol\":1674:1684  isContract */\n      tag_19\n        /* \"ex16 call/call.sol\":1674:1694  isContract(_address) */\n      jump\t// in\n    tag_31:\n        /* \"ex16 call/call.sol\":1674:1702  isContract(_address) == true */\n      iszero\n      iszero\n      sub\n        /* \"ex16 call/call.sol\":1670:1931  if (isContract(_address) == true) {... */\n      tag_32\n      jumpi\n        /* \"ex16 call/call.sol\":1715:1726  bool result */\n      0x00\n        /* \"ex16 call/call.sol\":1728:1751  bytes memory returnData */\n      dup1\n        /* \"ex16 call/call.sol\":1755:1763  _address */\n      dup7\n        /* \"ex16 call/call.sol\":1755:1768  _address.call */\n      0xffffffffffffffffffffffffffffffffffffffff\n      and\n        /* \"ex16 call/call.sol\":1769:1782  callFuncBytes */\n      dup4\n        /* \"ex16 call/call.sol\":1755:1783  _address.call(callFuncBytes) */\n      mload(0x40)\n      tag_33\n      swap2\n      swap1\n      tag_22\n      jump\t// in\n    tag_33:\n      0x00\n      mload(0x40)\n      dup1\n      dup4\n      sub\n      dup2\n      0x00\n      dup7\n      gas\n      call\n      swap2\n      pop\n      pop\n      returndatasize\n      dup1\n      0x00\n      dup2\n      eq\n      tag_36\n      jumpi\n      mload(0x40)\n      swap2\n      pop\n      and(add(returndatasize, 0x3f), not(0x1f))\n      dup3\n      add\n      0x40\n      mstore\n      returndatasize\n      dup3\n      mstore\n      returndatasize\n      0x00\n      0x20\n      dup5\n      add\n      returndatacopy\n      jump(tag_35)\n    tag_36:\n      0x60\n      swap2\n      pop\n    tag_35:\n      pop\n        /* \"ex16 call/call.sol\":1714:1783  (bool result, bytes memory returnData) = _address.call(callFuncBytes) */\n      swap2\n      pop\n      swap2\n      pop\n        /* \"ex16 call/call.sol\":1807:1811  true */\n      0x01\n        /* \"ex16 call/call.sol\":1797:1811  result == true */\n      iszero\n      iszero\n        /* \"ex16 call/call.sol\":1797:1803  result */\n      dup3\n        /* \"ex16 call/call.sol\":1797:1811  result == true */\n      iszero\n      iszero\n      sub\n        /* \"ex16 call/call.sol\":1793:1894  if (result == true) {... */\n      tag_37\n      jumpi\n        /* \"ex16 call/call.sol\":1834:1844  returnData */\n      dup1\n        /* \"ex16 call/call.sol\":1827:1844  return returnData */\n      swap4\n      pop\n      pop\n      pop\n      pop\n      jump(tag_29)\n        /* \"ex16 call/call.sol\":1793:1894  if (result == true) {... */\n    tag_37:\n        /* \"ex16 call/call.sol\":1875:1883  revert() */\n      0x00\n      dup1\n      revert\n        /* \"ex16 call/call.sol\":1670:1931  if (isContract(_address) == true) {... */\n    tag_32:\n        /* \"ex16 call/call.sol\":1916:1924  revert() */\n      0x00\n      dup1\n      revert\n        /* \"ex16 call/call.sol\":1305:1934  function callFunc(address payable _address, uint _a, uint _b) public returns(bytes memory) {... */\n    tag_29:\n      swap4\n      swap3\n      pop\n      pop\n      pop\n      jump\t// out\n        /* \"ex16 call/call.sol\":1036:1302  function isContract(address _addr) private view returns(bool){... */\n    tag_19:\n        /* \"ex16 call/call.sol\":1092:1096  bool */\n      0x00\n        /* \"ex16 call/call.sol\":1104:1115  uint32 size */\n      dup1\n        /* \"ex16 call/call.sol\":1162:1167  _addr */\n      dup3\n        /* \"ex16 call/call.sol\":1150:1168  extcodesize(_addr) */\n      extcodesize\n        /* \"ex16 call/call.sol\":1142:1168  size := extcodesize(_addr) */\n      swap1\n      pop\n        /* \"ex16 call/call.sol\":1192:1193  0 */\n      0x00\n        /* \"ex16 call/call.sol\":1185:1189  size */\n      dup2\n        /* \"ex16 call/call.sol\":1185:1193  size > 0 */\n      0xffffffff\n      and\n      gt\n        /* \"ex16 call/call.sol\":1181:1299  if (size > 0) {... */\n      iszero\n      tag_41\n      jumpi\n        /* \"ex16 call/call.sol\":1234:1238  true */\n      0x01\n        /* \"ex16 call/call.sol\":1227:1238  return true */\n      swap2\n      pop\n      pop\n      jump(tag_40)\n        /* \"ex16 call/call.sol\":1181:1299  if (size > 0) {... */\n    tag_41:\n        /* \"ex16 call/call.sol\":1286:1291  false */\n      0x00\n        /* \"ex16 call/call.sol\":1279:1291  return false */\n      swap2\n      pop\n      pop\n        /* \"ex16 call/call.sol\":1036:1302  function isContract(address _addr) private view returns(bool){... */\n    tag_40:\n      swap2\n      swap1\n      pop\n      jump\t// out\n        /* \"#utility.yul\":88:205   */\n    tag_44:\n        /* \"#utility.yul\":197:198   */\n      0x00\n        /* \"#utility.yul\":194:195   */\n      dup1\n        /* \"#utility.yul\":187:199   */\n      revert\n        /* \"#utility.yul\":334:460   */\n    tag_46:\n        /* \"#utility.yul\":371:378   */\n      0x00\n        /* \"#utility.yul\":411:453   */\n      0xffffffffffffffffffffffffffffffffffffffff\n        /* \"#utility.yul\":404:409   */\n      dup3\n        /* \"#utility.yul\":400:454   */\n      and\n        /* \"#utility.yul\":389:454   */\n      swap1\n      pop\n        /* \"#utility.yul\":334:460   */\n      swap2\n      swap1\n      pop\n      jump\t// out\n        /* \"#utility.yul\":466:570   */\n    tag_47:\n        /* \"#utility.yul\":511:518   */\n      0x00\n        /* \"#utility.yul\":540:564   */\n      tag_67\n        /* \"#utility.yul\":558:563   */\n      dup3\n        /* \"#utility.yul\":540:564   */\n      tag_46\n      jump\t// in\n    tag_67:\n        /* \"#utility.yul\":529:564   */\n      swap1\n      pop\n        /* \"#utility.yul\":466:570   */\n      swap2\n      swap1\n      pop\n      jump\t// out\n        /* \"#utility.yul\":576:714   */\n    tag_48:\n        /* \"#utility.yul\":657:689   */\n      tag_69\n        /* \"#utility.yul\":683:688   */\n      dup2\n        /* \"#utility.yul\":657:689   */\n      tag_47\n      jump\t// in\n    tag_69:\n        /* \"#utility.yul\":650:655   */\n      dup2\n        /* \"#utility.yul\":647:690   */\n      eq\n        /* \"#utility.yul\":637:708   */\n      tag_70\n      jumpi\n        /* \"#utility.yul\":704:705   */\n      0x00\n        /* \"#utility.yul\":701:702   */\n      dup1\n        /* \"#utility.yul\":694:706   */\n      revert\n        /* \"#utility.yul\":637:708   */\n    tag_70:\n        /* \"#utility.yul\":576:714   */\n      pop\n      jump\t// out\n        /* \"#utility.yul\":720:875   */\n    tag_49:\n        /* \"#utility.yul\":774:779   */\n      0x00\n        /* \"#utility.yul\":812:818   */\n      dup2\n        /* \"#utility.yul\":799:819   */\n      calldataload\n        /* \"#utility.yul\":790:819   */\n      swap1\n      pop\n        /* \"#utility.yul\":828:869   */\n      tag_72\n        /* \"#utility.yul\":863:868   */\n      dup2\n        /* \"#utility.yul\":828:869   */\n      tag_48\n      jump\t// in\n    tag_72:\n        /* \"#utility.yul\":720:875   */\n      swap3\n      swap2\n      pop\n      pop\n      jump\t// out\n        /* \"#utility.yul\":881:958   */\n    tag_50:\n        /* \"#utility.yul\":918:925   */\n      0x00\n        /* \"#utility.yul\":947:952   */\n      dup2\n        /* \"#utility.yul\":936:952   */\n      swap1\n      pop\n        /* \"#utility.yul\":881:958   */\n      swap2\n      swap1\n      pop\n      jump\t// out\n        /* \"#utility.yul\":964:1086   */\n    tag_51:\n        /* \"#utility.yul\":1037:1061   */\n      tag_75\n        /* \"#utility.yul\":1055:1060   */\n      dup2\n        /* \"#utility.yul\":1037:1061   */\n      tag_50\n      jump\t// in\n    tag_75:\n        /* \"#utility.yul\":1030:1035   */\n      dup2\n        /* \"#utility.yul\":1027:1062   */\n      eq\n        /* \"#utility.yul\":1017:1080   */\n      tag_76\n      jumpi\n        /* \"#utility.yul\":1076:1077   */\n      0x00\n        /* \"#utility.yul\":1073:1074   */\n      dup1\n        /* \"#utility.yul\":1066:1078   */\n      revert\n        /* \"#utility.yul\":1017:1080   */\n    tag_76:\n        /* \"#utility.yul\":964:1086   */\n      pop\n      jump\t// out\n        /* \"#utility.yul\":1092:1231   */\n    tag_52:\n        /* \"#utility.yul\":1138:1143   */\n      0x00\n        /* \"#utility.yul\":1176:1182   */\n      dup2\n        /* \"#utility.yul\":1163:1183   */\n      calldataload\n        /* \"#utility.yul\":1154:1183   */\n      swap1\n      pop\n        /* \"#utility.yul\":1192:1225   */\n      tag_78\n        /* \"#utility.yul\":1219:1224   */\n      dup2\n        /* \"#utility.yul\":1192:1225   */\n      tag_51\n      jump\t// in\n    tag_78:\n        /* \"#utility.yul\":1092:1231   */\n      swap3\n      swap2\n      pop\n      pop\n      jump\t// out\n        /* \"#utility.yul\":1237:1872   */\n    tag_7:\n        /* \"#utility.yul\":1322:1328   */\n      0x00\n        /* \"#utility.yul\":1330:1336   */\n      dup1\n        /* \"#utility.yul\":1338:1344   */\n      0x00\n        /* \"#utility.yul\":1387:1389   */\n      0x60\n        /* \"#utility.yul\":1375:1384   */\n      dup5\n        /* \"#utility.yul\":1366:1373   */\n      dup7\n        /* \"#utility.yul\":1362:1385   */\n      sub\n        /* \"#utility.yul\":1358:1390   */\n      slt\n        /* \"#utility.yul\":1355:1474   */\n      iszero\n      tag_80\n      jumpi\n        /* \"#utility.yul\":1393:1472   */\n      tag_81\n      tag_44\n      jump\t// in\n    tag_81:\n        /* \"#utility.yul\":1355:1474   */\n    tag_80:\n        /* \"#utility.yul\":1513:1514   */\n      0x00\n        /* \"#utility.yul\":1538:1599   */\n      tag_82\n        /* \"#utility.yul\":1591:1598   */\n      dup7\n        /* \"#utility.yul\":1582:1588   */\n      dup3\n        /* \"#utility.yul\":1571:1580   */\n      dup8\n        /* \"#utility.yul\":1567:1589   */\n      add\n        /* \"#utility.yul\":1538:1599   */\n      tag_49\n      jump\t// in\n    tag_82:\n        /* \"#utility.yul\":1528:1599   */\n      swap4\n      pop\n        /* \"#utility.yul\":1484:1609   */\n      pop\n        /* \"#utility.yul\":1648:1650   */\n      0x20\n        /* \"#utility.yul\":1674:1727   */\n      tag_83\n        /* \"#utility.yul\":1719:1726   */\n      dup7\n        /* \"#utility.yul\":1710:1716   */\n      dup3\n        /* \"#utility.yul\":1699:1708   */\n      dup8\n        /* \"#utility.yul\":1695:1717   */\n      add\n        /* \"#utility.yul\":1674:1727   */\n      tag_52\n      jump\t// in\n    tag_83:\n        /* \"#utility.yul\":1664:1727   */\n      swap3\n      pop\n        /* \"#utility.yul\":1619:1737   */\n      pop\n        /* \"#utility.yul\":1776:1778   */\n      0x40\n        /* \"#utility.yul\":1802:1855   */\n      tag_84\n        /* \"#utility.yul\":1847:1854   */\n      dup7\n        /* \"#utility.yul\":1838:1844   */\n      dup3\n        /* \"#utility.yul\":1827:1836   */\n      dup8\n        /* \"#utility.yul\":1823:1845   */\n      add\n        /* \"#utility.yul\":1802:1855   */\n      tag_52\n      jump\t// in\n    tag_84:\n        /* \"#utility.yul\":1792:1855   */\n      swap2\n      pop\n        /* \"#utility.yul\":1747:1865   */\n      pop\n        /* \"#utility.yul\":1237:1872   */\n      swap3\n      pop\n      swap3\n      pop\n      swap3\n      jump\t// out\n        /* \"#utility.yul\":1878:1976   */\n    tag_53:\n        /* \"#utility.yul\":1929:1935   */\n      0x00\n        /* \"#utility.yul\":1963:1968   */\n      dup2\n        /* \"#utility.yul\":1957:1969   */\n      mload\n        /* \"#utility.yul\":1947:1969   */\n      swap1\n      pop\n        /* \"#utility.yul\":1878:1976   */\n      swap2\n      swap1\n      pop\n      jump\t// out\n        /* \"#utility.yul\":1982:2150   */\n    tag_54:\n        /* \"#utility.yul\":2065:2076   */\n      0x00\n        /* \"#utility.yul\":2099:2105   */\n      dup3\n        /* \"#utility.yul\":2094:2097   */\n      dup3\n        /* \"#utility.yul\":2087:2106   */\n      mstore\n        /* \"#utility.yul\":2139:2143   */\n      0x20\n        /* \"#utility.yul\":2134:2137   */\n      dup3\n        /* \"#utility.yul\":2130:2144   */\n      add\n        /* \"#utility.yul\":2115:2144   */\n      swap1\n      pop\n        /* \"#utility.yul\":1982:2150   */\n      swap3\n      swap2\n      pop\n      pop\n      jump\t// out\n        /* \"#utility.yul\":2156:2402   */\n    tag_55:\n        /* \"#utility.yul\":2237:2238   */\n      0x00\n        /* \"#utility.yul\":2247:2360   */\n    tag_88:\n        /* \"#utility.yul\":2261:2267   */\n      dup4\n        /* \"#utility.yul\":2258:2259   */\n      dup2\n        /* \"#utility.yul\":2255:2268   */\n      lt\n        /* \"#utility.yul\":2247:2360   */\n      iszero\n      tag_90\n      jumpi\n        /* \"#utility.yul\":2346:2347   */\n      dup1\n        /* \"#utility.yul\":2341:2344   */\n      dup3\n        /* \"#utility.yul\":2337:2348   */\n      add\n        /* \"#utility.yul\":2331:2349   */\n      mload\n        /* \"#utility.yul\":2327:2328   */\n      dup2\n        /* \"#utility.yul\":2322:2325   */\n      dup5\n        /* \"#utility.yul\":2318:2329   */\n      add\n        /* \"#utility.yul\":2311:2350   */\n      mstore\n        /* \"#utility.yul\":2283:2285   */\n      0x20\n        /* \"#utility.yul\":2280:2281   */\n      dup2\n        /* \"#utility.yul\":2276:2286   */\n      add\n        /* \"#utility.yul\":2271:2286   */\n      swap1\n      pop\n        /* \"#utility.yul\":2247:2360   */\n      jump(tag_88)\n    tag_90:\n        /* \"#utility.yul\":2394:2395   */\n      0x00\n        /* \"#utility.yul\":2385:2391   */\n      dup5\n        /* \"#utility.yul\":2380:2383   */\n      dup5\n        /* \"#utility.yul\":2376:2392   */\n      add\n        /* \"#utility.yul\":2369:2396   */\n      mstore\n        /* \"#utility.yul\":2218:2402   */\n      pop\n        /* \"#utility.yul\":2156:2402   */\n      pop\n      pop\n      pop\n      jump\t// out\n        /* \"#utility.yul\":2408:2510   */\n    tag_56:\n        /* \"#utility.yul\":2449:2455   */\n      0x00\n        /* \"#utility.yul\":2500:2502   */\n      0x1f\n        /* \"#utility.yul\":2496:2503   */\n      not\n        /* \"#utility.yul\":2491:2493   */\n      0x1f\n        /* \"#utility.yul\":2484:2489   */\n      dup4\n        /* \"#utility.yul\":2480:2494   */\n      add\n        /* \"#utility.yul\":2476:2504   */\n      and\n        /* \"#utility.yul\":2466:2504   */\n      swap1\n      pop\n        /* \"#utility.yul\":2408:2510   */\n      swap2\n      swap1\n      pop\n      jump\t// out\n        /* \"#utility.yul\":2516:2889   */\n    tag_57:\n        /* \"#utility.yul\":2602:2605   */\n      0x00\n        /* \"#utility.yul\":2630:2668   */\n      tag_93\n        /* \"#utility.yul\":2662:2667   */\n      dup3\n        /* \"#utility.yul\":2630:2668   */\n      tag_53\n      jump\t// in\n    tag_93:\n        /* \"#utility.yul\":2684:2754   */\n      tag_94\n        /* \"#utility.yul\":2747:2753   */\n      dup2\n        /* \"#utility.yul\":2742:2745   */\n      dup6\n        /* \"#utility.yul\":2684:2754   */\n      tag_54\n      jump\t// in\n    tag_94:\n        /* \"#utility.yul\":2677:2754   */\n      swap4\n      pop\n        /* \"#utility.yul\":2763:2828   */\n      tag_95\n        /* \"#utility.yul\":2821:2827   */\n      dup2\n        /* \"#utility.yul\":2816:2819   */\n      dup6\n        /* \"#utility.yul\":2809:2813   */\n      0x20\n        /* \"#utility.yul\":2802:2807   */\n      dup7\n        /* \"#utility.yul\":2798:2814   */\n      add\n        /* \"#utility.yul\":2763:2828   */\n      tag_55\n      jump\t// in\n    tag_95:\n        /* \"#utility.yul\":2853:2882   */\n      tag_96\n        /* \"#utility.yul\":2875:2881   */\n      dup2\n        /* \"#utility.yul\":2853:2882   */\n      tag_56\n      jump\t// in\n    tag_96:\n        /* \"#utility.yul\":2848:2851   */\n      dup5\n        /* \"#utility.yul\":2844:2883   */\n      add\n        /* \"#utility.yul\":2837:2883   */\n      swap2\n      pop\n        /* \"#utility.yul\":2606:2889   */\n      pop\n        /* \"#utility.yul\":2516:2889   */\n      swap3\n      swap2\n      pop\n      pop\n      jump\t// out\n        /* \"#utility.yul\":2895:3204   */\n    tag_10:\n        /* \"#utility.yul\":3006:3010   */\n      0x00\n        /* \"#utility.yul\":3044:3046   */\n      0x20\n        /* \"#utility.yul\":3033:3042   */\n      dup3\n        /* \"#utility.yul\":3029:3047   */\n      add\n        /* \"#utility.yul\":3021:3047   */\n      swap1\n      pop\n        /* \"#utility.yul\":3093:3102   */\n      dup2\n        /* \"#utility.yul\":3087:3091   */\n      dup2\n        /* \"#utility.yul\":3083:3103   */\n      sub\n        /* \"#utility.yul\":3079:3080   */\n      0x00\n        /* \"#utility.yul\":3068:3077   */\n      dup4\n        /* \"#utility.yul\":3064:3081   */\n      add\n        /* \"#utility.yul\":3057:3104   */\n      mstore\n        /* \"#utility.yul\":3121:3197   */\n      tag_98\n        /* \"#utility.yul\":3192:3196   */\n      dup2\n        /* \"#utility.yul\":3183:3189   */\n      dup5\n        /* \"#utility.yul\":3121:3197   */\n      tag_57\n      jump\t// in\n    tag_98:\n        /* \"#utility.yul\":3113:3197   */\n      swap1\n      pop\n        /* \"#utility.yul\":2895:3204   */\n      swap3\n      swap2\n      pop\n      pop\n      jump\t// out\n        /* \"#utility.yul\":3210:3328   */\n    tag_58:\n        /* \"#utility.yul\":3297:3321   */\n      tag_100\n        /* \"#utility.yul\":3315:3320   */\n      dup2\n        /* \"#utility.yul\":3297:3321   */\n      tag_50\n      jump\t// in\n    tag_100:\n        /* \"#utility.yul\":3292:3295   */\n      dup3\n        /* \"#utility.yul\":3285:3322   */\n      mstore\n        /* \"#utility.yul\":3210:3328   */\n      pop\n      pop\n      jump\t// out\n        /* \"#utility.yul\":3334:3666   */\n    tag_17:\n        /* \"#utility.yul\":3455:3459   */\n      0x00\n        /* \"#utility.yul\":3493:3495   */\n      0x40\n        /* \"#utility.yul\":3482:3491   */\n      dup3\n        /* \"#utility.yul\":3478:3496   */\n      add\n        /* \"#utility.yul\":3470:3496   */\n      swap1\n      pop\n        /* \"#utility.yul\":3506:3577   */\n      tag_102\n        /* \"#utility.yul\":3574:3575   */\n      0x00\n        /* \"#utility.yul\":3563:3572   */\n      dup4\n        /* \"#utility.yul\":3559:3576   */\n      add\n        /* \"#utility.yul\":3550:3556   */\n      dup6\n        /* \"#utility.yul\":3506:3577   */\n      tag_58\n      jump\t// in\n    tag_102:\n        /* \"#utility.yul\":3587:3659   */\n      tag_103\n        /* \"#utility.yul\":3655:3657   */\n      0x20\n        /* \"#utility.yul\":3644:3653   */\n      dup4\n        /* \"#utility.yul\":3640:3658   */\n      add\n        /* \"#utility.yul\":3631:3637   */\n      dup5\n        /* \"#utility.yul\":3587:3659   */\n      tag_58\n      jump\t// in\n    tag_103:\n        /* \"#utility.yul\":3334:3666   */\n      swap4\n      swap3\n      pop\n      pop\n      pop\n      jump\t// out\n        /* \"#utility.yul\":3672:3819   */\n    tag_59:\n        /* \"#utility.yul\":3773:3784   */\n      0x00\n        /* \"#utility.yul\":3810:3813   */\n      dup2\n        /* \"#utility.yul\":3795:3813   */\n      swap1\n      pop\n        /* \"#utility.yul\":3672:3819   */\n      swap3\n      swap2\n      pop\n      pop\n      jump\t// out\n        /* \"#utility.yul\":3825:4211   */\n    tag_60:\n        /* \"#utility.yul\":3929:3932   */\n      0x00\n        /* \"#utility.yul\":3957:3995   */\n      tag_106\n        /* \"#utility.yul\":3989:3994   */\n      dup3\n        /* \"#utility.yul\":3957:3995   */\n      tag_53\n      jump\t// in\n    tag_106:\n        /* \"#utility.yul\":4011:4099   */\n      tag_107\n        /* \"#utility.yul\":4092:4098   */\n      dup2\n        /* \"#utility.yul\":4087:4090   */\n      dup6\n        /* \"#utility.yul\":4011:4099   */\n      tag_59\n      jump\t// in\n    tag_107:\n        /* \"#utility.yul\":4004:4099   */\n      swap4\n      pop\n        /* \"#utility.yul\":4108:4173   */\n      tag_108\n        /* \"#utility.yul\":4166:4172   */\n      dup2\n        /* \"#utility.yul\":4161:4164   */\n      dup6\n        /* \"#utility.yul\":4154:4158   */\n      0x20\n        /* \"#utility.yul\":4147:4152   */\n      dup7\n        /* \"#utility.yul\":4143:4159   */\n      add\n        /* \"#utility.yul\":4108:4173   */\n      tag_55\n      jump\t// in\n    tag_108:\n        /* \"#utility.yul\":4198:4204   */\n      dup1\n        /* \"#utility.yul\":4193:4196   */\n      dup5\n        /* \"#utility.yul\":4189:4205   */\n      add\n        /* \"#utility.yul\":4182:4205   */\n      swap2\n      pop\n        /* \"#utility.yul\":3933:4211   */\n      pop\n        /* \"#utility.yul\":3825:4211   */\n      swap3\n      swap2\n      pop\n      pop\n      jump\t// out\n        /* \"#utility.yul\":4217:4488   */\n    tag_22:\n        /* \"#utility.yul\":4347:4350   */\n      0x00\n        /* \"#utility.yul\":4369:4462   */\n      tag_110\n        /* \"#utility.yul\":4458:4461   */\n      dup3\n        /* \"#utility.yul\":4449:4455   */\n      dup5\n        /* \"#utility.yul\":4369:4462   */\n      tag_60\n      jump\t// in\n    tag_110:\n        /* \"#utility.yul\":4362:4462   */\n      swap2\n      pop\n        /* \"#utility.yul\":4479:4482   */\n      dup2\n        /* \"#utility.yul\":4472:4482   */\n      swap1\n      pop\n        /* \"#utility.yul\":4217:4488   */\n      swap3\n      swap2\n      pop\n      pop\n      jump\t// out\n\n    auxdata: 0xa26469706673582212208ef6074e46314a7dbc46fbdbf59a3bce7fd0081f8906a5e19fbb9582ee5cdc6e64736f6c63430008120033\n}\n",
				"bytecode": {
					"linkReferences": {},
					"object": "608060405234801561001057600080fd5b506105a7806100206000396000f3fe608060405234801561001057600080fd5b50600436106100365760003560e01c806306a9d9341461003b578063a72d24731461006b575b600080fd5b610055600480360381019061005091906103e1565b61009b565b60405161006291906104c4565b60405180910390f35b610085600480360381019061008091906103e1565b6101dc565b60405161009291906104c4565b60405180910390f35b6060600083836040516024016100b29291906104f5565b6040516020818303038152906040527fb8d2a4c5000000000000000000000000000000000000000000000000000000007bffffffffffffffffffffffffffffffffffffffffffffffffffffffff19166020820180517bffffffffffffffffffffffffffffffffffffffffffffffffffffffff838183161783525050505090506001151561013e8661031d565b1515036101d0576000808673ffffffffffffffffffffffffffffffffffffffff168360405161016d919061055a565b6000604051808303816000865af19150503d80600081146101aa576040519150601f19603f3d011682016040523d82523d6000602084013e6101af565b606091505b509150915060011515821515036101cb578093505050506101d5565b600080fd5b600080fd5b9392505050565b6060600083836040516024016101f39291906104f5565b6040516020818303038152906040527f771602f7000000000000000000000000000000000000000000000000000000007bffffffffffffffffffffffffffffffffffffffffffffffffffffffff19166020820180517bffffffffffffffffffffffffffffffffffffffffffffffffffffffff838183161783525050505090506001151561027f8661031d565b151503610311576000808673ffffffffffffffffffffffffffffffffffffffff16836040516102ae919061055a565b6000604051808303816000865af19150503d80600081146102eb576040519150601f19603f3d011682016040523d82523d6000602084013e6102f0565b606091505b5091509150600115158215150361030c57809350505050610316565b600080fd5b600080fd5b9392505050565b600080823b905060008163ffffffff16111561033d576001915050610343565b60009150505b919050565b600080fd5b600073ffffffffffffffffffffffffffffffffffffffff82169050919050565b60006103788261034d565b9050919050565b6103888161036d565b811461039357600080fd5b50565b6000813590506103a58161037f565b92915050565b6000819050919050565b6103be816103ab565b81146103c957600080fd5b50565b6000813590506103db816103b5565b92915050565b6000806000606084860312156103fa576103f9610348565b5b600061040886828701610396565b9350506020610419868287016103cc565b925050604061042a868287016103cc565b9150509250925092565b600081519050919050565b600082825260208201905092915050565b60005b8381101561046e578082015181840152602081019050610453565b60008484015250505050565b6000601f19601f8301169050919050565b600061049682610434565b6104a0818561043f565b93506104b0818560208601610450565b6104b98161047a565b840191505092915050565b600060208201905081810360008301526104de818461048b565b905092915050565b6104ef816103ab565b82525050565b600060408201905061050a60008301856104e6565b61051760208301846104e6565b9392505050565b600081905092915050565b600061053482610434565b61053e818561051e565b935061054e818560208601610450565b80840191505092915050565b60006105668284610529565b91508190509291505056fea26469706673582212208ef6074e46314a7dbc46fbdbf59a3bce7fd0081f8906a5e19fbb9582ee5cdc6e64736f6c63430008120033",
					"opcodes": "PUSH1 0x80 PUSH1 0x40 MSTORE CALLVALUE DUP1 ISZERO PUSH2 0x10 JUMPI PUSH1 0x0 DUP1 REVERT JUMPDEST POP PUSH2 0x5A7 DUP1 PUSH2 0x20 PUSH1 0x0 CODECOPY PUSH1 0x0 RETURN INVALID PUSH1 0x80 PUSH1 0x40 MSTORE CALLVALUE DUP1 ISZERO PUSH2 0x10 JUMPI PUSH1 0x0 DUP1 REVERT JUMPDEST POP PUSH1 0x4 CALLDATASIZE LT PUSH2 0x36 JUMPI PUSH1 0x0 CALLDATALOAD PUSH1 0xE0 SHR DUP1 PUSH4 0x6A9D934 EQ PUSH2 0x3B JUMPI DUP1 PUSH4 0xA72D2473 EQ PUSH2 0x6B JUMPI JUMPDEST PUSH1 0x0 DUP1 REVERT JUMPDEST PUSH2 0x55 PUSH1 0x4 DUP1 CALLDATASIZE SUB DUP2 ADD SWAP1 PUSH2 0x50 SWAP2 SWAP1 PUSH2 0x3E1 JUMP JUMPDEST PUSH2 0x9B JUMP JUMPDEST PUSH1 0x40 MLOAD PUSH2 0x62 SWAP2 SWAP1 PUSH2 0x4C4 JUMP JUMPDEST PUSH1 0x40 MLOAD DUP1 SWAP2 SUB SWAP1 RETURN JUMPDEST PUSH2 0x85 PUSH1 0x4 DUP1 CALLDATASIZE SUB DUP2 ADD SWAP1 PUSH2 0x80 SWAP2 SWAP1 PUSH2 0x3E1 JUMP JUMPDEST PUSH2 0x1DC JUMP JUMPDEST PUSH1 0x40 MLOAD PUSH2 0x92 SWAP2 SWAP1 PUSH2 0x4C4 JUMP JUMPDEST PUSH1 0x40 MLOAD DUP1 SWAP2 SUB SWAP1 RETURN JUMPDEST PUSH1 0x60 PUSH1 0x0 DUP4 DUP4 PUSH1 0x40 MLOAD PUSH1 0x24 ADD PUSH2 0xB2 SWAP3 SWAP2 SWAP1 PUSH2 0x4F5 JUMP JUMPDEST PUSH1 0x40 MLOAD PUSH1 0x20 DUP2 DUP4 SUB SUB DUP2 MSTORE SWAP1 PUSH1 0x40 MSTORE PUSH32 0xB8D2A4C500000000000000000000000000000000000000000000000000000000 PUSH28 0xFFFFFFFFFFFFFFFFFFFFFFFFFFFFFFFFFFFFFFFFFFFFFFFFFFFFFFFF NOT AND PUSH1 0x20 DUP3 ADD DUP1 MLOAD PUSH28 0xFFFFFFFFFFFFFFFFFFFFFFFFFFFFFFFFFFFFFFFFFFFFFFFFFFFFFFFF DUP4 DUP2 DUP4 AND OR DUP4 MSTORE POP POP POP POP SWAP1 POP PUSH1 0x1 ISZERO ISZERO PUSH2 0x13E DUP7 PUSH2 0x31D JUMP JUMPDEST ISZERO ISZERO SUB PUSH2 0x1D0 JUMPI PUSH1 0x0 DUP1 DUP7 PUSH20 0xFFFFFFFFFFFFFFFFFFFFFFFFFFFFFFFFFFFFFFFF AND DUP4 PUSH1 0x40 MLOAD PUSH2 0x16D SWAP2 SWAP1 PUSH2 0x55A JUMP JUMPDEST PUSH1 0x0 PUSH1 0x40 MLOAD DUP1 DUP4 SUB DUP2 PUSH1 0x0 DUP7 GAS CALL SWAP2 POP POP RETURNDATASIZE DUP1 PUSH1 0x0 DUP2 EQ PUSH2 0x1AA JUMPI PUSH1 0x40 MLOAD SWAP2 POP PUSH1 0x1F NOT PUSH1 0x3F RETURNDATASIZE ADD AND DUP3 ADD PUSH1 0x40 MSTORE RETURNDATASIZE DUP3 MSTORE RETURNDATASIZE PUSH1 0x0 PUSH1 0x20 DUP5 ADD RETURNDATACOPY PUSH2 0x1AF JUMP JUMPDEST PUSH1 0x60 SWAP2 POP JUMPDEST POP SWAP2 POP SWAP2 POP PUSH1 0x1 ISZERO ISZERO DUP3 ISZERO ISZERO SUB PUSH2 0x1CB JUMPI DUP1 SWAP4 POP POP POP POP PUSH2 0x1D5 JUMP JUMPDEST PUSH1 0x0 DUP1 REVERT JUMPDEST PUSH1 0x0 DUP1 REVERT JUMPDEST SWAP4 SWAP3 POP POP POP JUMP JUMPDEST PUSH1 0x60 PUSH1 0x0 DUP4 DUP4 PUSH1 0x40 MLOAD PUSH1 0x24 ADD PUSH2 0x1F3 SWAP3 SWAP2 SWAP1 PUSH2 0x4F5 JUMP JUMPDEST PUSH1 0x40 MLOAD PUSH1 0x20 DUP2 DUP4 SUB SUB DUP2 MSTORE SWAP1 PUSH1 0x40 MSTORE PUSH32 0x771602F700000000000000000000000000000000000000000000000000000000 PUSH28 0xFFFFFFFFFFFFFFFFFFFFFFFFFFFFFFFFFFFFFFFFFFFFFFFFFFFFFFFF NOT AND PUSH1 0x20 DUP3 ADD DUP1 MLOAD PUSH28 0xFFFFFFFFFFFFFFFFFFFFFFFFFFFFFFFFFFFFFFFFFFFFFFFFFFFFFFFF DUP4 DUP2 DUP4 AND OR DUP4 MSTORE POP POP POP POP SWAP1 POP PUSH1 0x1 ISZERO ISZERO PUSH2 0x27F DUP7 PUSH2 0x31D JUMP JUMPDEST ISZERO ISZERO SUB PUSH2 0x311 JUMPI PUSH1 0x0 DUP1 DUP7 PUSH20 0xFFFFFFFFFFFFFFFFFFFFFFFFFFFFFFFFFFFFFFFF AND DUP4 PUSH1 0x40 MLOAD PUSH2 0x2AE SWAP2 SWAP1 PUSH2 0x55A JUMP JUMPDEST PUSH1 0x0 PUSH1 0x40 MLOAD DUP1 DUP4 SUB DUP2 PUSH1 0x0 DUP7 GAS CALL SWAP2 POP POP RETURNDATASIZE DUP1 PUSH1 0x0 DUP2 EQ PUSH2 0x2EB JUMPI PUSH1 0x40 MLOAD SWAP2 POP PUSH1 0x1F NOT PUSH1 0x3F RETURNDATASIZE ADD AND DUP3 ADD PUSH1 0x40 MSTORE RETURNDATASIZE DUP3 MSTORE RETURNDATASIZE PUSH1 0x0 PUSH1 0x20 DUP5 ADD RETURNDATACOPY PUSH2 0x2F0 JUMP JUMPDEST PUSH1 0x60 SWAP2 POP JUMPDEST POP SWAP2 POP SWAP2 POP PUSH1 0x1 ISZERO ISZERO DUP3 ISZERO ISZERO SUB PUSH2 0x30C JUMPI DUP1 SWAP4 POP POP POP POP PUSH2 0x316 JUMP JUMPDEST PUSH1 0x0 DUP1 REVERT JUMPDEST PUSH1 0x0 DUP1 REVERT JUMPDEST SWAP4 SWAP3 POP POP POP JUMP JUMPDEST PUSH1 0x0 DUP1 DUP3 EXTCODESIZE SWAP1 POP PUSH1 0x0 DUP2 PUSH4 0xFFFFFFFF AND GT ISZERO PUSH2 0x33D JUMPI PUSH1 0x1 SWAP2 POP POP PUSH2 0x343 JUMP JUMPDEST PUSH1 0x0 SWAP2 POP POP JUMPDEST SWAP2 SWAP1 POP JUMP JUMPDEST PUSH1 0x0 DUP1 REVERT JUMPDEST PUSH1 0x0 PUSH20 0xFFFFFFFFFFFFFFFFFFFFFFFFFFFFFFFFFFFFFFFF DUP3 AND SWAP1 POP SWAP2 SWAP1 POP JUMP JUMPDEST PUSH1 0x0 PUSH2 0x378 DUP3 PUSH2 0x34D JUMP JUMPDEST SWAP1 POP SWAP2 SWAP1 POP JUMP JUMPDEST PUSH2 0x388 DUP2 PUSH2 0x36D JUMP JUMPDEST DUP2 EQ PUSH2 0x393 JUMPI PUSH1 0x0 DUP1 REVERT JUMPDEST POP JUMP JUMPDEST PUSH1 0x0 DUP2 CALLDATALOAD SWAP1 POP PUSH2 0x3A5 DUP2 PUSH2 0x37F JUMP JUMPDEST SWAP3 SWAP2 POP POP JUMP JUMPDEST PUSH1 0x0 DUP2 SWAP1 POP SWAP2 SWAP1 POP JUMP JUMPDEST PUSH2 0x3BE DUP2 PUSH2 0x3AB JUMP JUMPDEST DUP2 EQ PUSH2 0x3C9 JUMPI PUSH1 0x0 DUP1 REVERT JUMPDEST POP JUMP JUMPDEST PUSH1 0x0 DUP2 CALLDATALOAD SWAP1 POP PUSH2 0x3DB DUP2 PUSH2 0x3B5 JUMP JUMPDEST SWAP3 SWAP2 POP POP JUMP JUMPDEST PUSH1 0x0 DUP1 PUSH1 0x0 PUSH1 0x60 DUP5 DUP7 SUB SLT ISZERO PUSH2 0x3FA JUMPI PUSH2 0x3F9 PUSH2 0x348 JUMP JUMPDEST JUMPDEST PUSH1 0x0 PUSH2 0x408 DUP7 DUP3 DUP8 ADD PUSH2 0x396 JUMP JUMPDEST SWAP4 POP POP PUSH1 0x20 PUSH2 0x419 DUP7 DUP3 DUP8 ADD PUSH2 0x3CC JUMP JUMPDEST SWAP3 POP POP PUSH1 0x40 PUSH2 0x42A DUP7 DUP3 DUP8 ADD PUSH2 0x3CC JUMP JUMPDEST SWAP2 POP POP SWAP3 POP SWAP3 POP SWAP3 JUMP JUMPDEST PUSH1 0x0 DUP2 MLOAD SWAP1 POP SWAP2 SWAP1 POP JUMP JUMPDEST PUSH1 0x0 DUP3 DUP3 MSTORE PUSH1 0x20 DUP3 ADD SWAP1 POP SWAP3 SWAP2 POP POP JUMP JUMPDEST PUSH1 0x0 JUMPDEST DUP4 DUP2 LT ISZERO PUSH2 0x46E JUMPI DUP1 DUP3 ADD MLOAD DUP2 DUP5 ADD MSTORE PUSH1 0x20 DUP2 ADD SWAP1 POP PUSH2 0x453 JUMP JUMPDEST PUSH1 0x0 DUP5 DUP5 ADD MSTORE POP POP POP POP JUMP JUMPDEST PUSH1 0x0 PUSH1 0x1F NOT PUSH1 0x1F DUP4 ADD AND SWAP1 POP SWAP2 SWAP1 POP JUMP JUMPDEST PUSH1 0x0 PUSH2 0x496 DUP3 PUSH2 0x434 JUMP JUMPDEST PUSH2 0x4A0 DUP2 DUP6 PUSH2 0x43F JUMP JUMPDEST SWAP4 POP PUSH2 0x4B0 DUP2 DUP6 PUSH1 0x20 DUP7 ADD PUSH2 0x450 JUMP JUMPDEST PUSH2 0x4B9 DUP2 PUSH2 0x47A JUMP JUMPDEST DUP5 ADD SWAP2 POP POP SWAP3 SWAP2 POP POP JUMP JUMPDEST PUSH1 0x0 PUSH1 0x20 DUP3 ADD SWAP1 POP DUP2 DUP2 SUB PUSH1 0x0 DUP4 ADD MSTORE PUSH2 0x4DE DUP2 DUP5 PUSH2 0x48B JUMP JUMPDEST SWAP1 POP SWAP3 SWAP2 POP POP JUMP JUMPDEST PUSH2 0x4EF DUP2 PUSH2 0x3AB JUMP JUMPDEST DUP3 MSTORE POP POP JUMP JUMPDEST PUSH1 0x0 PUSH1 0x40 DUP3 ADD SWAP1 POP PUSH2 0x50A PUSH1 0x0 DUP4 ADD DUP6 PUSH2 0x4E6 JUMP JUMPDEST PUSH2 0x517 PUSH1 0x20 DUP4 ADD DUP5 PUSH2 0x4E6 JUMP JUMPDEST SWAP4 SWAP3 POP POP POP JUMP JUMPDEST PUSH1 0x0 DUP2 SWAP1 POP SWAP3 SWAP2 POP POP JUMP JUMPDEST PUSH1 0x0 PUSH2 0x534 DUP3 PUSH2 0x434 JUMP JUMPDEST PUSH2 0x53E DUP2 DUP6 PUSH2 0x51E JUMP JUMPDEST SWAP4 POP PUSH2 0x54E DUP2 DUP6 PUSH1 0x20 DUP7 ADD PUSH2 0x450 JUMP JUMPDEST DUP1 DUP5 ADD SWAP2 POP POP SWAP3 SWAP2 POP POP JUMP JUMPDEST PUSH1 0x0 PUSH2 0x566 DUP3 DUP5 PUSH2 0x529 JUMP JUMPDEST SWAP2 POP DUP2 SWAP1 POP SWAP3 SWAP2 POP POP JUMP INVALID LOG2 PUSH5 0x6970667358 0x22 SLT KECCAK256 DUP15 0xF6 SMOD 0x4E CHAINID BALANCE 0x4A PUSH30 0xBC46FBDBF59A3BCE7FD0081F8906A5E19FBB9582EE5CDC6E64736F6C6343 STOP ADDMOD SLT STOP CALLER "
				},
				"gasEstimates": {
					"creation": {
						"codeDepositCost": "289400",
						"executionCost": "331",
						"totalCost": "289731"
					},
					"external": {
						"callFunc(address,uint256,uint256)": "infinite",
						"callNotFunc(address,uint256,uint256)": "infinite"
					},
					"internal": {
						"isContract(address)": "2684"
					}
				},
				"methodIdentifiers": {
					"callFunc(address,uint256,uint256)": "a72d2473",
					"callNotFunc(address,uint256,uint256)": "06a9d934"
				}
			},
			"storageLayout": {
				"storage": [],
				"types": null
			},
			"userdoc": {
				"kind": "user",
				"methods": {},
				"version": 1
			}
		}
	}
}