{
	"ex16 call/delegate.sol": {
		"DelegateCallFunc": {
			"abi": [
				{
					"inputs": [
						{
							"internalType": "address payable",
							"name": "_address",
							"type": "address"
						},
						{
							"internalType": "uint256",
							"name": "_a",
							"type": "uint256"
						},
						{
							"internalType": "uint256",
							"name": "_b",
							"type": "uint256"
						}
					],
					"name": "callFunc",
					"outputs": [
						{
							"internalType": "bytes",
							"name": "",
							"type": "bytes"
						}
					],
					"stateMutability": "nonpayable",
					"type": "function"
				},
				{
					"inputs": [
						{
							"internalType": "address payable",
							"name": "_address",
							"type": "address"
						},
						{
							"internalType": "uint256",
							"name": "_a",
							"type": "uint256"
						},
						{
							"internalType": "uint256",
							"name": "_b",
							"type": "uint256"
						}
					],
					"name": "callNotFunc",
					"outputs": [
						{
							"internalType": "bytes",
							"name": "",
							"type": "bytes"
						}
					],
					"stateMutability": "payable",
					"type": "function"
				},
				{
					"inputs": [],
					"name": "owner",
					"outputs": [
						{
							"internalType": "address",
							"name": "",
							"type": "address"
						}
					],
					"stateMutability": "view",
					"type": "function"
				},
				{
					"inputs": [],
					"name": "value",
					"outputs": [
						{
							"internalType": "uint256",
							"name": "",
							"type": "uint256"
						}
					],
					"stateMutability": "view",
					"type": "function"
				}
			],
			"devdoc": {
				"kind": "dev",
				"methods": {},
				"version": 1
			},
			"evm": {
				"assembly": "    /* \"ex16 call/delegate.sol\":679:2326  contract DelegateCallFunc {... */\n  mstore(0x40, 0x80)\n  callvalue\n  dup1\n  iszero\n  tag_1\n  jumpi\n  0x00\n  dup1\n  revert\ntag_1:\n  pop\n  dataSize(sub_0)\n  dup1\n  dataOffset(sub_0)\n  0x00\n  codecopy\n  0x00\n  return\nstop\n\nsub_0: assembly {\n        /* \"ex16 call/delegate.sol\":679:2326  contract DelegateCallFunc {... */\n      mstore(0x40, 0x80)\n      jumpi(tag_1, lt(calldatasize, 0x04))\n      shr(0xe0, calldataload(0x00))\n      dup1\n      0x06a9d934\n      eq\n      tag_2\n      jumpi\n      dup1\n      0x3fa4f245\n      eq\n      tag_3\n      jumpi\n      dup1\n      0x8da5cb5b\n      eq\n      tag_4\n      jumpi\n      dup1\n      0xa72d2473\n      eq\n      tag_5\n      jumpi\n    tag_1:\n      0x00\n      dup1\n      revert\n        /* \"ex16 call/delegate.sol\":1667:2324  function callNotFunc(address payable _address, uint _a, uint _b) public payable returns(bytes memory) {... */\n    tag_2:\n      tag_6\n      0x04\n      dup1\n      calldatasize\n      sub\n      dup2\n      add\n      swap1\n      tag_7\n      swap2\n      swap1\n      tag_8\n      jump\t// in\n    tag_7:\n      tag_9\n      jump\t// in\n    tag_6:\n      mload(0x40)\n      tag_10\n      swap2\n      swap1\n      tag_11\n      jump\t// in\n    tag_10:\n      mload(0x40)\n      dup1\n      swap2\n      sub\n      swap1\n      return\n        /* \"ex16 call/delegate.sol\":737:754  uint public value */\n    tag_3:\n      callvalue\n      dup1\n      iszero\n      tag_12\n      jumpi\n      0x00\n      dup1\n      revert\n    tag_12:\n      pop\n      tag_13\n      tag_14\n      jump\t// in\n    tag_13:\n      mload(0x40)\n      tag_15\n      swap2\n      swap1\n      tag_16\n      jump\t// in\n    tag_15:\n      mload(0x40)\n      dup1\n      swap2\n      sub\n      swap1\n      return\n        /* \"ex16 call/delegate.sol\":711:731  address public owner */\n    tag_4:\n      callvalue\n      dup1\n      iszero\n      tag_17\n      jumpi\n      0x00\n      dup1\n      revert\n    tag_17:\n      pop\n      tag_18\n      tag_19\n      jump\t// in\n    tag_18:\n      mload(0x40)\n      tag_20\n      swap2\n      swap1\n      tag_21\n      jump\t// in\n    tag_20:\n      mload(0x40)\n      dup1\n      swap2\n      sub\n      swap1\n      return\n        /* \"ex16 call/delegate.sol\":1027:1664  function callFunc(address payable _address, uint _a, uint _b) public returns(bytes memory) {... */\n    tag_5:\n      callvalue\n      dup1\n      iszero\n      tag_22\n      jumpi\n      0x00\n      dup1\n      revert\n    tag_22:\n      pop\n      tag_23\n      0x04\n      dup1\n      calldatasize\n      sub\n      dup2\n      add\n      swap1\n      tag_24\n      swap2\n      swap1\n      tag_8\n      jump\t// in\n    tag_24:\n      tag_25\n      jump\t// in\n    tag_23:\n      mload(0x40)\n      tag_26\n      swap2\n      swap1\n      tag_11\n      jump\t// in\n    tag_26:\n      mload(0x40)\n      dup1\n      swap2\n      sub\n      swap1\n      return\n        /* \"ex16 call/delegate.sol\":1667:2324  function callNotFunc(address payable _address, uint _a, uint _b) public payable returns(bytes memory) {... */\n    tag_9:\n        /* \"ex16 call/delegate.sol\":1755:1767  bytes memory */\n      0x60\n        /* \"ex16 call/delegate.sol\":1890:1916  bytes memory callFuncBytes */\n      0x00\n        /* \"ex16 call/delegate.sol\":1976:1978  _a */\n      dup4\n        /* \"ex16 call/delegate.sol\":1980:1982  _b */\n      dup4\n        /* \"ex16 call/delegate.sol\":1919:1983  abi.encodeWithSignature(\"NotExistFunc(uint256,uint256)\", _a, _b) */\n      add(0x24, mload(0x40))\n      tag_28\n      swap3\n      swap2\n      swap1\n      tag_29\n      jump\t// in\n    tag_28:\n      mload(0x40)\n      0x20\n      dup2\n      dup4\n      sub\n      sub\n      dup2\n      mstore\n      swap1\n      0x40\n      mstore\n      and(not(0xffffffffffffffffffffffffffffffffffffffffffffffffffffffff), 0xb8d2a4c500000000000000000000000000000000000000000000000000000000)\n      0x20\n      dup3\n      add\n      dup1\n      mload\n      0xffffffffffffffffffffffffffffffffffffffffffffffffffffffff\n      dup4\n      dup2\n      dup4\n      and\n      or\n      dup4\n      mstore\n      pop\n      pop\n      pop\n      pop\n        /* \"ex16 call/delegate.sol\":1890:1983  bytes memory callFuncBytes = abi.encodeWithSignature(\"NotExistFunc(uint256,uint256)\", _a, _b) */\n      swap1\n      pop\n        /* \"ex16 call/delegate.sol\":2080:2084  true */\n      0x01\n        /* \"ex16 call/delegate.sol\":2056:2084  isContract(_address) == true */\n      iszero\n      iszero\n        /* \"ex16 call/delegate.sol\":2056:2076  isContract(_address) */\n      tag_30\n        /* \"ex16 call/delegate.sol\":2067:2075  _address */\n      dup7\n        /* \"ex16 call/delegate.sol\":2056:2066  isContract */\n      tag_31\n        /* \"ex16 call/delegate.sol\":2056:2076  isContract(_address) */\n      jump\t// in\n    tag_30:\n        /* \"ex16 call/delegate.sol\":2056:2084  isContract(_address) == true */\n      iszero\n      iszero\n      sub\n        /* \"ex16 call/delegate.sol\":2052:2321  if (isContract(_address) == true) {... */\n      tag_32\n      jumpi\n        /* \"ex16 call/delegate.sol\":2097:2108  bool result */\n      0x00\n        /* \"ex16 call/delegate.sol\":2110:2133  bytes memory returnData */\n      dup1\n        /* \"ex16 call/delegate.sol\":2137:2145  _address */\n      dup7\n        /* \"ex16 call/delegate.sol\":2137:2158  _address.delegatecall */\n      0xffffffffffffffffffffffffffffffffffffffff\n      and\n        /* \"ex16 call/delegate.sol\":2159:2172  callFuncBytes */\n      dup4\n        /* \"ex16 call/delegate.sol\":2137:2173  _address.delegatecall(callFuncBytes) */\n      mload(0x40)\n      tag_33\n      swap2\n      swap1\n      tag_34\n      jump\t// in\n    tag_33:\n      0x00\n      mload(0x40)\n      dup1\n      dup4\n      sub\n      dup2\n      dup6\n      gas\n      delegatecall\n      swap2\n      pop\n      pop\n      returndatasize\n      dup1\n      0x00\n      dup2\n      eq\n      tag_37\n      jumpi\n      mload(0x40)\n      swap2\n      pop\n      and(add(returndatasize, 0x3f), not(0x1f))\n      dup3\n      add\n      0x40\n      mstore\n      returndatasize\n      dup3\n      mstore\n      returndatasize\n      0x00\n      0x20\n      dup5\n      add\n      returndatacopy\n      jump(tag_36)\n    tag_37:\n      0x60\n      swap2\n      pop\n    tag_36:\n      pop\n        /* \"ex16 call/delegate.sol\":2096:2173  (bool result, bytes memory returnData) = _address.delegatecall(callFuncBytes) */\n      swap2\n      pop\n      swap2\n      pop\n        /* \"ex16 call/delegate.sol\":2197:2201  true */\n      0x01\n        /* \"ex16 call/delegate.sol\":2187:2201  result == true */\n      iszero\n      iszero\n        /* \"ex16 call/delegate.sol\":2187:2193  result */\n      dup3\n        /* \"ex16 call/delegate.sol\":2187:2201  result == true */\n      iszero\n      iszero\n      sub\n        /* \"ex16 call/delegate.sol\":2183:2284  if (result == true) {... */\n      tag_38\n      jumpi\n        /* \"ex16 call/delegate.sol\":2224:2234  returnData */\n      dup1\n        /* \"ex16 call/delegate.sol\":2217:2234  return returnData */\n      swap4\n      pop\n      pop\n      pop\n      pop\n      jump(tag_27)\n        /* \"ex16 call/delegate.sol\":2183:2284  if (result == true) {... */\n    tag_38:\n        /* \"ex16 call/delegate.sol\":2265:2273  revert() */\n      0x00\n      dup1\n      revert\n        /* \"ex16 call/delegate.sol\":2052:2321  if (isContract(_address) == true) {... */\n    tag_32:\n        /* \"ex16 call/delegate.sol\":2306:2314  revert() */\n      0x00\n      dup1\n      revert\n        /* \"ex16 call/delegate.sol\":1667:2324  function callNotFunc(address payable _address, uint _a, uint _b) public payable returns(bytes memory) {... */\n    tag_27:\n      swap4\n      swap3\n      pop\n      pop\n      pop\n      jump\t// out\n        /* \"ex16 call/delegate.sol\":737:754  uint public value */\n    tag_14:\n      sload(0x01)\n      dup2\n      jump\t// out\n        /* \"ex16 call/delegate.sol\":711:731  address public owner */\n    tag_19:\n      0x00\n      dup1\n      sload\n      swap1\n      0x0100\n      exp\n      swap1\n      div\n      0xffffffffffffffffffffffffffffffffffffffff\n      and\n      dup2\n      jump\t// out\n        /* \"ex16 call/delegate.sol\":1027:1664  function callFunc(address payable _address, uint _a, uint _b) public returns(bytes memory) {... */\n    tag_25:\n        /* \"ex16 call/delegate.sol\":1104:1116  bytes memory */\n      0x60\n        /* \"ex16 call/delegate.sol\":1239:1265  bytes memory callFuncBytes */\n      0x00\n        /* \"ex16 call/delegate.sol\":1316:1318  _a */\n      dup4\n        /* \"ex16 call/delegate.sol\":1320:1322  _b */\n      dup4\n        /* \"ex16 call/delegate.sol\":1268:1323  abi.encodeWithSignature(\"add(uint256,uint256)\", _a, _b) */\n      add(0x24, mload(0x40))\n      tag_42\n      swap3\n      swap2\n      swap1\n      tag_29\n      jump\t// in\n    tag_42:\n      mload(0x40)\n      0x20\n      dup2\n      dup4\n      sub\n      sub\n      dup2\n      mstore\n      swap1\n      0x40\n      mstore\n      and(not(0xffffffffffffffffffffffffffffffffffffffffffffffffffffffff), 0x771602f700000000000000000000000000000000000000000000000000000000)\n      0x20\n      dup3\n      add\n      dup1\n      mload\n      0xffffffffffffffffffffffffffffffffffffffffffffffffffffffff\n      dup4\n      dup2\n      dup4\n      and\n      or\n      dup4\n      mstore\n      pop\n      pop\n      pop\n      pop\n        /* \"ex16 call/delegate.sol\":1239:1323  bytes memory callFuncBytes = abi.encodeWithSignature(\"add(uint256,uint256)\", _a, _b) */\n      swap1\n      pop\n        /* \"ex16 call/delegate.sol\":1420:1424  true */\n      0x01\n        /* \"ex16 call/delegate.sol\":1396:1424  isContract(_address) == true */\n      iszero\n      iszero\n        /* \"ex16 call/delegate.sol\":1396:1416  isContract(_address) */\n      tag_43\n        /* \"ex16 call/delegate.sol\":1407:1415  _address */\n      dup7\n        /* \"ex16 call/delegate.sol\":1396:1406  isContract */\n      tag_31\n        /* \"ex16 call/delegate.sol\":1396:1416  isContract(_address) */\n      jump\t// in\n    tag_43:\n        /* \"ex16 call/delegate.sol\":1396:1424  isContract(_address) == true */\n      iszero\n      iszero\n      sub\n        /* \"ex16 call/delegate.sol\":1392:1661  if (isContract(_address) == true) {... */\n      tag_44\n      jumpi\n        /* \"ex16 call/delegate.sol\":1437:1448  bool result */\n      0x00\n        /* \"ex16 call/delegate.sol\":1450:1473  bytes memory returnData */\n      dup1\n        /* \"ex16 call/delegate.sol\":1477:1485  _address */\n      dup7\n        /* \"ex16 call/delegate.sol\":1477:1498  _address.delegatecall */\n      0xffffffffffffffffffffffffffffffffffffffff\n      and\n        /* \"ex16 call/delegate.sol\":1499:1512  callFuncBytes */\n      dup4\n        /* \"ex16 call/delegate.sol\":1477:1513  _address.delegatecall(callFuncBytes) */\n      mload(0x40)\n      tag_45\n      swap2\n      swap1\n      tag_34\n      jump\t// in\n    tag_45:\n      0x00\n      mload(0x40)\n      dup1\n      dup4\n      sub\n      dup2\n      dup6\n      gas\n      delegatecall\n      swap2\n      pop\n      pop\n      returndatasize\n      dup1\n      0x00\n      dup2\n      eq\n      tag_48\n      jumpi\n      mload(0x40)\n      swap2\n      pop\n      and(add(returndatasize, 0x3f), not(0x1f))\n      dup3\n      add\n      0x40\n      mstore\n      returndatasize\n      dup3\n      mstore\n      returndatasize\n      0x00\n      0x20\n      dup5\n      add\n      returndatacopy\n      jump(tag_47)\n    tag_48:\n      0x60\n      swap2\n      pop\n    tag_47:\n      pop\n        /* \"ex16 call/delegate.sol\":1436:1513  (bool result, bytes memory returnData) = _address.delegatecall(callFuncBytes) */\n      swap2\n      pop\n      swap2\n      pop\n        /* \"ex16 call/delegate.sol\":1537:1541  true */\n      0x01\n        /* \"ex16 call/delegate.sol\":1527:1541  result == true */\n      iszero\n      iszero\n        /* \"ex16 call/delegate.sol\":1527:1533  result */\n      dup3\n        /* \"ex16 call/delegate.sol\":1527:1541  result == true */\n      iszero\n      iszero\n      sub\n        /* \"ex16 call/delegate.sol\":1523:1624  if (result == true) {... */\n      tag_49\n      jumpi\n        /* \"ex16 call/delegate.sol\":1564:1574  returnData */\n      dup1\n        /* \"ex16 call/delegate.sol\":1557:1574  return returnData */\n      swap4\n      pop\n      pop\n      pop\n      pop\n      jump(tag_41)\n        /* \"ex16 call/delegate.sol\":1523:1624  if (result == true) {... */\n    tag_49:\n        /* \"ex16 call/delegate.sol\":1605:1613  revert() */\n      0x00\n      dup1\n      revert\n        /* \"ex16 call/delegate.sol\":1392:1661  if (isContract(_address) == true) {... */\n    tag_44:\n        /* \"ex16 call/delegate.sol\":1646:1654  revert() */\n      0x00\n      dup1\n      revert\n        /* \"ex16 call/delegate.sol\":1027:1664  function callFunc(address payable _address, uint _a, uint _b) public returns(bytes memory) {... */\n    tag_41:\n      swap4\n      swap3\n      pop\n      pop\n      pop\n      jump\t// out\n        /* \"ex16 call/delegate.sol\":758:1024  function isContract(address _addr) private view returns(bool){... */\n    tag_31:\n        /* \"ex16 call/delegate.sol\":814:818  bool */\n      0x00\n        /* \"ex16 call/delegate.sol\":826:837  uint32 size */\n      dup1\n        /* \"ex16 call/delegate.sol\":884:889  _addr */\n      dup3\n        /* \"ex16 call/delegate.sol\":872:890  extcodesize(_addr) */\n      extcodesize\n        /* \"ex16 call/delegate.sol\":864:890  size := extcodesize(_addr) */\n      swap1\n      pop\n        /* \"ex16 call/delegate.sol\":914:915  0 */\n      0x00\n        /* \"ex16 call/delegate.sol\":907:911  size */\n      dup2\n        /* \"ex16 call/delegate.sol\":907:915  size > 0 */\n      0xffffffff\n      and\n      gt\n        /* \"ex16 call/delegate.sol\":903:1021  if (size > 0) {... */\n      iszero\n      tag_53\n      jumpi\n        /* \"ex16 call/delegate.sol\":956:960  true */\n      0x01\n        /* \"ex16 call/delegate.sol\":949:960  return true */\n      swap2\n      pop\n      pop\n      jump(tag_52)\n        /* \"ex16 call/delegate.sol\":903:1021  if (size > 0) {... */\n    tag_53:\n        /* \"ex16 call/delegate.sol\":1008:1013  false */\n      0x00\n        /* \"ex16 call/delegate.sol\":1001:1013  return false */\n      swap2\n      pop\n      pop\n        /* \"ex16 call/delegate.sol\":758:1024  function isContract(address _addr) private view returns(bool){... */\n    tag_52:\n      swap2\n      swap1\n      pop\n      jump\t// out\n        /* \"#utility.yul\":88:205   */\n    tag_56:\n        /* \"#utility.yul\":197:198   */\n      0x00\n        /* \"#utility.yul\":194:195   */\n      dup1\n        /* \"#utility.yul\":187:199   */\n      revert\n        /* \"#utility.yul\":334:460   */\n    tag_58:\n        /* \"#utility.yul\":371:378   */\n      0x00\n        /* \"#utility.yul\":411:453   */\n      0xffffffffffffffffffffffffffffffffffffffff\n        /* \"#utility.yul\":404:409   */\n      dup3\n        /* \"#utility.yul\":400:454   */\n      and\n        /* \"#utility.yul\":389:454   */\n      swap1\n      pop\n        /* \"#utility.yul\":334:460   */\n      swap2\n      swap1\n      pop\n      jump\t// out\n        /* \"#utility.yul\":466:570   */\n    tag_59:\n        /* \"#utility.yul\":511:518   */\n      0x00\n        /* \"#utility.yul\":540:564   */\n      tag_81\n        /* \"#utility.yul\":558:563   */\n      dup3\n        /* \"#utility.yul\":540:564   */\n      tag_58\n      jump\t// in\n    tag_81:\n        /* \"#utility.yul\":529:564   */\n      swap1\n      pop\n        /* \"#utility.yul\":466:570   */\n      swap2\n      swap1\n      pop\n      jump\t// out\n        /* \"#utility.yul\":576:714   */\n    tag_60:\n        /* \"#utility.yul\":657:689   */\n      tag_83\n        /* \"#utility.yul\":683:688   */\n      dup2\n        /* \"#utility.yul\":657:689   */\n      tag_59\n      jump\t// in\n    tag_83:\n        /* \"#utility.yul\":650:655   */\n      dup2\n        /* \"#utility.yul\":647:690   */\n      eq\n        /* \"#utility.yul\":637:708   */\n      tag_84\n      jumpi\n        /* \"#utility.yul\":704:705   */\n      0x00\n        /* \"#utility.yul\":701:702   */\n      dup1\n        /* \"#utility.yul\":694:706   */\n      revert\n        /* \"#utility.yul\":637:708   */\n    tag_84:\n        /* \"#utility.yul\":576:714   */\n      pop\n      jump\t// out\n        /* \"#utility.yul\":720:875   */\n    tag_61:\n        /* \"#utility.yul\":774:779   */\n      0x00\n        /* \"#utility.yul\":812:818   */\n      dup2\n        /* \"#utility.yul\":799:819   */\n      calldataload\n        /* \"#utility.yul\":790:819   */\n      swap1\n      pop\n        /* \"#utility.yul\":828:869   */\n      tag_86\n        /* \"#utility.yul\":863:868   */\n      dup2\n        /* \"#utility.yul\":828:869   */\n      tag_60\n      jump\t// in\n    tag_86:\n        /* \"#utility.yul\":720:875   */\n      swap3\n      swap2\n      pop\n      pop\n      jump\t// out\n        /* \"#utility.yul\":881:958   */\n    tag_62:\n        /* \"#utility.yul\":918:925   */\n      0x00\n        /* \"#utility.yul\":947:952   */\n      dup2\n        /* \"#utility.yul\":936:952   */\n      swap1\n      pop\n        /* \"#utility.yul\":881:958   */\n      swap2\n      swap1\n      pop\n      jump\t// out\n        /* \"#utility.yul\":964:1086   */\n    tag_63:\n        /* \"#utility.yul\":1037:1061   */\n      tag_89\n        /* \"#utility.yul\":1055:1060   */\n      dup2\n        /* \"#utility.yul\":1037:1061   */\n      tag_62\n      jump\t// in\n    tag_89:\n        /* \"#utility.yul\":1030:1035   */\n      dup2\n        /* \"#utility.yul\":1027:1062   */\n      eq\n        /* \"#utility.yul\":1017:1080   */\n      tag_90\n      jumpi\n        /* \"#utility.yul\":1076:1077   */\n      0x00\n        /* \"#utility.yul\":1073:1074   */\n      dup1\n        /* \"#utility.yul\":1066:1078   */\n      revert\n        /* \"#utility.yul\":1017:1080   */\n    tag_90:\n        /* \"#utility.yul\":964:1086   */\n      pop\n      jump\t// out\n        /* \"#utility.yul\":1092:1231   */\n    tag_64:\n        /* \"#utility.yul\":1138:1143   */\n      0x00\n        /* \"#utility.yul\":1176:1182   */\n      dup2\n        /* \"#utility.yul\":1163:1183   */\n      calldataload\n        /* \"#utility.yul\":1154:1183   */\n      swap1\n      pop\n        /* \"#utility.yul\":1192:1225   */\n      tag_92\n        /* \"#utility.yul\":1219:1224   */\n      dup2\n        /* \"#utility.yul\":1192:1225   */\n      tag_63\n      jump\t// in\n    tag_92:\n        /* \"#utility.yul\":1092:1231   */\n      swap3\n      swap2\n      pop\n      pop\n      jump\t// out\n        /* \"#utility.yul\":1237:1872   */\n    tag_8:\n        /* \"#utility.yul\":1322:1328   */\n      0x00\n        /* \"#utility.yul\":1330:1336   */\n      dup1\n        /* \"#utility.yul\":1338:1344   */\n      0x00\n        /* \"#utility.yul\":1387:1389   */\n      0x60\n        /* \"#utility.yul\":1375:1384   */\n      dup5\n        /* \"#utility.yul\":1366:1373   */\n      dup7\n        /* \"#utility.yul\":1362:1385   */\n      sub\n        /* \"#utility.yul\":1358:1390   */\n      slt\n        /* \"#utility.yul\":1355:1474   */\n      iszero\n      tag_94\n      jumpi\n        /* \"#utility.yul\":1393:1472   */\n      tag_95\n      tag_56\n      jump\t// in\n    tag_95:\n        /* \"#utility.yul\":1355:1474   */\n    tag_94:\n        /* \"#utility.yul\":1513:1514   */\n      0x00\n        /* \"#utility.yul\":1538:1599   */\n      tag_96\n        /* \"#utility.yul\":1591:1598   */\n      dup7\n        /* \"#utility.yul\":1582:1588   */\n      dup3\n        /* \"#utility.yul\":1571:1580   */\n      dup8\n        /* \"#utility.yul\":1567:1589   */\n      add\n        /* \"#utility.yul\":1538:1599   */\n      tag_61\n      jump\t// in\n    tag_96:\n        /* \"#utility.yul\":1528:1599   */\n      swap4\n      pop\n        /* \"#utility.yul\":1484:1609   */\n      pop\n        /* \"#utility.yul\":1648:1650   */\n      0x20\n        /* \"#utility.yul\":1674:1727   */\n      tag_97\n        /* \"#utility.yul\":1719:1726   */\n      dup7\n        /* \"#utility.yul\":1710:1716   */\n      dup3\n        /* \"#utility.yul\":1699:1708   */\n      dup8\n        /* \"#utility.yul\":1695:1717   */\n      add\n        /* \"#utility.yul\":1674:1727   */\n      tag_64\n      jump\t// in\n    tag_97:\n        /* \"#utility.yul\":1664:1727   */\n      swap3\n      pop\n        /* \"#utility.yul\":1619:1737   */\n      pop\n        /* \"#utility.yul\":1776:1778   */\n      0x40\n        /* \"#utility.yul\":1802:1855   */\n      tag_98\n        /* \"#utility.yul\":1847:1854   */\n      dup7\n        /* \"#utility.yul\":1838:1844   */\n      dup3\n        /* \"#utility.yul\":1827:1836   */\n      dup8\n        /* \"#utility.yul\":1823:1845   */\n      add\n        /* \"#utility.yul\":1802:1855   */\n      tag_64\n      jump\t// in\n    tag_98:\n        /* \"#utility.yul\":1792:1855   */\n      swap2\n      pop\n        /* \"#utility.yul\":1747:1865   */\n      pop\n        /* \"#utility.yul\":1237:1872   */\n      swap3\n      pop\n      swap3\n      pop\n      swap3\n      jump\t// out\n        /* \"#utility.yul\":1878:1976   */\n    tag_65:\n        /* \"#utility.yul\":1929:1935   */\n      0x00\n        /* \"#utility.yul\":1963:1968   */\n      dup2\n        /* \"#utility.yul\":1957:1969   */\n      mload\n        /* \"#utility.yul\":1947:1969   */\n      swap1\n      pop\n        /* \"#utility.yul\":1878:1976   */\n      swap2\n      swap1\n      pop\n      jump\t// out\n        /* \"#utility.yul\":1982:2150   */\n    tag_66:\n        /* \"#utility.yul\":2065:2076   */\n      0x00\n        /* \"#utility.yul\":2099:2105   */\n      dup3\n        /* \"#utility.yul\":2094:2097   */\n      dup3\n        /* \"#utility.yul\":2087:2106   */\n      mstore\n        /* \"#utility.yul\":2139:2143   */\n      0x20\n        /* \"#utility.yul\":2134:2137   */\n      dup3\n        /* \"#utility.yul\":2130:2144   */\n      add\n        /* \"#utility.yul\":2115:2144   */\n      swap1\n      pop\n        /* \"#utility.yul\":1982:2150   */\n      swap3\n      swap2\n      pop\n      pop\n      jump\t// out\n        /* \"#utility.yul\":2156:2402   */\n    tag_67:\n        /* \"#utility.yul\":2237:2238   */\n      0x00\n        /* \"#utility.yul\":2247:2360   */\n    tag_102:\n        /* \"#utility.yul\":2261:2267   */\n      dup4\n        /* \"#utility.yul\":2258:2259   */\n      dup2\n        /* \"#utility.yul\":2255:2268   */\n      lt\n        /* \"#utility.yul\":2247:2360   */\n      iszero\n      tag_104\n      jumpi\n        /* \"#utility.yul\":2346:2347   */\n      dup1\n        /* \"#utility.yul\":2341:2344   */\n      dup3\n        /* \"#utility.yul\":2337:2348   */\n      add\n        /* \"#utility.yul\":2331:2349   */\n      mload\n        /* \"#utility.yul\":2327:2328   */\n      dup2\n        /* \"#utility.yul\":2322:2325   */\n      dup5\n        /* \"#utility.yul\":2318:2329   */\n      add\n        /* \"#utility.yul\":2311:2350   */\n      mstore\n        /* \"#utility.yul\":2283:2285   */\n      0x20\n        /* \"#utility.yul\":2280:2281   */\n      dup2\n        /* \"#utility.yul\":2276:2286   */\n      add\n        /* \"#utility.yul\":2271:2286   */\n      swap1\n      pop\n        /* \"#utility.yul\":2247:2360   */\n      jump(tag_102)\n    tag_104:\n        /* \"#utility.yul\":2394:2395   */\n      0x00\n        /* \"#utility.yul\":2385:2391   */\n      dup5\n        /* \"#utility.yul\":2380:2383   */\n      dup5\n        /* \"#utility.yul\":2376:2392   */\n      add\n        /* \"#utility.yul\":2369:2396   */\n      mstore\n        /* \"#utility.yul\":2218:2402   */\n      pop\n        /* \"#utility.yul\":2156:2402   */\n      pop\n      pop\n      pop\n      jump\t// out\n        /* \"#utility.yul\":2408:2510   */\n    tag_68:\n        /* \"#utility.yul\":2449:2455   */\n      0x00\n        /* \"#utility.yul\":2500:2502   */\n      0x1f\n        /* \"#utility.yul\":2496:2503   */\n      not\n        /* \"#utility.yul\":2491:2493   */\n      0x1f\n        /* \"#utility.yul\":2484:2489   */\n      dup4\n        /* \"#utility.yul\":2480:2494   */\n      add\n        /* \"#utility.yul\":2476:2504   */\n      and\n        /* \"#utility.yul\":2466:2504   */\n      swap1\n      pop\n        /* \"#utility.yul\":2408:2510   */\n      swap2\n      swap1\n      pop\n      jump\t// out\n        /* \"#utility.yul\":2516:2889   */\n    tag_69:\n        /* \"#utility.yul\":2602:2605   */\n      0x00\n        /* \"#utility.yul\":2630:2668   */\n      tag_107\n        /* \"#utility.yul\":2662:2667   */\n      dup3\n        /* \"#utility.yul\":2630:2668   */\n      tag_65\n      jump\t// in\n    tag_107:\n        /* \"#utility.yul\":2684:2754   */\n      tag_108\n        /* \"#utility.yul\":2747:2753   */\n      dup2\n        /* \"#utility.yul\":2742:2745   */\n      dup6\n        /* \"#utility.yul\":2684:2754   */\n      tag_66\n      jump\t// in\n    tag_108:\n        /* \"#utility.yul\":2677:2754   */\n      swap4\n      pop\n        /* \"#utility.yul\":2763:2828   */\n      tag_109\n        /* \"#utility.yul\":2821:2827   */\n      dup2\n        /* \"#utility.yul\":2816:2819   */\n      dup6\n        /* \"#utility.yul\":2809:2813   */\n      0x20\n        /* \"#utility.yul\":2802:2807   */\n      dup7\n        /* \"#utility.yul\":2798:2814   */\n      add\n        /* \"#utility.yul\":2763:2828   */\n      tag_67\n      jump\t// in\n    tag_109:\n        /* \"#utility.yul\":2853:2882   */\n      tag_110\n        /* \"#utility.yul\":2875:2881   */\n      dup2\n        /* \"#utility.yul\":2853:2882   */\n      tag_68\n      jump\t// in\n    tag_110:\n        /* \"#utility.yul\":2848:2851   */\n      dup5\n        /* \"#utility.yul\":2844:2883   */\n      add\n        /* \"#utility.yul\":2837:2883   */\n      swap2\n      pop\n        /* \"#utility.yul\":2606:2889   */\n      pop\n        /* \"#utility.yul\":2516:2889   */\n      swap3\n      swap2\n      pop\n      pop\n      jump\t// out\n        /* \"#utility.yul\":2895:3204   */\n    tag_11:\n        /* \"#utility.yul\":3006:3010   */\n      0x00\n        /* \"#utility.yul\":3044:3046   */\n      0x20\n        /* \"#utility.yul\":3033:3042   */\n      dup3\n        /* \"#utility.yul\":3029:3047   */\n      add\n        /* \"#utility.yul\":3021:3047   */\n      swap1\n      pop\n        /* \"#utility.yul\":3093:3102   */\n      dup2\n        /* \"#utility.yul\":3087:3091   */\n      dup2\n        /* \"#utility.yul\":3083:3103   */\n      sub\n        /* \"#utility.yul\":3079:3080   */\n      0x00\n        /* \"#utility.yul\":3068:3077   */\n      dup4\n        /* \"#utility.yul\":3064:3081   */\n      add\n        /* \"#utility.yul\":3057:3104   */\n      mstore\n        /* \"#utility.yul\":3121:3197   */\n      tag_112\n        /* \"#utility.yul\":3192:3196   */\n      dup2\n        /* \"#utility.yul\":3183:3189   */\n      dup5\n        /* \"#utility.yul\":3121:3197   */\n      tag_69\n      jump\t// in\n    tag_112:\n        /* \"#utility.yul\":3113:3197   */\n      swap1\n      pop\n        /* \"#utility.yul\":2895:3204   */\n      swap3\n      swap2\n      pop\n      pop\n      jump\t// out\n        /* \"#utility.yul\":3210:3328   */\n    tag_70:\n        /* \"#utility.yul\":3297:3321   */\n      tag_114\n        /* \"#utility.yul\":3315:3320   */\n      dup2\n        /* \"#utility.yul\":3297:3321   */\n      tag_62\n      jump\t// in\n    tag_114:\n        /* \"#utility.yul\":3292:3295   */\n      dup3\n        /* \"#utility.yul\":3285:3322   */\n      mstore\n        /* \"#utility.yul\":3210:3328   */\n      pop\n      pop\n      jump\t// out\n        /* \"#utility.yul\":3334:3556   */\n    tag_16:\n        /* \"#utility.yul\":3427:3431   */\n      0x00\n        /* \"#utility.yul\":3465:3467   */\n      0x20\n        /* \"#utility.yul\":3454:3463   */\n      dup3\n        /* \"#utility.yul\":3450:3468   */\n      add\n        /* \"#utility.yul\":3442:3468   */\n      swap1\n      pop\n        /* \"#utility.yul\":3478:3549   */\n      tag_116\n        /* \"#utility.yul\":3546:3547   */\n      0x00\n        /* \"#utility.yul\":3535:3544   */\n      dup4\n        /* \"#utility.yul\":3531:3548   */\n      add\n        /* \"#utility.yul\":3522:3528   */\n      dup5\n        /* \"#utility.yul\":3478:3549   */\n      tag_70\n      jump\t// in\n    tag_116:\n        /* \"#utility.yul\":3334:3556   */\n      swap3\n      swap2\n      pop\n      pop\n      jump\t// out\n        /* \"#utility.yul\":3562:3658   */\n    tag_71:\n        /* \"#utility.yul\":3599:3606   */\n      0x00\n        /* \"#utility.yul\":3628:3652   */\n      tag_118\n        /* \"#utility.yul\":3646:3651   */\n      dup3\n        /* \"#utility.yul\":3628:3652   */\n      tag_58\n      jump\t// in\n    tag_118:\n        /* \"#utility.yul\":3617:3652   */\n      swap1\n      pop\n        /* \"#utility.yul\":3562:3658   */\n      swap2\n      swap1\n      pop\n      jump\t// out\n        /* \"#utility.yul\":3664:3782   */\n    tag_72:\n        /* \"#utility.yul\":3751:3775   */\n      tag_120\n        /* \"#utility.yul\":3769:3774   */\n      dup2\n        /* \"#utility.yul\":3751:3775   */\n      tag_71\n      jump\t// in\n    tag_120:\n        /* \"#utility.yul\":3746:3749   */\n      dup3\n        /* \"#utility.yul\":3739:3776   */\n      mstore\n        /* \"#utility.yul\":3664:3782   */\n      pop\n      pop\n      jump\t// out\n        /* \"#utility.yul\":3788:4010   */\n    tag_21:\n        /* \"#utility.yul\":3881:3885   */\n      0x00\n        /* \"#utility.yul\":3919:3921   */\n      0x20\n        /* \"#utility.yul\":3908:3917   */\n      dup3\n        /* \"#utility.yul\":3904:3922   */\n      add\n        /* \"#utility.yul\":3896:3922   */\n      swap1\n      pop\n        /* \"#utility.yul\":3932:4003   */\n      tag_122\n        /* \"#utility.yul\":4000:4001   */\n      0x00\n        /* \"#utility.yul\":3989:3998   */\n      dup4\n        /* \"#utility.yul\":3985:4002   */\n      add\n        /* \"#utility.yul\":3976:3982   */\n      dup5\n        /* \"#utility.yul\":3932:4003   */\n      tag_72\n      jump\t// in\n    tag_122:\n        /* \"#utility.yul\":3788:4010   */\n      swap3\n      swap2\n      pop\n      pop\n      jump\t// out\n        /* \"#utility.yul\":4016:4348   */\n    tag_29:\n        /* \"#utility.yul\":4137:4141   */\n      0x00\n        /* \"#utility.yul\":4175:4177   */\n      0x40\n        /* \"#utility.yul\":4164:4173   */\n      dup3\n        /* \"#utility.yul\":4160:4178   */\n      add\n        /* \"#utility.yul\":4152:4178   */\n      swap1\n      pop\n        /* \"#utility.yul\":4188:4259   */\n      tag_124\n        /* \"#utility.yul\":4256:4257   */\n      0x00\n        /* \"#utility.yul\":4245:4254   */\n      dup4\n        /* \"#utility.yul\":4241:4258   */\n      add\n        /* \"#utility.yul\":4232:4238   */\n      dup6\n        /* \"#utility.yul\":4188:4259   */\n      tag_70\n      jump\t// in\n    tag_124:\n        /* \"#utility.yul\":4269:4341   */\n      tag_125\n        /* \"#utility.yul\":4337:4339   */\n      0x20\n        /* \"#utility.yul\":4326:4335   */\n      dup4\n        /* \"#utility.yul\":4322:4340   */\n      add\n        /* \"#utility.yul\":4313:4319   */\n      dup5\n        /* \"#utility.yul\":4269:4341   */\n      tag_70\n      jump\t// in\n    tag_125:\n        /* \"#utility.yul\":4016:4348   */\n      swap4\n      swap3\n      pop\n      pop\n      pop\n      jump\t// out\n        /* \"#utility.yul\":4354:4501   */\n    tag_73:\n        /* \"#utility.yul\":4455:4466   */\n      0x00\n        /* \"#utility.yul\":4492:4495   */\n      dup2\n        /* \"#utility.yul\":4477:4495   */\n      swap1\n      pop\n        /* \"#utility.yul\":4354:4501   */\n      swap3\n      swap2\n      pop\n      pop\n      jump\t// out\n        /* \"#utility.yul\":4507:4893   */\n    tag_74:\n        /* \"#utility.yul\":4611:4614   */\n      0x00\n        /* \"#utility.yul\":4639:4677   */\n      tag_128\n        /* \"#utility.yul\":4671:4676   */\n      dup3\n        /* \"#utility.yul\":4639:4677   */\n      tag_65\n      jump\t// in\n    tag_128:\n        /* \"#utility.yul\":4693:4781   */\n      tag_129\n        /* \"#utility.yul\":4774:4780   */\n      dup2\n        /* \"#utility.yul\":4769:4772   */\n      dup6\n        /* \"#utility.yul\":4693:4781   */\n      tag_73\n      jump\t// in\n    tag_129:\n        /* \"#utility.yul\":4686:4781   */\n      swap4\n      pop\n        /* \"#utility.yul\":4790:4855   */\n      tag_130\n        /* \"#utility.yul\":4848:4854   */\n      dup2\n        /* \"#utility.yul\":4843:4846   */\n      dup6\n        /* \"#utility.yul\":4836:4840   */\n      0x20\n        /* \"#utility.yul\":4829:4834   */\n      dup7\n        /* \"#utility.yul\":4825:4841   */\n      add\n        /* \"#utility.yul\":4790:4855   */\n      tag_67\n      jump\t// in\n    tag_130:\n        /* \"#utility.yul\":4880:4886   */\n      dup1\n        /* \"#utility.yul\":4875:4878   */\n      dup5\n        /* \"#utility.yul\":4871:4887   */\n      add\n        /* \"#utility.yul\":4864:4887   */\n      swap2\n      pop\n        /* \"#utility.yul\":4615:4893   */\n      pop\n        /* \"#utility.yul\":4507:4893   */\n      swap3\n      swap2\n      pop\n      pop\n      jump\t// out\n        /* \"#utility.yul\":4899:5170   */\n    tag_34:\n        /* \"#utility.yul\":5029:5032   */\n      0x00\n        /* \"#utility.yul\":5051:5144   */\n      tag_132\n        /* \"#utility.yul\":5140:5143   */\n      dup3\n        /* \"#utility.yul\":5131:5137   */\n      dup5\n        /* \"#utility.yul\":5051:5144   */\n      tag_74\n      jump\t// in\n    tag_132:\n        /* \"#utility.yul\":5044:5144   */\n      swap2\n      pop\n        /* \"#utility.yul\":5161:5164   */\n      dup2\n        /* \"#utility.yul\":5154:5164   */\n      swap1\n      pop\n        /* \"#utility.yul\":4899:5170   */\n      swap3\n      swap2\n      pop\n      pop\n      jump\t// out\n\n    auxdata: 0xa2646970667358221220ffa6bd3a90668e4be6b028753f8ffd03e06b299827f8e86cf8c9ca645a64803164736f6c63430008120033\n}\n",
				"bytecode": {
					"linkReferences": {},
					"object": "608060405234801561001057600080fd5b50610690806100206000396000f3fe60806040526004361061003f5760003560e01c806306a9d934146100445780633fa4f245146100745780638da5cb5b1461009f578063a72d2473146100ca575b600080fd5b61005e60048036038101906100599190610473565b610107565b60405161006b9190610556565b60405180910390f35b34801561008057600080fd5b50610089610246565b6040516100969190610587565b60405180910390f35b3480156100ab57600080fd5b506100b461024c565b6040516100c191906105c3565b60405180910390f35b3480156100d657600080fd5b506100f160048036038101906100ec9190610473565b610270565b6040516100fe9190610556565b60405180910390f35b60606000838360405160240161011e9291906105de565b6040516020818303038152906040527fb8d2a4c5000000000000000000000000000000000000000000000000000000007bffffffffffffffffffffffffffffffffffffffffffffffffffffffff19166020820180517bffffffffffffffffffffffffffffffffffffffffffffffffffffffff83818316178352505050509050600115156101aa866103af565b15150361023a576000808673ffffffffffffffffffffffffffffffffffffffff16836040516101d99190610643565b600060405180830381855af49150503d8060008114610214576040519150601f19603f3d011682016040523d82523d6000602084013e610219565b606091505b509150915060011515821515036102355780935050505061023f565b600080fd5b600080fd5b9392505050565b60015481565b60008054906101000a900473ffffffffffffffffffffffffffffffffffffffff1681565b6060600083836040516024016102879291906105de565b6040516020818303038152906040527f771602f7000000000000000000000000000000000000000000000000000000007bffffffffffffffffffffffffffffffffffffffffffffffffffffffff19166020820180517bffffffffffffffffffffffffffffffffffffffffffffffffffffffff8381831617835250505050905060011515610313866103af565b1515036103a3576000808673ffffffffffffffffffffffffffffffffffffffff16836040516103429190610643565b600060405180830381855af49150503d806000811461037d576040519150601f19603f3d011682016040523d82523d6000602084013e610382565b606091505b5091509150600115158215150361039e578093505050506103a8565b600080fd5b600080fd5b9392505050565b600080823b905060008163ffffffff1611156103cf5760019150506103d5565b60009150505b919050565b600080fd5b600073ffffffffffffffffffffffffffffffffffffffff82169050919050565b600061040a826103df565b9050919050565b61041a816103ff565b811461042557600080fd5b50565b60008135905061043781610411565b92915050565b6000819050919050565b6104508161043d565b811461045b57600080fd5b50565b60008135905061046d81610447565b92915050565b60008060006060848603121561048c5761048b6103da565b5b600061049a86828701610428565b93505060206104ab8682870161045e565b92505060406104bc8682870161045e565b9150509250925092565b600081519050919050565b600082825260208201905092915050565b60005b838110156105005780820151818401526020810190506104e5565b60008484015250505050565b6000601f19601f8301169050919050565b6000610528826104c6565b61053281856104d1565b93506105428185602086016104e2565b61054b8161050c565b840191505092915050565b60006020820190508181036000830152610570818461051d565b905092915050565b6105818161043d565b82525050565b600060208201905061059c6000830184610578565b92915050565b60006105ad826103df565b9050919050565b6105bd816105a2565b82525050565b60006020820190506105d860008301846105b4565b92915050565b60006040820190506105f36000830185610578565b6106006020830184610578565b9392505050565b600081905092915050565b600061061d826104c6565b6106278185610607565b93506106378185602086016104e2565b80840191505092915050565b600061064f8284610612565b91508190509291505056fea2646970667358221220ffa6bd3a90668e4be6b028753f8ffd03e06b299827f8e86cf8c9ca645a64803164736f6c63430008120033",
					"opcodes": "PUSH1 0x80 PUSH1 0x40 MSTORE CALLVALUE DUP1 ISZERO PUSH2 0x10 JUMPI PUSH1 0x0 DUP1 REVERT JUMPDEST POP PUSH2 0x690 DUP1 PUSH2 0x20 PUSH1 0x0 CODECOPY PUSH1 0x0 RETURN INVALID PUSH1 0x80 PUSH1 0x40 MSTORE PUSH1 0x4 CALLDATASIZE LT PUSH2 0x3F JUMPI PUSH1 0x0 CALLDATALOAD PUSH1 0xE0 SHR DUP1 PUSH4 0x6A9D934 EQ PUSH2 0x44 JUMPI DUP1 PUSH4 0x3FA4F245 EQ PUSH2 0x74 JUMPI DUP1 PUSH4 0x8DA5CB5B EQ PUSH2 0x9F JUMPI DUP1 PUSH4 0xA72D2473 EQ PUSH2 0xCA JUMPI JUMPDEST PUSH1 0x0 DUP1 REVERT JUMPDEST PUSH2 0x5E PUSH1 0x4 DUP1 CALLDATASIZE SUB DUP2 ADD SWAP1 PUSH2 0x59 SWAP2 SWAP1 PUSH2 0x473 JUMP JUMPDEST PUSH2 0x107 JUMP JUMPDEST PUSH1 0x40 MLOAD PUSH2 0x6B SWAP2 SWAP1 PUSH2 0x556 JUMP JUMPDEST PUSH1 0x40 MLOAD DUP1 SWAP2 SUB SWAP1 RETURN JUMPDEST CALLVALUE DUP1 ISZERO PUSH2 0x80 JUMPI PUSH1 0x0 DUP1 REVERT JUMPDEST POP PUSH2 0x89 PUSH2 0x246 JUMP JUMPDEST PUSH1 0x40 MLOAD PUSH2 0x96 SWAP2 SWAP1 PUSH2 0x587 JUMP JUMPDEST PUSH1 0x40 MLOAD DUP1 SWAP2 SUB SWAP1 RETURN JUMPDEST CALLVALUE DUP1 ISZERO PUSH2 0xAB JUMPI PUSH1 0x0 DUP1 REVERT JUMPDEST POP PUSH2 0xB4 PUSH2 0x24C JUMP JUMPDEST PUSH1 0x40 MLOAD PUSH2 0xC1 SWAP2 SWAP1 PUSH2 0x5C3 JUMP JUMPDEST PUSH1 0x40 MLOAD DUP1 SWAP2 SUB SWAP1 RETURN JUMPDEST CALLVALUE DUP1 ISZERO PUSH2 0xD6 JUMPI PUSH1 0x0 DUP1 REVERT JUMPDEST POP PUSH2 0xF1 PUSH1 0x4 DUP1 CALLDATASIZE SUB DUP2 ADD SWAP1 PUSH2 0xEC SWAP2 SWAP1 PUSH2 0x473 JUMP JUMPDEST PUSH2 0x270 JUMP JUMPDEST PUSH1 0x40 MLOAD PUSH2 0xFE SWAP2 SWAP1 PUSH2 0x556 JUMP JUMPDEST PUSH1 0x40 MLOAD DUP1 SWAP2 SUB SWAP1 RETURN JUMPDEST PUSH1 0x60 PUSH1 0x0 DUP4 DUP4 PUSH1 0x40 MLOAD PUSH1 0x24 ADD PUSH2 0x11E SWAP3 SWAP2 SWAP1 PUSH2 0x5DE JUMP JUMPDEST PUSH1 0x40 MLOAD PUSH1 0x20 DUP2 DUP4 SUB SUB DUP2 MSTORE SWAP1 PUSH1 0x40 MSTORE PUSH32 0xB8D2A4C500000000000000000000000000000000000000000000000000000000 PUSH28 0xFFFFFFFFFFFFFFFFFFFFFFFFFFFFFFFFFFFFFFFFFFFFFFFFFFFFFFFF NOT AND PUSH1 0x20 DUP3 ADD DUP1 MLOAD PUSH28 0xFFFFFFFFFFFFFFFFFFFFFFFFFFFFFFFFFFFFFFFFFFFFFFFFFFFFFFFF DUP4 DUP2 DUP4 AND OR DUP4 MSTORE POP POP POP POP SWAP1 POP PUSH1 0x1 ISZERO ISZERO PUSH2 0x1AA DUP7 PUSH2 0x3AF JUMP JUMPDEST ISZERO ISZERO SUB PUSH2 0x23A JUMPI PUSH1 0x0 DUP1 DUP7 PUSH20 0xFFFFFFFFFFFFFFFFFFFFFFFFFFFFFFFFFFFFFFFF AND DUP4 PUSH1 0x40 MLOAD PUSH2 0x1D9 SWAP2 SWAP1 PUSH2 0x643 JUMP JUMPDEST PUSH1 0x0 PUSH1 0x40 MLOAD DUP1 DUP4 SUB DUP2 DUP6 GAS DELEGATECALL SWAP2 POP POP RETURNDATASIZE DUP1 PUSH1 0x0 DUP2 EQ PUSH2 0x214 JUMPI PUSH1 0x40 MLOAD SWAP2 POP PUSH1 0x1F NOT PUSH1 0x3F RETURNDATASIZE ADD AND DUP3 ADD PUSH1 0x40 MSTORE RETURNDATASIZE DUP3 MSTORE RETURNDATASIZE PUSH1 0x0 PUSH1 0x20 DUP5 ADD RETURNDATACOPY PUSH2 0x219 JUMP JUMPDEST PUSH1 0x60 SWAP2 POP JUMPDEST POP SWAP2 POP SWAP2 POP PUSH1 0x1 ISZERO ISZERO DUP3 ISZERO ISZERO SUB PUSH2 0x235 JUMPI DUP1 SWAP4 POP POP POP POP PUSH2 0x23F JUMP JUMPDEST PUSH1 0x0 DUP1 REVERT JUMPDEST PUSH1 0x0 DUP1 REVERT JUMPDEST SWAP4 SWAP3 POP POP POP JUMP JUMPDEST PUSH1 0x1 SLOAD DUP2 JUMP JUMPDEST PUSH1 0x0 DUP1 SLOAD SWAP1 PUSH2 0x100 EXP SWAP1 DIV PUSH20 0xFFFFFFFFFFFFFFFFFFFFFFFFFFFFFFFFFFFFFFFF AND DUP2 JUMP JUMPDEST PUSH1 0x60 PUSH1 0x0 DUP4 DUP4 PUSH1 0x40 MLOAD PUSH1 0x24 ADD PUSH2 0x287 SWAP3 SWAP2 SWAP1 PUSH2 0x5DE JUMP JUMPDEST PUSH1 0x40 MLOAD PUSH1 0x20 DUP2 DUP4 SUB SUB DUP2 MSTORE SWAP1 PUSH1 0x40 MSTORE PUSH32 0x771602F700000000000000000000000000000000000000000000000000000000 PUSH28 0xFFFFFFFFFFFFFFFFFFFFFFFFFFFFFFFFFFFFFFFFFFFFFFFFFFFFFFFF NOT AND PUSH1 0x20 DUP3 ADD DUP1 MLOAD PUSH28 0xFFFFFFFFFFFFFFFFFFFFFFFFFFFFFFFFFFFFFFFFFFFFFFFFFFFFFFFF DUP4 DUP2 DUP4 AND OR DUP4 MSTORE POP POP POP POP SWAP1 POP PUSH1 0x1 ISZERO ISZERO PUSH2 0x313 DUP7 PUSH2 0x3AF JUMP JUMPDEST ISZERO ISZERO SUB PUSH2 0x3A3 JUMPI PUSH1 0x0 DUP1 DUP7 PUSH20 0xFFFFFFFFFFFFFFFFFFFFFFFFFFFFFFFFFFFFFFFF AND DUP4 PUSH1 0x40 MLOAD PUSH2 0x342 SWAP2 SWAP1 PUSH2 0x643 JUMP JUMPDEST PUSH1 0x0 PUSH1 0x40 MLOAD DUP1 DUP4 SUB DUP2 DUP6 GAS DELEGATECALL SWAP2 POP POP RETURNDATASIZE DUP1 PUSH1 0x0 DUP2 EQ PUSH2 0x37D JUMPI PUSH1 0x40 MLOAD SWAP2 POP PUSH1 0x1F NOT PUSH1 0x3F RETURNDATASIZE ADD AND DUP3 ADD PUSH1 0x40 MSTORE RETURNDATASIZE DUP3 MSTORE RETURNDATASIZE PUSH1 0x0 PUSH1 0x20 DUP5 ADD RETURNDATACOPY PUSH2 0x382 JUMP JUMPDEST PUSH1 0x60 SWAP2 POP JUMPDEST POP SWAP2 POP SWAP2 POP PUSH1 0x1 ISZERO ISZERO DUP3 ISZERO ISZERO SUB PUSH2 0x39E JUMPI DUP1 SWAP4 POP POP POP POP PUSH2 0x3A8 JUMP JUMPDEST PUSH1 0x0 DUP1 REVERT JUMPDEST PUSH1 0x0 DUP1 REVERT JUMPDEST SWAP4 SWAP3 POP POP POP JUMP JUMPDEST PUSH1 0x0 DUP1 DUP3 EXTCODESIZE SWAP1 POP PUSH1 0x0 DUP2 PUSH4 0xFFFFFFFF AND GT ISZERO PUSH2 0x3CF JUMPI PUSH1 0x1 SWAP2 POP POP PUSH2 0x3D5 JUMP JUMPDEST PUSH1 0x0 SWAP2 POP POP JUMPDEST SWAP2 SWAP1 POP JUMP JUMPDEST PUSH1 0x0 DUP1 REVERT JUMPDEST PUSH1 0x0 PUSH20 0xFFFFFFFFFFFFFFFFFFFFFFFFFFFFFFFFFFFFFFFF DUP3 AND SWAP1 POP SWAP2 SWAP1 POP JUMP JUMPDEST PUSH1 0x0 PUSH2 0x40A DUP3 PUSH2 0x3DF JUMP JUMPDEST SWAP1 POP SWAP2 SWAP1 POP JUMP JUMPDEST PUSH2 0x41A DUP2 PUSH2 0x3FF JUMP JUMPDEST DUP2 EQ PUSH2 0x425 JUMPI PUSH1 0x0 DUP1 REVERT JUMPDEST POP JUMP JUMPDEST PUSH1 0x0 DUP2 CALLDATALOAD SWAP1 POP PUSH2 0x437 DUP2 PUSH2 0x411 JUMP JUMPDEST SWAP3 SWAP2 POP POP JUMP JUMPDEST PUSH1 0x0 DUP2 SWAP1 POP SWAP2 SWAP1 POP JUMP JUMPDEST PUSH2 0x450 DUP2 PUSH2 0x43D JUMP JUMPDEST DUP2 EQ PUSH2 0x45B JUMPI PUSH1 0x0 DUP1 REVERT JUMPDEST POP JUMP JUMPDEST PUSH1 0x0 DUP2 CALLDATALOAD SWAP1 POP PUSH2 0x46D DUP2 PUSH2 0x447 JUMP JUMPDEST SWAP3 SWAP2 POP POP JUMP JUMPDEST PUSH1 0x0 DUP1 PUSH1 0x0 PUSH1 0x60 DUP5 DUP7 SUB SLT ISZERO PUSH2 0x48C JUMPI PUSH2 0x48B PUSH2 0x3DA JUMP JUMPDEST JUMPDEST PUSH1 0x0 PUSH2 0x49A DUP7 DUP3 DUP8 ADD PUSH2 0x428 JUMP JUMPDEST SWAP4 POP POP PUSH1 0x20 PUSH2 0x4AB DUP7 DUP3 DUP8 ADD PUSH2 0x45E JUMP JUMPDEST SWAP3 POP POP PUSH1 0x40 PUSH2 0x4BC DUP7 DUP3 DUP8 ADD PUSH2 0x45E JUMP JUMPDEST SWAP2 POP POP SWAP3 POP SWAP3 POP SWAP3 JUMP JUMPDEST PUSH1 0x0 DUP2 MLOAD SWAP1 POP SWAP2 SWAP1 POP JUMP JUMPDEST PUSH1 0x0 DUP3 DUP3 MSTORE PUSH1 0x20 DUP3 ADD SWAP1 POP SWAP3 SWAP2 POP POP JUMP JUMPDEST PUSH1 0x0 JUMPDEST DUP4 DUP2 LT ISZERO PUSH2 0x500 JUMPI DUP1 DUP3 ADD MLOAD DUP2 DUP5 ADD MSTORE PUSH1 0x20 DUP2 ADD SWAP1 POP PUSH2 0x4E5 JUMP JUMPDEST PUSH1 0x0 DUP5 DUP5 ADD MSTORE POP POP POP POP JUMP JUMPDEST PUSH1 0x0 PUSH1 0x1F NOT PUSH1 0x1F DUP4 ADD AND SWAP1 POP SWAP2 SWAP1 POP JUMP JUMPDEST PUSH1 0x0 PUSH2 0x528 DUP3 PUSH2 0x4C6 JUMP JUMPDEST PUSH2 0x532 DUP2 DUP6 PUSH2 0x4D1 JUMP JUMPDEST SWAP4 POP PUSH2 0x542 DUP2 DUP6 PUSH1 0x20 DUP7 ADD PUSH2 0x4E2 JUMP JUMPDEST PUSH2 0x54B DUP2 PUSH2 0x50C JUMP JUMPDEST DUP5 ADD SWAP2 POP POP SWAP3 SWAP2 POP POP JUMP JUMPDEST PUSH1 0x0 PUSH1 0x20 DUP3 ADD SWAP1 POP DUP2 DUP2 SUB PUSH1 0x0 DUP4 ADD MSTORE PUSH2 0x570 DUP2 DUP5 PUSH2 0x51D JUMP JUMPDEST SWAP1 POP SWAP3 SWAP2 POP POP JUMP JUMPDEST PUSH2 0x581 DUP2 PUSH2 0x43D JUMP JUMPDEST DUP3 MSTORE POP POP JUMP JUMPDEST PUSH1 0x0 PUSH1 0x20 DUP3 ADD SWAP1 POP PUSH2 0x59C PUSH1 0x0 DUP4 ADD DUP5 PUSH2 0x578 JUMP JUMPDEST SWAP3 SWAP2 POP POP JUMP JUMPDEST PUSH1 0x0 PUSH2 0x5AD DUP3 PUSH2 0x3DF JUMP JUMPDEST SWAP1 POP SWAP2 SWAP1 POP JUMP JUMPDEST PUSH2 0x5BD DUP2 PUSH2 0x5A2 JUMP JUMPDEST DUP3 MSTORE POP POP JUMP JUMPDEST PUSH1 0x0 PUSH1 0x20 DUP3 ADD SWAP1 POP PUSH2 0x5D8 PUSH1 0x0 DUP4 ADD DUP5 PUSH2 0x5B4 JUMP JUMPDEST SWAP3 SWAP2 POP POP JUMP JUMPDEST PUSH1 0x0 PUSH1 0x40 DUP3 ADD SWAP1 POP PUSH2 0x5F3 PUSH1 0x0 DUP4 ADD DUP6 PUSH2 0x578 JUMP JUMPDEST PUSH2 0x600 PUSH1 0x20 DUP4 ADD DUP5 PUSH2 0x578 JUMP JUMPDEST SWAP4 SWAP3 POP POP POP JUMP JUMPDEST PUSH1 0x0 DUP2 SWAP1 POP SWAP3 SWAP2 POP POP JUMP JUMPDEST PUSH1 0x0 PUSH2 0x61D DUP3 PUSH2 0x4C6 JUMP JUMPDEST PUSH2 0x627 DUP2 DUP6 PUSH2 0x607 JUMP JUMPDEST SWAP4 POP PUSH2 0x637 DUP2 DUP6 PUSH1 0x20 DUP7 ADD PUSH2 0x4E2 JUMP JUMPDEST DUP1 DUP5 ADD SWAP2 POP POP SWAP3 SWAP2 POP POP JUMP JUMPDEST PUSH1 0x0 PUSH2 0x64F DUP3 DUP5 PUSH2 0x612 JUMP JUMPDEST SWAP2 POP DUP2 SWAP1 POP SWAP3 SWAP2 POP POP JUMP INVALID LOG2 PUSH5 0x6970667358 0x22 SLT KECCAK256 SELFDESTRUCT 0xA6 0xBD GASPRICE SWAP1 PUSH7 0x8E4BE6B028753F DUP16 REVERT SUB 0xE0 PUSH12 0x299827F8E86CF8C9CA645A64 DUP1 BALANCE PUSH5 0x736F6C6343 STOP ADDMOD SLT STOP CALLER "
				},
				"gasEstimates": {
					"creation": {
						"codeDepositCost": "336000",
						"executionCost": "374",
						"totalCost": "336374"
					},
					"external": {
						"callFunc(address,uint256,uint256)": "infinite",
						"callNotFunc(address,uint256,uint256)": "infinite",
						"owner()": "2533",
						"value()": "2429"
					},
					"internal": {
						"isContract(address)": "2684"
					}
				},
				"methodIdentifiers": {
					"callFunc(address,uint256,uint256)": "a72d2473",
					"callNotFunc(address,uint256,uint256)": "06a9d934",
					"owner()": "8da5cb5b",
					"value()": "3fa4f245"
				}
			},
			"storageLayout": {
				"storage": [
					{
						"astId": 50,
						"contract": "ex16 call/delegate.sol:DelegateCallFunc",
						"label": "owner",
						"offset": 0,
						"slot": "0",
						"type": "t_address"
					},
					{
						"astId": 52,
						"contract": "ex16 call/delegate.sol:DelegateCallFunc",
						"label": "value",
						"offset": 0,
						"slot": "1",
						"type": "t_uint256"
					}
				],
				"types": {
					"t_address": {
						"encoding": "inplace",
						"label": "address",
						"numberOfBytes": "20"
					},
					"t_uint256": {
						"encoding": "inplace",
						"label": "uint256",
						"numberOfBytes": "32"
					}
				}
			},
			"userdoc": {
				"kind": "user",
				"methods": {},
				"version": 1
			}
		}
	}
}